{
	"contracts/LearnSendETH.sol": {
		"LearnSendETH": {
			"abi": [
				{
					"inputs": [],
					"stateMutability": "nonpayable",
					"type": "constructor"
				},
				{
					"inputs": [],
					"name": "admin",
					"outputs": [
						{
							"internalType": "address",
							"name": "",
							"type": "address"
						}
					],
					"stateMutability": "view",
					"type": "function"
				},
				{
					"inputs": [],
					"name": "deposit",
					"outputs": [],
					"stateMutability": "payable",
					"type": "function"
				},
				{
					"inputs": [],
					"name": "getBalance",
					"outputs": [
						{
							"internalType": "uint256",
							"name": "",
							"type": "uint256"
						}
					],
					"stateMutability": "view",
					"type": "function"
				},
				{
					"inputs": [
						{
							"internalType": "address",
							"name": "",
							"type": "address"
						}
					],
					"name": "scholarships",
					"outputs": [
						{
							"internalType": "uint256",
							"name": "",
							"type": "uint256"
						}
					],
					"stateMutability": "view",
					"type": "function"
				},
				{
					"inputs": [
						{
							"internalType": "address",
							"name": "_student",
							"type": "address"
						},
						{
							"internalType": "uint256",
							"name": "_amount",
							"type": "uint256"
						}
					],
					"name": "sendScholarship",
					"outputs": [],
					"stateMutability": "nonpayable",
					"type": "function"
				}
			],
			"devdoc": {
				"kind": "dev",
				"methods": {},
				"version": 1
			},
			"evm": {
				"assembly": "    /* \"contracts/LearnSendETH.sol\":58:833  contract LearnSendETH {... */\n  mstore(0x40, 0x80)\n    /* \"contracts/LearnSendETH.sol\":166:215  constructor() {... */\n  callvalue\n  dup1\n  iszero\n  tag_1\n  jumpi\n  revert(0x00, 0x00)\ntag_1:\n  pop\n    /* \"contracts/LearnSendETH.sol\":198:208  msg.sender */\n  caller\n    /* \"contracts/LearnSendETH.sol\":190:195  admin */\n  0x00\n  0x00\n    /* \"contracts/LearnSendETH.sol\":190:208  admin = msg.sender */\n  0x0100\n  exp\n  dup2\n  sload\n  dup2\n  0xffffffffffffffffffffffffffffffffffffffff\n  mul\n  not\n  and\n  swap1\n  dup4\n  0xffffffffffffffffffffffffffffffffffffffff\n  and\n  mul\n  or\n  swap1\n  sstore\n  pop\n    /* \"contracts/LearnSendETH.sol\":58:833  contract LearnSendETH {... */\n  dataSize(sub_0)\n  dup1\n  dataOffset(sub_0)\n  0x00\n  codecopy\n  0x00\n  return\nstop\n\nsub_0: assembly {\n        /* \"contracts/LearnSendETH.sol\":58:833  contract LearnSendETH {... */\n      mstore(0x40, 0x80)\n      jumpi(tag_1, lt(calldatasize, 0x04))\n      shr(0xe0, calldataload(0x00))\n      dup1\n      0x12065fe0\n      eq\n      tag_2\n      jumpi\n      dup1\n      0x29e5e9b5\n      eq\n      tag_3\n      jumpi\n      dup1\n      0x61062962\n      eq\n      tag_4\n      jumpi\n      dup1\n      0xd0e30db0\n      eq\n      tag_5\n      jumpi\n      dup1\n      0xf851a440\n      eq\n      tag_6\n      jumpi\n    tag_1:\n      revert(0x00, 0x00)\n        /* \"contracts/LearnSendETH.sol\":734:831  function getBalance() public view returns (uint256) {... */\n    tag_2:\n      callvalue\n      dup1\n      iszero\n      tag_7\n      jumpi\n      revert(0x00, 0x00)\n    tag_7:\n      pop\n      tag_8\n      tag_9\n      jump\t// in\n    tag_8:\n      mload(0x40)\n      tag_10\n      swap2\n      swap1\n      tag_11\n      jump\t// in\n    tag_10:\n      mload(0x40)\n      dup1\n      swap2\n      sub\n      swap1\n      return\n        /* \"contracts/LearnSendETH.sol\":340:711  function sendScholarship(address _student, uint256 _amount) public {... */\n    tag_3:\n      callvalue\n      dup1\n      iszero\n      tag_12\n      jumpi\n      revert(0x00, 0x00)\n    tag_12:\n      pop\n      tag_13\n      0x04\n      dup1\n      calldatasize\n      sub\n      dup2\n      add\n      swap1\n      tag_14\n      swap2\n      swap1\n      tag_15\n      jump\t// in\n    tag_14:\n      tag_16\n      jump\t// in\n    tag_13:\n      stop\n        /* \"contracts/LearnSendETH.sol\":112:159  mapping(address => uint256) public scholarships */\n    tag_4:\n      callvalue\n      dup1\n      iszero\n      tag_17\n      jumpi\n      revert(0x00, 0x00)\n    tag_17:\n      pop\n      tag_18\n      0x04\n      dup1\n      calldatasize\n      sub\n      dup2\n      add\n      swap1\n      tag_19\n      swap2\n      swap1\n      tag_20\n      jump\t// in\n    tag_19:\n      tag_21\n      jump\t// in\n    tag_18:\n      mload(0x40)\n      tag_22\n      swap2\n      swap1\n      tag_11\n      jump\t// in\n    tag_22:\n      mload(0x40)\n      dup1\n      swap2\n      sub\n      swap1\n      return\n        /* \"contracts/LearnSendETH.sol\":262:298  function deposit() public payable {} */\n    tag_5:\n      tag_23\n      tag_24\n      jump\t// in\n    tag_23:\n      stop\n        /* \"contracts/LearnSendETH.sol\":86:106  address public admin */\n    tag_6:\n      callvalue\n      dup1\n      iszero\n      tag_25\n      jumpi\n      revert(0x00, 0x00)\n    tag_25:\n      pop\n      tag_26\n      tag_27\n      jump\t// in\n    tag_26:\n      mload(0x40)\n      tag_28\n      swap2\n      swap1\n      tag_29\n      jump\t// in\n    tag_28:\n      mload(0x40)\n      dup1\n      swap2\n      sub\n      swap1\n      return\n        /* \"contracts/LearnSendETH.sol\":734:831  function getBalance() public view returns (uint256) {... */\n    tag_9:\n        /* \"contracts/LearnSendETH.sol\":777:784  uint256 */\n      0x00\n        /* \"contracts/LearnSendETH.sol\":803:824  address(this).balance */\n      selfbalance\n        /* \"contracts/LearnSendETH.sol\":796:824  return address(this).balance */\n      swap1\n      pop\n        /* \"contracts/LearnSendETH.sol\":734:831  function getBalance() public view returns (uint256) {... */\n      swap1\n      jump\t// out\n        /* \"contracts/LearnSendETH.sol\":340:711  function sendScholarship(address _student, uint256 _amount) public {... */\n    tag_16:\n        /* \"contracts/LearnSendETH.sol\":439:444  admin */\n      0x00\n      0x00\n      swap1\n      sload\n      swap1\n      0x0100\n      exp\n      swap1\n      div\n      0xffffffffffffffffffffffffffffffffffffffff\n      and\n        /* \"contracts/LearnSendETH.sol\":425:444  msg.sender == admin */\n      0xffffffffffffffffffffffffffffffffffffffff\n      and\n        /* \"contracts/LearnSendETH.sol\":425:435  msg.sender */\n      caller\n        /* \"contracts/LearnSendETH.sol\":425:444  msg.sender == admin */\n      0xffffffffffffffffffffffffffffffffffffffff\n      and\n      eq\n        /* \"contracts/LearnSendETH.sol\":417:460  require(msg.sender == admin, \"Hanya admin\") */\n      tag_32\n      jumpi\n      mload(0x40)\n      0x08c379a000000000000000000000000000000000000000000000000000000000\n      dup2\n      mstore\n      0x04\n      add\n      tag_33\n      swap1\n      tag_34\n      jump\t// in\n    tag_33:\n      mload(0x40)\n      dup1\n      swap2\n      sub\n      swap1\n      revert\n    tag_32:\n        /* \"contracts/LearnSendETH.sol\":503:510  _amount */\n      dup1\n        /* \"contracts/LearnSendETH.sol\":478:499  address(this).balance */\n      selfbalance\n        /* \"contracts/LearnSendETH.sol\":478:510  address(this).balance >= _amount */\n      lt\n      iszero\n        /* \"contracts/LearnSendETH.sol\":470:532  require(address(this).balance >= _amount, \"Saldo tidak cukup\") */\n      tag_35\n      jumpi\n      mload(0x40)\n      0x08c379a000000000000000000000000000000000000000000000000000000000\n      dup2\n      mstore\n      0x04\n      add\n      tag_36\n      swap1\n      tag_37\n      jump\t// in\n    tag_36:\n      mload(0x40)\n      dup1\n      swap2\n      sub\n      swap1\n      revert\n    tag_35:\n        /* \"contracts/LearnSendETH.sol\":565:577  bool success */\n      0x00\n        /* \"contracts/LearnSendETH.sol\":583:591  _student */\n      dup3\n        /* \"contracts/LearnSendETH.sol\":583:596  _student.call */\n      0xffffffffffffffffffffffffffffffffffffffff\n      and\n        /* \"contracts/LearnSendETH.sol\":604:611  _amount */\n      dup3\n        /* \"contracts/LearnSendETH.sol\":583:616  _student.call{value: _amount}(\"\") */\n      mload(0x40)\n      tag_38\n      swap1\n      tag_39\n      jump\t// in\n    tag_38:\n      0x00\n      mload(0x40)\n      dup1\n      dup4\n      sub\n      dup2\n      dup6\n      dup8\n      gas\n      call\n      swap3\n      pop\n      pop\n      pop\n      returndatasize\n      dup1\n      0x00\n      dup2\n      eq\n      tag_42\n      jumpi\n      mload(0x40)\n      swap2\n      pop\n      and(add(returndatasize, 0x3f), not(0x1f))\n      dup3\n      add\n      0x40\n      mstore\n      returndatasize\n      dup3\n      mstore\n      returndatasize\n      0x00\n      0x20\n      dup5\n      add\n      returndatacopy\n      jump(tag_41)\n    tag_42:\n      0x60\n      swap2\n      pop\n    tag_41:\n      pop\n        /* \"contracts/LearnSendETH.sol\":564:616  (bool success, ) = _student.call{value: _amount}(\"\") */\n      pop\n      swap1\n      pop\n        /* \"contracts/LearnSendETH.sol\":634:641  success */\n      dup1\n        /* \"contracts/LearnSendETH.sol\":626:660  require(success, \"Transfer gagal\") */\n      tag_43\n      jumpi\n      mload(0x40)\n      0x08c379a000000000000000000000000000000000000000000000000000000000\n      dup2\n      mstore\n      0x04\n      add\n      tag_44\n      swap1\n      tag_45\n      jump\t// in\n    tag_44:\n      mload(0x40)\n      dup1\n      swap2\n      sub\n      swap1\n      revert\n    tag_43:\n        /* \"contracts/LearnSendETH.sol\":697:704  _amount */\n      dup2\n        /* \"contracts/LearnSendETH.sol\":671:683  scholarships */\n      0x01\n        /* \"contracts/LearnSendETH.sol\":671:693  scholarships[_student] */\n      0x00\n        /* \"contracts/LearnSendETH.sol\":684:692  _student */\n      dup6\n        /* \"contracts/LearnSendETH.sol\":671:693  scholarships[_student] */\n      0xffffffffffffffffffffffffffffffffffffffff\n      and\n      0xffffffffffffffffffffffffffffffffffffffff\n      and\n      dup2\n      mstore\n      0x20\n      add\n      swap1\n      dup2\n      mstore\n      0x20\n      add\n      0x00\n      keccak256\n      0x00\n        /* \"contracts/LearnSendETH.sol\":671:704  scholarships[_student] += _amount */\n      dup3\n      dup3\n      sload\n      tag_46\n      swap2\n      swap1\n      tag_47\n      jump\t// in\n    tag_46:\n      swap3\n      pop\n      pop\n      dup2\n      swap1\n      sstore\n      pop\n        /* \"contracts/LearnSendETH.sol\":407:711  {... */\n      pop\n        /* \"contracts/LearnSendETH.sol\":340:711  function sendScholarship(address _student, uint256 _amount) public {... */\n      pop\n      pop\n      jump\t// out\n        /* \"contracts/LearnSendETH.sol\":112:159  mapping(address => uint256) public scholarships */\n    tag_21:\n      mstore(0x20, 0x01)\n      dup1\n      0x00\n      mstore\n      keccak256(0x00, 0x40)\n      0x00\n      swap2\n      pop\n      swap1\n      pop\n      sload\n      dup2\n      jump\t// out\n        /* \"contracts/LearnSendETH.sol\":262:298  function deposit() public payable {} */\n    tag_24:\n      jump\t// out\n        /* \"contracts/LearnSendETH.sol\":86:106  address public admin */\n    tag_27:\n      0x00\n      0x00\n      swap1\n      sload\n      swap1\n      0x0100\n      exp\n      swap1\n      div\n      0xffffffffffffffffffffffffffffffffffffffff\n      and\n      dup2\n      jump\t// out\n        /* \"#utility.yul\":7:84   */\n    tag_49:\n        /* \"#utility.yul\":44:51   */\n      0x00\n        /* \"#utility.yul\":73:78   */\n      dup2\n        /* \"#utility.yul\":62:78   */\n      swap1\n      pop\n        /* \"#utility.yul\":7:84   */\n      swap2\n      swap1\n      pop\n      jump\t// out\n        /* \"#utility.yul\":90:208   */\n    tag_50:\n        /* \"#utility.yul\":177:201   */\n      tag_75\n        /* \"#utility.yul\":195:200   */\n      dup2\n        /* \"#utility.yul\":177:201   */\n      tag_49\n      jump\t// in\n    tag_75:\n        /* \"#utility.yul\":172:175   */\n      dup3\n        /* \"#utility.yul\":165:202   */\n      mstore\n        /* \"#utility.yul\":90:208   */\n      pop\n      pop\n      jump\t// out\n        /* \"#utility.yul\":214:436   */\n    tag_11:\n        /* \"#utility.yul\":307:311   */\n      0x00\n        /* \"#utility.yul\":345:347   */\n      0x20\n        /* \"#utility.yul\":334:343   */\n      dup3\n        /* \"#utility.yul\":330:348   */\n      add\n        /* \"#utility.yul\":322:348   */\n      swap1\n      pop\n        /* \"#utility.yul\":358:429   */\n      tag_77\n        /* \"#utility.yul\":426:427   */\n      0x00\n        /* \"#utility.yul\":415:424   */\n      dup4\n        /* \"#utility.yul\":411:428   */\n      add\n        /* \"#utility.yul\":402:408   */\n      dup5\n        /* \"#utility.yul\":358:429   */\n      tag_50\n      jump\t// in\n    tag_77:\n        /* \"#utility.yul\":214:436   */\n      swap3\n      swap2\n      pop\n      pop\n      jump\t// out\n        /* \"#utility.yul\":523:640   */\n    tag_52:\n        /* \"#utility.yul\":632:633   */\n      0x00\n        /* \"#utility.yul\":629:630   */\n      0x00\n        /* \"#utility.yul\":622:634   */\n      revert\n        /* \"#utility.yul\":769:895   */\n    tag_54:\n        /* \"#utility.yul\":806:813   */\n      0x00\n        /* \"#utility.yul\":846:888   */\n      0xffffffffffffffffffffffffffffffffffffffff\n        /* \"#utility.yul\":839:844   */\n      dup3\n        /* \"#utility.yul\":835:889   */\n      and\n        /* \"#utility.yul\":824:889   */\n      swap1\n      pop\n        /* \"#utility.yul\":769:895   */\n      swap2\n      swap1\n      pop\n      jump\t// out\n        /* \"#utility.yul\":901:997   */\n    tag_55:\n        /* \"#utility.yul\":938:945   */\n      0x00\n        /* \"#utility.yul\":967:991   */\n      tag_83\n        /* \"#utility.yul\":985:990   */\n      dup3\n        /* \"#utility.yul\":967:991   */\n      tag_54\n      jump\t// in\n    tag_83:\n        /* \"#utility.yul\":956:991   */\n      swap1\n      pop\n        /* \"#utility.yul\":901:997   */\n      swap2\n      swap1\n      pop\n      jump\t// out\n        /* \"#utility.yul\":1003:1125   */\n    tag_56:\n        /* \"#utility.yul\":1076:1100   */\n      tag_85\n        /* \"#utility.yul\":1094:1099   */\n      dup2\n        /* \"#utility.yul\":1076:1100   */\n      tag_55\n      jump\t// in\n    tag_85:\n        /* \"#utility.yul\":1069:1074   */\n      dup2\n        /* \"#utility.yul\":1066:1101   */\n      eq\n        /* \"#utility.yul\":1056:1119   */\n      tag_86\n      jumpi\n        /* \"#utility.yul\":1115:1116   */\n      0x00\n        /* \"#utility.yul\":1112:1113   */\n      0x00\n        /* \"#utility.yul\":1105:1117   */\n      revert\n        /* \"#utility.yul\":1056:1119   */\n    tag_86:\n        /* \"#utility.yul\":1003:1125   */\n      pop\n      jump\t// out\n        /* \"#utility.yul\":1131:1270   */\n    tag_57:\n        /* \"#utility.yul\":1177:1182   */\n      0x00\n        /* \"#utility.yul\":1215:1221   */\n      dup2\n        /* \"#utility.yul\":1202:1222   */\n      calldataload\n        /* \"#utility.yul\":1193:1222   */\n      swap1\n      pop\n        /* \"#utility.yul\":1231:1264   */\n      tag_88\n        /* \"#utility.yul\":1258:1263   */\n      dup2\n        /* \"#utility.yul\":1231:1264   */\n      tag_56\n      jump\t// in\n    tag_88:\n        /* \"#utility.yul\":1131:1270   */\n      swap3\n      swap2\n      pop\n      pop\n      jump\t// out\n        /* \"#utility.yul\":1276:1398   */\n    tag_58:\n        /* \"#utility.yul\":1349:1373   */\n      tag_90\n        /* \"#utility.yul\":1367:1372   */\n      dup2\n        /* \"#utility.yul\":1349:1373   */\n      tag_49\n      jump\t// in\n    tag_90:\n        /* \"#utility.yul\":1342:1347   */\n      dup2\n        /* \"#utility.yul\":1339:1374   */\n      eq\n        /* \"#utility.yul\":1329:1392   */\n      tag_91\n      jumpi\n        /* \"#utility.yul\":1388:1389   */\n      0x00\n        /* \"#utility.yul\":1385:1386   */\n      0x00\n        /* \"#utility.yul\":1378:1390   */\n      revert\n        /* \"#utility.yul\":1329:1392   */\n    tag_91:\n        /* \"#utility.yul\":1276:1398   */\n      pop\n      jump\t// out\n        /* \"#utility.yul\":1404:1543   */\n    tag_59:\n        /* \"#utility.yul\":1450:1455   */\n      0x00\n        /* \"#utility.yul\":1488:1494   */\n      dup2\n        /* \"#utility.yul\":1475:1495   */\n      calldataload\n        /* \"#utility.yul\":1466:1495   */\n      swap1\n      pop\n        /* \"#utility.yul\":1504:1537   */\n      tag_93\n        /* \"#utility.yul\":1531:1536   */\n      dup2\n        /* \"#utility.yul\":1504:1537   */\n      tag_58\n      jump\t// in\n    tag_93:\n        /* \"#utility.yul\":1404:1543   */\n      swap3\n      swap2\n      pop\n      pop\n      jump\t// out\n        /* \"#utility.yul\":1549:2023   */\n    tag_15:\n        /* \"#utility.yul\":1617:1623   */\n      0x00\n        /* \"#utility.yul\":1625:1631   */\n      0x00\n        /* \"#utility.yul\":1674:1676   */\n      0x40\n        /* \"#utility.yul\":1662:1671   */\n      dup4\n        /* \"#utility.yul\":1653:1660   */\n      dup6\n        /* \"#utility.yul\":1649:1672   */\n      sub\n        /* \"#utility.yul\":1645:1677   */\n      slt\n        /* \"#utility.yul\":1642:1761   */\n      iszero\n      tag_95\n      jumpi\n        /* \"#utility.yul\":1680:1759   */\n      tag_96\n      tag_52\n      jump\t// in\n    tag_96:\n        /* \"#utility.yul\":1642:1761   */\n    tag_95:\n        /* \"#utility.yul\":1800:1801   */\n      0x00\n        /* \"#utility.yul\":1825:1878   */\n      tag_97\n        /* \"#utility.yul\":1870:1877   */\n      dup6\n        /* \"#utility.yul\":1861:1867   */\n      dup3\n        /* \"#utility.yul\":1850:1859   */\n      dup7\n        /* \"#utility.yul\":1846:1868   */\n      add\n        /* \"#utility.yul\":1825:1878   */\n      tag_57\n      jump\t// in\n    tag_97:\n        /* \"#utility.yul\":1815:1878   */\n      swap3\n      pop\n        /* \"#utility.yul\":1771:1888   */\n      pop\n        /* \"#utility.yul\":1927:1929   */\n      0x20\n        /* \"#utility.yul\":1953:2006   */\n      tag_98\n        /* \"#utility.yul\":1998:2005   */\n      dup6\n        /* \"#utility.yul\":1989:1995   */\n      dup3\n        /* \"#utility.yul\":1978:1987   */\n      dup7\n        /* \"#utility.yul\":1974:1996   */\n      add\n        /* \"#utility.yul\":1953:2006   */\n      tag_59\n      jump\t// in\n    tag_98:\n        /* \"#utility.yul\":1943:2006   */\n      swap2\n      pop\n        /* \"#utility.yul\":1898:2016   */\n      pop\n        /* \"#utility.yul\":1549:2023   */\n      swap3\n      pop\n      swap3\n      swap1\n      pop\n      jump\t// out\n        /* \"#utility.yul\":2029:2358   */\n    tag_20:\n        /* \"#utility.yul\":2088:2094   */\n      0x00\n        /* \"#utility.yul\":2137:2139   */\n      0x20\n        /* \"#utility.yul\":2125:2134   */\n      dup3\n        /* \"#utility.yul\":2116:2123   */\n      dup5\n        /* \"#utility.yul\":2112:2135   */\n      sub\n        /* \"#utility.yul\":2108:2140   */\n      slt\n        /* \"#utility.yul\":2105:2224   */\n      iszero\n      tag_100\n      jumpi\n        /* \"#utility.yul\":2143:2222   */\n      tag_101\n      tag_52\n      jump\t// in\n    tag_101:\n        /* \"#utility.yul\":2105:2224   */\n    tag_100:\n        /* \"#utility.yul\":2263:2264   */\n      0x00\n        /* \"#utility.yul\":2288:2341   */\n      tag_102\n        /* \"#utility.yul\":2333:2340   */\n      dup5\n        /* \"#utility.yul\":2324:2330   */\n      dup3\n        /* \"#utility.yul\":2313:2322   */\n      dup6\n        /* \"#utility.yul\":2309:2331   */\n      add\n        /* \"#utility.yul\":2288:2341   */\n      tag_57\n      jump\t// in\n    tag_102:\n        /* \"#utility.yul\":2278:2341   */\n      swap2\n      pop\n        /* \"#utility.yul\":2234:2351   */\n      pop\n        /* \"#utility.yul\":2029:2358   */\n      swap3\n      swap2\n      pop\n      pop\n      jump\t// out\n        /* \"#utility.yul\":2364:2482   */\n    tag_60:\n        /* \"#utility.yul\":2451:2475   */\n      tag_104\n        /* \"#utility.yul\":2469:2474   */\n      dup2\n        /* \"#utility.yul\":2451:2475   */\n      tag_55\n      jump\t// in\n    tag_104:\n        /* \"#utility.yul\":2446:2449   */\n      dup3\n        /* \"#utility.yul\":2439:2476   */\n      mstore\n        /* \"#utility.yul\":2364:2482   */\n      pop\n      pop\n      jump\t// out\n        /* \"#utility.yul\":2488:2710   */\n    tag_29:\n        /* \"#utility.yul\":2581:2585   */\n      0x00\n        /* \"#utility.yul\":2619:2621   */\n      0x20\n        /* \"#utility.yul\":2608:2617   */\n      dup3\n        /* \"#utility.yul\":2604:2622   */\n      add\n        /* \"#utility.yul\":2596:2622   */\n      swap1\n      pop\n        /* \"#utility.yul\":2632:2703   */\n      tag_106\n        /* \"#utility.yul\":2700:2701   */\n      0x00\n        /* \"#utility.yul\":2689:2698   */\n      dup4\n        /* \"#utility.yul\":2685:2702   */\n      add\n        /* \"#utility.yul\":2676:2682   */\n      dup5\n        /* \"#utility.yul\":2632:2703   */\n      tag_60\n      jump\t// in\n    tag_106:\n        /* \"#utility.yul\":2488:2710   */\n      swap3\n      swap2\n      pop\n      pop\n      jump\t// out\n        /* \"#utility.yul\":2716:2885   */\n    tag_61:\n        /* \"#utility.yul\":2800:2811   */\n      0x00\n        /* \"#utility.yul\":2834:2840   */\n      dup3\n        /* \"#utility.yul\":2829:2832   */\n      dup3\n        /* \"#utility.yul\":2822:2841   */\n      mstore\n        /* \"#utility.yul\":2874:2878   */\n      0x20\n        /* \"#utility.yul\":2869:2872   */\n      dup3\n        /* \"#utility.yul\":2865:2879   */\n      add\n        /* \"#utility.yul\":2850:2879   */\n      swap1\n      pop\n        /* \"#utility.yul\":2716:2885   */\n      swap3\n      swap2\n      pop\n      pop\n      jump\t// out\n        /* \"#utility.yul\":2891:3052   */\n    tag_62:\n        /* \"#utility.yul\":3031:3044   */\n      0x48616e79612061646d696e000000000000000000000000000000000000000000\n        /* \"#utility.yul\":3027:3028   */\n      0x00\n        /* \"#utility.yul\":3019:3025   */\n      dup3\n        /* \"#utility.yul\":3015:3029   */\n      add\n        /* \"#utility.yul\":3008:3045   */\n      mstore\n        /* \"#utility.yul\":2891:3052   */\n      pop\n      jump\t// out\n        /* \"#utility.yul\":3058:3424   */\n    tag_63:\n        /* \"#utility.yul\":3200:3203   */\n      0x00\n        /* \"#utility.yul\":3221:3288   */\n      tag_110\n        /* \"#utility.yul\":3285:3287   */\n      0x0b\n        /* \"#utility.yul\":3280:3283   */\n      dup4\n        /* \"#utility.yul\":3221:3288   */\n      tag_61\n      jump\t// in\n    tag_110:\n        /* \"#utility.yul\":3214:3288   */\n      swap2\n      pop\n        /* \"#utility.yul\":3297:3390   */\n      tag_111\n        /* \"#utility.yul\":3386:3389   */\n      dup3\n        /* \"#utility.yul\":3297:3390   */\n      tag_62\n      jump\t// in\n    tag_111:\n        /* \"#utility.yul\":3415:3417   */\n      0x20\n        /* \"#utility.yul\":3410:3413   */\n      dup3\n        /* \"#utility.yul\":3406:3418   */\n      add\n        /* \"#utility.yul\":3399:3418   */\n      swap1\n      pop\n        /* \"#utility.yul\":3058:3424   */\n      swap2\n      swap1\n      pop\n      jump\t// out\n        /* \"#utility.yul\":3430:3849   */\n    tag_34:\n        /* \"#utility.yul\":3596:3600   */\n      0x00\n        /* \"#utility.yul\":3634:3636   */\n      0x20\n        /* \"#utility.yul\":3623:3632   */\n      dup3\n        /* \"#utility.yul\":3619:3637   */\n      add\n        /* \"#utility.yul\":3611:3637   */\n      swap1\n      pop\n        /* \"#utility.yul\":3683:3692   */\n      dup2\n        /* \"#utility.yul\":3677:3681   */\n      dup2\n        /* \"#utility.yul\":3673:3693   */\n      sub\n        /* \"#utility.yul\":3669:3670   */\n      0x00\n        /* \"#utility.yul\":3658:3667   */\n      dup4\n        /* \"#utility.yul\":3654:3671   */\n      add\n        /* \"#utility.yul\":3647:3694   */\n      mstore\n        /* \"#utility.yul\":3711:3842   */\n      tag_113\n        /* \"#utility.yul\":3837:3841   */\n      dup2\n        /* \"#utility.yul\":3711:3842   */\n      tag_63\n      jump\t// in\n    tag_113:\n        /* \"#utility.yul\":3703:3842   */\n      swap1\n      pop\n        /* \"#utility.yul\":3430:3849   */\n      swap2\n      swap1\n      pop\n      jump\t// out\n        /* \"#utility.yul\":3855:4022   */\n    tag_64:\n        /* \"#utility.yul\":3995:4014   */\n      0x53616c646f20746964616b2063756b7570000000000000000000000000000000\n        /* \"#utility.yul\":3991:3992   */\n      0x00\n        /* \"#utility.yul\":3983:3989   */\n      dup3\n        /* \"#utility.yul\":3979:3993   */\n      add\n        /* \"#utility.yul\":3972:4015   */\n      mstore\n        /* \"#utility.yul\":3855:4022   */\n      pop\n      jump\t// out\n        /* \"#utility.yul\":4028:4394   */\n    tag_65:\n        /* \"#utility.yul\":4170:4173   */\n      0x00\n        /* \"#utility.yul\":4191:4258   */\n      tag_116\n        /* \"#utility.yul\":4255:4257   */\n      0x11\n        /* \"#utility.yul\":4250:4253   */\n      dup4\n        /* \"#utility.yul\":4191:4258   */\n      tag_61\n      jump\t// in\n    tag_116:\n        /* \"#utility.yul\":4184:4258   */\n      swap2\n      pop\n        /* \"#utility.yul\":4267:4360   */\n      tag_117\n        /* \"#utility.yul\":4356:4359   */\n      dup3\n        /* \"#utility.yul\":4267:4360   */\n      tag_64\n      jump\t// in\n    tag_117:\n        /* \"#utility.yul\":4385:4387   */\n      0x20\n        /* \"#utility.yul\":4380:4383   */\n      dup3\n        /* \"#utility.yul\":4376:4388   */\n      add\n        /* \"#utility.yul\":4369:4388   */\n      swap1\n      pop\n        /* \"#utility.yul\":4028:4394   */\n      swap2\n      swap1\n      pop\n      jump\t// out\n        /* \"#utility.yul\":4400:4819   */\n    tag_37:\n        /* \"#utility.yul\":4566:4570   */\n      0x00\n        /* \"#utility.yul\":4604:4606   */\n      0x20\n        /* \"#utility.yul\":4593:4602   */\n      dup3\n        /* \"#utility.yul\":4589:4607   */\n      add\n        /* \"#utility.yul\":4581:4607   */\n      swap1\n      pop\n        /* \"#utility.yul\":4653:4662   */\n      dup2\n        /* \"#utility.yul\":4647:4651   */\n      dup2\n        /* \"#utility.yul\":4643:4663   */\n      sub\n        /* \"#utility.yul\":4639:4640   */\n      0x00\n        /* \"#utility.yul\":4628:4637   */\n      dup4\n        /* \"#utility.yul\":4624:4641   */\n      add\n        /* \"#utility.yul\":4617:4664   */\n      mstore\n        /* \"#utility.yul\":4681:4812   */\n      tag_119\n        /* \"#utility.yul\":4807:4811   */\n      dup2\n        /* \"#utility.yul\":4681:4812   */\n      tag_65\n      jump\t// in\n    tag_119:\n        /* \"#utility.yul\":4673:4812   */\n      swap1\n      pop\n        /* \"#utility.yul\":4400:4819   */\n      swap2\n      swap1\n      pop\n      jump\t// out\n        /* \"#utility.yul\":4825:4972   */\n    tag_66:\n        /* \"#utility.yul\":4926:4937   */\n      0x00\n        /* \"#utility.yul\":4963:4966   */\n      dup2\n        /* \"#utility.yul\":4948:4966   */\n      swap1\n      pop\n        /* \"#utility.yul\":4825:4972   */\n      swap3\n      swap2\n      pop\n      pop\n      jump\t// out\n        /* \"#utility.yul\":4978:5092   */\n    tag_67:\n      pop\n      jump\t// out\n        /* \"#utility.yul\":5098:5496   */\n    tag_68:\n        /* \"#utility.yul\":5257:5260   */\n      0x00\n        /* \"#utility.yul\":5278:5361   */\n      tag_123\n        /* \"#utility.yul\":5359:5360   */\n      0x00\n        /* \"#utility.yul\":5354:5357   */\n      dup4\n        /* \"#utility.yul\":5278:5361   */\n      tag_66\n      jump\t// in\n    tag_123:\n        /* \"#utility.yul\":5271:5361   */\n      swap2\n      pop\n        /* \"#utility.yul\":5370:5463   */\n      tag_124\n        /* \"#utility.yul\":5459:5462   */\n      dup3\n        /* \"#utility.yul\":5370:5463   */\n      tag_67\n      jump\t// in\n    tag_124:\n        /* \"#utility.yul\":5488:5489   */\n      0x00\n        /* \"#utility.yul\":5483:5486   */\n      dup3\n        /* \"#utility.yul\":5479:5490   */\n      add\n        /* \"#utility.yul\":5472:5490   */\n      swap1\n      pop\n        /* \"#utility.yul\":5098:5496   */\n      swap2\n      swap1\n      pop\n      jump\t// out\n        /* \"#utility.yul\":5502:5881   */\n    tag_39:\n        /* \"#utility.yul\":5686:5689   */\n      0x00\n        /* \"#utility.yul\":5708:5855   */\n      tag_126\n        /* \"#utility.yul\":5851:5854   */\n      dup3\n        /* \"#utility.yul\":5708:5855   */\n      tag_68\n      jump\t// in\n    tag_126:\n        /* \"#utility.yul\":5701:5855   */\n      swap2\n      pop\n        /* \"#utility.yul\":5872:5875   */\n      dup2\n        /* \"#utility.yul\":5865:5875   */\n      swap1\n      pop\n        /* \"#utility.yul\":5502:5881   */\n      swap2\n      swap1\n      pop\n      jump\t// out\n        /* \"#utility.yul\":5887:6051   */\n    tag_69:\n        /* \"#utility.yul\":6027:6043   */\n      0x5472616e7366657220676167616c000000000000000000000000000000000000\n        /* \"#utility.yul\":6023:6024   */\n      0x00\n        /* \"#utility.yul\":6015:6021   */\n      dup3\n        /* \"#utility.yul\":6011:6025   */\n      add\n        /* \"#utility.yul\":6004:6044   */\n      mstore\n        /* \"#utility.yul\":5887:6051   */\n      pop\n      jump\t// out\n        /* \"#utility.yul\":6057:6423   */\n    tag_70:\n        /* \"#utility.yul\":6199:6202   */\n      0x00\n        /* \"#utility.yul\":6220:6287   */\n      tag_129\n        /* \"#utility.yul\":6284:6286   */\n      0x0e\n        /* \"#utility.yul\":6279:6282   */\n      dup4\n        /* \"#utility.yul\":6220:6287   */\n      tag_61\n      jump\t// in\n    tag_129:\n        /* \"#utility.yul\":6213:6287   */\n      swap2\n      pop\n        /* \"#utility.yul\":6296:6389   */\n      tag_130\n        /* \"#utility.yul\":6385:6388   */\n      dup3\n        /* \"#utility.yul\":6296:6389   */\n      tag_69\n      jump\t// in\n    tag_130:\n        /* \"#utility.yul\":6414:6416   */\n      0x20\n        /* \"#utility.yul\":6409:6412   */\n      dup3\n        /* \"#utility.yul\":6405:6417   */\n      add\n        /* \"#utility.yul\":6398:6417   */\n      swap1\n      pop\n        /* \"#utility.yul\":6057:6423   */\n      swap2\n      swap1\n      pop\n      jump\t// out\n        /* \"#utility.yul\":6429:6848   */\n    tag_45:\n        /* \"#utility.yul\":6595:6599   */\n      0x00\n        /* \"#utility.yul\":6633:6635   */\n      0x20\n        /* \"#utility.yul\":6622:6631   */\n      dup3\n        /* \"#utility.yul\":6618:6636   */\n      add\n        /* \"#utility.yul\":6610:6636   */\n      swap1\n      pop\n        /* \"#utility.yul\":6682:6691   */\n      dup2\n        /* \"#utility.yul\":6676:6680   */\n      dup2\n        /* \"#utility.yul\":6672:6692   */\n      sub\n        /* \"#utility.yul\":6668:6669   */\n      0x00\n        /* \"#utility.yul\":6657:6666   */\n      dup4\n        /* \"#utility.yul\":6653:6670   */\n      add\n        /* \"#utility.yul\":6646:6693   */\n      mstore\n        /* \"#utility.yul\":6710:6841   */\n      tag_132\n        /* \"#utility.yul\":6836:6840   */\n      dup2\n        /* \"#utility.yul\":6710:6841   */\n      tag_70\n      jump\t// in\n    tag_132:\n        /* \"#utility.yul\":6702:6841   */\n      swap1\n      pop\n        /* \"#utility.yul\":6429:6848   */\n      swap2\n      swap1\n      pop\n      jump\t// out\n        /* \"#utility.yul\":6854:7034   */\n    tag_71:\n        /* \"#utility.yul\":6902:6979   */\n      0x4e487b7100000000000000000000000000000000000000000000000000000000\n        /* \"#utility.yul\":6899:6900   */\n      0x00\n        /* \"#utility.yul\":6892:6980   */\n      mstore\n        /* \"#utility.yul\":6999:7003   */\n      0x11\n        /* \"#utility.yul\":6996:6997   */\n      0x04\n        /* \"#utility.yul\":6989:7004   */\n      mstore\n        /* \"#utility.yul\":7023:7027   */\n      0x24\n        /* \"#utility.yul\":7020:7021   */\n      0x00\n        /* \"#utility.yul\":7013:7028   */\n      revert\n        /* \"#utility.yul\":7040:7231   */\n    tag_47:\n        /* \"#utility.yul\":7080:7083   */\n      0x00\n        /* \"#utility.yul\":7099:7119   */\n      tag_135\n        /* \"#utility.yul\":7117:7118   */\n      dup3\n        /* \"#utility.yul\":7099:7119   */\n      tag_49\n      jump\t// in\n    tag_135:\n        /* \"#utility.yul\":7094:7119   */\n      swap2\n      pop\n        /* \"#utility.yul\":7133:7153   */\n      tag_136\n        /* \"#utility.yul\":7151:7152   */\n      dup4\n        /* \"#utility.yul\":7133:7153   */\n      tag_49\n      jump\t// in\n    tag_136:\n        /* \"#utility.yul\":7128:7153   */\n      swap3\n      pop\n        /* \"#utility.yul\":7176:7177   */\n      dup3\n        /* \"#utility.yul\":7173:7174   */\n      dup3\n        /* \"#utility.yul\":7169:7178   */\n      add\n        /* \"#utility.yul\":7162:7178   */\n      swap1\n      pop\n        /* \"#utility.yul\":7197:7200   */\n      dup1\n        /* \"#utility.yul\":7194:7195   */\n      dup3\n        /* \"#utility.yul\":7191:7201   */\n      gt\n        /* \"#utility.yul\":7188:7224   */\n      iszero\n      tag_137\n      jumpi\n        /* \"#utility.yul\":7204:7222   */\n      tag_138\n      tag_71\n      jump\t// in\n    tag_138:\n        /* \"#utility.yul\":7188:7224   */\n    tag_137:\n        /* \"#utility.yul\":7040:7231   */\n      swap3\n      swap2\n      pop\n      pop\n      jump\t// out\n\n    auxdata: 0xa26469706673582212204b8b00801985bdb0b75898cbe546544512c8f910d3397ac53677a944e829a4cd64736f6c634300081f0033\n}\n",
				"bytecode": {
					"linkReferences": {},
					"object": "6080604052348015600e575f5ffd5b50335f5f6101000a81548173ffffffffffffffffffffffffffffffffffffffff021916908373ffffffffffffffffffffffffffffffffffffffff16021790555061068b8061005b5f395ff3fe608060405260043610610049575f3560e01c806312065fe01461004d57806329e5e9b514610077578063610629621461009f578063d0e30db0146100db578063f851a440146100e5575b5f5ffd5b348015610058575f5ffd5b5061006161010f565b60405161006e919061033a565b60405180910390f35b348015610082575f5ffd5b5061009d600480360381019061009891906103db565b610116565b005b3480156100aa575f5ffd5b506100c560048036038101906100c09190610419565b6102e7565b6040516100d2919061033a565b60405180910390f35b6100e36102fc565b005b3480156100f0575f5ffd5b506100f96102fe565b6040516101069190610453565b60405180910390f35b5f47905090565b5f5f9054906101000a900473ffffffffffffffffffffffffffffffffffffffff1673ffffffffffffffffffffffffffffffffffffffff163373ffffffffffffffffffffffffffffffffffffffff16146101a4576040517f08c379a000000000000000000000000000000000000000000000000000000000815260040161019b906104c6565b60405180910390fd5b804710156101e7576040517f08c379a00000000000000000000000000000000000000000000000000000000081526004016101de9061052e565b60405180910390fd5b5f8273ffffffffffffffffffffffffffffffffffffffff168260405161020c90610579565b5f6040518083038185875af1925050503d805f8114610246576040519150601f19603f3d011682016040523d82523d5f602084013e61024b565b606091505b505090508061028f576040517f08c379a0000000000000000000000000000000000000000000000000000000008152600401610286906105d7565b60405180910390fd5b8160015f8573ffffffffffffffffffffffffffffffffffffffff1673ffffffffffffffffffffffffffffffffffffffff1681526020019081526020015f205f8282546102db9190610622565b92505081905550505050565b6001602052805f5260405f205f915090505481565b565b5f5f9054906101000a900473ffffffffffffffffffffffffffffffffffffffff1681565b5f819050919050565b61033481610322565b82525050565b5f60208201905061034d5f83018461032b565b92915050565b5f5ffd5b5f73ffffffffffffffffffffffffffffffffffffffff82169050919050565b5f61038082610357565b9050919050565b61039081610376565b811461039a575f5ffd5b50565b5f813590506103ab81610387565b92915050565b6103ba81610322565b81146103c4575f5ffd5b50565b5f813590506103d5816103b1565b92915050565b5f5f604083850312156103f1576103f0610353565b5b5f6103fe8582860161039d565b925050602061040f858286016103c7565b9150509250929050565b5f6020828403121561042e5761042d610353565b5b5f61043b8482850161039d565b91505092915050565b61044d81610376565b82525050565b5f6020820190506104665f830184610444565b92915050565b5f82825260208201905092915050565b7f48616e79612061646d696e0000000000000000000000000000000000000000005f82015250565b5f6104b0600b8361046c565b91506104bb8261047c565b602082019050919050565b5f6020820190508181035f8301526104dd816104a4565b9050919050565b7f53616c646f20746964616b2063756b75700000000000000000000000000000005f82015250565b5f61051860118361046c565b9150610523826104e4565b602082019050919050565b5f6020820190508181035f8301526105458161050c565b9050919050565b5f81905092915050565b50565b5f6105645f8361054c565b915061056f82610556565b5f82019050919050565b5f61058382610559565b9150819050919050565b7f5472616e7366657220676167616c0000000000000000000000000000000000005f82015250565b5f6105c1600e8361046c565b91506105cc8261058d565b602082019050919050565b5f6020820190508181035f8301526105ee816105b5565b9050919050565b7f4e487b71000000000000000000000000000000000000000000000000000000005f52601160045260245ffd5b5f61062c82610322565b915061063783610322565b925082820190508082111561064f5761064e6105f5565b5b9291505056fea26469706673582212204b8b00801985bdb0b75898cbe546544512c8f910d3397ac53677a944e829a4cd64736f6c634300081f0033",
					"opcodes": "PUSH1 0x80 PUSH1 0x40 MSTORE CALLVALUE DUP1 ISZERO PUSH1 0xE JUMPI PUSH0 PUSH0 REVERT JUMPDEST POP CALLER PUSH0 PUSH0 PUSH2 0x100 EXP DUP2 SLOAD DUP2 PUSH20 0xFFFFFFFFFFFFFFFFFFFFFFFFFFFFFFFFFFFFFFFF MUL NOT AND SWAP1 DUP4 PUSH20 0xFFFFFFFFFFFFFFFFFFFFFFFFFFFFFFFFFFFFFFFF AND MUL OR SWAP1 SSTORE POP PUSH2 0x68B DUP1 PUSH2 0x5B PUSH0 CODECOPY PUSH0 RETURN INVALID PUSH1 0x80 PUSH1 0x40 MSTORE PUSH1 0x4 CALLDATASIZE LT PUSH2 0x49 JUMPI PUSH0 CALLDATALOAD PUSH1 0xE0 SHR DUP1 PUSH4 0x12065FE0 EQ PUSH2 0x4D JUMPI DUP1 PUSH4 0x29E5E9B5 EQ PUSH2 0x77 JUMPI DUP1 PUSH4 0x61062962 EQ PUSH2 0x9F JUMPI DUP1 PUSH4 0xD0E30DB0 EQ PUSH2 0xDB JUMPI DUP1 PUSH4 0xF851A440 EQ PUSH2 0xE5 JUMPI JUMPDEST PUSH0 PUSH0 REVERT JUMPDEST CALLVALUE DUP1 ISZERO PUSH2 0x58 JUMPI PUSH0 PUSH0 REVERT JUMPDEST POP PUSH2 0x61 PUSH2 0x10F JUMP JUMPDEST PUSH1 0x40 MLOAD PUSH2 0x6E SWAP2 SWAP1 PUSH2 0x33A JUMP JUMPDEST PUSH1 0x40 MLOAD DUP1 SWAP2 SUB SWAP1 RETURN JUMPDEST CALLVALUE DUP1 ISZERO PUSH2 0x82 JUMPI PUSH0 PUSH0 REVERT JUMPDEST POP PUSH2 0x9D PUSH1 0x4 DUP1 CALLDATASIZE SUB DUP2 ADD SWAP1 PUSH2 0x98 SWAP2 SWAP1 PUSH2 0x3DB JUMP JUMPDEST PUSH2 0x116 JUMP JUMPDEST STOP JUMPDEST CALLVALUE DUP1 ISZERO PUSH2 0xAA JUMPI PUSH0 PUSH0 REVERT JUMPDEST POP PUSH2 0xC5 PUSH1 0x4 DUP1 CALLDATASIZE SUB DUP2 ADD SWAP1 PUSH2 0xC0 SWAP2 SWAP1 PUSH2 0x419 JUMP JUMPDEST PUSH2 0x2E7 JUMP JUMPDEST PUSH1 0x40 MLOAD PUSH2 0xD2 SWAP2 SWAP1 PUSH2 0x33A JUMP JUMPDEST PUSH1 0x40 MLOAD DUP1 SWAP2 SUB SWAP1 RETURN JUMPDEST PUSH2 0xE3 PUSH2 0x2FC JUMP JUMPDEST STOP JUMPDEST CALLVALUE DUP1 ISZERO PUSH2 0xF0 JUMPI PUSH0 PUSH0 REVERT JUMPDEST POP PUSH2 0xF9 PUSH2 0x2FE JUMP JUMPDEST PUSH1 0x40 MLOAD PUSH2 0x106 SWAP2 SWAP1 PUSH2 0x453 JUMP JUMPDEST PUSH1 0x40 MLOAD DUP1 SWAP2 SUB SWAP1 RETURN JUMPDEST PUSH0 SELFBALANCE SWAP1 POP SWAP1 JUMP JUMPDEST PUSH0 PUSH0 SWAP1 SLOAD SWAP1 PUSH2 0x100 EXP SWAP1 DIV PUSH20 0xFFFFFFFFFFFFFFFFFFFFFFFFFFFFFFFFFFFFFFFF AND PUSH20 0xFFFFFFFFFFFFFFFFFFFFFFFFFFFFFFFFFFFFFFFF AND CALLER PUSH20 0xFFFFFFFFFFFFFFFFFFFFFFFFFFFFFFFFFFFFFFFF AND EQ PUSH2 0x1A4 JUMPI PUSH1 0x40 MLOAD PUSH32 0x8C379A000000000000000000000000000000000000000000000000000000000 DUP2 MSTORE PUSH1 0x4 ADD PUSH2 0x19B SWAP1 PUSH2 0x4C6 JUMP JUMPDEST PUSH1 0x40 MLOAD DUP1 SWAP2 SUB SWAP1 REVERT JUMPDEST DUP1 SELFBALANCE LT ISZERO PUSH2 0x1E7 JUMPI PUSH1 0x40 MLOAD PUSH32 0x8C379A000000000000000000000000000000000000000000000000000000000 DUP2 MSTORE PUSH1 0x4 ADD PUSH2 0x1DE SWAP1 PUSH2 0x52E JUMP JUMPDEST PUSH1 0x40 MLOAD DUP1 SWAP2 SUB SWAP1 REVERT JUMPDEST PUSH0 DUP3 PUSH20 0xFFFFFFFFFFFFFFFFFFFFFFFFFFFFFFFFFFFFFFFF AND DUP3 PUSH1 0x40 MLOAD PUSH2 0x20C SWAP1 PUSH2 0x579 JUMP JUMPDEST PUSH0 PUSH1 0x40 MLOAD DUP1 DUP4 SUB DUP2 DUP6 DUP8 GAS CALL SWAP3 POP POP POP RETURNDATASIZE DUP1 PUSH0 DUP2 EQ PUSH2 0x246 JUMPI PUSH1 0x40 MLOAD SWAP2 POP PUSH1 0x1F NOT PUSH1 0x3F RETURNDATASIZE ADD AND DUP3 ADD PUSH1 0x40 MSTORE RETURNDATASIZE DUP3 MSTORE RETURNDATASIZE PUSH0 PUSH1 0x20 DUP5 ADD RETURNDATACOPY PUSH2 0x24B JUMP JUMPDEST PUSH1 0x60 SWAP2 POP JUMPDEST POP POP SWAP1 POP DUP1 PUSH2 0x28F JUMPI PUSH1 0x40 MLOAD PUSH32 0x8C379A000000000000000000000000000000000000000000000000000000000 DUP2 MSTORE PUSH1 0x4 ADD PUSH2 0x286 SWAP1 PUSH2 0x5D7 JUMP JUMPDEST PUSH1 0x40 MLOAD DUP1 SWAP2 SUB SWAP1 REVERT JUMPDEST DUP2 PUSH1 0x1 PUSH0 DUP6 PUSH20 0xFFFFFFFFFFFFFFFFFFFFFFFFFFFFFFFFFFFFFFFF AND PUSH20 0xFFFFFFFFFFFFFFFFFFFFFFFFFFFFFFFFFFFFFFFF AND DUP2 MSTORE PUSH1 0x20 ADD SWAP1 DUP2 MSTORE PUSH1 0x20 ADD PUSH0 KECCAK256 PUSH0 DUP3 DUP3 SLOAD PUSH2 0x2DB SWAP2 SWAP1 PUSH2 0x622 JUMP JUMPDEST SWAP3 POP POP DUP2 SWAP1 SSTORE POP POP POP POP JUMP JUMPDEST PUSH1 0x1 PUSH1 0x20 MSTORE DUP1 PUSH0 MSTORE PUSH1 0x40 PUSH0 KECCAK256 PUSH0 SWAP2 POP SWAP1 POP SLOAD DUP2 JUMP JUMPDEST JUMP JUMPDEST PUSH0 PUSH0 SWAP1 SLOAD SWAP1 PUSH2 0x100 EXP SWAP1 DIV PUSH20 0xFFFFFFFFFFFFFFFFFFFFFFFFFFFFFFFFFFFFFFFF AND DUP2 JUMP JUMPDEST PUSH0 DUP2 SWAP1 POP SWAP2 SWAP1 POP JUMP JUMPDEST PUSH2 0x334 DUP2 PUSH2 0x322 JUMP JUMPDEST DUP3 MSTORE POP POP JUMP JUMPDEST PUSH0 PUSH1 0x20 DUP3 ADD SWAP1 POP PUSH2 0x34D PUSH0 DUP4 ADD DUP5 PUSH2 0x32B JUMP JUMPDEST SWAP3 SWAP2 POP POP JUMP JUMPDEST PUSH0 PUSH0 REVERT JUMPDEST PUSH0 PUSH20 0xFFFFFFFFFFFFFFFFFFFFFFFFFFFFFFFFFFFFFFFF DUP3 AND SWAP1 POP SWAP2 SWAP1 POP JUMP JUMPDEST PUSH0 PUSH2 0x380 DUP3 PUSH2 0x357 JUMP JUMPDEST SWAP1 POP SWAP2 SWAP1 POP JUMP JUMPDEST PUSH2 0x390 DUP2 PUSH2 0x376 JUMP JUMPDEST DUP2 EQ PUSH2 0x39A JUMPI PUSH0 PUSH0 REVERT JUMPDEST POP JUMP JUMPDEST PUSH0 DUP2 CALLDATALOAD SWAP1 POP PUSH2 0x3AB DUP2 PUSH2 0x387 JUMP JUMPDEST SWAP3 SWAP2 POP POP JUMP JUMPDEST PUSH2 0x3BA DUP2 PUSH2 0x322 JUMP JUMPDEST DUP2 EQ PUSH2 0x3C4 JUMPI PUSH0 PUSH0 REVERT JUMPDEST POP JUMP JUMPDEST PUSH0 DUP2 CALLDATALOAD SWAP1 POP PUSH2 0x3D5 DUP2 PUSH2 0x3B1 JUMP JUMPDEST SWAP3 SWAP2 POP POP JUMP JUMPDEST PUSH0 PUSH0 PUSH1 0x40 DUP4 DUP6 SUB SLT ISZERO PUSH2 0x3F1 JUMPI PUSH2 0x3F0 PUSH2 0x353 JUMP JUMPDEST JUMPDEST PUSH0 PUSH2 0x3FE DUP6 DUP3 DUP7 ADD PUSH2 0x39D JUMP JUMPDEST SWAP3 POP POP PUSH1 0x20 PUSH2 0x40F DUP6 DUP3 DUP7 ADD PUSH2 0x3C7 JUMP JUMPDEST SWAP2 POP POP SWAP3 POP SWAP3 SWAP1 POP JUMP JUMPDEST PUSH0 PUSH1 0x20 DUP3 DUP5 SUB SLT ISZERO PUSH2 0x42E JUMPI PUSH2 0x42D PUSH2 0x353 JUMP JUMPDEST JUMPDEST PUSH0 PUSH2 0x43B DUP5 DUP3 DUP6 ADD PUSH2 0x39D JUMP JUMPDEST SWAP2 POP POP SWAP3 SWAP2 POP POP JUMP JUMPDEST PUSH2 0x44D DUP2 PUSH2 0x376 JUMP JUMPDEST DUP3 MSTORE POP POP JUMP JUMPDEST PUSH0 PUSH1 0x20 DUP3 ADD SWAP1 POP PUSH2 0x466 PUSH0 DUP4 ADD DUP5 PUSH2 0x444 JUMP JUMPDEST SWAP3 SWAP2 POP POP JUMP JUMPDEST PUSH0 DUP3 DUP3 MSTORE PUSH1 0x20 DUP3 ADD SWAP1 POP SWAP3 SWAP2 POP POP JUMP JUMPDEST PUSH32 0x48616E79612061646D696E000000000000000000000000000000000000000000 PUSH0 DUP3 ADD MSTORE POP JUMP JUMPDEST PUSH0 PUSH2 0x4B0 PUSH1 0xB DUP4 PUSH2 0x46C JUMP JUMPDEST SWAP2 POP PUSH2 0x4BB DUP3 PUSH2 0x47C JUMP JUMPDEST PUSH1 0x20 DUP3 ADD SWAP1 POP SWAP2 SWAP1 POP JUMP JUMPDEST PUSH0 PUSH1 0x20 DUP3 ADD SWAP1 POP DUP2 DUP2 SUB PUSH0 DUP4 ADD MSTORE PUSH2 0x4DD DUP2 PUSH2 0x4A4 JUMP JUMPDEST SWAP1 POP SWAP2 SWAP1 POP JUMP JUMPDEST PUSH32 0x53616C646F20746964616B2063756B7570000000000000000000000000000000 PUSH0 DUP3 ADD MSTORE POP JUMP JUMPDEST PUSH0 PUSH2 0x518 PUSH1 0x11 DUP4 PUSH2 0x46C JUMP JUMPDEST SWAP2 POP PUSH2 0x523 DUP3 PUSH2 0x4E4 JUMP JUMPDEST PUSH1 0x20 DUP3 ADD SWAP1 POP SWAP2 SWAP1 POP JUMP JUMPDEST PUSH0 PUSH1 0x20 DUP3 ADD SWAP1 POP DUP2 DUP2 SUB PUSH0 DUP4 ADD MSTORE PUSH2 0x545 DUP2 PUSH2 0x50C JUMP JUMPDEST SWAP1 POP SWAP2 SWAP1 POP JUMP JUMPDEST PUSH0 DUP2 SWAP1 POP SWAP3 SWAP2 POP POP JUMP JUMPDEST POP JUMP JUMPDEST PUSH0 PUSH2 0x564 PUSH0 DUP4 PUSH2 0x54C JUMP JUMPDEST SWAP2 POP PUSH2 0x56F DUP3 PUSH2 0x556 JUMP JUMPDEST PUSH0 DUP3 ADD SWAP1 POP SWAP2 SWAP1 POP JUMP JUMPDEST PUSH0 PUSH2 0x583 DUP3 PUSH2 0x559 JUMP JUMPDEST SWAP2 POP DUP2 SWAP1 POP SWAP2 SWAP1 POP JUMP JUMPDEST PUSH32 0x5472616E7366657220676167616C000000000000000000000000000000000000 PUSH0 DUP3 ADD MSTORE POP JUMP JUMPDEST PUSH0 PUSH2 0x5C1 PUSH1 0xE DUP4 PUSH2 0x46C JUMP JUMPDEST SWAP2 POP PUSH2 0x5CC DUP3 PUSH2 0x58D JUMP JUMPDEST PUSH1 0x20 DUP3 ADD SWAP1 POP SWAP2 SWAP1 POP JUMP JUMPDEST PUSH0 PUSH1 0x20 DUP3 ADD SWAP1 POP DUP2 DUP2 SUB PUSH0 DUP4 ADD MSTORE PUSH2 0x5EE DUP2 PUSH2 0x5B5 JUMP JUMPDEST SWAP1 POP SWAP2 SWAP1 POP JUMP JUMPDEST PUSH32 0x4E487B7100000000000000000000000000000000000000000000000000000000 PUSH0 MSTORE PUSH1 0x11 PUSH1 0x4 MSTORE PUSH1 0x24 PUSH0 REVERT JUMPDEST PUSH0 PUSH2 0x62C DUP3 PUSH2 0x322 JUMP JUMPDEST SWAP2 POP PUSH2 0x637 DUP4 PUSH2 0x322 JUMP JUMPDEST SWAP3 POP DUP3 DUP3 ADD SWAP1 POP DUP1 DUP3 GT ISZERO PUSH2 0x64F JUMPI PUSH2 0x64E PUSH2 0x5F5 JUMP JUMPDEST JUMPDEST SWAP3 SWAP2 POP POP JUMP INVALID LOG2 PUSH5 0x6970667358 0x22 SLT KECCAK256 0x4B DUP12 STOP DUP1 NOT DUP6 0xBD 0xB0 0xB7 PC SWAP9 0xCB JUMPF 0x4654 GASLIMIT SLT 0xC8 EXTDELEGATECALL LT 0xD3 CODECOPY PUSH27 0xC53677A944E829A4CD64736F6C634300081F003300000000000000 "
				},
				"gasEstimates": {
					"creation": {
						"codeDepositCost": "335000",
						"executionCost": "24636",
						"totalCost": "359636"
					},
					"external": {
						"admin()": "2573",
						"deposit()": "163",
						"getBalance()": "312",
						"scholarships(address)": "2824",
						"sendScholarship(address,uint256)": "infinite"
					}
				},
				"methodIdentifiers": {
					"admin()": "f851a440",
					"deposit()": "d0e30db0",
					"getBalance()": "12065fe0",
					"scholarships(address)": "61062962",
					"sendScholarship(address,uint256)": "29e5e9b5"
				}
			},
			"storageLayout": {
				"storage": [
					{
						"astId": 3,
						"contract": "contracts/LearnSendETH.sol:LearnSendETH",
						"label": "admin",
						"offset": 0,
						"slot": "0",
						"type": "t_address"
					},
					{
						"astId": 7,
						"contract": "contracts/LearnSendETH.sol:LearnSendETH",
						"label": "scholarships",
						"offset": 0,
						"slot": "1",
						"type": "t_mapping(t_address,t_uint256)"
					}
				],
				"types": {
					"t_address": {
						"encoding": "inplace",
						"label": "address",
						"numberOfBytes": "20"
					},
					"t_mapping(t_address,t_uint256)": {
						"encoding": "mapping",
						"key": "t_address",
						"label": "mapping(address => uint256)",
						"numberOfBytes": "32",
						"value": "t_uint256"
					},
					"t_uint256": {
						"encoding": "inplace",
						"label": "uint256",
						"numberOfBytes": "32"
					}
				}
			},
			"userdoc": {
				"kind": "user",
				"methods": {},
				"version": 1
			}
		}
	}
}