{
	"contracts/LearnMapping.sol": {
		"LearnMapping": {
			"abi": [
				{
					"inputs": [
						{
							"internalType": "uint256",
							"name": "_id",
							"type": "uint256"
						},
						{
							"internalType": "uint256",
							"name": "_amount",
							"type": "uint256"
						}
					],
					"name": "addCredits",
					"outputs": [],
					"stateMutability": "nonpayable",
					"type": "function"
				},
				{
					"inputs": [
						{
							"internalType": "uint256",
							"name": "_id",
							"type": "uint256"
						},
						{
							"internalType": "string",
							"name": "_name",
							"type": "string"
						}
					],
					"name": "addStudent",
					"outputs": [],
					"stateMutability": "nonpayable",
					"type": "function"
				},
				{
					"inputs": [
						{
							"internalType": "uint256",
							"name": "",
							"type": "uint256"
						}
					],
					"name": "studentCredits",
					"outputs": [
						{
							"internalType": "uint256",
							"name": "",
							"type": "uint256"
						}
					],
					"stateMutability": "view",
					"type": "function"
				},
				{
					"inputs": [
						{
							"internalType": "uint256",
							"name": "",
							"type": "uint256"
						}
					],
					"name": "studentName",
					"outputs": [
						{
							"internalType": "string",
							"name": "",
							"type": "string"
						}
					],
					"stateMutability": "view",
					"type": "function"
				}
			],
			"devdoc": {
				"kind": "dev",
				"methods": {},
				"version": 1
			},
			"evm": {
				"assembly": "    /* \"contracts/LearnMapping.sol\":58:512  contract LearnMapping {... */\n  mstore(0x40, 0x80)\n  callvalue\n  dup1\n  iszero\n  tag_1\n  jumpi\n  revert(0x00, 0x00)\ntag_1:\n  pop\n  dataSize(sub_0)\n  dup1\n  dataOffset(sub_0)\n  0x00\n  codecopy\n  0x00\n  return\nstop\n\nsub_0: assembly {\n        /* \"contracts/LearnMapping.sol\":58:512  contract LearnMapping {... */\n      mstore(0x40, 0x80)\n      callvalue\n      dup1\n      iszero\n      tag_1\n      jumpi\n      revert(0x00, 0x00)\n    tag_1:\n      pop\n      jumpi(tag_2, lt(calldatasize, 0x04))\n      shr(0xe0, calldataload(0x00))\n      dup1\n      0x2e566ebd\n      eq\n      tag_3\n      jumpi\n      dup1\n      0x42ecc52a\n      eq\n      tag_4\n      jumpi\n      dup1\n      0x9c823b40\n      eq\n      tag_5\n      jumpi\n      dup1\n      0xa031fc56\n      eq\n      tag_6\n      jumpi\n    tag_2:\n      revert(0x00, 0x00)\n        /* \"contracts/LearnMapping.sol\":406:510  function addCredits(uint256 _id, uint256 _amount) public {... */\n    tag_3:\n      tag_7\n      0x04\n      dup1\n      calldatasize\n      sub\n      dup2\n      add\n      swap1\n      tag_8\n      swap2\n      swap1\n      tag_9\n      jump\t// in\n    tag_8:\n      tag_10\n      jump\t// in\n    tag_7:\n      stop\n        /* \"contracts/LearnMapping.sol\":265:400  function addStudent(uint256 _id, string memory _name) public {... */\n    tag_4:\n      tag_11\n      0x04\n      dup1\n      calldatasize\n      sub\n      dup2\n      add\n      swap1\n      tag_12\n      swap2\n      swap1\n      tag_13\n      jump\t// in\n    tag_12:\n      tag_14\n      jump\t// in\n    tag_11:\n      stop\n        /* \"contracts/LearnMapping.sol\":209:258  mapping(uint256 => uint256) public studentCredits */\n    tag_5:\n      tag_15\n      0x04\n      dup1\n      calldatasize\n      sub\n      dup2\n      add\n      swap1\n      tag_16\n      swap2\n      swap1\n      tag_17\n      jump\t// in\n    tag_16:\n      tag_18\n      jump\t// in\n    tag_15:\n      mload(0x40)\n      tag_19\n      swap2\n      swap1\n      tag_20\n      jump\t// in\n    tag_19:\n      mload(0x40)\n      dup1\n      swap2\n      sub\n      swap1\n      return\n        /* \"contracts/LearnMapping.sol\":120:165  mapping(uint256 => string) public studentName */\n    tag_6:\n      tag_21\n      0x04\n      dup1\n      calldatasize\n      sub\n      dup2\n      add\n      swap1\n      tag_22\n      swap2\n      swap1\n      tag_17\n      jump\t// in\n    tag_22:\n      tag_23\n      jump\t// in\n    tag_21:\n      mload(0x40)\n      tag_24\n      swap2\n      swap1\n      tag_25\n      jump\t// in\n    tag_24:\n      mload(0x40)\n      dup1\n      swap2\n      sub\n      swap1\n      return\n        /* \"contracts/LearnMapping.sol\":406:510  function addCredits(uint256 _id, uint256 _amount) public {... */\n    tag_10:\n        /* \"contracts/LearnMapping.sol\":496:503  _amount */\n      dup1\n        /* \"contracts/LearnMapping.sol\":473:487  studentCredits */\n      0x01\n        /* \"contracts/LearnMapping.sol\":473:492  studentCredits[_id] */\n      0x00\n        /* \"contracts/LearnMapping.sol\":488:491  _id */\n      dup5\n        /* \"contracts/LearnMapping.sol\":473:492  studentCredits[_id] */\n      dup2\n      mstore\n      0x20\n      add\n      swap1\n      dup2\n      mstore\n      0x20\n      add\n      0x00\n      keccak256\n      0x00\n        /* \"contracts/LearnMapping.sol\":473:503  studentCredits[_id] += _amount */\n      dup3\n      dup3\n      sload\n      tag_27\n      swap2\n      swap1\n      tag_28\n      jump\t// in\n    tag_27:\n      swap3\n      pop\n      pop\n      dup2\n      swap1\n      sstore\n      pop\n        /* \"contracts/LearnMapping.sol\":406:510  function addCredits(uint256 _id, uint256 _amount) public {... */\n      pop\n      pop\n      jump\t// out\n        /* \"contracts/LearnMapping.sol\":265:400  function addStudent(uint256 _id, string memory _name) public {... */\n    tag_14:\n        /* \"contracts/LearnMapping.sol\":355:360  _name */\n      dup1\n        /* \"contracts/LearnMapping.sol\":336:347  studentName */\n      0x00\n        /* \"contracts/LearnMapping.sol\":336:352  studentName[_id] */\n      0x00\n        /* \"contracts/LearnMapping.sol\":348:351  _id */\n      dup5\n        /* \"contracts/LearnMapping.sol\":336:352  studentName[_id] */\n      dup2\n      mstore\n      0x20\n      add\n      swap1\n      dup2\n      mstore\n      0x20\n      add\n      0x00\n      keccak256\n        /* \"contracts/LearnMapping.sol\":336:360  studentName[_id] = _name */\n      swap1\n      dup2\n      tag_30\n      swap2\n      swap1\n      tag_31\n      jump\t// in\n    tag_30:\n      pop\n        /* \"contracts/LearnMapping.sol\":392:393  0 */\n      0x00\n        /* \"contracts/LearnMapping.sol\":370:384  studentCredits */\n      0x01\n        /* \"contracts/LearnMapping.sol\":370:389  studentCredits[_id] */\n      0x00\n        /* \"contracts/LearnMapping.sol\":385:388  _id */\n      dup5\n        /* \"contracts/LearnMapping.sol\":370:389  studentCredits[_id] */\n      dup2\n      mstore\n      0x20\n      add\n      swap1\n      dup2\n      mstore\n      0x20\n      add\n      0x00\n      keccak256\n        /* \"contracts/LearnMapping.sol\":370:393  studentCredits[_id] = 0 */\n      dup2\n      swap1\n      sstore\n      pop\n        /* \"contracts/LearnMapping.sol\":265:400  function addStudent(uint256 _id, string memory _name) public {... */\n      pop\n      pop\n      jump\t// out\n        /* \"contracts/LearnMapping.sol\":209:258  mapping(uint256 => uint256) public studentCredits */\n    tag_18:\n      mstore(0x20, 0x01)\n      dup1\n      0x00\n      mstore\n      keccak256(0x00, 0x40)\n      0x00\n      swap2\n      pop\n      swap1\n      pop\n      sload\n      dup2\n      jump\t// out\n        /* \"contracts/LearnMapping.sol\":120:165  mapping(uint256 => string) public studentName */\n    tag_23:\n      mstore(0x20, 0x00)\n      dup1\n      0x00\n      mstore\n      keccak256(0x00, 0x40)\n      0x00\n      swap2\n      pop\n      swap1\n      pop\n      dup1\n      sload\n      tag_32\n      swap1\n      tag_33\n      jump\t// in\n    tag_32:\n      dup1\n      0x1f\n      add\n      0x20\n      dup1\n      swap2\n      div\n      mul\n      0x20\n      add\n      mload(0x40)\n      swap1\n      dup2\n      add\n      0x40\n      mstore\n      dup1\n      swap3\n      swap2\n      swap1\n      dup2\n      dup2\n      mstore\n      0x20\n      add\n      dup3\n      dup1\n      sload\n      tag_34\n      swap1\n      tag_33\n      jump\t// in\n    tag_34:\n      dup1\n      iszero\n      tag_35\n      jumpi\n      dup1\n      0x1f\n      lt\n      tag_36\n      jumpi\n      0x0100\n      dup1\n      dup4\n      sload\n      div\n      mul\n      dup4\n      mstore\n      swap2\n      0x20\n      add\n      swap2\n      jump(tag_35)\n    tag_36:\n      dup3\n      add\n      swap2\n      swap1\n      0x00\n      mstore\n      keccak256(0x00, 0x20)\n      swap1\n    tag_37:\n      dup2\n      sload\n      dup2\n      mstore\n      swap1\n      0x01\n      add\n      swap1\n      0x20\n      add\n      dup1\n      dup4\n      gt\n      tag_37\n      jumpi\n      dup3\n      swap1\n      sub\n      0x1f\n      and\n      dup3\n      add\n      swap2\n    tag_35:\n      pop\n      pop\n      pop\n      pop\n      pop\n      dup2\n      jump\t// out\n        /* \"#utility.yul\":7:82   */\n    tag_38:\n        /* \"#utility.yul\":40:46   */\n      0x00\n        /* \"#utility.yul\":73:75   */\n      0x40\n        /* \"#utility.yul\":67:76   */\n      mload\n        /* \"#utility.yul\":57:76   */\n      swap1\n      pop\n        /* \"#utility.yul\":7:82   */\n      swap1\n      jump\t// out\n        /* \"#utility.yul\":88:205   */\n    tag_39:\n        /* \"#utility.yul\":197:198   */\n      0x00\n        /* \"#utility.yul\":194:195   */\n      0x00\n        /* \"#utility.yul\":187:199   */\n      revert\n        /* \"#utility.yul\":211:328   */\n    tag_40:\n        /* \"#utility.yul\":320:321   */\n      0x00\n        /* \"#utility.yul\":317:318   */\n      0x00\n        /* \"#utility.yul\":310:322   */\n      revert\n        /* \"#utility.yul\":334:411   */\n    tag_41:\n        /* \"#utility.yul\":371:378   */\n      0x00\n        /* \"#utility.yul\":400:405   */\n      dup2\n        /* \"#utility.yul\":389:405   */\n      swap1\n      pop\n        /* \"#utility.yul\":334:411   */\n      swap2\n      swap1\n      pop\n      jump\t// out\n        /* \"#utility.yul\":417:539   */\n    tag_42:\n        /* \"#utility.yul\":490:514   */\n      tag_82\n        /* \"#utility.yul\":508:513   */\n      dup2\n        /* \"#utility.yul\":490:514   */\n      tag_41\n      jump\t// in\n    tag_82:\n        /* \"#utility.yul\":483:488   */\n      dup2\n        /* \"#utility.yul\":480:515   */\n      eq\n        /* \"#utility.yul\":470:533   */\n      tag_83\n      jumpi\n        /* \"#utility.yul\":529:530   */\n      0x00\n        /* \"#utility.yul\":526:527   */\n      0x00\n        /* \"#utility.yul\":519:531   */\n      revert\n        /* \"#utility.yul\":470:533   */\n    tag_83:\n        /* \"#utility.yul\":417:539   */\n      pop\n      jump\t// out\n        /* \"#utility.yul\":545:684   */\n    tag_43:\n        /* \"#utility.yul\":591:596   */\n      0x00\n        /* \"#utility.yul\":629:635   */\n      dup2\n        /* \"#utility.yul\":616:636   */\n      calldataload\n        /* \"#utility.yul\":607:636   */\n      swap1\n      pop\n        /* \"#utility.yul\":645:678   */\n      tag_85\n        /* \"#utility.yul\":672:677   */\n      dup2\n        /* \"#utility.yul\":645:678   */\n      tag_42\n      jump\t// in\n    tag_85:\n        /* \"#utility.yul\":545:684   */\n      swap3\n      swap2\n      pop\n      pop\n      jump\t// out\n        /* \"#utility.yul\":690:1164   */\n    tag_9:\n        /* \"#utility.yul\":758:764   */\n      0x00\n        /* \"#utility.yul\":766:772   */\n      0x00\n        /* \"#utility.yul\":815:817   */\n      0x40\n        /* \"#utility.yul\":803:812   */\n      dup4\n        /* \"#utility.yul\":794:801   */\n      dup6\n        /* \"#utility.yul\":790:813   */\n      sub\n        /* \"#utility.yul\":786:818   */\n      slt\n        /* \"#utility.yul\":783:902   */\n      iszero\n      tag_87\n      jumpi\n        /* \"#utility.yul\":821:900   */\n      tag_88\n      tag_39\n      jump\t// in\n    tag_88:\n        /* \"#utility.yul\":783:902   */\n    tag_87:\n        /* \"#utility.yul\":941:942   */\n      0x00\n        /* \"#utility.yul\":966:1019   */\n      tag_89\n        /* \"#utility.yul\":1011:1018   */\n      dup6\n        /* \"#utility.yul\":1002:1008   */\n      dup3\n        /* \"#utility.yul\":991:1000   */\n      dup7\n        /* \"#utility.yul\":987:1009   */\n      add\n        /* \"#utility.yul\":966:1019   */\n      tag_43\n      jump\t// in\n    tag_89:\n        /* \"#utility.yul\":956:1019   */\n      swap3\n      pop\n        /* \"#utility.yul\":912:1029   */\n      pop\n        /* \"#utility.yul\":1068:1070   */\n      0x20\n        /* \"#utility.yul\":1094:1147   */\n      tag_90\n        /* \"#utility.yul\":1139:1146   */\n      dup6\n        /* \"#utility.yul\":1130:1136   */\n      dup3\n        /* \"#utility.yul\":1119:1128   */\n      dup7\n        /* \"#utility.yul\":1115:1137   */\n      add\n        /* \"#utility.yul\":1094:1147   */\n      tag_43\n      jump\t// in\n    tag_90:\n        /* \"#utility.yul\":1084:1147   */\n      swap2\n      pop\n        /* \"#utility.yul\":1039:1157   */\n      pop\n        /* \"#utility.yul\":690:1164   */\n      swap3\n      pop\n      swap3\n      swap1\n      pop\n      jump\t// out\n        /* \"#utility.yul\":1170:1287   */\n    tag_44:\n        /* \"#utility.yul\":1279:1280   */\n      0x00\n        /* \"#utility.yul\":1276:1277   */\n      0x00\n        /* \"#utility.yul\":1269:1281   */\n      revert\n        /* \"#utility.yul\":1293:1410   */\n    tag_45:\n        /* \"#utility.yul\":1402:1403   */\n      0x00\n        /* \"#utility.yul\":1399:1400   */\n      0x00\n        /* \"#utility.yul\":1392:1404   */\n      revert\n        /* \"#utility.yul\":1416:1518   */\n    tag_46:\n        /* \"#utility.yul\":1457:1463   */\n      0x00\n        /* \"#utility.yul\":1508:1510   */\n      0x1f\n        /* \"#utility.yul\":1504:1511   */\n      not\n        /* \"#utility.yul\":1499:1501   */\n      0x1f\n        /* \"#utility.yul\":1492:1497   */\n      dup4\n        /* \"#utility.yul\":1488:1502   */\n      add\n        /* \"#utility.yul\":1484:1512   */\n      and\n        /* \"#utility.yul\":1474:1512   */\n      swap1\n      pop\n        /* \"#utility.yul\":1416:1518   */\n      swap2\n      swap1\n      pop\n      jump\t// out\n        /* \"#utility.yul\":1524:1704   */\n    tag_47:\n        /* \"#utility.yul\":1572:1649   */\n      0x4e487b7100000000000000000000000000000000000000000000000000000000\n        /* \"#utility.yul\":1569:1570   */\n      0x00\n        /* \"#utility.yul\":1562:1650   */\n      mstore\n        /* \"#utility.yul\":1669:1673   */\n      0x41\n        /* \"#utility.yul\":1666:1667   */\n      0x04\n        /* \"#utility.yul\":1659:1674   */\n      mstore\n        /* \"#utility.yul\":1693:1697   */\n      0x24\n        /* \"#utility.yul\":1690:1691   */\n      0x00\n        /* \"#utility.yul\":1683:1698   */\n      revert\n        /* \"#utility.yul\":1710:1991   */\n    tag_48:\n        /* \"#utility.yul\":1793:1820   */\n      tag_96\n        /* \"#utility.yul\":1815:1819   */\n      dup3\n        /* \"#utility.yul\":1793:1820   */\n      tag_46\n      jump\t// in\n    tag_96:\n        /* \"#utility.yul\":1785:1791   */\n      dup2\n        /* \"#utility.yul\":1781:1821   */\n      add\n        /* \"#utility.yul\":1923:1929   */\n      dup2\n        /* \"#utility.yul\":1911:1921   */\n      dup2\n        /* \"#utility.yul\":1908:1930   */\n      lt\n        /* \"#utility.yul\":1887:1905   */\n      0xffffffffffffffff\n        /* \"#utility.yul\":1875:1885   */\n      dup3\n        /* \"#utility.yul\":1872:1906   */\n      gt\n        /* \"#utility.yul\":1869:1931   */\n      or\n        /* \"#utility.yul\":1866:1954   */\n      iszero\n      tag_97\n      jumpi\n        /* \"#utility.yul\":1934:1952   */\n      tag_98\n      tag_47\n      jump\t// in\n    tag_98:\n        /* \"#utility.yul\":1866:1954   */\n    tag_97:\n        /* \"#utility.yul\":1974:1984   */\n      dup1\n        /* \"#utility.yul\":1970:1972   */\n      0x40\n        /* \"#utility.yul\":1963:1985   */\n      mstore\n        /* \"#utility.yul\":1753:1991   */\n      pop\n        /* \"#utility.yul\":1710:1991   */\n      pop\n      pop\n      jump\t// out\n        /* \"#utility.yul\":1997:2126   */\n    tag_49:\n        /* \"#utility.yul\":2031:2037   */\n      0x00\n        /* \"#utility.yul\":2058:2078   */\n      tag_100\n      tag_38\n      jump\t// in\n    tag_100:\n        /* \"#utility.yul\":2048:2078   */\n      swap1\n      pop\n        /* \"#utility.yul\":2087:2120   */\n      tag_101\n        /* \"#utility.yul\":2115:2119   */\n      dup3\n        /* \"#utility.yul\":2107:2113   */\n      dup3\n        /* \"#utility.yul\":2087:2120   */\n      tag_48\n      jump\t// in\n    tag_101:\n        /* \"#utility.yul\":1997:2126   */\n      swap2\n      swap1\n      pop\n      jump\t// out\n        /* \"#utility.yul\":2132:2440   */\n    tag_50:\n        /* \"#utility.yul\":2194:2198   */\n      0x00\n        /* \"#utility.yul\":2284:2302   */\n      0xffffffffffffffff\n        /* \"#utility.yul\":2276:2282   */\n      dup3\n        /* \"#utility.yul\":2273:2303   */\n      gt\n        /* \"#utility.yul\":2270:2326   */\n      iszero\n      tag_103\n      jumpi\n        /* \"#utility.yul\":2306:2324   */\n      tag_104\n      tag_47\n      jump\t// in\n    tag_104:\n        /* \"#utility.yul\":2270:2326   */\n    tag_103:\n        /* \"#utility.yul\":2344:2373   */\n      tag_105\n        /* \"#utility.yul\":2366:2372   */\n      dup3\n        /* \"#utility.yul\":2344:2373   */\n      tag_46\n      jump\t// in\n    tag_105:\n        /* \"#utility.yul\":2336:2373   */\n      swap1\n      pop\n        /* \"#utility.yul\":2428:2432   */\n      0x20\n        /* \"#utility.yul\":2422:2426   */\n      dup2\n        /* \"#utility.yul\":2418:2433   */\n      add\n        /* \"#utility.yul\":2410:2433   */\n      swap1\n      pop\n        /* \"#utility.yul\":2132:2440   */\n      swap2\n      swap1\n      pop\n      jump\t// out\n        /* \"#utility.yul\":2446:2594   */\n    tag_51:\n        /* \"#utility.yul\":2544:2550   */\n      dup3\n        /* \"#utility.yul\":2539:2542   */\n      dup2\n        /* \"#utility.yul\":2534:2537   */\n      dup4\n        /* \"#utility.yul\":2521:2551   */\n      calldatacopy\n        /* \"#utility.yul\":2585:2586   */\n      0x00\n        /* \"#utility.yul\":2576:2582   */\n      dup4\n        /* \"#utility.yul\":2571:2574   */\n      dup4\n        /* \"#utility.yul\":2567:2583   */\n      add\n        /* \"#utility.yul\":2560:2587   */\n      mstore\n        /* \"#utility.yul\":2446:2594   */\n      pop\n      pop\n      pop\n      jump\t// out\n        /* \"#utility.yul\":2600:3025   */\n    tag_52:\n        /* \"#utility.yul\":2678:2683   */\n      0x00\n        /* \"#utility.yul\":2703:2769   */\n      tag_108\n        /* \"#utility.yul\":2719:2768   */\n      tag_109\n        /* \"#utility.yul\":2761:2767   */\n      dup5\n        /* \"#utility.yul\":2719:2768   */\n      tag_50\n      jump\t// in\n    tag_109:\n        /* \"#utility.yul\":2703:2769   */\n      tag_49\n      jump\t// in\n    tag_108:\n        /* \"#utility.yul\":2694:2769   */\n      swap1\n      pop\n        /* \"#utility.yul\":2792:2798   */\n      dup3\n        /* \"#utility.yul\":2785:2790   */\n      dup2\n        /* \"#utility.yul\":2778:2799   */\n      mstore\n        /* \"#utility.yul\":2830:2834   */\n      0x20\n        /* \"#utility.yul\":2823:2828   */\n      dup2\n        /* \"#utility.yul\":2819:2835   */\n      add\n        /* \"#utility.yul\":2868:2871   */\n      dup5\n        /* \"#utility.yul\":2859:2865   */\n      dup5\n        /* \"#utility.yul\":2854:2857   */\n      dup5\n        /* \"#utility.yul\":2850:2866   */\n      add\n        /* \"#utility.yul\":2847:2872   */\n      gt\n        /* \"#utility.yul\":2844:2956   */\n      iszero\n      tag_110\n      jumpi\n        /* \"#utility.yul\":2875:2954   */\n      tag_111\n      tag_45\n      jump\t// in\n    tag_111:\n        /* \"#utility.yul\":2844:2956   */\n    tag_110:\n        /* \"#utility.yul\":2965:3019   */\n      tag_112\n        /* \"#utility.yul\":3012:3018   */\n      dup5\n        /* \"#utility.yul\":3007:3010   */\n      dup3\n        /* \"#utility.yul\":3002:3005   */\n      dup6\n        /* \"#utility.yul\":2965:3019   */\n      tag_51\n      jump\t// in\n    tag_112:\n        /* \"#utility.yul\":2684:3025   */\n      pop\n        /* \"#utility.yul\":2600:3025   */\n      swap4\n      swap3\n      pop\n      pop\n      pop\n      jump\t// out\n        /* \"#utility.yul\":3045:3385   */\n    tag_53:\n        /* \"#utility.yul\":3101:3106   */\n      0x00\n        /* \"#utility.yul\":3150:3153   */\n      dup3\n        /* \"#utility.yul\":3143:3147   */\n      0x1f\n        /* \"#utility.yul\":3135:3141   */\n      dup4\n        /* \"#utility.yul\":3131:3148   */\n      add\n        /* \"#utility.yul\":3127:3154   */\n      slt\n        /* \"#utility.yul\":3117:3239   */\n      tag_114\n      jumpi\n        /* \"#utility.yul\":3158:3237   */\n      tag_115\n      tag_44\n      jump\t// in\n    tag_115:\n        /* \"#utility.yul\":3117:3239   */\n    tag_114:\n        /* \"#utility.yul\":3275:3281   */\n      dup2\n        /* \"#utility.yul\":3262:3282   */\n      calldataload\n        /* \"#utility.yul\":3300:3379   */\n      tag_116\n        /* \"#utility.yul\":3375:3378   */\n      dup5\n        /* \"#utility.yul\":3367:3373   */\n      dup3\n        /* \"#utility.yul\":3360:3364   */\n      0x20\n        /* \"#utility.yul\":3352:3358   */\n      dup7\n        /* \"#utility.yul\":3348:3365   */\n      add\n        /* \"#utility.yul\":3300:3379   */\n      tag_52\n      jump\t// in\n    tag_116:\n        /* \"#utility.yul\":3291:3379   */\n      swap2\n      pop\n        /* \"#utility.yul\":3107:3385   */\n      pop\n        /* \"#utility.yul\":3045:3385   */\n      swap3\n      swap2\n      pop\n      pop\n      jump\t// out\n        /* \"#utility.yul\":3391:4045   */\n    tag_13:\n        /* \"#utility.yul\":3469:3475   */\n      0x00\n        /* \"#utility.yul\":3477:3483   */\n      0x00\n        /* \"#utility.yul\":3526:3528   */\n      0x40\n        /* \"#utility.yul\":3514:3523   */\n      dup4\n        /* \"#utility.yul\":3505:3512   */\n      dup6\n        /* \"#utility.yul\":3501:3524   */\n      sub\n        /* \"#utility.yul\":3497:3529   */\n      slt\n        /* \"#utility.yul\":3494:3613   */\n      iszero\n      tag_118\n      jumpi\n        /* \"#utility.yul\":3532:3611   */\n      tag_119\n      tag_39\n      jump\t// in\n    tag_119:\n        /* \"#utility.yul\":3494:3613   */\n    tag_118:\n        /* \"#utility.yul\":3652:3653   */\n      0x00\n        /* \"#utility.yul\":3677:3730   */\n      tag_120\n        /* \"#utility.yul\":3722:3729   */\n      dup6\n        /* \"#utility.yul\":3713:3719   */\n      dup3\n        /* \"#utility.yul\":3702:3711   */\n      dup7\n        /* \"#utility.yul\":3698:3720   */\n      add\n        /* \"#utility.yul\":3677:3730   */\n      tag_43\n      jump\t// in\n    tag_120:\n        /* \"#utility.yul\":3667:3730   */\n      swap3\n      pop\n        /* \"#utility.yul\":3623:3740   */\n      pop\n        /* \"#utility.yul\":3807:3809   */\n      0x20\n        /* \"#utility.yul\":3796:3805   */\n      dup4\n        /* \"#utility.yul\":3792:3810   */\n      add\n        /* \"#utility.yul\":3779:3811   */\n      calldataload\n        /* \"#utility.yul\":3838:3856   */\n      0xffffffffffffffff\n        /* \"#utility.yul\":3830:3836   */\n      dup2\n        /* \"#utility.yul\":3827:3857   */\n      gt\n        /* \"#utility.yul\":3824:3941   */\n      iszero\n      tag_121\n      jumpi\n        /* \"#utility.yul\":3860:3939   */\n      tag_122\n      tag_40\n      jump\t// in\n    tag_122:\n        /* \"#utility.yul\":3824:3941   */\n    tag_121:\n        /* \"#utility.yul\":3965:4028   */\n      tag_123\n        /* \"#utility.yul\":4020:4027   */\n      dup6\n        /* \"#utility.yul\":4011:4017   */\n      dup3\n        /* \"#utility.yul\":4000:4009   */\n      dup7\n        /* \"#utility.yul\":3996:4018   */\n      add\n        /* \"#utility.yul\":3965:4028   */\n      tag_53\n      jump\t// in\n    tag_123:\n        /* \"#utility.yul\":3955:4028   */\n      swap2\n      pop\n        /* \"#utility.yul\":3750:4038   */\n      pop\n        /* \"#utility.yul\":3391:4045   */\n      swap3\n      pop\n      swap3\n      swap1\n      pop\n      jump\t// out\n        /* \"#utility.yul\":4051:4380   */\n    tag_17:\n        /* \"#utility.yul\":4110:4116   */\n      0x00\n        /* \"#utility.yul\":4159:4161   */\n      0x20\n        /* \"#utility.yul\":4147:4156   */\n      dup3\n        /* \"#utility.yul\":4138:4145   */\n      dup5\n        /* \"#utility.yul\":4134:4157   */\n      sub\n        /* \"#utility.yul\":4130:4162   */\n      slt\n        /* \"#utility.yul\":4127:4246   */\n      iszero\n      tag_125\n      jumpi\n        /* \"#utility.yul\":4165:4244   */\n      tag_126\n      tag_39\n      jump\t// in\n    tag_126:\n        /* \"#utility.yul\":4127:4246   */\n    tag_125:\n        /* \"#utility.yul\":4285:4286   */\n      0x00\n        /* \"#utility.yul\":4310:4363   */\n      tag_127\n        /* \"#utility.yul\":4355:4362   */\n      dup5\n        /* \"#utility.yul\":4346:4352   */\n      dup3\n        /* \"#utility.yul\":4335:4344   */\n      dup6\n        /* \"#utility.yul\":4331:4353   */\n      add\n        /* \"#utility.yul\":4310:4363   */\n      tag_43\n      jump\t// in\n    tag_127:\n        /* \"#utility.yul\":4300:4363   */\n      swap2\n      pop\n        /* \"#utility.yul\":4256:4373   */\n      pop\n        /* \"#utility.yul\":4051:4380   */\n      swap3\n      swap2\n      pop\n      pop\n      jump\t// out\n        /* \"#utility.yul\":4386:4504   */\n    tag_54:\n        /* \"#utility.yul\":4473:4497   */\n      tag_129\n        /* \"#utility.yul\":4491:4496   */\n      dup2\n        /* \"#utility.yul\":4473:4497   */\n      tag_41\n      jump\t// in\n    tag_129:\n        /* \"#utility.yul\":4468:4471   */\n      dup3\n        /* \"#utility.yul\":4461:4498   */\n      mstore\n        /* \"#utility.yul\":4386:4504   */\n      pop\n      pop\n      jump\t// out\n        /* \"#utility.yul\":4510:4732   */\n    tag_20:\n        /* \"#utility.yul\":4603:4607   */\n      0x00\n        /* \"#utility.yul\":4641:4643   */\n      0x20\n        /* \"#utility.yul\":4630:4639   */\n      dup3\n        /* \"#utility.yul\":4626:4644   */\n      add\n        /* \"#utility.yul\":4618:4644   */\n      swap1\n      pop\n        /* \"#utility.yul\":4654:4725   */\n      tag_131\n        /* \"#utility.yul\":4722:4723   */\n      0x00\n        /* \"#utility.yul\":4711:4720   */\n      dup4\n        /* \"#utility.yul\":4707:4724   */\n      add\n        /* \"#utility.yul\":4698:4704   */\n      dup5\n        /* \"#utility.yul\":4654:4725   */\n      tag_54\n      jump\t// in\n    tag_131:\n        /* \"#utility.yul\":4510:4732   */\n      swap3\n      swap2\n      pop\n      pop\n      jump\t// out\n        /* \"#utility.yul\":4738:4837   */\n    tag_55:\n        /* \"#utility.yul\":4790:4796   */\n      0x00\n        /* \"#utility.yul\":4824:4829   */\n      dup2\n        /* \"#utility.yul\":4818:4830   */\n      mload\n        /* \"#utility.yul\":4808:4830   */\n      swap1\n      pop\n        /* \"#utility.yul\":4738:4837   */\n      swap2\n      swap1\n      pop\n      jump\t// out\n        /* \"#utility.yul\":4843:5012   */\n    tag_56:\n        /* \"#utility.yul\":4927:4938   */\n      0x00\n        /* \"#utility.yul\":4961:4967   */\n      dup3\n        /* \"#utility.yul\":4956:4959   */\n      dup3\n        /* \"#utility.yul\":4949:4968   */\n      mstore\n        /* \"#utility.yul\":5001:5005   */\n      0x20\n        /* \"#utility.yul\":4996:4999   */\n      dup3\n        /* \"#utility.yul\":4992:5006   */\n      add\n        /* \"#utility.yul\":4977:5006   */\n      swap1\n      pop\n        /* \"#utility.yul\":4843:5012   */\n      swap3\n      swap2\n      pop\n      pop\n      jump\t// out\n        /* \"#utility.yul\":5018:5157   */\n    tag_57:\n        /* \"#utility.yul\":5107:5113   */\n      dup3\n        /* \"#utility.yul\":5102:5105   */\n      dup2\n        /* \"#utility.yul\":5097:5100   */\n      dup4\n        /* \"#utility.yul\":5091:5114   */\n      mcopy\n        /* \"#utility.yul\":5148:5149   */\n      0x00\n        /* \"#utility.yul\":5139:5145   */\n      dup4\n        /* \"#utility.yul\":5134:5137   */\n      dup4\n        /* \"#utility.yul\":5130:5146   */\n      add\n        /* \"#utility.yul\":5123:5150   */\n      mstore\n        /* \"#utility.yul\":5018:5157   */\n      pop\n      pop\n      pop\n      jump\t// out\n        /* \"#utility.yul\":5163:5540   */\n    tag_58:\n        /* \"#utility.yul\":5251:5254   */\n      0x00\n        /* \"#utility.yul\":5279:5318   */\n      tag_136\n        /* \"#utility.yul\":5312:5317   */\n      dup3\n        /* \"#utility.yul\":5279:5318   */\n      tag_55\n      jump\t// in\n    tag_136:\n        /* \"#utility.yul\":5334:5405   */\n      tag_137\n        /* \"#utility.yul\":5398:5404   */\n      dup2\n        /* \"#utility.yul\":5393:5396   */\n      dup6\n        /* \"#utility.yul\":5334:5405   */\n      tag_56\n      jump\t// in\n    tag_137:\n        /* \"#utility.yul\":5327:5405   */\n      swap4\n      pop\n        /* \"#utility.yul\":5414:5479   */\n      tag_138\n        /* \"#utility.yul\":5472:5478   */\n      dup2\n        /* \"#utility.yul\":5467:5470   */\n      dup6\n        /* \"#utility.yul\":5460:5464   */\n      0x20\n        /* \"#utility.yul\":5453:5458   */\n      dup7\n        /* \"#utility.yul\":5449:5465   */\n      add\n        /* \"#utility.yul\":5414:5479   */\n      tag_57\n      jump\t// in\n    tag_138:\n        /* \"#utility.yul\":5504:5533   */\n      tag_139\n        /* \"#utility.yul\":5526:5532   */\n      dup2\n        /* \"#utility.yul\":5504:5533   */\n      tag_46\n      jump\t// in\n    tag_139:\n        /* \"#utility.yul\":5499:5502   */\n      dup5\n        /* \"#utility.yul\":5495:5534   */\n      add\n        /* \"#utility.yul\":5488:5534   */\n      swap2\n      pop\n        /* \"#utility.yul\":5255:5540   */\n      pop\n        /* \"#utility.yul\":5163:5540   */\n      swap3\n      swap2\n      pop\n      pop\n      jump\t// out\n        /* \"#utility.yul\":5546:5859   */\n    tag_25:\n        /* \"#utility.yul\":5659:5663   */\n      0x00\n        /* \"#utility.yul\":5697:5699   */\n      0x20\n        /* \"#utility.yul\":5686:5695   */\n      dup3\n        /* \"#utility.yul\":5682:5700   */\n      add\n        /* \"#utility.yul\":5674:5700   */\n      swap1\n      pop\n        /* \"#utility.yul\":5746:5755   */\n      dup2\n        /* \"#utility.yul\":5740:5744   */\n      dup2\n        /* \"#utility.yul\":5736:5756   */\n      sub\n        /* \"#utility.yul\":5732:5733   */\n      0x00\n        /* \"#utility.yul\":5721:5730   */\n      dup4\n        /* \"#utility.yul\":5717:5734   */\n      add\n        /* \"#utility.yul\":5710:5757   */\n      mstore\n        /* \"#utility.yul\":5774:5852   */\n      tag_141\n        /* \"#utility.yul\":5847:5851   */\n      dup2\n        /* \"#utility.yul\":5838:5844   */\n      dup5\n        /* \"#utility.yul\":5774:5852   */\n      tag_58\n      jump\t// in\n    tag_141:\n        /* \"#utility.yul\":5766:5852   */\n      swap1\n      pop\n        /* \"#utility.yul\":5546:5859   */\n      swap3\n      swap2\n      pop\n      pop\n      jump\t// out\n        /* \"#utility.yul\":5865:6045   */\n    tag_59:\n        /* \"#utility.yul\":5913:5990   */\n      0x4e487b7100000000000000000000000000000000000000000000000000000000\n        /* \"#utility.yul\":5910:5911   */\n      0x00\n        /* \"#utility.yul\":5903:5991   */\n      mstore\n        /* \"#utility.yul\":6010:6014   */\n      0x11\n        /* \"#utility.yul\":6007:6008   */\n      0x04\n        /* \"#utility.yul\":6000:6015   */\n      mstore\n        /* \"#utility.yul\":6034:6038   */\n      0x24\n        /* \"#utility.yul\":6031:6032   */\n      0x00\n        /* \"#utility.yul\":6024:6039   */\n      revert\n        /* \"#utility.yul\":6051:6242   */\n    tag_28:\n        /* \"#utility.yul\":6091:6094   */\n      0x00\n        /* \"#utility.yul\":6110:6130   */\n      tag_144\n        /* \"#utility.yul\":6128:6129   */\n      dup3\n        /* \"#utility.yul\":6110:6130   */\n      tag_41\n      jump\t// in\n    tag_144:\n        /* \"#utility.yul\":6105:6130   */\n      swap2\n      pop\n        /* \"#utility.yul\":6144:6164   */\n      tag_145\n        /* \"#utility.yul\":6162:6163   */\n      dup4\n        /* \"#utility.yul\":6144:6164   */\n      tag_41\n      jump\t// in\n    tag_145:\n        /* \"#utility.yul\":6139:6164   */\n      swap3\n      pop\n        /* \"#utility.yul\":6187:6188   */\n      dup3\n        /* \"#utility.yul\":6184:6185   */\n      dup3\n        /* \"#utility.yul\":6180:6189   */\n      add\n        /* \"#utility.yul\":6173:6189   */\n      swap1\n      pop\n        /* \"#utility.yul\":6208:6211   */\n      dup1\n        /* \"#utility.yul\":6205:6206   */\n      dup3\n        /* \"#utility.yul\":6202:6212   */\n      gt\n        /* \"#utility.yul\":6199:6235   */\n      iszero\n      tag_146\n      jumpi\n        /* \"#utility.yul\":6215:6233   */\n      tag_147\n      tag_59\n      jump\t// in\n    tag_147:\n        /* \"#utility.yul\":6199:6235   */\n    tag_146:\n        /* \"#utility.yul\":6051:6242   */\n      swap3\n      swap2\n      pop\n      pop\n      jump\t// out\n        /* \"#utility.yul\":6248:6428   */\n    tag_60:\n        /* \"#utility.yul\":6296:6373   */\n      0x4e487b7100000000000000000000000000000000000000000000000000000000\n        /* \"#utility.yul\":6293:6294   */\n      0x00\n        /* \"#utility.yul\":6286:6374   */\n      mstore\n        /* \"#utility.yul\":6393:6397   */\n      0x22\n        /* \"#utility.yul\":6390:6391   */\n      0x04\n        /* \"#utility.yul\":6383:6398   */\n      mstore\n        /* \"#utility.yul\":6417:6421   */\n      0x24\n        /* \"#utility.yul\":6414:6415   */\n      0x00\n        /* \"#utility.yul\":6407:6422   */\n      revert\n        /* \"#utility.yul\":6434:6754   */\n    tag_33:\n        /* \"#utility.yul\":6478:6484   */\n      0x00\n        /* \"#utility.yul\":6515:6516   */\n      0x02\n        /* \"#utility.yul\":6509:6513   */\n      dup3\n        /* \"#utility.yul\":6505:6517   */\n      div\n        /* \"#utility.yul\":6495:6517   */\n      swap1\n      pop\n        /* \"#utility.yul\":6562:6563   */\n      0x01\n        /* \"#utility.yul\":6556:6560   */\n      dup3\n        /* \"#utility.yul\":6552:6564   */\n      and\n        /* \"#utility.yul\":6583:6601   */\n      dup1\n        /* \"#utility.yul\":6573:6654   */\n      tag_150\n      jumpi\n        /* \"#utility.yul\":6639:6643   */\n      0x7f\n        /* \"#utility.yul\":6631:6637   */\n      dup3\n        /* \"#utility.yul\":6627:6644   */\n      and\n        /* \"#utility.yul\":6617:6644   */\n      swap2\n      pop\n        /* \"#utility.yul\":6573:6654   */\n    tag_150:\n        /* \"#utility.yul\":6701:6703   */\n      0x20\n        /* \"#utility.yul\":6693:6699   */\n      dup3\n        /* \"#utility.yul\":6690:6704   */\n      lt\n        /* \"#utility.yul\":6670:6688   */\n      dup2\n        /* \"#utility.yul\":6667:6705   */\n      sub\n        /* \"#utility.yul\":6664:6748   */\n      tag_151\n      jumpi\n        /* \"#utility.yul\":6720:6738   */\n      tag_152\n      tag_60\n      jump\t// in\n    tag_152:\n        /* \"#utility.yul\":6664:6748   */\n    tag_151:\n        /* \"#utility.yul\":6485:6754   */\n      pop\n        /* \"#utility.yul\":6434:6754   */\n      swap2\n      swap1\n      pop\n      jump\t// out\n        /* \"#utility.yul\":6760:6901   */\n    tag_61:\n        /* \"#utility.yul\":6809:6813   */\n      0x00\n        /* \"#utility.yul\":6832:6835   */\n      dup2\n        /* \"#utility.yul\":6824:6835   */\n      swap1\n      pop\n        /* \"#utility.yul\":6855:6858   */\n      dup2\n        /* \"#utility.yul\":6852:6853   */\n      0x00\n        /* \"#utility.yul\":6845:6859   */\n      mstore\n        /* \"#utility.yul\":6889:6893   */\n      0x20\n        /* \"#utility.yul\":6886:6887   */\n      0x00\n        /* \"#utility.yul\":6876:6894   */\n      keccak256\n        /* \"#utility.yul\":6868:6894   */\n      swap1\n      pop\n        /* \"#utility.yul\":6760:6901   */\n      swap2\n      swap1\n      pop\n      jump\t// out\n        /* \"#utility.yul\":6907:7000   */\n    tag_62:\n        /* \"#utility.yul\":6944:6950   */\n      0x00\n        /* \"#utility.yul\":6991:6993   */\n      0x20\n        /* \"#utility.yul\":6986:6988   */\n      0x1f\n        /* \"#utility.yul\":6979:6984   */\n      dup4\n        /* \"#utility.yul\":6975:6989   */\n      add\n        /* \"#utility.yul\":6971:6994   */\n      div\n        /* \"#utility.yul\":6961:6994   */\n      swap1\n      pop\n        /* \"#utility.yul\":6907:7000   */\n      swap2\n      swap1\n      pop\n      jump\t// out\n        /* \"#utility.yul\":7006:7113   */\n    tag_63:\n        /* \"#utility.yul\":7050:7058   */\n      0x00\n        /* \"#utility.yul\":7100:7105   */\n      dup3\n        /* \"#utility.yul\":7094:7098   */\n      dup3\n        /* \"#utility.yul\":7090:7106   */\n      shl\n        /* \"#utility.yul\":7069:7106   */\n      swap1\n      pop\n        /* \"#utility.yul\":7006:7113   */\n      swap3\n      swap2\n      pop\n      pop\n      jump\t// out\n        /* \"#utility.yul\":7119:7512   */\n    tag_64:\n        /* \"#utility.yul\":7188:7194   */\n      0x00\n        /* \"#utility.yul\":7238:7239   */\n      0x08\n        /* \"#utility.yul\":7226:7236   */\n      dup4\n        /* \"#utility.yul\":7222:7240   */\n      mul\n        /* \"#utility.yul\":7261:7358   */\n      tag_157\n        /* \"#utility.yul\":7291:7357   */\n      0xffffffffffffffffffffffffffffffffffffffffffffffffffffffffffffffff\n        /* \"#utility.yul\":7280:7289   */\n      dup3\n        /* \"#utility.yul\":7261:7358   */\n      tag_63\n      jump\t// in\n    tag_157:\n        /* \"#utility.yul\":7379:7418   */\n      tag_158\n        /* \"#utility.yul\":7409:7417   */\n      dup7\n        /* \"#utility.yul\":7398:7407   */\n      dup4\n        /* \"#utility.yul\":7379:7418   */\n      tag_63\n      jump\t// in\n    tag_158:\n        /* \"#utility.yul\":7367:7418   */\n      swap6\n      pop\n        /* \"#utility.yul\":7451:7455   */\n      dup1\n        /* \"#utility.yul\":7447:7456   */\n      not\n        /* \"#utility.yul\":7440:7445   */\n      dup5\n        /* \"#utility.yul\":7436:7457   */\n      and\n        /* \"#utility.yul\":7427:7457   */\n      swap4\n      pop\n        /* \"#utility.yul\":7500:7504   */\n      dup1\n        /* \"#utility.yul\":7490:7498   */\n      dup7\n        /* \"#utility.yul\":7486:7505   */\n      and\n        /* \"#utility.yul\":7479:7484   */\n      dup5\n        /* \"#utility.yul\":7476:7506   */\n      or\n        /* \"#utility.yul\":7466:7506   */\n      swap3\n      pop\n        /* \"#utility.yul\":7195:7512   */\n      pop\n      pop\n        /* \"#utility.yul\":7119:7512   */\n      swap4\n      swap3\n      pop\n      pop\n      pop\n      jump\t// out\n        /* \"#utility.yul\":7518:7578   */\n    tag_65:\n        /* \"#utility.yul\":7546:7549   */\n      0x00\n        /* \"#utility.yul\":7567:7572   */\n      dup2\n        /* \"#utility.yul\":7560:7572   */\n      swap1\n      pop\n        /* \"#utility.yul\":7518:7578   */\n      swap2\n      swap1\n      pop\n      jump\t// out\n        /* \"#utility.yul\":7584:7726   */\n    tag_66:\n        /* \"#utility.yul\":7634:7643   */\n      0x00\n        /* \"#utility.yul\":7667:7720   */\n      tag_161\n        /* \"#utility.yul\":7685:7719   */\n      tag_162\n        /* \"#utility.yul\":7694:7718   */\n      tag_163\n        /* \"#utility.yul\":7712:7717   */\n      dup5\n        /* \"#utility.yul\":7694:7718   */\n      tag_41\n      jump\t// in\n    tag_163:\n        /* \"#utility.yul\":7685:7719   */\n      tag_65\n      jump\t// in\n    tag_162:\n        /* \"#utility.yul\":7667:7720   */\n      tag_41\n      jump\t// in\n    tag_161:\n        /* \"#utility.yul\":7654:7720   */\n      swap1\n      pop\n        /* \"#utility.yul\":7584:7726   */\n      swap2\n      swap1\n      pop\n      jump\t// out\n        /* \"#utility.yul\":7732:7807   */\n    tag_67:\n        /* \"#utility.yul\":7775:7778   */\n      0x00\n        /* \"#utility.yul\":7796:7801   */\n      dup2\n        /* \"#utility.yul\":7789:7801   */\n      swap1\n      pop\n        /* \"#utility.yul\":7732:7807   */\n      swap2\n      swap1\n      pop\n      jump\t// out\n        /* \"#utility.yul\":7813:8082   */\n    tag_68:\n        /* \"#utility.yul\":7923:7962   */\n      tag_166\n        /* \"#utility.yul\":7954:7961   */\n      dup4\n        /* \"#utility.yul\":7923:7962   */\n      tag_66\n      jump\t// in\n    tag_166:\n        /* \"#utility.yul\":7984:8075   */\n      tag_167\n        /* \"#utility.yul\":8033:8074   */\n      tag_168\n        /* \"#utility.yul\":8057:8073   */\n      dup3\n        /* \"#utility.yul\":8033:8074   */\n      tag_67\n      jump\t// in\n    tag_168:\n        /* \"#utility.yul\":8025:8031   */\n      dup5\n        /* \"#utility.yul\":8018:8022   */\n      dup5\n        /* \"#utility.yul\":8012:8023   */\n      sload\n        /* \"#utility.yul\":7984:8075   */\n      tag_64\n      jump\t// in\n    tag_167:\n        /* \"#utility.yul\":7978:7982   */\n      dup3\n        /* \"#utility.yul\":7971:8076   */\n      sstore\n        /* \"#utility.yul\":7889:8082   */\n      pop\n        /* \"#utility.yul\":7813:8082   */\n      pop\n      pop\n      pop\n      jump\t// out\n        /* \"#utility.yul\":8088:8161   */\n    tag_69:\n        /* \"#utility.yul\":8133:8136   */\n      0x00\n        /* \"#utility.yul\":8154:8155   */\n      0x00\n        /* \"#utility.yul\":8147:8155   */\n      swap1\n      pop\n        /* \"#utility.yul\":8088:8161   */\n      swap1\n      jump\t// out\n        /* \"#utility.yul\":8167:8356   */\n    tag_70:\n        /* \"#utility.yul\":8244:8276   */\n      tag_171\n      tag_69\n      jump\t// in\n    tag_171:\n        /* \"#utility.yul\":8285:8350   */\n      tag_172\n        /* \"#utility.yul\":8343:8349   */\n      dup2\n        /* \"#utility.yul\":8335:8341   */\n      dup5\n        /* \"#utility.yul\":8329:8333   */\n      dup5\n        /* \"#utility.yul\":8285:8350   */\n      tag_68\n      jump\t// in\n    tag_172:\n        /* \"#utility.yul\":8220:8356   */\n      pop\n        /* \"#utility.yul\":8167:8356   */\n      pop\n      pop\n      jump\t// out\n        /* \"#utility.yul\":8362:8548   */\n    tag_71:\n        /* \"#utility.yul\":8422:8542   */\n    tag_174:\n        /* \"#utility.yul\":8439:8442   */\n      dup2\n        /* \"#utility.yul\":8432:8437   */\n      dup2\n        /* \"#utility.yul\":8429:8443   */\n      lt\n        /* \"#utility.yul\":8422:8542   */\n      iszero\n      tag_176\n      jumpi\n        /* \"#utility.yul\":8493:8532   */\n      tag_177\n        /* \"#utility.yul\":8530:8531   */\n      0x00\n        /* \"#utility.yul\":8523:8528   */\n      dup3\n        /* \"#utility.yul\":8493:8532   */\n      tag_70\n      jump\t// in\n    tag_177:\n        /* \"#utility.yul\":8466:8467   */\n      0x01\n        /* \"#utility.yul\":8459:8464   */\n      dup2\n        /* \"#utility.yul\":8455:8468   */\n      add\n        /* \"#utility.yul\":8446:8468   */\n      swap1\n      pop\n        /* \"#utility.yul\":8422:8542   */\n      jump(tag_174)\n    tag_176:\n        /* \"#utility.yul\":8362:8548   */\n      pop\n      pop\n      jump\t// out\n        /* \"#utility.yul\":8554:9097   */\n    tag_72:\n        /* \"#utility.yul\":8655:8657   */\n      0x1f\n        /* \"#utility.yul\":8650:8653   */\n      dup3\n        /* \"#utility.yul\":8647:8658   */\n      gt\n        /* \"#utility.yul\":8644:9090   */\n      iszero\n      tag_179\n      jumpi\n        /* \"#utility.yul\":8689:8727   */\n      tag_180\n        /* \"#utility.yul\":8721:8726   */\n      dup2\n        /* \"#utility.yul\":8689:8727   */\n      tag_61\n      jump\t// in\n    tag_180:\n        /* \"#utility.yul\":8773:8802   */\n      tag_181\n        /* \"#utility.yul\":8791:8801   */\n      dup5\n        /* \"#utility.yul\":8773:8802   */\n      tag_62\n      jump\t// in\n    tag_181:\n        /* \"#utility.yul\":8763:8771   */\n      dup2\n        /* \"#utility.yul\":8759:8803   */\n      add\n        /* \"#utility.yul\":8956:8958   */\n      0x20\n        /* \"#utility.yul\":8944:8954   */\n      dup6\n        /* \"#utility.yul\":8941:8959   */\n      lt\n        /* \"#utility.yul\":8938:8987   */\n      iszero\n      tag_182\n      jumpi\n        /* \"#utility.yul\":8977:8985   */\n      dup2\n        /* \"#utility.yul\":8962:8985   */\n      swap1\n      pop\n        /* \"#utility.yul\":8938:8987   */\n    tag_182:\n        /* \"#utility.yul\":9000:9080   */\n      tag_183\n        /* \"#utility.yul\":9056:9078   */\n      tag_184\n        /* \"#utility.yul\":9074:9077   */\n      dup6\n        /* \"#utility.yul\":9056:9078   */\n      tag_62\n      jump\t// in\n    tag_184:\n        /* \"#utility.yul\":9046:9054   */\n      dup4\n        /* \"#utility.yul\":9042:9079   */\n      add\n        /* \"#utility.yul\":9029:9040   */\n      dup3\n        /* \"#utility.yul\":9000:9080   */\n      tag_71\n      jump\t// in\n    tag_183:\n        /* \"#utility.yul\":8659:9090   */\n      pop\n      pop\n        /* \"#utility.yul\":8644:9090   */\n    tag_179:\n        /* \"#utility.yul\":8554:9097   */\n      pop\n      pop\n      pop\n      jump\t// out\n        /* \"#utility.yul\":9103:9220   */\n    tag_73:\n        /* \"#utility.yul\":9157:9165   */\n      0x00\n        /* \"#utility.yul\":9207:9212   */\n      dup3\n        /* \"#utility.yul\":9201:9205   */\n      dup3\n        /* \"#utility.yul\":9197:9213   */\n      shr\n        /* \"#utility.yul\":9176:9213   */\n      swap1\n      pop\n        /* \"#utility.yul\":9103:9220   */\n      swap3\n      swap2\n      pop\n      pop\n      jump\t// out\n        /* \"#utility.yul\":9226:9395   */\n    tag_74:\n        /* \"#utility.yul\":9270:9276   */\n      0x00\n        /* \"#utility.yul\":9303:9354   */\n      tag_187\n        /* \"#utility.yul\":9351:9352   */\n      0x00\n        /* \"#utility.yul\":9347:9353   */\n      not\n        /* \"#utility.yul\":9339:9344   */\n      dup5\n        /* \"#utility.yul\":9336:9337   */\n      0x08\n        /* \"#utility.yul\":9332:9345   */\n      mul\n        /* \"#utility.yul\":9303:9354   */\n      tag_73\n      jump\t// in\n    tag_187:\n        /* \"#utility.yul\":9299:9355   */\n      not\n        /* \"#utility.yul\":9384:9388   */\n      dup1\n        /* \"#utility.yul\":9378:9382   */\n      dup4\n        /* \"#utility.yul\":9374:9389   */\n      and\n        /* \"#utility.yul\":9364:9389   */\n      swap2\n      pop\n        /* \"#utility.yul\":9277:9395   */\n      pop\n        /* \"#utility.yul\":9226:9395   */\n      swap3\n      swap2\n      pop\n      pop\n      jump\t// out\n        /* \"#utility.yul\":9400:9695   */\n    tag_75:\n        /* \"#utility.yul\":9476:9480   */\n      0x00\n        /* \"#utility.yul\":9622:9651   */\n      tag_189\n        /* \"#utility.yul\":9647:9650   */\n      dup4\n        /* \"#utility.yul\":9641:9645   */\n      dup4\n        /* \"#utility.yul\":9622:9651   */\n      tag_74\n      jump\t// in\n    tag_189:\n        /* \"#utility.yul\":9614:9651   */\n      swap2\n      pop\n        /* \"#utility.yul\":9684:9687   */\n      dup3\n        /* \"#utility.yul\":9681:9682   */\n      0x02\n        /* \"#utility.yul\":9677:9688   */\n      mul\n        /* \"#utility.yul\":9671:9675   */\n      dup3\n        /* \"#utility.yul\":9668:9689   */\n      or\n        /* \"#utility.yul\":9660:9689   */\n      swap1\n      pop\n        /* \"#utility.yul\":9400:9695   */\n      swap3\n      swap2\n      pop\n      pop\n      jump\t// out\n        /* \"#utility.yul\":9700:11095   */\n    tag_31:\n        /* \"#utility.yul\":9817:9854   */\n      tag_191\n        /* \"#utility.yul\":9850:9853   */\n      dup3\n        /* \"#utility.yul\":9817:9854   */\n      tag_55\n      jump\t// in\n    tag_191:\n        /* \"#utility.yul\":9919:9937   */\n      0xffffffffffffffff\n        /* \"#utility.yul\":9911:9917   */\n      dup2\n        /* \"#utility.yul\":9908:9938   */\n      gt\n        /* \"#utility.yul\":9905:9961   */\n      iszero\n      tag_192\n      jumpi\n        /* \"#utility.yul\":9941:9959   */\n      tag_193\n      tag_47\n      jump\t// in\n    tag_193:\n        /* \"#utility.yul\":9905:9961   */\n    tag_192:\n        /* \"#utility.yul\":9985:10023   */\n      tag_194\n        /* \"#utility.yul\":10017:10021   */\n      dup3\n        /* \"#utility.yul\":10011:10022   */\n      sload\n        /* \"#utility.yul\":9985:10023   */\n      tag_33\n      jump\t// in\n    tag_194:\n        /* \"#utility.yul\":10070:10137   */\n      tag_195\n        /* \"#utility.yul\":10130:10136   */\n      dup3\n        /* \"#utility.yul\":10122:10128   */\n      dup3\n        /* \"#utility.yul\":10116:10120   */\n      dup6\n        /* \"#utility.yul\":10070:10137   */\n      tag_72\n      jump\t// in\n    tag_195:\n        /* \"#utility.yul\":10164:10165   */\n      0x00\n        /* \"#utility.yul\":10188:10192   */\n      0x20\n        /* \"#utility.yul\":10175:10192   */\n      swap1\n      pop\n        /* \"#utility.yul\":10220:10222   */\n      0x1f\n        /* \"#utility.yul\":10212:10218   */\n      dup4\n        /* \"#utility.yul\":10209:10223   */\n      gt\n        /* \"#utility.yul\":10237:10238   */\n      0x01\n        /* \"#utility.yul\":10232:10850   */\n      dup2\n      eq\n      tag_197\n      jumpi\n        /* \"#utility.yul\":10894:10895   */\n      0x00\n        /* \"#utility.yul\":10911:10917   */\n      dup5\n        /* \"#utility.yul\":10908:10985   */\n      iszero\n      tag_198\n      jumpi\n        /* \"#utility.yul\":10960:10969   */\n      dup3\n        /* \"#utility.yul\":10955:10958   */\n      dup8\n        /* \"#utility.yul\":10951:10970   */\n      add\n        /* \"#utility.yul\":10945:10971   */\n      mload\n        /* \"#utility.yul\":10936:10971   */\n      swap1\n      pop\n        /* \"#utility.yul\":10908:10985   */\n    tag_198:\n        /* \"#utility.yul\":11011:11078   */\n      tag_199\n        /* \"#utility.yul\":11071:11077   */\n      dup6\n        /* \"#utility.yul\":11064:11069   */\n      dup3\n        /* \"#utility.yul\":11011:11078   */\n      tag_75\n      jump\t// in\n    tag_199:\n        /* \"#utility.yul\":11005:11009   */\n      dup7\n        /* \"#utility.yul\":10998:11079   */\n      sstore\n        /* \"#utility.yul\":10867:11089   */\n      pop\n        /* \"#utility.yul\":10202:11089   */\n      jump(tag_196)\n        /* \"#utility.yul\":10232:10850   */\n    tag_197:\n        /* \"#utility.yul\":10284:10288   */\n      0x1f\n        /* \"#utility.yul\":10280:10289   */\n      not\n        /* \"#utility.yul\":10272:10278   */\n      dup5\n        /* \"#utility.yul\":10268:10290   */\n      and\n        /* \"#utility.yul\":10318:10355   */\n      tag_200\n        /* \"#utility.yul\":10350:10354   */\n      dup7\n        /* \"#utility.yul\":10318:10355   */\n      tag_61\n      jump\t// in\n    tag_200:\n        /* \"#utility.yul\":10377:10378   */\n      0x00\n        /* \"#utility.yul\":10391:10599   */\n    tag_201:\n        /* \"#utility.yul\":10405:10412   */\n      dup3\n        /* \"#utility.yul\":10402:10403   */\n      dup2\n        /* \"#utility.yul\":10399:10413   */\n      lt\n        /* \"#utility.yul\":10391:10599   */\n      iszero\n      tag_203\n      jumpi\n        /* \"#utility.yul\":10484:10493   */\n      dup5\n        /* \"#utility.yul\":10479:10482   */\n      dup10\n        /* \"#utility.yul\":10475:10494   */\n      add\n        /* \"#utility.yul\":10469:10495   */\n      mload\n        /* \"#utility.yul\":10461:10467   */\n      dup3\n        /* \"#utility.yul\":10454:10496   */\n      sstore\n        /* \"#utility.yul\":10535:10536   */\n      0x01\n        /* \"#utility.yul\":10527:10533   */\n      dup3\n        /* \"#utility.yul\":10523:10537   */\n      add\n        /* \"#utility.yul\":10513:10537   */\n      swap2\n      pop\n        /* \"#utility.yul\":10582:10584   */\n      0x20\n        /* \"#utility.yul\":10571:10580   */\n      dup6\n        /* \"#utility.yul\":10567:10585   */\n      add\n        /* \"#utility.yul\":10554:10585   */\n      swap5\n      pop\n        /* \"#utility.yul\":10428:10432   */\n      0x20\n        /* \"#utility.yul\":10425:10426   */\n      dup2\n        /* \"#utility.yul\":10421:10433   */\n      add\n        /* \"#utility.yul\":10416:10433   */\n      swap1\n      pop\n        /* \"#utility.yul\":10391:10599   */\n      jump(tag_201)\n    tag_203:\n        /* \"#utility.yul\":10627:10633   */\n      dup7\n        /* \"#utility.yul\":10618:10625   */\n      dup4\n        /* \"#utility.yul\":10615:10634   */\n      lt\n        /* \"#utility.yul\":10612:10791   */\n      iszero\n      tag_204\n      jumpi\n        /* \"#utility.yul\":10685:10694   */\n      dup5\n        /* \"#utility.yul\":10680:10683   */\n      dup10\n        /* \"#utility.yul\":10676:10695   */\n      add\n        /* \"#utility.yul\":10670:10696   */\n      mload\n        /* \"#utility.yul\":10728:10776   */\n      tag_205\n        /* \"#utility.yul\":10770:10774   */\n      0x1f\n        /* \"#utility.yul\":10762:10768   */\n      dup10\n        /* \"#utility.yul\":10758:10775   */\n      and\n        /* \"#utility.yul\":10747:10756   */\n      dup3\n        /* \"#utility.yul\":10728:10776   */\n      tag_74\n      jump\t// in\n    tag_205:\n        /* \"#utility.yul\":10720:10726   */\n      dup4\n        /* \"#utility.yul\":10713:10777   */\n      sstore\n        /* \"#utility.yul\":10635:10791   */\n      pop\n        /* \"#utility.yul\":10612:10791   */\n    tag_204:\n        /* \"#utility.yul\":10837:10838   */\n      0x01\n        /* \"#utility.yul\":10833:10834   */\n      0x02\n        /* \"#utility.yul\":10825:10831   */\n      dup9\n        /* \"#utility.yul\":10821:10835   */\n      mul\n        /* \"#utility.yul\":10817:10839   */\n      add\n        /* \"#utility.yul\":10811:10815   */\n      dup9\n        /* \"#utility.yul\":10804:10840   */\n      sstore\n        /* \"#utility.yul\":10239:10850   */\n      pop\n      pop\n      pop\n        /* \"#utility.yul\":10202:11089   */\n    tag_196:\n      pop\n        /* \"#utility.yul\":9792:11095   */\n      pop\n      pop\n      pop\n        /* \"#utility.yul\":9700:11095   */\n      pop\n      pop\n      jump\t// out\n\n    auxdata: 0xa26469706673582212203ad8534b7fe1240d073ab118ba3bee65dcc31f766f515cfd07eba922d82217d664736f6c634300081f0033\n}\n",
				"bytecode": {
					"linkReferences": {},
					"object": "6080604052348015600e575f5ffd5b506108458061001c5f395ff3fe608060405234801561000f575f5ffd5b506004361061004a575f3560e01c80632e566ebd1461004e57806342ecc52a1461006a5780639c823b4014610086578063a031fc56146100b6575b5f5ffd5b6100686004803603810190610063919061023c565b6100e6565b005b610084600480360381019061007f91906103b6565b610111565b005b6100a0600480360381019061009b9190610410565b610149565b6040516100ad919061044a565b60405180910390f35b6100d060048036038101906100cb9190610410565b61015e565b6040516100dd91906104c3565b60405180910390f35b8060015f8481526020019081526020015f205f8282546101069190610510565b925050819055505050565b805f5f8481526020019081526020015f20908161012e9190610740565b505f60015f8481526020019081526020015f20819055505050565b6001602052805f5260405f205f915090505481565b5f602052805f5260405f205f91509050805461017990610570565b80601f01602080910402602001604051908101604052809291908181526020018280546101a590610570565b80156101f05780601f106101c7576101008083540402835291602001916101f0565b820191905f5260205f20905b8154815290600101906020018083116101d357829003601f168201915b505050505081565b5f604051905090565b5f5ffd5b5f5ffd5b5f819050919050565b61021b81610209565b8114610225575f5ffd5b50565b5f8135905061023681610212565b92915050565b5f5f6040838503121561025257610251610201565b5b5f61025f85828601610228565b925050602061027085828601610228565b9150509250929050565b5f5ffd5b5f5ffd5b5f601f19601f8301169050919050565b7f4e487b71000000000000000000000000000000000000000000000000000000005f52604160045260245ffd5b6102c882610282565b810181811067ffffffffffffffff821117156102e7576102e6610292565b5b80604052505050565b5f6102f96101f8565b905061030582826102bf565b919050565b5f67ffffffffffffffff82111561032457610323610292565b5b61032d82610282565b9050602081019050919050565b828183375f83830152505050565b5f61035a6103558461030a565b6102f0565b9050828152602081018484840111156103765761037561027e565b5b61038184828561033a565b509392505050565b5f82601f83011261039d5761039c61027a565b5b81356103ad848260208601610348565b91505092915050565b5f5f604083850312156103cc576103cb610201565b5b5f6103d985828601610228565b925050602083013567ffffffffffffffff8111156103fa576103f9610205565b5b61040685828601610389565b9150509250929050565b5f6020828403121561042557610424610201565b5b5f61043284828501610228565b91505092915050565b61044481610209565b82525050565b5f60208201905061045d5f83018461043b565b92915050565b5f81519050919050565b5f82825260208201905092915050565b8281835e5f83830152505050565b5f61049582610463565b61049f818561046d565b93506104af81856020860161047d565b6104b881610282565b840191505092915050565b5f6020820190508181035f8301526104db818461048b565b905092915050565b7f4e487b71000000000000000000000000000000000000000000000000000000005f52601160045260245ffd5b5f61051a82610209565b915061052583610209565b925082820190508082111561053d5761053c6104e3565b5b92915050565b7f4e487b71000000000000000000000000000000000000000000000000000000005f52602260045260245ffd5b5f600282049050600182168061058757607f821691505b60208210810361059a57610599610543565b5b50919050565b5f819050815f5260205f209050919050565b5f6020601f8301049050919050565b5f82821b905092915050565b5f600883026105fc7fffffffffffffffffffffffffffffffffffffffffffffffffffffffffffffffff826105c1565b61060686836105c1565b95508019841693508086168417925050509392505050565b5f819050919050565b5f61064161063c61063784610209565b61061e565b610209565b9050919050565b5f819050919050565b61065a83610627565b61066e61066682610648565b8484546105cd565b825550505050565b5f5f905090565b610685610676565b610690818484610651565b505050565b5b818110156106b3576106a85f8261067d565b600181019050610696565b5050565b601f8211156106f8576106c9816105a0565b6106d2846105b2565b810160208510156106e1578190505b6106f56106ed856105b2565b830182610695565b50505b505050565b5f82821c905092915050565b5f6107185f19846008026106fd565b1980831691505092915050565b5f6107308383610709565b9150826002028217905092915050565b61074982610463565b67ffffffffffffffff81111561076257610761610292565b5b61076c8254610570565b6107778282856106b7565b5f60209050601f8311600181146107a8575f8415610796578287015190505b6107a08582610725565b865550610807565b601f1984166107b6866105a0565b5f5b828110156107dd578489015182556001820191506020850194506020810190506107b8565b868310156107fa57848901516107f6601f891682610709565b8355505b6001600288020188555050505b50505050505056fea26469706673582212203ad8534b7fe1240d073ab118ba3bee65dcc31f766f515cfd07eba922d82217d664736f6c634300081f0033",
					"opcodes": "PUSH1 0x80 PUSH1 0x40 MSTORE CALLVALUE DUP1 ISZERO PUSH1 0xE JUMPI PUSH0 PUSH0 REVERT JUMPDEST POP PUSH2 0x845 DUP1 PUSH2 0x1C PUSH0 CODECOPY PUSH0 RETURN INVALID PUSH1 0x80 PUSH1 0x40 MSTORE CALLVALUE DUP1 ISZERO PUSH2 0xF JUMPI PUSH0 PUSH0 REVERT JUMPDEST POP PUSH1 0x4 CALLDATASIZE LT PUSH2 0x4A JUMPI PUSH0 CALLDATALOAD PUSH1 0xE0 SHR DUP1 PUSH4 0x2E566EBD EQ PUSH2 0x4E JUMPI DUP1 PUSH4 0x42ECC52A EQ PUSH2 0x6A JUMPI DUP1 PUSH4 0x9C823B40 EQ PUSH2 0x86 JUMPI DUP1 PUSH4 0xA031FC56 EQ PUSH2 0xB6 JUMPI JUMPDEST PUSH0 PUSH0 REVERT JUMPDEST PUSH2 0x68 PUSH1 0x4 DUP1 CALLDATASIZE SUB DUP2 ADD SWAP1 PUSH2 0x63 SWAP2 SWAP1 PUSH2 0x23C JUMP JUMPDEST PUSH2 0xE6 JUMP JUMPDEST STOP JUMPDEST PUSH2 0x84 PUSH1 0x4 DUP1 CALLDATASIZE SUB DUP2 ADD SWAP1 PUSH2 0x7F SWAP2 SWAP1 PUSH2 0x3B6 JUMP JUMPDEST PUSH2 0x111 JUMP JUMPDEST STOP JUMPDEST PUSH2 0xA0 PUSH1 0x4 DUP1 CALLDATASIZE SUB DUP2 ADD SWAP1 PUSH2 0x9B SWAP2 SWAP1 PUSH2 0x410 JUMP JUMPDEST PUSH2 0x149 JUMP JUMPDEST PUSH1 0x40 MLOAD PUSH2 0xAD SWAP2 SWAP1 PUSH2 0x44A JUMP JUMPDEST PUSH1 0x40 MLOAD DUP1 SWAP2 SUB SWAP1 RETURN JUMPDEST PUSH2 0xD0 PUSH1 0x4 DUP1 CALLDATASIZE SUB DUP2 ADD SWAP1 PUSH2 0xCB SWAP2 SWAP1 PUSH2 0x410 JUMP JUMPDEST PUSH2 0x15E JUMP JUMPDEST PUSH1 0x40 MLOAD PUSH2 0xDD SWAP2 SWAP1 PUSH2 0x4C3 JUMP JUMPDEST PUSH1 0x40 MLOAD DUP1 SWAP2 SUB SWAP1 RETURN JUMPDEST DUP1 PUSH1 0x1 PUSH0 DUP5 DUP2 MSTORE PUSH1 0x20 ADD SWAP1 DUP2 MSTORE PUSH1 0x20 ADD PUSH0 KECCAK256 PUSH0 DUP3 DUP3 SLOAD PUSH2 0x106 SWAP2 SWAP1 PUSH2 0x510 JUMP JUMPDEST SWAP3 POP POP DUP2 SWAP1 SSTORE POP POP POP JUMP JUMPDEST DUP1 PUSH0 PUSH0 DUP5 DUP2 MSTORE PUSH1 0x20 ADD SWAP1 DUP2 MSTORE PUSH1 0x20 ADD PUSH0 KECCAK256 SWAP1 DUP2 PUSH2 0x12E SWAP2 SWAP1 PUSH2 0x740 JUMP JUMPDEST POP PUSH0 PUSH1 0x1 PUSH0 DUP5 DUP2 MSTORE PUSH1 0x20 ADD SWAP1 DUP2 MSTORE PUSH1 0x20 ADD PUSH0 KECCAK256 DUP2 SWAP1 SSTORE POP POP POP JUMP JUMPDEST PUSH1 0x1 PUSH1 0x20 MSTORE DUP1 PUSH0 MSTORE PUSH1 0x40 PUSH0 KECCAK256 PUSH0 SWAP2 POP SWAP1 POP SLOAD DUP2 JUMP JUMPDEST PUSH0 PUSH1 0x20 MSTORE DUP1 PUSH0 MSTORE PUSH1 0x40 PUSH0 KECCAK256 PUSH0 SWAP2 POP SWAP1 POP DUP1 SLOAD PUSH2 0x179 SWAP1 PUSH2 0x570 JUMP JUMPDEST DUP1 PUSH1 0x1F ADD PUSH1 0x20 DUP1 SWAP2 DIV MUL PUSH1 0x20 ADD PUSH1 0x40 MLOAD SWAP1 DUP2 ADD PUSH1 0x40 MSTORE DUP1 SWAP3 SWAP2 SWAP1 DUP2 DUP2 MSTORE PUSH1 0x20 ADD DUP3 DUP1 SLOAD PUSH2 0x1A5 SWAP1 PUSH2 0x570 JUMP JUMPDEST DUP1 ISZERO PUSH2 0x1F0 JUMPI DUP1 PUSH1 0x1F LT PUSH2 0x1C7 JUMPI PUSH2 0x100 DUP1 DUP4 SLOAD DIV MUL DUP4 MSTORE SWAP2 PUSH1 0x20 ADD SWAP2 PUSH2 0x1F0 JUMP JUMPDEST DUP3 ADD SWAP2 SWAP1 PUSH0 MSTORE PUSH1 0x20 PUSH0 KECCAK256 SWAP1 JUMPDEST DUP2 SLOAD DUP2 MSTORE SWAP1 PUSH1 0x1 ADD SWAP1 PUSH1 0x20 ADD DUP1 DUP4 GT PUSH2 0x1D3 JUMPI DUP3 SWAP1 SUB PUSH1 0x1F AND DUP3 ADD SWAP2 JUMPDEST POP POP POP POP POP DUP2 JUMP JUMPDEST PUSH0 PUSH1 0x40 MLOAD SWAP1 POP SWAP1 JUMP JUMPDEST PUSH0 PUSH0 REVERT JUMPDEST PUSH0 PUSH0 REVERT JUMPDEST PUSH0 DUP2 SWAP1 POP SWAP2 SWAP1 POP JUMP JUMPDEST PUSH2 0x21B DUP2 PUSH2 0x209 JUMP JUMPDEST DUP2 EQ PUSH2 0x225 JUMPI PUSH0 PUSH0 REVERT JUMPDEST POP JUMP JUMPDEST PUSH0 DUP2 CALLDATALOAD SWAP1 POP PUSH2 0x236 DUP2 PUSH2 0x212 JUMP JUMPDEST SWAP3 SWAP2 POP POP JUMP JUMPDEST PUSH0 PUSH0 PUSH1 0x40 DUP4 DUP6 SUB SLT ISZERO PUSH2 0x252 JUMPI PUSH2 0x251 PUSH2 0x201 JUMP JUMPDEST JUMPDEST PUSH0 PUSH2 0x25F DUP6 DUP3 DUP7 ADD PUSH2 0x228 JUMP JUMPDEST SWAP3 POP POP PUSH1 0x20 PUSH2 0x270 DUP6 DUP3 DUP7 ADD PUSH2 0x228 JUMP JUMPDEST SWAP2 POP POP SWAP3 POP SWAP3 SWAP1 POP JUMP JUMPDEST PUSH0 PUSH0 REVERT JUMPDEST PUSH0 PUSH0 REVERT JUMPDEST PUSH0 PUSH1 0x1F NOT PUSH1 0x1F DUP4 ADD AND SWAP1 POP SWAP2 SWAP1 POP JUMP JUMPDEST PUSH32 0x4E487B7100000000000000000000000000000000000000000000000000000000 PUSH0 MSTORE PUSH1 0x41 PUSH1 0x4 MSTORE PUSH1 0x24 PUSH0 REVERT JUMPDEST PUSH2 0x2C8 DUP3 PUSH2 0x282 JUMP JUMPDEST DUP2 ADD DUP2 DUP2 LT PUSH8 0xFFFFFFFFFFFFFFFF DUP3 GT OR ISZERO PUSH2 0x2E7 JUMPI PUSH2 0x2E6 PUSH2 0x292 JUMP JUMPDEST JUMPDEST DUP1 PUSH1 0x40 MSTORE POP POP POP JUMP JUMPDEST PUSH0 PUSH2 0x2F9 PUSH2 0x1F8 JUMP JUMPDEST SWAP1 POP PUSH2 0x305 DUP3 DUP3 PUSH2 0x2BF JUMP JUMPDEST SWAP2 SWAP1 POP JUMP JUMPDEST PUSH0 PUSH8 0xFFFFFFFFFFFFFFFF DUP3 GT ISZERO PUSH2 0x324 JUMPI PUSH2 0x323 PUSH2 0x292 JUMP JUMPDEST JUMPDEST PUSH2 0x32D DUP3 PUSH2 0x282 JUMP JUMPDEST SWAP1 POP PUSH1 0x20 DUP2 ADD SWAP1 POP SWAP2 SWAP1 POP JUMP JUMPDEST DUP3 DUP2 DUP4 CALLDATACOPY PUSH0 DUP4 DUP4 ADD MSTORE POP POP POP JUMP JUMPDEST PUSH0 PUSH2 0x35A PUSH2 0x355 DUP5 PUSH2 0x30A JUMP JUMPDEST PUSH2 0x2F0 JUMP JUMPDEST SWAP1 POP DUP3 DUP2 MSTORE PUSH1 0x20 DUP2 ADD DUP5 DUP5 DUP5 ADD GT ISZERO PUSH2 0x376 JUMPI PUSH2 0x375 PUSH2 0x27E JUMP JUMPDEST JUMPDEST PUSH2 0x381 DUP5 DUP3 DUP6 PUSH2 0x33A JUMP JUMPDEST POP SWAP4 SWAP3 POP POP POP JUMP JUMPDEST PUSH0 DUP3 PUSH1 0x1F DUP4 ADD SLT PUSH2 0x39D JUMPI PUSH2 0x39C PUSH2 0x27A JUMP JUMPDEST JUMPDEST DUP2 CALLDATALOAD PUSH2 0x3AD DUP5 DUP3 PUSH1 0x20 DUP7 ADD PUSH2 0x348 JUMP JUMPDEST SWAP2 POP POP SWAP3 SWAP2 POP POP JUMP JUMPDEST PUSH0 PUSH0 PUSH1 0x40 DUP4 DUP6 SUB SLT ISZERO PUSH2 0x3CC JUMPI PUSH2 0x3CB PUSH2 0x201 JUMP JUMPDEST JUMPDEST PUSH0 PUSH2 0x3D9 DUP6 DUP3 DUP7 ADD PUSH2 0x228 JUMP JUMPDEST SWAP3 POP POP PUSH1 0x20 DUP4 ADD CALLDATALOAD PUSH8 0xFFFFFFFFFFFFFFFF DUP2 GT ISZERO PUSH2 0x3FA JUMPI PUSH2 0x3F9 PUSH2 0x205 JUMP JUMPDEST JUMPDEST PUSH2 0x406 DUP6 DUP3 DUP7 ADD PUSH2 0x389 JUMP JUMPDEST SWAP2 POP POP SWAP3 POP SWAP3 SWAP1 POP JUMP JUMPDEST PUSH0 PUSH1 0x20 DUP3 DUP5 SUB SLT ISZERO PUSH2 0x425 JUMPI PUSH2 0x424 PUSH2 0x201 JUMP JUMPDEST JUMPDEST PUSH0 PUSH2 0x432 DUP5 DUP3 DUP6 ADD PUSH2 0x228 JUMP JUMPDEST SWAP2 POP POP SWAP3 SWAP2 POP POP JUMP JUMPDEST PUSH2 0x444 DUP2 PUSH2 0x209 JUMP JUMPDEST DUP3 MSTORE POP POP JUMP JUMPDEST PUSH0 PUSH1 0x20 DUP3 ADD SWAP1 POP PUSH2 0x45D PUSH0 DUP4 ADD DUP5 PUSH2 0x43B JUMP JUMPDEST SWAP3 SWAP2 POP POP JUMP JUMPDEST PUSH0 DUP2 MLOAD SWAP1 POP SWAP2 SWAP1 POP JUMP JUMPDEST PUSH0 DUP3 DUP3 MSTORE PUSH1 0x20 DUP3 ADD SWAP1 POP SWAP3 SWAP2 POP POP JUMP JUMPDEST DUP3 DUP2 DUP4 MCOPY PUSH0 DUP4 DUP4 ADD MSTORE POP POP POP JUMP JUMPDEST PUSH0 PUSH2 0x495 DUP3 PUSH2 0x463 JUMP JUMPDEST PUSH2 0x49F DUP2 DUP6 PUSH2 0x46D JUMP JUMPDEST SWAP4 POP PUSH2 0x4AF DUP2 DUP6 PUSH1 0x20 DUP7 ADD PUSH2 0x47D JUMP JUMPDEST PUSH2 0x4B8 DUP2 PUSH2 0x282 JUMP JUMPDEST DUP5 ADD SWAP2 POP POP SWAP3 SWAP2 POP POP JUMP JUMPDEST PUSH0 PUSH1 0x20 DUP3 ADD SWAP1 POP DUP2 DUP2 SUB PUSH0 DUP4 ADD MSTORE PUSH2 0x4DB DUP2 DUP5 PUSH2 0x48B JUMP JUMPDEST SWAP1 POP SWAP3 SWAP2 POP POP JUMP JUMPDEST PUSH32 0x4E487B7100000000000000000000000000000000000000000000000000000000 PUSH0 MSTORE PUSH1 0x11 PUSH1 0x4 MSTORE PUSH1 0x24 PUSH0 REVERT JUMPDEST PUSH0 PUSH2 0x51A DUP3 PUSH2 0x209 JUMP JUMPDEST SWAP2 POP PUSH2 0x525 DUP4 PUSH2 0x209 JUMP JUMPDEST SWAP3 POP DUP3 DUP3 ADD SWAP1 POP DUP1 DUP3 GT ISZERO PUSH2 0x53D JUMPI PUSH2 0x53C PUSH2 0x4E3 JUMP JUMPDEST JUMPDEST SWAP3 SWAP2 POP POP JUMP JUMPDEST PUSH32 0x4E487B7100000000000000000000000000000000000000000000000000000000 PUSH0 MSTORE PUSH1 0x22 PUSH1 0x4 MSTORE PUSH1 0x24 PUSH0 REVERT JUMPDEST PUSH0 PUSH1 0x2 DUP3 DIV SWAP1 POP PUSH1 0x1 DUP3 AND DUP1 PUSH2 0x587 JUMPI PUSH1 0x7F DUP3 AND SWAP2 POP JUMPDEST PUSH1 0x20 DUP3 LT DUP2 SUB PUSH2 0x59A JUMPI PUSH2 0x599 PUSH2 0x543 JUMP JUMPDEST JUMPDEST POP SWAP2 SWAP1 POP JUMP JUMPDEST PUSH0 DUP2 SWAP1 POP DUP2 PUSH0 MSTORE PUSH1 0x20 PUSH0 KECCAK256 SWAP1 POP SWAP2 SWAP1 POP JUMP JUMPDEST PUSH0 PUSH1 0x20 PUSH1 0x1F DUP4 ADD DIV SWAP1 POP SWAP2 SWAP1 POP JUMP JUMPDEST PUSH0 DUP3 DUP3 SHL SWAP1 POP SWAP3 SWAP2 POP POP JUMP JUMPDEST PUSH0 PUSH1 0x8 DUP4 MUL PUSH2 0x5FC PUSH32 0xFFFFFFFFFFFFFFFFFFFFFFFFFFFFFFFFFFFFFFFFFFFFFFFFFFFFFFFFFFFFFFFF DUP3 PUSH2 0x5C1 JUMP JUMPDEST PUSH2 0x606 DUP7 DUP4 PUSH2 0x5C1 JUMP JUMPDEST SWAP6 POP DUP1 NOT DUP5 AND SWAP4 POP DUP1 DUP7 AND DUP5 OR SWAP3 POP POP POP SWAP4 SWAP3 POP POP POP JUMP JUMPDEST PUSH0 DUP2 SWAP1 POP SWAP2 SWAP1 POP JUMP JUMPDEST PUSH0 PUSH2 0x641 PUSH2 0x63C PUSH2 0x637 DUP5 PUSH2 0x209 JUMP JUMPDEST PUSH2 0x61E JUMP JUMPDEST PUSH2 0x209 JUMP JUMPDEST SWAP1 POP SWAP2 SWAP1 POP JUMP JUMPDEST PUSH0 DUP2 SWAP1 POP SWAP2 SWAP1 POP JUMP JUMPDEST PUSH2 0x65A DUP4 PUSH2 0x627 JUMP JUMPDEST PUSH2 0x66E PUSH2 0x666 DUP3 PUSH2 0x648 JUMP JUMPDEST DUP5 DUP5 SLOAD PUSH2 0x5CD JUMP JUMPDEST DUP3 SSTORE POP POP POP POP JUMP JUMPDEST PUSH0 PUSH0 SWAP1 POP SWAP1 JUMP JUMPDEST PUSH2 0x685 PUSH2 0x676 JUMP JUMPDEST PUSH2 0x690 DUP2 DUP5 DUP5 PUSH2 0x651 JUMP JUMPDEST POP POP POP JUMP JUMPDEST JUMPDEST DUP2 DUP2 LT ISZERO PUSH2 0x6B3 JUMPI PUSH2 0x6A8 PUSH0 DUP3 PUSH2 0x67D JUMP JUMPDEST PUSH1 0x1 DUP2 ADD SWAP1 POP PUSH2 0x696 JUMP JUMPDEST POP POP JUMP JUMPDEST PUSH1 0x1F DUP3 GT ISZERO PUSH2 0x6F8 JUMPI PUSH2 0x6C9 DUP2 PUSH2 0x5A0 JUMP JUMPDEST PUSH2 0x6D2 DUP5 PUSH2 0x5B2 JUMP JUMPDEST DUP2 ADD PUSH1 0x20 DUP6 LT ISZERO PUSH2 0x6E1 JUMPI DUP2 SWAP1 POP JUMPDEST PUSH2 0x6F5 PUSH2 0x6ED DUP6 PUSH2 0x5B2 JUMP JUMPDEST DUP4 ADD DUP3 PUSH2 0x695 JUMP JUMPDEST POP POP JUMPDEST POP POP POP JUMP JUMPDEST PUSH0 DUP3 DUP3 SHR SWAP1 POP SWAP3 SWAP2 POP POP JUMP JUMPDEST PUSH0 PUSH2 0x718 PUSH0 NOT DUP5 PUSH1 0x8 MUL PUSH2 0x6FD JUMP JUMPDEST NOT DUP1 DUP4 AND SWAP2 POP POP SWAP3 SWAP2 POP POP JUMP JUMPDEST PUSH0 PUSH2 0x730 DUP4 DUP4 PUSH2 0x709 JUMP JUMPDEST SWAP2 POP DUP3 PUSH1 0x2 MUL DUP3 OR SWAP1 POP SWAP3 SWAP2 POP POP JUMP JUMPDEST PUSH2 0x749 DUP3 PUSH2 0x463 JUMP JUMPDEST PUSH8 0xFFFFFFFFFFFFFFFF DUP2 GT ISZERO PUSH2 0x762 JUMPI PUSH2 0x761 PUSH2 0x292 JUMP JUMPDEST JUMPDEST PUSH2 0x76C DUP3 SLOAD PUSH2 0x570 JUMP JUMPDEST PUSH2 0x777 DUP3 DUP3 DUP6 PUSH2 0x6B7 JUMP JUMPDEST PUSH0 PUSH1 0x20 SWAP1 POP PUSH1 0x1F DUP4 GT PUSH1 0x1 DUP2 EQ PUSH2 0x7A8 JUMPI PUSH0 DUP5 ISZERO PUSH2 0x796 JUMPI DUP3 DUP8 ADD MLOAD SWAP1 POP JUMPDEST PUSH2 0x7A0 DUP6 DUP3 PUSH2 0x725 JUMP JUMPDEST DUP7 SSTORE POP PUSH2 0x807 JUMP JUMPDEST PUSH1 0x1F NOT DUP5 AND PUSH2 0x7B6 DUP7 PUSH2 0x5A0 JUMP JUMPDEST PUSH0 JUMPDEST DUP3 DUP2 LT ISZERO PUSH2 0x7DD JUMPI DUP5 DUP10 ADD MLOAD DUP3 SSTORE PUSH1 0x1 DUP3 ADD SWAP2 POP PUSH1 0x20 DUP6 ADD SWAP5 POP PUSH1 0x20 DUP2 ADD SWAP1 POP PUSH2 0x7B8 JUMP JUMPDEST DUP7 DUP4 LT ISZERO PUSH2 0x7FA JUMPI DUP5 DUP10 ADD MLOAD PUSH2 0x7F6 PUSH1 0x1F DUP10 AND DUP3 PUSH2 0x709 JUMP JUMPDEST DUP4 SSTORE POP JUMPDEST PUSH1 0x1 PUSH1 0x2 DUP9 MUL ADD DUP9 SSTORE POP POP POP JUMPDEST POP POP POP POP POP POP JUMP INVALID LOG2 PUSH5 0x6970667358 0x22 SLT KECCAK256 GASPRICE 0xD8 MSTORE8 0x4B PUSH32 0xE1240D073AB118BA3BEE65DCC31F766F515CFD07EBA922D82217D664736F6C63 NUMBER STOP ADDMOD 0x1F STOP CALLER "
				},
				"gasEstimates": {
					"creation": {
						"codeDepositCost": "423400",
						"executionCost": "459",
						"totalCost": "423859"
					},
					"external": {
						"addCredits(uint256,uint256)": "infinite",
						"addStudent(uint256,string)": "infinite",
						"studentCredits(uint256)": "infinite",
						"studentName(uint256)": "infinite"
					}
				},
				"methodIdentifiers": {
					"addCredits(uint256,uint256)": "2e566ebd",
					"addStudent(uint256,string)": "42ecc52a",
					"studentCredits(uint256)": "9c823b40",
					"studentName(uint256)": "a031fc56"
				}
			},
			"storageLayout": {
				"storage": [
					{
						"astId": 5,
						"contract": "contracts/LearnMapping.sol:LearnMapping",
						"label": "studentName",
						"offset": 0,
						"slot": "0",
						"type": "t_mapping(t_uint256,t_string_storage)"
					},
					{
						"astId": 9,
						"contract": "contracts/LearnMapping.sol:LearnMapping",
						"label": "studentCredits",
						"offset": 0,
						"slot": "1",
						"type": "t_mapping(t_uint256,t_uint256)"
					}
				],
				"types": {
					"t_mapping(t_uint256,t_string_storage)": {
						"encoding": "mapping",
						"key": "t_uint256",
						"label": "mapping(uint256 => string)",
						"numberOfBytes": "32",
						"value": "t_string_storage"
					},
					"t_mapping(t_uint256,t_uint256)": {
						"encoding": "mapping",
						"key": "t_uint256",
						"label": "mapping(uint256 => uint256)",
						"numberOfBytes": "32",
						"value": "t_uint256"
					},
					"t_string_storage": {
						"encoding": "bytes",
						"label": "string",
						"numberOfBytes": "32"
					},
					"t_uint256": {
						"encoding": "inplace",
						"label": "uint256",
						"numberOfBytes": "32"
					}
				}
			},
			"userdoc": {
				"kind": "user",
				"methods": {},
				"version": 1
			}
		}
	}
}