{
	"contracts/MultipleStudents.sol": {
		"MultipleStudents": {
			"abi": [
				{
					"inputs": [
						{
							"internalType": "uint256",
							"name": "_id",
							"type": "uint256"
						},
						{
							"internalType": "uint8",
							"name": "_amount",
							"type": "uint8"
						}
					],
					"name": "addCredits",
					"outputs": [],
					"stateMutability": "nonpayable",
					"type": "function"
				},
				{
					"inputs": [
						{
							"internalType": "string",
							"name": "_name",
							"type": "string"
						}
					],
					"name": "addStudent",
					"outputs": [
						{
							"internalType": "uint256",
							"name": "",
							"type": "uint256"
						}
					],
					"stateMutability": "nonpayable",
					"type": "function"
				},
				{
					"inputs": [
						{
							"internalType": "uint256",
							"name": "_id",
							"type": "uint256"
						}
					],
					"name": "getStudent",
					"outputs": [
						{
							"components": [
								{
									"internalType": "uint256",
									"name": "id",
									"type": "uint256"
								},
								{
									"internalType": "string",
									"name": "name",
									"type": "string"
								},
								{
									"internalType": "address",
									"name": "wallet",
									"type": "address"
								},
								{
									"internalType": "enum MultipleStudents.StudentStatus",
									"name": "status",
									"type": "uint8"
								},
								{
									"internalType": "uint8",
									"name": "credits",
									"type": "uint8"
								},
								{
									"internalType": "bool",
									"name": "exists",
									"type": "bool"
								}
							],
							"internalType": "struct MultipleStudents.Student",
							"name": "",
							"type": "tuple"
						}
					],
					"stateMutability": "view",
					"type": "function"
				},
				{
					"inputs": [],
					"name": "studentCounter",
					"outputs": [
						{
							"internalType": "uint256",
							"name": "",
							"type": "uint256"
						}
					],
					"stateMutability": "view",
					"type": "function"
				},
				{
					"inputs": [
						{
							"internalType": "uint256",
							"name": "_id",
							"type": "uint256"
						}
					],
					"name": "studentExists",
					"outputs": [
						{
							"internalType": "bool",
							"name": "",
							"type": "bool"
						}
					],
					"stateMutability": "view",
					"type": "function"
				},
				{
					"inputs": [
						{
							"internalType": "uint256",
							"name": "",
							"type": "uint256"
						}
					],
					"name": "students",
					"outputs": [
						{
							"internalType": "uint256",
							"name": "id",
							"type": "uint256"
						},
						{
							"internalType": "string",
							"name": "name",
							"type": "string"
						},
						{
							"internalType": "address",
							"name": "wallet",
							"type": "address"
						},
						{
							"internalType": "enum MultipleStudents.StudentStatus",
							"name": "status",
							"type": "uint8"
						},
						{
							"internalType": "uint8",
							"name": "credits",
							"type": "uint8"
						},
						{
							"internalType": "bool",
							"name": "exists",
							"type": "bool"
						}
					],
					"stateMutability": "view",
					"type": "function"
				}
			],
			"devdoc": {
				"kind": "dev",
				"methods": {},
				"version": 1
			},
			"evm": {
				"assembly": "    /* \"contracts/MultipleStudents.sol\":58:1294  contract MultipleStudents {... */\n  mstore(0x40, 0x80)\n  callvalue\n  dup1\n  iszero\n  tag_1\n  jumpi\n  revert(0x00, 0x00)\ntag_1:\n  pop\n  dataSize(sub_0)\n  dup1\n  dataOffset(sub_0)\n  0x00\n  codecopy\n  0x00\n  return\nstop\n\nsub_0: assembly {\n        /* \"contracts/MultipleStudents.sol\":58:1294  contract MultipleStudents {... */\n      mstore(0x40, 0x80)\n      callvalue\n      dup1\n      iszero\n      tag_1\n      jumpi\n      revert(0x00, 0x00)\n    tag_1:\n      pop\n      jumpi(tag_2, lt(calldatasize, 0x04))\n      shr(0xe0, calldataload(0x00))\n      dup1\n      0x06ead22e\n      eq\n      tag_3\n      jumpi\n      dup1\n      0x453e056a\n      eq\n      tag_4\n      jumpi\n      dup1\n      0x642f9163\n      eq\n      tag_5\n      jumpi\n      dup1\n      0xe3596cac\n      eq\n      tag_6\n      jumpi\n      dup1\n      0xe6d9e558\n      eq\n      tag_7\n      jumpi\n      dup1\n      0xfd38fb15\n      eq\n      tag_8\n      jumpi\n    tag_2:\n      revert(0x00, 0x00)\n        /* \"contracts/MultipleStudents.sol\":368:411  mapping(uint256 => Student) public students */\n    tag_3:\n      tag_9\n      0x04\n      dup1\n      calldatasize\n      sub\n      dup2\n      add\n      swap1\n      tag_10\n      swap2\n      swap1\n      tag_11\n      jump\t// in\n    tag_10:\n      tag_12\n      jump\t// in\n    tag_9:\n      mload(0x40)\n      tag_13\n      swap7\n      swap6\n      swap5\n      swap4\n      swap3\n      swap2\n      swap1\n      tag_14\n      jump\t// in\n    tag_13:\n      mload(0x40)\n      dup1\n      swap2\n      sub\n      swap1\n      return\n        /* \"contracts/MultipleStudents.sol\":498:867  function addStudent(string memory _name) public returns (uint256) {... */\n    tag_4:\n      tag_15\n      0x04\n      dup1\n      calldatasize\n      sub\n      dup2\n      add\n      swap1\n      tag_16\n      swap2\n      swap1\n      tag_17\n      jump\t// in\n    tag_16:\n      tag_18\n      jump\t// in\n    tag_15:\n      mload(0x40)\n      tag_19\n      swap2\n      swap1\n      tag_20\n      jump\t// in\n    tag_19:\n      mload(0x40)\n      dup1\n      swap2\n      sub\n      swap1\n      return\n        /* \"contracts/MultipleStudents.sol\":1036:1143  function getStudent(uint256 _id) public view returns (Student memory) {... */\n    tag_5:\n      tag_21\n      0x04\n      dup1\n      calldatasize\n      sub\n      dup2\n      add\n      swap1\n      tag_22\n      swap2\n      swap1\n      tag_11\n      jump\t// in\n    tag_22:\n      tag_23\n      jump\t// in\n    tag_21:\n      mload(0x40)\n      tag_24\n      swap2\n      swap1\n      tag_25\n      jump\t// in\n    tag_24:\n      mload(0x40)\n      dup1\n      swap2\n      sub\n      swap1\n      return\n        /* \"contracts/MultipleStudents.sol\":433:462  uint256 public studentCounter */\n    tag_6:\n      tag_26\n      tag_27\n      jump\t// in\n    tag_26:\n      mload(0x40)\n      tag_28\n      swap2\n      swap1\n      tag_20\n      jump\t// in\n    tag_28:\n      mload(0x40)\n      dup1\n      swap2\n      sub\n      swap1\n      return\n        /* \"contracts/MultipleStudents.sol\":895:999  function addCredits(uint256 _id, uint8 _amount) public {... */\n    tag_7:\n      tag_29\n      0x04\n      dup1\n      calldatasize\n      sub\n      dup2\n      add\n      swap1\n      tag_30\n      swap2\n      swap1\n      tag_31\n      jump\t// in\n    tag_30:\n      tag_32\n      jump\t// in\n    tag_29:\n      stop\n        /* \"contracts/MultipleStudents.sol\":1185:1292  function studentExists(uint256 _id) public view returns (bool) {... */\n    tag_8:\n      tag_33\n      0x04\n      dup1\n      calldatasize\n      sub\n      dup2\n      add\n      swap1\n      tag_34\n      swap2\n      swap1\n      tag_11\n      jump\t// in\n    tag_34:\n      tag_35\n      jump\t// in\n    tag_33:\n      mload(0x40)\n      tag_36\n      swap2\n      swap1\n      tag_37\n      jump\t// in\n    tag_36:\n      mload(0x40)\n      dup1\n      swap2\n      sub\n      swap1\n      return\n        /* \"contracts/MultipleStudents.sol\":368:411  mapping(uint256 => Student) public students */\n    tag_12:\n      mstore(0x20, 0x00)\n      dup1\n      0x00\n      mstore\n      keccak256(0x00, 0x40)\n      0x00\n      swap2\n      pop\n      swap1\n      pop\n      dup1\n      0x00\n      add\n      sload\n      swap1\n      dup1\n      0x01\n      add\n      dup1\n      sload\n      tag_38\n      swap1\n      tag_39\n      jump\t// in\n    tag_38:\n      dup1\n      0x1f\n      add\n      0x20\n      dup1\n      swap2\n      div\n      mul\n      0x20\n      add\n      mload(0x40)\n      swap1\n      dup2\n      add\n      0x40\n      mstore\n      dup1\n      swap3\n      swap2\n      swap1\n      dup2\n      dup2\n      mstore\n      0x20\n      add\n      dup3\n      dup1\n      sload\n      tag_40\n      swap1\n      tag_39\n      jump\t// in\n    tag_40:\n      dup1\n      iszero\n      tag_41\n      jumpi\n      dup1\n      0x1f\n      lt\n      tag_42\n      jumpi\n      0x0100\n      dup1\n      dup4\n      sload\n      div\n      mul\n      dup4\n      mstore\n      swap2\n      0x20\n      add\n      swap2\n      jump(tag_41)\n    tag_42:\n      dup3\n      add\n      swap2\n      swap1\n      0x00\n      mstore\n      keccak256(0x00, 0x20)\n      swap1\n    tag_43:\n      dup2\n      sload\n      dup2\n      mstore\n      swap1\n      0x01\n      add\n      swap1\n      0x20\n      add\n      dup1\n      dup4\n      gt\n      tag_43\n      jumpi\n      dup3\n      swap1\n      sub\n      0x1f\n      and\n      dup3\n      add\n      swap2\n    tag_41:\n      pop\n      pop\n      pop\n      pop\n      pop\n      swap1\n      dup1\n      0x02\n      add\n      0x00\n      swap1\n      sload\n      swap1\n      0x0100\n      exp\n      swap1\n      div\n      0xffffffffffffffffffffffffffffffffffffffff\n      and\n      swap1\n      dup1\n      0x02\n      add\n      0x14\n      swap1\n      sload\n      swap1\n      0x0100\n      exp\n      swap1\n      div\n      0xff\n      and\n      swap1\n      dup1\n      0x02\n      add\n      0x15\n      swap1\n      sload\n      swap1\n      0x0100\n      exp\n      swap1\n      div\n      0xff\n      and\n      swap1\n      dup1\n      0x02\n      add\n      0x16\n      swap1\n      sload\n      swap1\n      0x0100\n      exp\n      swap1\n      div\n      0xff\n      and\n      swap1\n      pop\n      dup7\n      jump\t// out\n        /* \"contracts/MultipleStudents.sol\":498:867  function addStudent(string memory _name) public returns (uint256) {... */\n    tag_18:\n        /* \"contracts/MultipleStudents.sol\":555:562  uint256 */\n      0x00\n        /* \"contracts/MultipleStudents.sol\":574:588  studentCounter */\n      0x01\n      0x00\n        /* \"contracts/MultipleStudents.sol\":574:590  studentCounter++ */\n      dup2\n      sload\n      dup1\n      swap3\n      swap2\n      swap1\n      tag_45\n      swap1\n      tag_46\n      jump\t// in\n    tag_45:\n      swap2\n      swap1\n      pop\n      sstore\n      pop\n        /* \"contracts/MultipleStudents.sol\":628:828  Student({... */\n      mload(0x40)\n      dup1\n      0xc0\n      add\n      0x40\n      mstore\n      dup1\n        /* \"contracts/MultipleStudents.sol\":654:668  studentCounter */\n      sload(0x01)\n        /* \"contracts/MultipleStudents.sol\":628:828  Student({... */\n      dup2\n      mstore\n      0x20\n      add\n        /* \"contracts/MultipleStudents.sol\":688:693  _name */\n      dup4\n        /* \"contracts/MultipleStudents.sol\":628:828  Student({... */\n      dup2\n      mstore\n      0x20\n      add\n        /* \"contracts/MultipleStudents.sol\":715:725  msg.sender */\n      caller\n        /* \"contracts/MultipleStudents.sol\":628:828  Student({... */\n      0xffffffffffffffffffffffffffffffffffffffff\n      and\n      dup2\n      mstore\n      0x20\n      add\n        /* \"contracts/MultipleStudents.sol\":747:767  StudentStatus.Active */\n      0x01\n        /* \"contracts/MultipleStudents.sol\":628:828  Student({... */\n      0x03\n      dup2\n      gt\n      iszero\n      tag_47\n      jumpi\n      tag_48\n      tag_49\n      jump\t// in\n    tag_48:\n    tag_47:\n      dup2\n      mstore\n      0x20\n      add\n        /* \"contracts/MultipleStudents.sol\":790:791  0 */\n      0x00\n        /* \"contracts/MultipleStudents.sol\":628:828  Student({... */\n      0xff\n      and\n      dup2\n      mstore\n      0x20\n      add\n        /* \"contracts/MultipleStudents.sol\":813:817  true */\n      0x01\n        /* \"contracts/MultipleStudents.sol\":628:828  Student({... */\n      iszero\n      iszero\n      dup2\n      mstore\n      pop\n        /* \"contracts/MultipleStudents.sol\":601:609  students */\n      0x00\n        /* \"contracts/MultipleStudents.sol\":601:625  students[studentCounter] */\n      0x00\n        /* \"contracts/MultipleStudents.sol\":610:624  studentCounter */\n      sload(0x01)\n        /* \"contracts/MultipleStudents.sol\":601:625  students[studentCounter] */\n      dup2\n      mstore\n      0x20\n      add\n      swap1\n      dup2\n      mstore\n      0x20\n      add\n      0x00\n      keccak256\n        /* \"contracts/MultipleStudents.sol\":601:828  students[studentCounter] = Student({... */\n      0x00\n      dup3\n      add\n      mload\n      dup2\n      0x00\n      add\n      sstore\n      0x20\n      dup3\n      add\n      mload\n      dup2\n      0x01\n      add\n      swap1\n      dup2\n      tag_50\n      swap2\n      swap1\n      tag_51\n      jump\t// in\n    tag_50:\n      pop\n      0x40\n      dup3\n      add\n      mload\n      dup2\n      0x02\n      add\n      exp(0x0100, 0x00)\n      dup2\n      sload\n      dup2\n      0xffffffffffffffffffffffffffffffffffffffff\n      mul\n      not\n      and\n      swap1\n      dup4\n      0xffffffffffffffffffffffffffffffffffffffff\n      and\n      mul\n      or\n      swap1\n      sstore\n      pop\n      0x60\n      dup3\n      add\n      mload\n      dup2\n      0x02\n      add\n      exp(0x0100, 0x14)\n      dup2\n      sload\n      dup2\n      0xff\n      mul\n      not\n      and\n      swap1\n      dup4\n      0x03\n      dup2\n      gt\n      iszero\n      tag_52\n      jumpi\n      tag_53\n      tag_49\n      jump\t// in\n    tag_53:\n    tag_52:\n      mul\n      or\n      swap1\n      sstore\n      pop\n      0x80\n      dup3\n      add\n      mload\n      dup2\n      0x02\n      add\n      exp(0x0100, 0x15)\n      dup2\n      sload\n      dup2\n      0xff\n      mul\n      not\n      and\n      swap1\n      dup4\n      0xff\n      and\n      mul\n      or\n      swap1\n      sstore\n      pop\n      0xa0\n      dup3\n      add\n      mload\n      dup2\n      0x02\n      add\n      exp(0x0100, 0x16)\n      dup2\n      sload\n      dup2\n      0xff\n      mul\n      not\n      and\n      swap1\n      dup4\n      iszero\n      iszero\n      mul\n      or\n      swap1\n      sstore\n      pop\n      swap1\n      pop\n      pop\n        /* \"contracts/MultipleStudents.sol\":846:860  studentCounter */\n      sload(0x01)\n        /* \"contracts/MultipleStudents.sol\":839:860  return studentCounter */\n      swap1\n      pop\n        /* \"contracts/MultipleStudents.sol\":498:867  function addStudent(string memory _name) public returns (uint256) {... */\n      swap2\n      swap1\n      pop\n      jump\t// out\n        /* \"contracts/MultipleStudents.sol\":1036:1143  function getStudent(uint256 _id) public view returns (Student memory) {... */\n    tag_23:\n        /* \"contracts/MultipleStudents.sol\":1090:1104  Student memory */\n      tag_54\n      tag_55\n      jump\t// in\n    tag_54:\n        /* \"contracts/MultipleStudents.sol\":1123:1131  students */\n      0x00\n        /* \"contracts/MultipleStudents.sol\":1123:1136  students[_id] */\n      0x00\n        /* \"contracts/MultipleStudents.sol\":1132:1135  _id */\n      dup4\n        /* \"contracts/MultipleStudents.sol\":1123:1136  students[_id] */\n      dup2\n      mstore\n      0x20\n      add\n      swap1\n      dup2\n      mstore\n      0x20\n      add\n      0x00\n      keccak256\n        /* \"contracts/MultipleStudents.sol\":1116:1136  return students[_id] */\n      mload(0x40)\n      dup1\n      0xc0\n      add\n      0x40\n      mstore\n      swap1\n      dup2\n      0x00\n      dup3\n      add\n      sload\n      dup2\n      mstore\n      0x20\n      add\n      0x01\n      dup3\n      add\n      dup1\n      sload\n      tag_57\n      swap1\n      tag_39\n      jump\t// in\n    tag_57:\n      dup1\n      0x1f\n      add\n      0x20\n      dup1\n      swap2\n      div\n      mul\n      0x20\n      add\n      mload(0x40)\n      swap1\n      dup2\n      add\n      0x40\n      mstore\n      dup1\n      swap3\n      swap2\n      swap1\n      dup2\n      dup2\n      mstore\n      0x20\n      add\n      dup3\n      dup1\n      sload\n      tag_58\n      swap1\n      tag_39\n      jump\t// in\n    tag_58:\n      dup1\n      iszero\n      tag_59\n      jumpi\n      dup1\n      0x1f\n      lt\n      tag_60\n      jumpi\n      0x0100\n      dup1\n      dup4\n      sload\n      div\n      mul\n      dup4\n      mstore\n      swap2\n      0x20\n      add\n      swap2\n      jump(tag_59)\n    tag_60:\n      dup3\n      add\n      swap2\n      swap1\n      0x00\n      mstore\n      keccak256(0x00, 0x20)\n      swap1\n    tag_61:\n      dup2\n      sload\n      dup2\n      mstore\n      swap1\n      0x01\n      add\n      swap1\n      0x20\n      add\n      dup1\n      dup4\n      gt\n      tag_61\n      jumpi\n      dup3\n      swap1\n      sub\n      0x1f\n      and\n      dup3\n      add\n      swap2\n    tag_59:\n      pop\n      pop\n      pop\n      pop\n      pop\n      dup2\n      mstore\n      0x20\n      add\n      0x02\n      dup3\n      add\n      0x00\n      swap1\n      sload\n      swap1\n      0x0100\n      exp\n      swap1\n      div\n      0xffffffffffffffffffffffffffffffffffffffff\n      and\n      0xffffffffffffffffffffffffffffffffffffffff\n      and\n      0xffffffffffffffffffffffffffffffffffffffff\n      and\n      dup2\n      mstore\n      0x20\n      add\n      0x02\n      dup3\n      add\n      0x14\n      swap1\n      sload\n      swap1\n      0x0100\n      exp\n      swap1\n      div\n      0xff\n      and\n      0x03\n      dup2\n      gt\n      iszero\n      tag_62\n      jumpi\n      tag_63\n      tag_49\n      jump\t// in\n    tag_63:\n    tag_62:\n      0x03\n      dup2\n      gt\n      iszero\n      tag_64\n      jumpi\n      tag_65\n      tag_49\n      jump\t// in\n    tag_65:\n    tag_64:\n      dup2\n      mstore\n      0x20\n      add\n      0x02\n      dup3\n      add\n      0x15\n      swap1\n      sload\n      swap1\n      0x0100\n      exp\n      swap1\n      div\n      0xff\n      and\n      0xff\n      and\n      0xff\n      and\n      dup2\n      mstore\n      0x20\n      add\n      0x02\n      dup3\n      add\n      0x16\n      swap1\n      sload\n      swap1\n      0x0100\n      exp\n      swap1\n      div\n      0xff\n      and\n      iszero\n      iszero\n      iszero\n      iszero\n      dup2\n      mstore\n      pop\n      pop\n      swap1\n      pop\n        /* \"contracts/MultipleStudents.sol\":1036:1143  function getStudent(uint256 _id) public view returns (Student memory) {... */\n      swap2\n      swap1\n      pop\n      jump\t// out\n        /* \"contracts/MultipleStudents.sol\":433:462  uint256 public studentCounter */\n    tag_27:\n      sload(0x01)\n      dup2\n      jump\t// out\n        /* \"contracts/MultipleStudents.sol\":895:999  function addCredits(uint256 _id, uint8 _amount) public {... */\n    tag_32:\n        /* \"contracts/MultipleStudents.sol\":985:992  _amount */\n      dup1\n        /* \"contracts/MultipleStudents.sol\":960:968  students */\n      0x00\n        /* \"contracts/MultipleStudents.sol\":960:973  students[_id] */\n      0x00\n        /* \"contracts/MultipleStudents.sol\":969:972  _id */\n      dup5\n        /* \"contracts/MultipleStudents.sol\":960:973  students[_id] */\n      dup2\n      mstore\n      0x20\n      add\n      swap1\n      dup2\n      mstore\n      0x20\n      add\n      0x00\n      keccak256\n        /* \"contracts/MultipleStudents.sol\":960:981  students[_id].credits */\n      0x02\n      add\n      0x15\n        /* \"contracts/MultipleStudents.sol\":960:992  students[_id].credits += _amount */\n      dup3\n      dup3\n      dup3\n      swap1\n      sload\n      swap1\n      0x0100\n      exp\n      swap1\n      div\n      0xff\n      and\n      tag_67\n      swap2\n      swap1\n      tag_68\n      jump\t// in\n    tag_67:\n      swap3\n      pop\n      0x0100\n      exp\n      dup2\n      sload\n      dup2\n      0xff\n      mul\n      not\n      and\n      swap1\n      dup4\n      0xff\n      and\n      mul\n      or\n      swap1\n      sstore\n      pop\n        /* \"contracts/MultipleStudents.sol\":895:999  function addCredits(uint256 _id, uint8 _amount) public {... */\n      pop\n      pop\n      jump\t// out\n        /* \"contracts/MultipleStudents.sol\":1185:1292  function studentExists(uint256 _id) public view returns (bool) {... */\n    tag_35:\n        /* \"contracts/MultipleStudents.sol\":1242:1246  bool */\n      0x00\n        /* \"contracts/MultipleStudents.sol\":1265:1273  students */\n      0x00\n        /* \"contracts/MultipleStudents.sol\":1265:1278  students[_id] */\n      0x00\n        /* \"contracts/MultipleStudents.sol\":1274:1277  _id */\n      dup4\n        /* \"contracts/MultipleStudents.sol\":1265:1278  students[_id] */\n      dup2\n      mstore\n      0x20\n      add\n      swap1\n      dup2\n      mstore\n      0x20\n      add\n      0x00\n      keccak256\n        /* \"contracts/MultipleStudents.sol\":1265:1285  students[_id].exists */\n      0x02\n      add\n      0x16\n      swap1\n      sload\n      swap1\n      0x0100\n      exp\n      swap1\n      div\n      0xff\n      and\n        /* \"contracts/MultipleStudents.sol\":1258:1285  return students[_id].exists */\n      swap1\n      pop\n        /* \"contracts/MultipleStudents.sol\":1185:1292  function studentExists(uint256 _id) public view returns (bool) {... */\n      swap2\n      swap1\n      pop\n      jump\t// out\n    tag_55:\n      mload(0x40)\n      dup1\n      0xc0\n      add\n      0x40\n      mstore\n      dup1\n      0x00\n      dup2\n      mstore\n      0x20\n      add\n      0x60\n      dup2\n      mstore\n      0x20\n      add\n      and(0xffffffffffffffffffffffffffffffffffffffff, 0x00)\n      dup2\n      mstore\n      0x20\n      add\n      0x00\n      0x03\n      dup2\n      gt\n      iszero\n      tag_70\n      jumpi\n      tag_71\n      tag_49\n      jump\t// in\n    tag_71:\n    tag_70:\n      dup2\n      mstore\n      0x20\n      add\n      and(0xff, 0x00)\n      dup2\n      mstore\n      0x20\n      add\n      iszero(iszero(0x00))\n      dup2\n      mstore\n      pop\n      swap1\n      jump\t// out\n        /* \"#utility.yul\":7:82   */\n    tag_72:\n        /* \"#utility.yul\":40:46   */\n      0x00\n        /* \"#utility.yul\":73:75   */\n      0x40\n        /* \"#utility.yul\":67:76   */\n      mload\n        /* \"#utility.yul\":57:76   */\n      swap1\n      pop\n        /* \"#utility.yul\":7:82   */\n      swap1\n      jump\t// out\n        /* \"#utility.yul\":88:205   */\n    tag_73:\n        /* \"#utility.yul\":197:198   */\n      0x00\n        /* \"#utility.yul\":194:195   */\n      0x00\n        /* \"#utility.yul\":187:199   */\n      revert\n        /* \"#utility.yul\":211:328   */\n    tag_74:\n        /* \"#utility.yul\":320:321   */\n      0x00\n        /* \"#utility.yul\":317:318   */\n      0x00\n        /* \"#utility.yul\":310:322   */\n      revert\n        /* \"#utility.yul\":334:411   */\n    tag_75:\n        /* \"#utility.yul\":371:378   */\n      0x00\n        /* \"#utility.yul\":400:405   */\n      dup2\n        /* \"#utility.yul\":389:405   */\n      swap1\n      pop\n        /* \"#utility.yul\":334:411   */\n      swap2\n      swap1\n      pop\n      jump\t// out\n        /* \"#utility.yul\":417:539   */\n    tag_76:\n        /* \"#utility.yul\":490:514   */\n      tag_137\n        /* \"#utility.yul\":508:513   */\n      dup2\n        /* \"#utility.yul\":490:514   */\n      tag_75\n      jump\t// in\n    tag_137:\n        /* \"#utility.yul\":483:488   */\n      dup2\n        /* \"#utility.yul\":480:515   */\n      eq\n        /* \"#utility.yul\":470:533   */\n      tag_138\n      jumpi\n        /* \"#utility.yul\":529:530   */\n      0x00\n        /* \"#utility.yul\":526:527   */\n      0x00\n        /* \"#utility.yul\":519:531   */\n      revert\n        /* \"#utility.yul\":470:533   */\n    tag_138:\n        /* \"#utility.yul\":417:539   */\n      pop\n      jump\t// out\n        /* \"#utility.yul\":545:684   */\n    tag_77:\n        /* \"#utility.yul\":591:596   */\n      0x00\n        /* \"#utility.yul\":629:635   */\n      dup2\n        /* \"#utility.yul\":616:636   */\n      calldataload\n        /* \"#utility.yul\":607:636   */\n      swap1\n      pop\n        /* \"#utility.yul\":645:678   */\n      tag_140\n        /* \"#utility.yul\":672:677   */\n      dup2\n        /* \"#utility.yul\":645:678   */\n      tag_76\n      jump\t// in\n    tag_140:\n        /* \"#utility.yul\":545:684   */\n      swap3\n      swap2\n      pop\n      pop\n      jump\t// out\n        /* \"#utility.yul\":690:1019   */\n    tag_11:\n        /* \"#utility.yul\":749:755   */\n      0x00\n        /* \"#utility.yul\":798:800   */\n      0x20\n        /* \"#utility.yul\":786:795   */\n      dup3\n        /* \"#utility.yul\":777:784   */\n      dup5\n        /* \"#utility.yul\":773:796   */\n      sub\n        /* \"#utility.yul\":769:801   */\n      slt\n        /* \"#utility.yul\":766:885   */\n      iszero\n      tag_142\n      jumpi\n        /* \"#utility.yul\":804:883   */\n      tag_143\n      tag_73\n      jump\t// in\n    tag_143:\n        /* \"#utility.yul\":766:885   */\n    tag_142:\n        /* \"#utility.yul\":924:925   */\n      0x00\n        /* \"#utility.yul\":949:1002   */\n      tag_144\n        /* \"#utility.yul\":994:1001   */\n      dup5\n        /* \"#utility.yul\":985:991   */\n      dup3\n        /* \"#utility.yul\":974:983   */\n      dup6\n        /* \"#utility.yul\":970:992   */\n      add\n        /* \"#utility.yul\":949:1002   */\n      tag_77\n      jump\t// in\n    tag_144:\n        /* \"#utility.yul\":939:1002   */\n      swap2\n      pop\n        /* \"#utility.yul\":895:1012   */\n      pop\n        /* \"#utility.yul\":690:1019   */\n      swap3\n      swap2\n      pop\n      pop\n      jump\t// out\n        /* \"#utility.yul\":1025:1143   */\n    tag_78:\n        /* \"#utility.yul\":1112:1136   */\n      tag_146\n        /* \"#utility.yul\":1130:1135   */\n      dup2\n        /* \"#utility.yul\":1112:1136   */\n      tag_75\n      jump\t// in\n    tag_146:\n        /* \"#utility.yul\":1107:1110   */\n      dup3\n        /* \"#utility.yul\":1100:1137   */\n      mstore\n        /* \"#utility.yul\":1025:1143   */\n      pop\n      pop\n      jump\t// out\n        /* \"#utility.yul\":1149:1248   */\n    tag_79:\n        /* \"#utility.yul\":1201:1207   */\n      0x00\n        /* \"#utility.yul\":1235:1240   */\n      dup2\n        /* \"#utility.yul\":1229:1241   */\n      mload\n        /* \"#utility.yul\":1219:1241   */\n      swap1\n      pop\n        /* \"#utility.yul\":1149:1248   */\n      swap2\n      swap1\n      pop\n      jump\t// out\n        /* \"#utility.yul\":1254:1423   */\n    tag_80:\n        /* \"#utility.yul\":1338:1349   */\n      0x00\n        /* \"#utility.yul\":1372:1378   */\n      dup3\n        /* \"#utility.yul\":1367:1370   */\n      dup3\n        /* \"#utility.yul\":1360:1379   */\n      mstore\n        /* \"#utility.yul\":1412:1416   */\n      0x20\n        /* \"#utility.yul\":1407:1410   */\n      dup3\n        /* \"#utility.yul\":1403:1417   */\n      add\n        /* \"#utility.yul\":1388:1417   */\n      swap1\n      pop\n        /* \"#utility.yul\":1254:1423   */\n      swap3\n      swap2\n      pop\n      pop\n      jump\t// out\n        /* \"#utility.yul\":1429:1568   */\n    tag_81:\n        /* \"#utility.yul\":1518:1524   */\n      dup3\n        /* \"#utility.yul\":1513:1516   */\n      dup2\n        /* \"#utility.yul\":1508:1511   */\n      dup4\n        /* \"#utility.yul\":1502:1525   */\n      mcopy\n        /* \"#utility.yul\":1559:1560   */\n      0x00\n        /* \"#utility.yul\":1550:1556   */\n      dup4\n        /* \"#utility.yul\":1545:1548   */\n      dup4\n        /* \"#utility.yul\":1541:1557   */\n      add\n        /* \"#utility.yul\":1534:1561   */\n      mstore\n        /* \"#utility.yul\":1429:1568   */\n      pop\n      pop\n      pop\n      jump\t// out\n        /* \"#utility.yul\":1574:1676   */\n    tag_82:\n        /* \"#utility.yul\":1615:1621   */\n      0x00\n        /* \"#utility.yul\":1666:1668   */\n      0x1f\n        /* \"#utility.yul\":1662:1669   */\n      not\n        /* \"#utility.yul\":1657:1659   */\n      0x1f\n        /* \"#utility.yul\":1650:1655   */\n      dup4\n        /* \"#utility.yul\":1646:1660   */\n      add\n        /* \"#utility.yul\":1642:1670   */\n      and\n        /* \"#utility.yul\":1632:1670   */\n      swap1\n      pop\n        /* \"#utility.yul\":1574:1676   */\n      swap2\n      swap1\n      pop\n      jump\t// out\n        /* \"#utility.yul\":1682:2059   */\n    tag_83:\n        /* \"#utility.yul\":1770:1773   */\n      0x00\n        /* \"#utility.yul\":1798:1837   */\n      tag_152\n        /* \"#utility.yul\":1831:1836   */\n      dup3\n        /* \"#utility.yul\":1798:1837   */\n      tag_79\n      jump\t// in\n    tag_152:\n        /* \"#utility.yul\":1853:1924   */\n      tag_153\n        /* \"#utility.yul\":1917:1923   */\n      dup2\n        /* \"#utility.yul\":1912:1915   */\n      dup6\n        /* \"#utility.yul\":1853:1924   */\n      tag_80\n      jump\t// in\n    tag_153:\n        /* \"#utility.yul\":1846:1924   */\n      swap4\n      pop\n        /* \"#utility.yul\":1933:1998   */\n      tag_154\n        /* \"#utility.yul\":1991:1997   */\n      dup2\n        /* \"#utility.yul\":1986:1989   */\n      dup6\n        /* \"#utility.yul\":1979:1983   */\n      0x20\n        /* \"#utility.yul\":1972:1977   */\n      dup7\n        /* \"#utility.yul\":1968:1984   */\n      add\n        /* \"#utility.yul\":1933:1998   */\n      tag_81\n      jump\t// in\n    tag_154:\n        /* \"#utility.yul\":2023:2052   */\n      tag_155\n        /* \"#utility.yul\":2045:2051   */\n      dup2\n        /* \"#utility.yul\":2023:2052   */\n      tag_82\n      jump\t// in\n    tag_155:\n        /* \"#utility.yul\":2018:2021   */\n      dup5\n        /* \"#utility.yul\":2014:2053   */\n      add\n        /* \"#utility.yul\":2007:2053   */\n      swap2\n      pop\n        /* \"#utility.yul\":1774:2059   */\n      pop\n        /* \"#utility.yul\":1682:2059   */\n      swap3\n      swap2\n      pop\n      pop\n      jump\t// out\n        /* \"#utility.yul\":2065:2191   */\n    tag_84:\n        /* \"#utility.yul\":2102:2109   */\n      0x00\n        /* \"#utility.yul\":2142:2184   */\n      0xffffffffffffffffffffffffffffffffffffffff\n        /* \"#utility.yul\":2135:2140   */\n      dup3\n        /* \"#utility.yul\":2131:2185   */\n      and\n        /* \"#utility.yul\":2120:2185   */\n      swap1\n      pop\n        /* \"#utility.yul\":2065:2191   */\n      swap2\n      swap1\n      pop\n      jump\t// out\n        /* \"#utility.yul\":2197:2293   */\n    tag_85:\n        /* \"#utility.yul\":2234:2241   */\n      0x00\n        /* \"#utility.yul\":2263:2287   */\n      tag_158\n        /* \"#utility.yul\":2281:2286   */\n      dup3\n        /* \"#utility.yul\":2263:2287   */\n      tag_84\n      jump\t// in\n    tag_158:\n        /* \"#utility.yul\":2252:2287   */\n      swap1\n      pop\n        /* \"#utility.yul\":2197:2293   */\n      swap2\n      swap1\n      pop\n      jump\t// out\n        /* \"#utility.yul\":2299:2417   */\n    tag_86:\n        /* \"#utility.yul\":2386:2410   */\n      tag_160\n        /* \"#utility.yul\":2404:2409   */\n      dup2\n        /* \"#utility.yul\":2386:2410   */\n      tag_85\n      jump\t// in\n    tag_160:\n        /* \"#utility.yul\":2381:2384   */\n      dup3\n        /* \"#utility.yul\":2374:2411   */\n      mstore\n        /* \"#utility.yul\":2299:2417   */\n      pop\n      pop\n      jump\t// out\n        /* \"#utility.yul\":2423:2603   */\n    tag_49:\n        /* \"#utility.yul\":2471:2548   */\n      0x4e487b7100000000000000000000000000000000000000000000000000000000\n        /* \"#utility.yul\":2468:2469   */\n      0x00\n        /* \"#utility.yul\":2461:2549   */\n      mstore\n        /* \"#utility.yul\":2568:2572   */\n      0x21\n        /* \"#utility.yul\":2565:2566   */\n      0x04\n        /* \"#utility.yul\":2558:2573   */\n      mstore\n        /* \"#utility.yul\":2592:2596   */\n      0x24\n        /* \"#utility.yul\":2589:2590   */\n      0x00\n        /* \"#utility.yul\":2582:2597   */\n      revert\n        /* \"#utility.yul\":2609:2729   */\n    tag_87:\n        /* \"#utility.yul\":2697:2698   */\n      0x04\n        /* \"#utility.yul\":2690:2695   */\n      dup2\n        /* \"#utility.yul\":2687:2699   */\n      lt\n        /* \"#utility.yul\":2677:2723   */\n      tag_163\n      jumpi\n        /* \"#utility.yul\":2703:2721   */\n      tag_164\n      tag_49\n      jump\t// in\n    tag_164:\n        /* \"#utility.yul\":2677:2723   */\n    tag_163:\n        /* \"#utility.yul\":2609:2729   */\n      pop\n      jump\t// out\n        /* \"#utility.yul\":2735:2876   */\n    tag_88:\n        /* \"#utility.yul\":2787:2794   */\n      0x00\n        /* \"#utility.yul\":2816:2821   */\n      dup2\n        /* \"#utility.yul\":2805:2821   */\n      swap1\n      pop\n        /* \"#utility.yul\":2822:2870   */\n      tag_166\n        /* \"#utility.yul\":2864:2869   */\n      dup3\n        /* \"#utility.yul\":2822:2870   */\n      tag_87\n      jump\t// in\n    tag_166:\n        /* \"#utility.yul\":2735:2876   */\n      swap2\n      swap1\n      pop\n      jump\t// out\n        /* \"#utility.yul\":2882:3023   */\n    tag_89:\n        /* \"#utility.yul\":2945:2954   */\n      0x00\n        /* \"#utility.yul\":2978:3017   */\n      tag_168\n        /* \"#utility.yul\":3011:3016   */\n      dup3\n        /* \"#utility.yul\":2978:3017   */\n      tag_88\n      jump\t// in\n    tag_168:\n        /* \"#utility.yul\":2965:3017   */\n      swap1\n      pop\n        /* \"#utility.yul\":2882:3023   */\n      swap2\n      swap1\n      pop\n      jump\t// out\n        /* \"#utility.yul\":3029:3186   */\n    tag_90:\n        /* \"#utility.yul\":3129:3179   */\n      tag_170\n        /* \"#utility.yul\":3173:3178   */\n      dup2\n        /* \"#utility.yul\":3129:3179   */\n      tag_89\n      jump\t// in\n    tag_170:\n        /* \"#utility.yul\":3124:3127   */\n      dup3\n        /* \"#utility.yul\":3117:3180   */\n      mstore\n        /* \"#utility.yul\":3029:3186   */\n      pop\n      pop\n      jump\t// out\n        /* \"#utility.yul\":3192:3278   */\n    tag_91:\n        /* \"#utility.yul\":3227:3234   */\n      0x00\n        /* \"#utility.yul\":3267:3271   */\n      0xff\n        /* \"#utility.yul\":3260:3265   */\n      dup3\n        /* \"#utility.yul\":3256:3272   */\n      and\n        /* \"#utility.yul\":3245:3272   */\n      swap1\n      pop\n        /* \"#utility.yul\":3192:3278   */\n      swap2\n      swap1\n      pop\n      jump\t// out\n        /* \"#utility.yul\":3284:3396   */\n    tag_92:\n        /* \"#utility.yul\":3367:3389   */\n      tag_173\n        /* \"#utility.yul\":3383:3388   */\n      dup2\n        /* \"#utility.yul\":3367:3389   */\n      tag_91\n      jump\t// in\n    tag_173:\n        /* \"#utility.yul\":3362:3365   */\n      dup3\n        /* \"#utility.yul\":3355:3390   */\n      mstore\n        /* \"#utility.yul\":3284:3396   */\n      pop\n      pop\n      jump\t// out\n        /* \"#utility.yul\":3402:3492   */\n    tag_93:\n        /* \"#utility.yul\":3436:3443   */\n      0x00\n        /* \"#utility.yul\":3479:3484   */\n      dup2\n        /* \"#utility.yul\":3472:3485   */\n      iszero\n        /* \"#utility.yul\":3465:3486   */\n      iszero\n        /* \"#utility.yul\":3454:3486   */\n      swap1\n      pop\n        /* \"#utility.yul\":3402:3492   */\n      swap2\n      swap1\n      pop\n      jump\t// out\n        /* \"#utility.yul\":3498:3607   */\n    tag_94:\n        /* \"#utility.yul\":3579:3600   */\n      tag_176\n        /* \"#utility.yul\":3594:3599   */\n      dup2\n        /* \"#utility.yul\":3579:3600   */\n      tag_93\n      jump\t// in\n    tag_176:\n        /* \"#utility.yul\":3574:3577   */\n      dup3\n        /* \"#utility.yul\":3567:3601   */\n      mstore\n        /* \"#utility.yul\":3498:3607   */\n      pop\n      pop\n      jump\t// out\n        /* \"#utility.yul\":3613:4485   */\n    tag_14:\n        /* \"#utility.yul\":3869:3873   */\n      0x00\n        /* \"#utility.yul\":3907:3910   */\n      0xc0\n        /* \"#utility.yul\":3896:3905   */\n      dup3\n        /* \"#utility.yul\":3892:3911   */\n      add\n        /* \"#utility.yul\":3884:3911   */\n      swap1\n      pop\n        /* \"#utility.yul\":3921:3992   */\n      tag_178\n        /* \"#utility.yul\":3989:3990   */\n      0x00\n        /* \"#utility.yul\":3978:3987   */\n      dup4\n        /* \"#utility.yul\":3974:3991   */\n      add\n        /* \"#utility.yul\":3965:3971   */\n      dup10\n        /* \"#utility.yul\":3921:3992   */\n      tag_78\n      jump\t// in\n    tag_178:\n        /* \"#utility.yul\":4039:4048   */\n      dup2\n        /* \"#utility.yul\":4033:4037   */\n      dup2\n        /* \"#utility.yul\":4029:4049   */\n      sub\n        /* \"#utility.yul\":4024:4026   */\n      0x20\n        /* \"#utility.yul\":4013:4022   */\n      dup4\n        /* \"#utility.yul\":4009:4027   */\n      add\n        /* \"#utility.yul\":4002:4050   */\n      mstore\n        /* \"#utility.yul\":4067:4145   */\n      tag_179\n        /* \"#utility.yul\":4140:4144   */\n      dup2\n        /* \"#utility.yul\":4131:4137   */\n      dup9\n        /* \"#utility.yul\":4067:4145   */\n      tag_83\n      jump\t// in\n    tag_179:\n        /* \"#utility.yul\":4059:4145   */\n      swap1\n      pop\n        /* \"#utility.yul\":4155:4227   */\n      tag_180\n        /* \"#utility.yul\":4223:4225   */\n      0x40\n        /* \"#utility.yul\":4212:4221   */\n      dup4\n        /* \"#utility.yul\":4208:4226   */\n      add\n        /* \"#utility.yul\":4199:4205   */\n      dup8\n        /* \"#utility.yul\":4155:4227   */\n      tag_86\n      jump\t// in\n    tag_180:\n        /* \"#utility.yul\":4237:4322   */\n      tag_181\n        /* \"#utility.yul\":4318:4320   */\n      0x60\n        /* \"#utility.yul\":4307:4316   */\n      dup4\n        /* \"#utility.yul\":4303:4321   */\n      add\n        /* \"#utility.yul\":4294:4300   */\n      dup7\n        /* \"#utility.yul\":4237:4322   */\n      tag_90\n      jump\t// in\n    tag_181:\n        /* \"#utility.yul\":4332:4401   */\n      tag_182\n        /* \"#utility.yul\":4396:4399   */\n      0x80\n        /* \"#utility.yul\":4385:4394   */\n      dup4\n        /* \"#utility.yul\":4381:4400   */\n      add\n        /* \"#utility.yul\":4372:4378   */\n      dup6\n        /* \"#utility.yul\":4332:4401   */\n      tag_92\n      jump\t// in\n    tag_182:\n        /* \"#utility.yul\":4411:4478   */\n      tag_183\n        /* \"#utility.yul\":4473:4476   */\n      0xa0\n        /* \"#utility.yul\":4462:4471   */\n      dup4\n        /* \"#utility.yul\":4458:4477   */\n      add\n        /* \"#utility.yul\":4449:4455   */\n      dup5\n        /* \"#utility.yul\":4411:4478   */\n      tag_94\n      jump\t// in\n    tag_183:\n        /* \"#utility.yul\":3613:4485   */\n      swap8\n      swap7\n      pop\n      pop\n      pop\n      pop\n      pop\n      pop\n      pop\n      jump\t// out\n        /* \"#utility.yul\":4491:4608   */\n    tag_95:\n        /* \"#utility.yul\":4600:4601   */\n      0x00\n        /* \"#utility.yul\":4597:4598   */\n      0x00\n        /* \"#utility.yul\":4590:4602   */\n      revert\n        /* \"#utility.yul\":4614:4731   */\n    tag_96:\n        /* \"#utility.yul\":4723:4724   */\n      0x00\n        /* \"#utility.yul\":4720:4721   */\n      0x00\n        /* \"#utility.yul\":4713:4725   */\n      revert\n        /* \"#utility.yul\":4737:4917   */\n    tag_97:\n        /* \"#utility.yul\":4785:4862   */\n      0x4e487b7100000000000000000000000000000000000000000000000000000000\n        /* \"#utility.yul\":4782:4783   */\n      0x00\n        /* \"#utility.yul\":4775:4863   */\n      mstore\n        /* \"#utility.yul\":4882:4886   */\n      0x41\n        /* \"#utility.yul\":4879:4880   */\n      0x04\n        /* \"#utility.yul\":4872:4887   */\n      mstore\n        /* \"#utility.yul\":4906:4910   */\n      0x24\n        /* \"#utility.yul\":4903:4904   */\n      0x00\n        /* \"#utility.yul\":4896:4911   */\n      revert\n        /* \"#utility.yul\":4923:5204   */\n    tag_98:\n        /* \"#utility.yul\":5006:5033   */\n      tag_188\n        /* \"#utility.yul\":5028:5032   */\n      dup3\n        /* \"#utility.yul\":5006:5033   */\n      tag_82\n      jump\t// in\n    tag_188:\n        /* \"#utility.yul\":4998:5004   */\n      dup2\n        /* \"#utility.yul\":4994:5034   */\n      add\n        /* \"#utility.yul\":5136:5142   */\n      dup2\n        /* \"#utility.yul\":5124:5134   */\n      dup2\n        /* \"#utility.yul\":5121:5143   */\n      lt\n        /* \"#utility.yul\":5100:5118   */\n      0xffffffffffffffff\n        /* \"#utility.yul\":5088:5098   */\n      dup3\n        /* \"#utility.yul\":5085:5119   */\n      gt\n        /* \"#utility.yul\":5082:5144   */\n      or\n        /* \"#utility.yul\":5079:5167   */\n      iszero\n      tag_189\n      jumpi\n        /* \"#utility.yul\":5147:5165   */\n      tag_190\n      tag_97\n      jump\t// in\n    tag_190:\n        /* \"#utility.yul\":5079:5167   */\n    tag_189:\n        /* \"#utility.yul\":5187:5197   */\n      dup1\n        /* \"#utility.yul\":5183:5185   */\n      0x40\n        /* \"#utility.yul\":5176:5198   */\n      mstore\n        /* \"#utility.yul\":4966:5204   */\n      pop\n        /* \"#utility.yul\":4923:5204   */\n      pop\n      pop\n      jump\t// out\n        /* \"#utility.yul\":5210:5339   */\n    tag_99:\n        /* \"#utility.yul\":5244:5250   */\n      0x00\n        /* \"#utility.yul\":5271:5291   */\n      tag_192\n      tag_72\n      jump\t// in\n    tag_192:\n        /* \"#utility.yul\":5261:5291   */\n      swap1\n      pop\n        /* \"#utility.yul\":5300:5333   */\n      tag_193\n        /* \"#utility.yul\":5328:5332   */\n      dup3\n        /* \"#utility.yul\":5320:5326   */\n      dup3\n        /* \"#utility.yul\":5300:5333   */\n      tag_98\n      jump\t// in\n    tag_193:\n        /* \"#utility.yul\":5210:5339   */\n      swap2\n      swap1\n      pop\n      jump\t// out\n        /* \"#utility.yul\":5345:5653   */\n    tag_100:\n        /* \"#utility.yul\":5407:5411   */\n      0x00\n        /* \"#utility.yul\":5497:5515   */\n      0xffffffffffffffff\n        /* \"#utility.yul\":5489:5495   */\n      dup3\n        /* \"#utility.yul\":5486:5516   */\n      gt\n        /* \"#utility.yul\":5483:5539   */\n      iszero\n      tag_195\n      jumpi\n        /* \"#utility.yul\":5519:5537   */\n      tag_196\n      tag_97\n      jump\t// in\n    tag_196:\n        /* \"#utility.yul\":5483:5539   */\n    tag_195:\n        /* \"#utility.yul\":5557:5586   */\n      tag_197\n        /* \"#utility.yul\":5579:5585   */\n      dup3\n        /* \"#utility.yul\":5557:5586   */\n      tag_82\n      jump\t// in\n    tag_197:\n        /* \"#utility.yul\":5549:5586   */\n      swap1\n      pop\n        /* \"#utility.yul\":5641:5645   */\n      0x20\n        /* \"#utility.yul\":5635:5639   */\n      dup2\n        /* \"#utility.yul\":5631:5646   */\n      add\n        /* \"#utility.yul\":5623:5646   */\n      swap1\n      pop\n        /* \"#utility.yul\":5345:5653   */\n      swap2\n      swap1\n      pop\n      jump\t// out\n        /* \"#utility.yul\":5659:5807   */\n    tag_101:\n        /* \"#utility.yul\":5757:5763   */\n      dup3\n        /* \"#utility.yul\":5752:5755   */\n      dup2\n        /* \"#utility.yul\":5747:5750   */\n      dup4\n        /* \"#utility.yul\":5734:5764   */\n      calldatacopy\n        /* \"#utility.yul\":5798:5799   */\n      0x00\n        /* \"#utility.yul\":5789:5795   */\n      dup4\n        /* \"#utility.yul\":5784:5787   */\n      dup4\n        /* \"#utility.yul\":5780:5796   */\n      add\n        /* \"#utility.yul\":5773:5800   */\n      mstore\n        /* \"#utility.yul\":5659:5807   */\n      pop\n      pop\n      pop\n      jump\t// out\n        /* \"#utility.yul\":5813:6238   */\n    tag_102:\n        /* \"#utility.yul\":5891:5896   */\n      0x00\n        /* \"#utility.yul\":5916:5982   */\n      tag_200\n        /* \"#utility.yul\":5932:5981   */\n      tag_201\n        /* \"#utility.yul\":5974:5980   */\n      dup5\n        /* \"#utility.yul\":5932:5981   */\n      tag_100\n      jump\t// in\n    tag_201:\n        /* \"#utility.yul\":5916:5982   */\n      tag_99\n      jump\t// in\n    tag_200:\n        /* \"#utility.yul\":5907:5982   */\n      swap1\n      pop\n        /* \"#utility.yul\":6005:6011   */\n      dup3\n        /* \"#utility.yul\":5998:6003   */\n      dup2\n        /* \"#utility.yul\":5991:6012   */\n      mstore\n        /* \"#utility.yul\":6043:6047   */\n      0x20\n        /* \"#utility.yul\":6036:6041   */\n      dup2\n        /* \"#utility.yul\":6032:6048   */\n      add\n        /* \"#utility.yul\":6081:6084   */\n      dup5\n        /* \"#utility.yul\":6072:6078   */\n      dup5\n        /* \"#utility.yul\":6067:6070   */\n      dup5\n        /* \"#utility.yul\":6063:6079   */\n      add\n        /* \"#utility.yul\":6060:6085   */\n      gt\n        /* \"#utility.yul\":6057:6169   */\n      iszero\n      tag_202\n      jumpi\n        /* \"#utility.yul\":6088:6167   */\n      tag_203\n      tag_96\n      jump\t// in\n    tag_203:\n        /* \"#utility.yul\":6057:6169   */\n    tag_202:\n        /* \"#utility.yul\":6178:6232   */\n      tag_204\n        /* \"#utility.yul\":6225:6231   */\n      dup5\n        /* \"#utility.yul\":6220:6223   */\n      dup3\n        /* \"#utility.yul\":6215:6218   */\n      dup6\n        /* \"#utility.yul\":6178:6232   */\n      tag_101\n      jump\t// in\n    tag_204:\n        /* \"#utility.yul\":5897:6238   */\n      pop\n        /* \"#utility.yul\":5813:6238   */\n      swap4\n      swap3\n      pop\n      pop\n      pop\n      jump\t// out\n        /* \"#utility.yul\":6258:6598   */\n    tag_103:\n        /* \"#utility.yul\":6314:6319   */\n      0x00\n        /* \"#utility.yul\":6363:6366   */\n      dup3\n        /* \"#utility.yul\":6356:6360   */\n      0x1f\n        /* \"#utility.yul\":6348:6354   */\n      dup4\n        /* \"#utility.yul\":6344:6361   */\n      add\n        /* \"#utility.yul\":6340:6367   */\n      slt\n        /* \"#utility.yul\":6330:6452   */\n      tag_206\n      jumpi\n        /* \"#utility.yul\":6371:6450   */\n      tag_207\n      tag_95\n      jump\t// in\n    tag_207:\n        /* \"#utility.yul\":6330:6452   */\n    tag_206:\n        /* \"#utility.yul\":6488:6494   */\n      dup2\n        /* \"#utility.yul\":6475:6495   */\n      calldataload\n        /* \"#utility.yul\":6513:6592   */\n      tag_208\n        /* \"#utility.yul\":6588:6591   */\n      dup5\n        /* \"#utility.yul\":6580:6586   */\n      dup3\n        /* \"#utility.yul\":6573:6577   */\n      0x20\n        /* \"#utility.yul\":6565:6571   */\n      dup7\n        /* \"#utility.yul\":6561:6578   */\n      add\n        /* \"#utility.yul\":6513:6592   */\n      tag_102\n      jump\t// in\n    tag_208:\n        /* \"#utility.yul\":6504:6592   */\n      swap2\n      pop\n        /* \"#utility.yul\":6320:6598   */\n      pop\n        /* \"#utility.yul\":6258:6598   */\n      swap3\n      swap2\n      pop\n      pop\n      jump\t// out\n        /* \"#utility.yul\":6604:7113   */\n    tag_17:\n        /* \"#utility.yul\":6673:6679   */\n      0x00\n        /* \"#utility.yul\":6722:6724   */\n      0x20\n        /* \"#utility.yul\":6710:6719   */\n      dup3\n        /* \"#utility.yul\":6701:6708   */\n      dup5\n        /* \"#utility.yul\":6697:6720   */\n      sub\n        /* \"#utility.yul\":6693:6725   */\n      slt\n        /* \"#utility.yul\":6690:6809   */\n      iszero\n      tag_210\n      jumpi\n        /* \"#utility.yul\":6728:6807   */\n      tag_211\n      tag_73\n      jump\t// in\n    tag_211:\n        /* \"#utility.yul\":6690:6809   */\n    tag_210:\n        /* \"#utility.yul\":6876:6877   */\n      0x00\n        /* \"#utility.yul\":6865:6874   */\n      dup3\n        /* \"#utility.yul\":6861:6878   */\n      add\n        /* \"#utility.yul\":6848:6879   */\n      calldataload\n        /* \"#utility.yul\":6906:6924   */\n      0xffffffffffffffff\n        /* \"#utility.yul\":6898:6904   */\n      dup2\n        /* \"#utility.yul\":6895:6925   */\n      gt\n        /* \"#utility.yul\":6892:7009   */\n      iszero\n      tag_212\n      jumpi\n        /* \"#utility.yul\":6928:7007   */\n      tag_213\n      tag_74\n      jump\t// in\n    tag_213:\n        /* \"#utility.yul\":6892:7009   */\n    tag_212:\n        /* \"#utility.yul\":7033:7096   */\n      tag_214\n        /* \"#utility.yul\":7088:7095   */\n      dup5\n        /* \"#utility.yul\":7079:7085   */\n      dup3\n        /* \"#utility.yul\":7068:7077   */\n      dup6\n        /* \"#utility.yul\":7064:7086   */\n      add\n        /* \"#utility.yul\":7033:7096   */\n      tag_103\n      jump\t// in\n    tag_214:\n        /* \"#utility.yul\":7023:7096   */\n      swap2\n      pop\n        /* \"#utility.yul\":6819:7106   */\n      pop\n        /* \"#utility.yul\":6604:7113   */\n      swap3\n      swap2\n      pop\n      pop\n      jump\t// out\n        /* \"#utility.yul\":7119:7341   */\n    tag_20:\n        /* \"#utility.yul\":7212:7216   */\n      0x00\n        /* \"#utility.yul\":7250:7252   */\n      0x20\n        /* \"#utility.yul\":7239:7248   */\n      dup3\n        /* \"#utility.yul\":7235:7253   */\n      add\n        /* \"#utility.yul\":7227:7253   */\n      swap1\n      pop\n        /* \"#utility.yul\":7263:7334   */\n      tag_216\n        /* \"#utility.yul\":7331:7332   */\n      0x00\n        /* \"#utility.yul\":7320:7329   */\n      dup4\n        /* \"#utility.yul\":7316:7333   */\n      add\n        /* \"#utility.yul\":7307:7313   */\n      dup5\n        /* \"#utility.yul\":7263:7334   */\n      tag_78\n      jump\t// in\n    tag_216:\n        /* \"#utility.yul\":7119:7341   */\n      swap3\n      swap2\n      pop\n      pop\n      jump\t// out\n        /* \"#utility.yul\":7347:7455   */\n    tag_104:\n        /* \"#utility.yul\":7424:7448   */\n      tag_218\n        /* \"#utility.yul\":7442:7447   */\n      dup2\n        /* \"#utility.yul\":7424:7448   */\n      tag_75\n      jump\t// in\n    tag_218:\n        /* \"#utility.yul\":7419:7422   */\n      dup3\n        /* \"#utility.yul\":7412:7449   */\n      mstore\n        /* \"#utility.yul\":7347:7455   */\n      pop\n      pop\n      jump\t// out\n        /* \"#utility.yul\":7461:7620   */\n    tag_105:\n        /* \"#utility.yul\":7535:7546   */\n      0x00\n        /* \"#utility.yul\":7569:7575   */\n      dup3\n        /* \"#utility.yul\":7564:7567   */\n      dup3\n        /* \"#utility.yul\":7557:7576   */\n      mstore\n        /* \"#utility.yul\":7609:7613   */\n      0x20\n        /* \"#utility.yul\":7604:7607   */\n      dup3\n        /* \"#utility.yul\":7600:7614   */\n      add\n        /* \"#utility.yul\":7585:7614   */\n      swap1\n      pop\n        /* \"#utility.yul\":7461:7620   */\n      swap3\n      swap2\n      pop\n      pop\n      jump\t// out\n        /* \"#utility.yul\":7626:7983   */\n    tag_106:\n        /* \"#utility.yul\":7704:7707   */\n      0x00\n        /* \"#utility.yul\":7732:7771   */\n      tag_221\n        /* \"#utility.yul\":7765:7770   */\n      dup3\n        /* \"#utility.yul\":7732:7771   */\n      tag_79\n      jump\t// in\n    tag_221:\n        /* \"#utility.yul\":7787:7848   */\n      tag_222\n        /* \"#utility.yul\":7841:7847   */\n      dup2\n        /* \"#utility.yul\":7836:7839   */\n      dup6\n        /* \"#utility.yul\":7787:7848   */\n      tag_105\n      jump\t// in\n    tag_222:\n        /* \"#utility.yul\":7780:7848   */\n      swap4\n      pop\n        /* \"#utility.yul\":7857:7922   */\n      tag_223\n        /* \"#utility.yul\":7915:7921   */\n      dup2\n        /* \"#utility.yul\":7910:7913   */\n      dup6\n        /* \"#utility.yul\":7903:7907   */\n      0x20\n        /* \"#utility.yul\":7896:7901   */\n      dup7\n        /* \"#utility.yul\":7892:7908   */\n      add\n        /* \"#utility.yul\":7857:7922   */\n      tag_81\n      jump\t// in\n    tag_223:\n        /* \"#utility.yul\":7947:7976   */\n      tag_224\n        /* \"#utility.yul\":7969:7975   */\n      dup2\n        /* \"#utility.yul\":7947:7976   */\n      tag_82\n      jump\t// in\n    tag_224:\n        /* \"#utility.yul\":7942:7945   */\n      dup5\n        /* \"#utility.yul\":7938:7977   */\n      add\n        /* \"#utility.yul\":7931:7977   */\n      swap2\n      pop\n        /* \"#utility.yul\":7708:7983   */\n      pop\n        /* \"#utility.yul\":7626:7983   */\n      swap3\n      swap2\n      pop\n      pop\n      jump\t// out\n        /* \"#utility.yul\":7989:8097   */\n    tag_107:\n        /* \"#utility.yul\":8066:8090   */\n      tag_226\n        /* \"#utility.yul\":8084:8089   */\n      dup2\n        /* \"#utility.yul\":8066:8090   */\n      tag_85\n      jump\t// in\n    tag_226:\n        /* \"#utility.yul\":8061:8064   */\n      dup3\n        /* \"#utility.yul\":8054:8091   */\n      mstore\n        /* \"#utility.yul\":7989:8097   */\n      pop\n      pop\n      jump\t// out\n        /* \"#utility.yul\":8103:8250   */\n    tag_108:\n        /* \"#utility.yul\":8193:8243   */\n      tag_228\n        /* \"#utility.yul\":8237:8242   */\n      dup2\n        /* \"#utility.yul\":8193:8243   */\n      tag_89\n      jump\t// in\n    tag_228:\n        /* \"#utility.yul\":8188:8191   */\n      dup3\n        /* \"#utility.yul\":8181:8244   */\n      mstore\n        /* \"#utility.yul\":8103:8250   */\n      pop\n      pop\n      jump\t// out\n        /* \"#utility.yul\":8256:8358   */\n    tag_109:\n        /* \"#utility.yul\":8329:8351   */\n      tag_230\n        /* \"#utility.yul\":8345:8350   */\n      dup2\n        /* \"#utility.yul\":8329:8351   */\n      tag_91\n      jump\t// in\n    tag_230:\n        /* \"#utility.yul\":8324:8327   */\n      dup3\n        /* \"#utility.yul\":8317:8352   */\n      mstore\n        /* \"#utility.yul\":8256:8358   */\n      pop\n      pop\n      jump\t// out\n        /* \"#utility.yul\":8364:8463   */\n    tag_110:\n        /* \"#utility.yul\":8435:8456   */\n      tag_232\n        /* \"#utility.yul\":8450:8455   */\n      dup2\n        /* \"#utility.yul\":8435:8456   */\n      tag_93\n      jump\t// in\n    tag_232:\n        /* \"#utility.yul\":8430:8433   */\n      dup3\n        /* \"#utility.yul\":8423:8457   */\n      mstore\n        /* \"#utility.yul\":8364:8463   */\n      pop\n      pop\n      jump\t// out\n        /* \"#utility.yul\":8543:9851   */\n    tag_111:\n        /* \"#utility.yul\":8658:8661   */\n      0x00\n        /* \"#utility.yul\":8694:8698   */\n      0xc0\n        /* \"#utility.yul\":8689:8692   */\n      dup4\n        /* \"#utility.yul\":8685:8699   */\n      add\n        /* \"#utility.yul\":8779:8783   */\n      0x00\n        /* \"#utility.yul\":8772:8777   */\n      dup4\n        /* \"#utility.yul\":8768:8784   */\n      add\n        /* \"#utility.yul\":8762:8785   */\n      mload\n        /* \"#utility.yul\":8798:8861   */\n      tag_234\n        /* \"#utility.yul\":8855:8859   */\n      0x00\n        /* \"#utility.yul\":8850:8853   */\n      dup7\n        /* \"#utility.yul\":8846:8860   */\n      add\n        /* \"#utility.yul\":8832:8844   */\n      dup3\n        /* \"#utility.yul\":8798:8861   */\n      tag_104\n      jump\t// in\n    tag_234:\n        /* \"#utility.yul\":8709:8871   */\n      pop\n        /* \"#utility.yul\":8953:8957   */\n      0x20\n        /* \"#utility.yul\":8946:8951   */\n      dup4\n        /* \"#utility.yul\":8942:8958   */\n      add\n        /* \"#utility.yul\":8936:8959   */\n      mload\n        /* \"#utility.yul\":9006:9009   */\n      dup5\n        /* \"#utility.yul\":9000:9004   */\n      dup3\n        /* \"#utility.yul\":8996:9010   */\n      sub\n        /* \"#utility.yul\":8989:8993   */\n      0x20\n        /* \"#utility.yul\":8984:8987   */\n      dup7\n        /* \"#utility.yul\":8980:8994   */\n      add\n        /* \"#utility.yul\":8973:9011   */\n      mstore\n        /* \"#utility.yul\":9032:9105   */\n      tag_235\n        /* \"#utility.yul\":9100:9104   */\n      dup3\n        /* \"#utility.yul\":9086:9098   */\n      dup3\n        /* \"#utility.yul\":9032:9105   */\n      tag_106\n      jump\t// in\n    tag_235:\n        /* \"#utility.yul\":9024:9105   */\n      swap2\n      pop\n        /* \"#utility.yul\":8881:9116   */\n      pop\n        /* \"#utility.yul\":9200:9204   */\n      0x40\n        /* \"#utility.yul\":9193:9198   */\n      dup4\n        /* \"#utility.yul\":9189:9205   */\n      add\n        /* \"#utility.yul\":9183:9206   */\n      mload\n        /* \"#utility.yul\":9219:9282   */\n      tag_236\n        /* \"#utility.yul\":9276:9280   */\n      0x40\n        /* \"#utility.yul\":9271:9274   */\n      dup7\n        /* \"#utility.yul\":9267:9281   */\n      add\n        /* \"#utility.yul\":9253:9265   */\n      dup3\n        /* \"#utility.yul\":9219:9282   */\n      tag_107\n      jump\t// in\n    tag_236:\n        /* \"#utility.yul\":9126:9292   */\n      pop\n        /* \"#utility.yul\":9376:9380   */\n      0x60\n        /* \"#utility.yul\":9369:9374   */\n      dup4\n        /* \"#utility.yul\":9365:9381   */\n      add\n        /* \"#utility.yul\":9359:9382   */\n      mload\n        /* \"#utility.yul\":9395:9471   */\n      tag_237\n        /* \"#utility.yul\":9465:9469   */\n      0x60\n        /* \"#utility.yul\":9460:9463   */\n      dup7\n        /* \"#utility.yul\":9456:9470   */\n      add\n        /* \"#utility.yul\":9442:9454   */\n      dup3\n        /* \"#utility.yul\":9395:9471   */\n      tag_108\n      jump\t// in\n    tag_237:\n        /* \"#utility.yul\":9302:9481   */\n      pop\n        /* \"#utility.yul\":9566:9570   */\n      0x80\n        /* \"#utility.yul\":9559:9564   */\n      dup4\n        /* \"#utility.yul\":9555:9571   */\n      add\n        /* \"#utility.yul\":9549:9572   */\n      mload\n        /* \"#utility.yul\":9585:9644   */\n      tag_238\n        /* \"#utility.yul\":9638:9642   */\n      0x80\n        /* \"#utility.yul\":9633:9636   */\n      dup7\n        /* \"#utility.yul\":9629:9643   */\n      add\n        /* \"#utility.yul\":9615:9627   */\n      dup3\n        /* \"#utility.yul\":9585:9644   */\n      tag_109\n      jump\t// in\n    tag_238:\n        /* \"#utility.yul\":9491:9654   */\n      pop\n        /* \"#utility.yul\":9738:9742   */\n      0xa0\n        /* \"#utility.yul\":9731:9736   */\n      dup4\n        /* \"#utility.yul\":9727:9743   */\n      add\n        /* \"#utility.yul\":9721:9744   */\n      mload\n        /* \"#utility.yul\":9757:9814   */\n      tag_239\n        /* \"#utility.yul\":9808:9812   */\n      0xa0\n        /* \"#utility.yul\":9803:9806   */\n      dup7\n        /* \"#utility.yul\":9799:9813   */\n      add\n        /* \"#utility.yul\":9785:9797   */\n      dup3\n        /* \"#utility.yul\":9757:9814   */\n      tag_110\n      jump\t// in\n    tag_239:\n        /* \"#utility.yul\":9664:9824   */\n      pop\n        /* \"#utility.yul\":9841:9845   */\n      dup1\n        /* \"#utility.yul\":9834:9845   */\n      swap2\n      pop\n        /* \"#utility.yul\":8663:9851   */\n      pop\n        /* \"#utility.yul\":8543:9851   */\n      swap3\n      swap2\n      pop\n      pop\n      jump\t// out\n        /* \"#utility.yul\":9857:10222   */\n    tag_25:\n        /* \"#utility.yul\":9996:10000   */\n      0x00\n        /* \"#utility.yul\":10034:10036   */\n      0x20\n        /* \"#utility.yul\":10023:10032   */\n      dup3\n        /* \"#utility.yul\":10019:10037   */\n      add\n        /* \"#utility.yul\":10011:10037   */\n      swap1\n      pop\n        /* \"#utility.yul\":10083:10092   */\n      dup2\n        /* \"#utility.yul\":10077:10081   */\n      dup2\n        /* \"#utility.yul\":10073:10093   */\n      sub\n        /* \"#utility.yul\":10069:10070   */\n      0x00\n        /* \"#utility.yul\":10058:10067   */\n      dup4\n        /* \"#utility.yul\":10054:10071   */\n      add\n        /* \"#utility.yul\":10047:10094   */\n      mstore\n        /* \"#utility.yul\":10111:10215   */\n      tag_241\n        /* \"#utility.yul\":10210:10214   */\n      dup2\n        /* \"#utility.yul\":10201:10207   */\n      dup5\n        /* \"#utility.yul\":10111:10215   */\n      tag_111\n      jump\t// in\n    tag_241:\n        /* \"#utility.yul\":10103:10215   */\n      swap1\n      pop\n        /* \"#utility.yul\":9857:10222   */\n      swap3\n      swap2\n      pop\n      pop\n      jump\t// out\n        /* \"#utility.yul\":10228:10346   */\n    tag_112:\n        /* \"#utility.yul\":10299:10321   */\n      tag_243\n        /* \"#utility.yul\":10315:10320   */\n      dup2\n        /* \"#utility.yul\":10299:10321   */\n      tag_91\n      jump\t// in\n    tag_243:\n        /* \"#utility.yul\":10292:10297   */\n      dup2\n        /* \"#utility.yul\":10289:10322   */\n      eq\n        /* \"#utility.yul\":10279:10340   */\n      tag_244\n      jumpi\n        /* \"#utility.yul\":10336:10337   */\n      0x00\n        /* \"#utility.yul\":10333:10334   */\n      0x00\n        /* \"#utility.yul\":10326:10338   */\n      revert\n        /* \"#utility.yul\":10279:10340   */\n    tag_244:\n        /* \"#utility.yul\":10228:10346   */\n      pop\n      jump\t// out\n        /* \"#utility.yul\":10352:10487   */\n    tag_113:\n        /* \"#utility.yul\":10396:10401   */\n      0x00\n        /* \"#utility.yul\":10434:10440   */\n      dup2\n        /* \"#utility.yul\":10421:10441   */\n      calldataload\n        /* \"#utility.yul\":10412:10441   */\n      swap1\n      pop\n        /* \"#utility.yul\":10450:10481   */\n      tag_246\n        /* \"#utility.yul\":10475:10480   */\n      dup2\n        /* \"#utility.yul\":10450:10481   */\n      tag_112\n      jump\t// in\n    tag_246:\n        /* \"#utility.yul\":10352:10487   */\n      swap3\n      swap2\n      pop\n      pop\n      jump\t// out\n        /* \"#utility.yul\":10493:10963   */\n    tag_31:\n        /* \"#utility.yul\":10559:10565   */\n      0x00\n        /* \"#utility.yul\":10567:10573   */\n      0x00\n        /* \"#utility.yul\":10616:10618   */\n      0x40\n        /* \"#utility.yul\":10604:10613   */\n      dup4\n        /* \"#utility.yul\":10595:10602   */\n      dup6\n        /* \"#utility.yul\":10591:10614   */\n      sub\n        /* \"#utility.yul\":10587:10619   */\n      slt\n        /* \"#utility.yul\":10584:10703   */\n      iszero\n      tag_248\n      jumpi\n        /* \"#utility.yul\":10622:10701   */\n      tag_249\n      tag_73\n      jump\t// in\n    tag_249:\n        /* \"#utility.yul\":10584:10703   */\n    tag_248:\n        /* \"#utility.yul\":10742:10743   */\n      0x00\n        /* \"#utility.yul\":10767:10820   */\n      tag_250\n        /* \"#utility.yul\":10812:10819   */\n      dup6\n        /* \"#utility.yul\":10803:10809   */\n      dup3\n        /* \"#utility.yul\":10792:10801   */\n      dup7\n        /* \"#utility.yul\":10788:10810   */\n      add\n        /* \"#utility.yul\":10767:10820   */\n      tag_77\n      jump\t// in\n    tag_250:\n        /* \"#utility.yul\":10757:10820   */\n      swap3\n      pop\n        /* \"#utility.yul\":10713:10830   */\n      pop\n        /* \"#utility.yul\":10869:10871   */\n      0x20\n        /* \"#utility.yul\":10895:10946   */\n      tag_251\n        /* \"#utility.yul\":10938:10945   */\n      dup6\n        /* \"#utility.yul\":10929:10935   */\n      dup3\n        /* \"#utility.yul\":10918:10927   */\n      dup7\n        /* \"#utility.yul\":10914:10936   */\n      add\n        /* \"#utility.yul\":10895:10946   */\n      tag_113\n      jump\t// in\n    tag_251:\n        /* \"#utility.yul\":10885:10946   */\n      swap2\n      pop\n        /* \"#utility.yul\":10840:10956   */\n      pop\n        /* \"#utility.yul\":10493:10963   */\n      swap3\n      pop\n      swap3\n      swap1\n      pop\n      jump\t// out\n        /* \"#utility.yul\":10969:11179   */\n    tag_37:\n        /* \"#utility.yul\":11056:11060   */\n      0x00\n        /* \"#utility.yul\":11094:11096   */\n      0x20\n        /* \"#utility.yul\":11083:11092   */\n      dup3\n        /* \"#utility.yul\":11079:11097   */\n      add\n        /* \"#utility.yul\":11071:11097   */\n      swap1\n      pop\n        /* \"#utility.yul\":11107:11172   */\n      tag_253\n        /* \"#utility.yul\":11169:11170   */\n      0x00\n        /* \"#utility.yul\":11158:11167   */\n      dup4\n        /* \"#utility.yul\":11154:11171   */\n      add\n        /* \"#utility.yul\":11145:11151   */\n      dup5\n        /* \"#utility.yul\":11107:11172   */\n      tag_94\n      jump\t// in\n    tag_253:\n        /* \"#utility.yul\":10969:11179   */\n      swap3\n      swap2\n      pop\n      pop\n      jump\t// out\n        /* \"#utility.yul\":11185:11365   */\n    tag_114:\n        /* \"#utility.yul\":11233:11310   */\n      0x4e487b7100000000000000000000000000000000000000000000000000000000\n        /* \"#utility.yul\":11230:11231   */\n      0x00\n        /* \"#utility.yul\":11223:11311   */\n      mstore\n        /* \"#utility.yul\":11330:11334   */\n      0x22\n        /* \"#utility.yul\":11327:11328   */\n      0x04\n        /* \"#utility.yul\":11320:11335   */\n      mstore\n        /* \"#utility.yul\":11354:11358   */\n      0x24\n        /* \"#utility.yul\":11351:11352   */\n      0x00\n        /* \"#utility.yul\":11344:11359   */\n      revert\n        /* \"#utility.yul\":11371:11691   */\n    tag_39:\n        /* \"#utility.yul\":11415:11421   */\n      0x00\n        /* \"#utility.yul\":11452:11453   */\n      0x02\n        /* \"#utility.yul\":11446:11450   */\n      dup3\n        /* \"#utility.yul\":11442:11454   */\n      div\n        /* \"#utility.yul\":11432:11454   */\n      swap1\n      pop\n        /* \"#utility.yul\":11499:11500   */\n      0x01\n        /* \"#utility.yul\":11493:11497   */\n      dup3\n        /* \"#utility.yul\":11489:11501   */\n      and\n        /* \"#utility.yul\":11520:11538   */\n      dup1\n        /* \"#utility.yul\":11510:11591   */\n      tag_256\n      jumpi\n        /* \"#utility.yul\":11576:11580   */\n      0x7f\n        /* \"#utility.yul\":11568:11574   */\n      dup3\n        /* \"#utility.yul\":11564:11581   */\n      and\n        /* \"#utility.yul\":11554:11581   */\n      swap2\n      pop\n        /* \"#utility.yul\":11510:11591   */\n    tag_256:\n        /* \"#utility.yul\":11638:11640   */\n      0x20\n        /* \"#utility.yul\":11630:11636   */\n      dup3\n        /* \"#utility.yul\":11627:11641   */\n      lt\n        /* \"#utility.yul\":11607:11625   */\n      dup2\n        /* \"#utility.yul\":11604:11642   */\n      sub\n        /* \"#utility.yul\":11601:11685   */\n      tag_257\n      jumpi\n        /* \"#utility.yul\":11657:11675   */\n      tag_258\n      tag_114\n      jump\t// in\n    tag_258:\n        /* \"#utility.yul\":11601:11685   */\n    tag_257:\n        /* \"#utility.yul\":11422:11691   */\n      pop\n        /* \"#utility.yul\":11371:11691   */\n      swap2\n      swap1\n      pop\n      jump\t// out\n        /* \"#utility.yul\":11697:11877   */\n    tag_115:\n        /* \"#utility.yul\":11745:11822   */\n      0x4e487b7100000000000000000000000000000000000000000000000000000000\n        /* \"#utility.yul\":11742:11743   */\n      0x00\n        /* \"#utility.yul\":11735:11823   */\n      mstore\n        /* \"#utility.yul\":11842:11846   */\n      0x11\n        /* \"#utility.yul\":11839:11840   */\n      0x04\n        /* \"#utility.yul\":11832:11847   */\n      mstore\n        /* \"#utility.yul\":11866:11870   */\n      0x24\n        /* \"#utility.yul\":11863:11864   */\n      0x00\n        /* \"#utility.yul\":11856:11871   */\n      revert\n        /* \"#utility.yul\":11883:12116   */\n    tag_46:\n        /* \"#utility.yul\":11922:11925   */\n      0x00\n        /* \"#utility.yul\":11945:11969   */\n      tag_261\n        /* \"#utility.yul\":11963:11968   */\n      dup3\n        /* \"#utility.yul\":11945:11969   */\n      tag_75\n      jump\t// in\n    tag_261:\n        /* \"#utility.yul\":11936:11969   */\n      swap2\n      pop\n        /* \"#utility.yul\":11991:12057   */\n      0xffffffffffffffffffffffffffffffffffffffffffffffffffffffffffffffff\n        /* \"#utility.yul\":11984:11989   */\n      dup3\n        /* \"#utility.yul\":11981:12058   */\n      sub\n        /* \"#utility.yul\":11978:12081   */\n      tag_262\n      jumpi\n        /* \"#utility.yul\":12061:12079   */\n      tag_263\n      tag_115\n      jump\t// in\n    tag_263:\n        /* \"#utility.yul\":11978:12081   */\n    tag_262:\n        /* \"#utility.yul\":12108:12109   */\n      0x01\n        /* \"#utility.yul\":12101:12106   */\n      dup3\n        /* \"#utility.yul\":12097:12110   */\n      add\n        /* \"#utility.yul\":12090:12110   */\n      swap1\n      pop\n        /* \"#utility.yul\":11883:12116   */\n      swap2\n      swap1\n      pop\n      jump\t// out\n        /* \"#utility.yul\":12122:12263   */\n    tag_116:\n        /* \"#utility.yul\":12171:12175   */\n      0x00\n        /* \"#utility.yul\":12194:12197   */\n      dup2\n        /* \"#utility.yul\":12186:12197   */\n      swap1\n      pop\n        /* \"#utility.yul\":12217:12220   */\n      dup2\n        /* \"#utility.yul\":12214:12215   */\n      0x00\n        /* \"#utility.yul\":12207:12221   */\n      mstore\n        /* \"#utility.yul\":12251:12255   */\n      0x20\n        /* \"#utility.yul\":12248:12249   */\n      0x00\n        /* \"#utility.yul\":12238:12256   */\n      keccak256\n        /* \"#utility.yul\":12230:12256   */\n      swap1\n      pop\n        /* \"#utility.yul\":12122:12263   */\n      swap2\n      swap1\n      pop\n      jump\t// out\n        /* \"#utility.yul\":12269:12362   */\n    tag_117:\n        /* \"#utility.yul\":12306:12312   */\n      0x00\n        /* \"#utility.yul\":12353:12355   */\n      0x20\n        /* \"#utility.yul\":12348:12350   */\n      0x1f\n        /* \"#utility.yul\":12341:12346   */\n      dup4\n        /* \"#utility.yul\":12337:12351   */\n      add\n        /* \"#utility.yul\":12333:12356   */\n      div\n        /* \"#utility.yul\":12323:12356   */\n      swap1\n      pop\n        /* \"#utility.yul\":12269:12362   */\n      swap2\n      swap1\n      pop\n      jump\t// out\n        /* \"#utility.yul\":12368:12475   */\n    tag_118:\n        /* \"#utility.yul\":12412:12420   */\n      0x00\n        /* \"#utility.yul\":12462:12467   */\n      dup3\n        /* \"#utility.yul\":12456:12460   */\n      dup3\n        /* \"#utility.yul\":12452:12468   */\n      shl\n        /* \"#utility.yul\":12431:12468   */\n      swap1\n      pop\n        /* \"#utility.yul\":12368:12475   */\n      swap3\n      swap2\n      pop\n      pop\n      jump\t// out\n        /* \"#utility.yul\":12481:12874   */\n    tag_119:\n        /* \"#utility.yul\":12550:12556   */\n      0x00\n        /* \"#utility.yul\":12600:12601   */\n      0x08\n        /* \"#utility.yul\":12588:12598   */\n      dup4\n        /* \"#utility.yul\":12584:12602   */\n      mul\n        /* \"#utility.yul\":12623:12720   */\n      tag_268\n        /* \"#utility.yul\":12653:12719   */\n      0xffffffffffffffffffffffffffffffffffffffffffffffffffffffffffffffff\n        /* \"#utility.yul\":12642:12651   */\n      dup3\n        /* \"#utility.yul\":12623:12720   */\n      tag_118\n      jump\t// in\n    tag_268:\n        /* \"#utility.yul\":12741:12780   */\n      tag_269\n        /* \"#utility.yul\":12771:12779   */\n      dup7\n        /* \"#utility.yul\":12760:12769   */\n      dup4\n        /* \"#utility.yul\":12741:12780   */\n      tag_118\n      jump\t// in\n    tag_269:\n        /* \"#utility.yul\":12729:12780   */\n      swap6\n      pop\n        /* \"#utility.yul\":12813:12817   */\n      dup1\n        /* \"#utility.yul\":12809:12818   */\n      not\n        /* \"#utility.yul\":12802:12807   */\n      dup5\n        /* \"#utility.yul\":12798:12819   */\n      and\n        /* \"#utility.yul\":12789:12819   */\n      swap4\n      pop\n        /* \"#utility.yul\":12862:12866   */\n      dup1\n        /* \"#utility.yul\":12852:12860   */\n      dup7\n        /* \"#utility.yul\":12848:12867   */\n      and\n        /* \"#utility.yul\":12841:12846   */\n      dup5\n        /* \"#utility.yul\":12838:12868   */\n      or\n        /* \"#utility.yul\":12828:12868   */\n      swap3\n      pop\n        /* \"#utility.yul\":12557:12874   */\n      pop\n      pop\n        /* \"#utility.yul\":12481:12874   */\n      swap4\n      swap3\n      pop\n      pop\n      pop\n      jump\t// out\n        /* \"#utility.yul\":12880:12940   */\n    tag_120:\n        /* \"#utility.yul\":12908:12911   */\n      0x00\n        /* \"#utility.yul\":12929:12934   */\n      dup2\n        /* \"#utility.yul\":12922:12934   */\n      swap1\n      pop\n        /* \"#utility.yul\":12880:12940   */\n      swap2\n      swap1\n      pop\n      jump\t// out\n        /* \"#utility.yul\":12946:13088   */\n    tag_121:\n        /* \"#utility.yul\":12996:13005   */\n      0x00\n        /* \"#utility.yul\":13029:13082   */\n      tag_272\n        /* \"#utility.yul\":13047:13081   */\n      tag_273\n        /* \"#utility.yul\":13056:13080   */\n      tag_274\n        /* \"#utility.yul\":13074:13079   */\n      dup5\n        /* \"#utility.yul\":13056:13080   */\n      tag_75\n      jump\t// in\n    tag_274:\n        /* \"#utility.yul\":13047:13081   */\n      tag_120\n      jump\t// in\n    tag_273:\n        /* \"#utility.yul\":13029:13082   */\n      tag_75\n      jump\t// in\n    tag_272:\n        /* \"#utility.yul\":13016:13082   */\n      swap1\n      pop\n        /* \"#utility.yul\":12946:13088   */\n      swap2\n      swap1\n      pop\n      jump\t// out\n        /* \"#utility.yul\":13094:13169   */\n    tag_122:\n        /* \"#utility.yul\":13137:13140   */\n      0x00\n        /* \"#utility.yul\":13158:13163   */\n      dup2\n        /* \"#utility.yul\":13151:13163   */\n      swap1\n      pop\n        /* \"#utility.yul\":13094:13169   */\n      swap2\n      swap1\n      pop\n      jump\t// out\n        /* \"#utility.yul\":13175:13444   */\n    tag_123:\n        /* \"#utility.yul\":13285:13324   */\n      tag_277\n        /* \"#utility.yul\":13316:13323   */\n      dup4\n        /* \"#utility.yul\":13285:13324   */\n      tag_121\n      jump\t// in\n    tag_277:\n        /* \"#utility.yul\":13346:13437   */\n      tag_278\n        /* \"#utility.yul\":13395:13436   */\n      tag_279\n        /* \"#utility.yul\":13419:13435   */\n      dup3\n        /* \"#utility.yul\":13395:13436   */\n      tag_122\n      jump\t// in\n    tag_279:\n        /* \"#utility.yul\":13387:13393   */\n      dup5\n        /* \"#utility.yul\":13380:13384   */\n      dup5\n        /* \"#utility.yul\":13374:13385   */\n      sload\n        /* \"#utility.yul\":13346:13437   */\n      tag_119\n      jump\t// in\n    tag_278:\n        /* \"#utility.yul\":13340:13344   */\n      dup3\n        /* \"#utility.yul\":13333:13438   */\n      sstore\n        /* \"#utility.yul\":13251:13444   */\n      pop\n        /* \"#utility.yul\":13175:13444   */\n      pop\n      pop\n      pop\n      jump\t// out\n        /* \"#utility.yul\":13450:13523   */\n    tag_124:\n        /* \"#utility.yul\":13495:13498   */\n      0x00\n        /* \"#utility.yul\":13516:13517   */\n      0x00\n        /* \"#utility.yul\":13509:13517   */\n      swap1\n      pop\n        /* \"#utility.yul\":13450:13523   */\n      swap1\n      jump\t// out\n        /* \"#utility.yul\":13529:13718   */\n    tag_125:\n        /* \"#utility.yul\":13606:13638   */\n      tag_282\n      tag_124\n      jump\t// in\n    tag_282:\n        /* \"#utility.yul\":13647:13712   */\n      tag_283\n        /* \"#utility.yul\":13705:13711   */\n      dup2\n        /* \"#utility.yul\":13697:13703   */\n      dup5\n        /* \"#utility.yul\":13691:13695   */\n      dup5\n        /* \"#utility.yul\":13647:13712   */\n      tag_123\n      jump\t// in\n    tag_283:\n        /* \"#utility.yul\":13582:13718   */\n      pop\n        /* \"#utility.yul\":13529:13718   */\n      pop\n      pop\n      jump\t// out\n        /* \"#utility.yul\":13724:13910   */\n    tag_126:\n        /* \"#utility.yul\":13784:13904   */\n    tag_285:\n        /* \"#utility.yul\":13801:13804   */\n      dup2\n        /* \"#utility.yul\":13794:13799   */\n      dup2\n        /* \"#utility.yul\":13791:13805   */\n      lt\n        /* \"#utility.yul\":13784:13904   */\n      iszero\n      tag_287\n      jumpi\n        /* \"#utility.yul\":13855:13894   */\n      tag_288\n        /* \"#utility.yul\":13892:13893   */\n      0x00\n        /* \"#utility.yul\":13885:13890   */\n      dup3\n        /* \"#utility.yul\":13855:13894   */\n      tag_125\n      jump\t// in\n    tag_288:\n        /* \"#utility.yul\":13828:13829   */\n      0x01\n        /* \"#utility.yul\":13821:13826   */\n      dup2\n        /* \"#utility.yul\":13817:13830   */\n      add\n        /* \"#utility.yul\":13808:13830   */\n      swap1\n      pop\n        /* \"#utility.yul\":13784:13904   */\n      jump(tag_285)\n    tag_287:\n        /* \"#utility.yul\":13724:13910   */\n      pop\n      pop\n      jump\t// out\n        /* \"#utility.yul\":13916:14459   */\n    tag_127:\n        /* \"#utility.yul\":14017:14019   */\n      0x1f\n        /* \"#utility.yul\":14012:14015   */\n      dup3\n        /* \"#utility.yul\":14009:14020   */\n      gt\n        /* \"#utility.yul\":14006:14452   */\n      iszero\n      tag_290\n      jumpi\n        /* \"#utility.yul\":14051:14089   */\n      tag_291\n        /* \"#utility.yul\":14083:14088   */\n      dup2\n        /* \"#utility.yul\":14051:14089   */\n      tag_116\n      jump\t// in\n    tag_291:\n        /* \"#utility.yul\":14135:14164   */\n      tag_292\n        /* \"#utility.yul\":14153:14163   */\n      dup5\n        /* \"#utility.yul\":14135:14164   */\n      tag_117\n      jump\t// in\n    tag_292:\n        /* \"#utility.yul\":14125:14133   */\n      dup2\n        /* \"#utility.yul\":14121:14165   */\n      add\n        /* \"#utility.yul\":14318:14320   */\n      0x20\n        /* \"#utility.yul\":14306:14316   */\n      dup6\n        /* \"#utility.yul\":14303:14321   */\n      lt\n        /* \"#utility.yul\":14300:14349   */\n      iszero\n      tag_293\n      jumpi\n        /* \"#utility.yul\":14339:14347   */\n      dup2\n        /* \"#utility.yul\":14324:14347   */\n      swap1\n      pop\n        /* \"#utility.yul\":14300:14349   */\n    tag_293:\n        /* \"#utility.yul\":14362:14442   */\n      tag_294\n        /* \"#utility.yul\":14418:14440   */\n      tag_295\n        /* \"#utility.yul\":14436:14439   */\n      dup6\n        /* \"#utility.yul\":14418:14440   */\n      tag_117\n      jump\t// in\n    tag_295:\n        /* \"#utility.yul\":14408:14416   */\n      dup4\n        /* \"#utility.yul\":14404:14441   */\n      add\n        /* \"#utility.yul\":14391:14402   */\n      dup3\n        /* \"#utility.yul\":14362:14442   */\n      tag_126\n      jump\t// in\n    tag_294:\n        /* \"#utility.yul\":14021:14452   */\n      pop\n      pop\n        /* \"#utility.yul\":14006:14452   */\n    tag_290:\n        /* \"#utility.yul\":13916:14459   */\n      pop\n      pop\n      pop\n      jump\t// out\n        /* \"#utility.yul\":14465:14582   */\n    tag_128:\n        /* \"#utility.yul\":14519:14527   */\n      0x00\n        /* \"#utility.yul\":14569:14574   */\n      dup3\n        /* \"#utility.yul\":14563:14567   */\n      dup3\n        /* \"#utility.yul\":14559:14575   */\n      shr\n        /* \"#utility.yul\":14538:14575   */\n      swap1\n      pop\n        /* \"#utility.yul\":14465:14582   */\n      swap3\n      swap2\n      pop\n      pop\n      jump\t// out\n        /* \"#utility.yul\":14588:14757   */\n    tag_129:\n        /* \"#utility.yul\":14632:14638   */\n      0x00\n        /* \"#utility.yul\":14665:14716   */\n      tag_298\n        /* \"#utility.yul\":14713:14714   */\n      0x00\n        /* \"#utility.yul\":14709:14715   */\n      not\n        /* \"#utility.yul\":14701:14706   */\n      dup5\n        /* \"#utility.yul\":14698:14699   */\n      0x08\n        /* \"#utility.yul\":14694:14707   */\n      mul\n        /* \"#utility.yul\":14665:14716   */\n      tag_128\n      jump\t// in\n    tag_298:\n        /* \"#utility.yul\":14661:14717   */\n      not\n        /* \"#utility.yul\":14746:14750   */\n      dup1\n        /* \"#utility.yul\":14740:14744   */\n      dup4\n        /* \"#utility.yul\":14736:14751   */\n      and\n        /* \"#utility.yul\":14726:14751   */\n      swap2\n      pop\n        /* \"#utility.yul\":14639:14757   */\n      pop\n        /* \"#utility.yul\":14588:14757   */\n      swap3\n      swap2\n      pop\n      pop\n      jump\t// out\n        /* \"#utility.yul\":14762:15057   */\n    tag_130:\n        /* \"#utility.yul\":14838:14842   */\n      0x00\n        /* \"#utility.yul\":14984:15013   */\n      tag_300\n        /* \"#utility.yul\":15009:15012   */\n      dup4\n        /* \"#utility.yul\":15003:15007   */\n      dup4\n        /* \"#utility.yul\":14984:15013   */\n      tag_129\n      jump\t// in\n    tag_300:\n        /* \"#utility.yul\":14976:15013   */\n      swap2\n      pop\n        /* \"#utility.yul\":15046:15049   */\n      dup3\n        /* \"#utility.yul\":15043:15044   */\n      0x02\n        /* \"#utility.yul\":15039:15050   */\n      mul\n        /* \"#utility.yul\":15033:15037   */\n      dup3\n        /* \"#utility.yul\":15030:15051   */\n      or\n        /* \"#utility.yul\":15022:15051   */\n      swap1\n      pop\n        /* \"#utility.yul\":14762:15057   */\n      swap3\n      swap2\n      pop\n      pop\n      jump\t// out\n        /* \"#utility.yul\":15062:16457   */\n    tag_51:\n        /* \"#utility.yul\":15179:15216   */\n      tag_302\n        /* \"#utility.yul\":15212:15215   */\n      dup3\n        /* \"#utility.yul\":15179:15216   */\n      tag_79\n      jump\t// in\n    tag_302:\n        /* \"#utility.yul\":15281:15299   */\n      0xffffffffffffffff\n        /* \"#utility.yul\":15273:15279   */\n      dup2\n        /* \"#utility.yul\":15270:15300   */\n      gt\n        /* \"#utility.yul\":15267:15323   */\n      iszero\n      tag_303\n      jumpi\n        /* \"#utility.yul\":15303:15321   */\n      tag_304\n      tag_97\n      jump\t// in\n    tag_304:\n        /* \"#utility.yul\":15267:15323   */\n    tag_303:\n        /* \"#utility.yul\":15347:15385   */\n      tag_305\n        /* \"#utility.yul\":15379:15383   */\n      dup3\n        /* \"#utility.yul\":15373:15384   */\n      sload\n        /* \"#utility.yul\":15347:15385   */\n      tag_39\n      jump\t// in\n    tag_305:\n        /* \"#utility.yul\":15432:15499   */\n      tag_306\n        /* \"#utility.yul\":15492:15498   */\n      dup3\n        /* \"#utility.yul\":15484:15490   */\n      dup3\n        /* \"#utility.yul\":15478:15482   */\n      dup6\n        /* \"#utility.yul\":15432:15499   */\n      tag_127\n      jump\t// in\n    tag_306:\n        /* \"#utility.yul\":15526:15527   */\n      0x00\n        /* \"#utility.yul\":15550:15554   */\n      0x20\n        /* \"#utility.yul\":15537:15554   */\n      swap1\n      pop\n        /* \"#utility.yul\":15582:15584   */\n      0x1f\n        /* \"#utility.yul\":15574:15580   */\n      dup4\n        /* \"#utility.yul\":15571:15585   */\n      gt\n        /* \"#utility.yul\":15599:15600   */\n      0x01\n        /* \"#utility.yul\":15594:16212   */\n      dup2\n      eq\n      tag_308\n      jumpi\n        /* \"#utility.yul\":16256:16257   */\n      0x00\n        /* \"#utility.yul\":16273:16279   */\n      dup5\n        /* \"#utility.yul\":16270:16347   */\n      iszero\n      tag_309\n      jumpi\n        /* \"#utility.yul\":16322:16331   */\n      dup3\n        /* \"#utility.yul\":16317:16320   */\n      dup8\n        /* \"#utility.yul\":16313:16332   */\n      add\n        /* \"#utility.yul\":16307:16333   */\n      mload\n        /* \"#utility.yul\":16298:16333   */\n      swap1\n      pop\n        /* \"#utility.yul\":16270:16347   */\n    tag_309:\n        /* \"#utility.yul\":16373:16440   */\n      tag_310\n        /* \"#utility.yul\":16433:16439   */\n      dup6\n        /* \"#utility.yul\":16426:16431   */\n      dup3\n        /* \"#utility.yul\":16373:16440   */\n      tag_130\n      jump\t// in\n    tag_310:\n        /* \"#utility.yul\":16367:16371   */\n      dup7\n        /* \"#utility.yul\":16360:16441   */\n      sstore\n        /* \"#utility.yul\":16229:16451   */\n      pop\n        /* \"#utility.yul\":15564:16451   */\n      jump(tag_307)\n        /* \"#utility.yul\":15594:16212   */\n    tag_308:\n        /* \"#utility.yul\":15646:15650   */\n      0x1f\n        /* \"#utility.yul\":15642:15651   */\n      not\n        /* \"#utility.yul\":15634:15640   */\n      dup5\n        /* \"#utility.yul\":15630:15652   */\n      and\n        /* \"#utility.yul\":15680:15717   */\n      tag_311\n        /* \"#utility.yul\":15712:15716   */\n      dup7\n        /* \"#utility.yul\":15680:15717   */\n      tag_116\n      jump\t// in\n    tag_311:\n        /* \"#utility.yul\":15739:15740   */\n      0x00\n        /* \"#utility.yul\":15753:15961   */\n    tag_312:\n        /* \"#utility.yul\":15767:15774   */\n      dup3\n        /* \"#utility.yul\":15764:15765   */\n      dup2\n        /* \"#utility.yul\":15761:15775   */\n      lt\n        /* \"#utility.yul\":15753:15961   */\n      iszero\n      tag_314\n      jumpi\n        /* \"#utility.yul\":15846:15855   */\n      dup5\n        /* \"#utility.yul\":15841:15844   */\n      dup10\n        /* \"#utility.yul\":15837:15856   */\n      add\n        /* \"#utility.yul\":15831:15857   */\n      mload\n        /* \"#utility.yul\":15823:15829   */\n      dup3\n        /* \"#utility.yul\":15816:15858   */\n      sstore\n        /* \"#utility.yul\":15897:15898   */\n      0x01\n        /* \"#utility.yul\":15889:15895   */\n      dup3\n        /* \"#utility.yul\":15885:15899   */\n      add\n        /* \"#utility.yul\":15875:15899   */\n      swap2\n      pop\n        /* \"#utility.yul\":15944:15946   */\n      0x20\n        /* \"#utility.yul\":15933:15942   */\n      dup6\n        /* \"#utility.yul\":15929:15947   */\n      add\n        /* \"#utility.yul\":15916:15947   */\n      swap5\n      pop\n        /* \"#utility.yul\":15790:15794   */\n      0x20\n        /* \"#utility.yul\":15787:15788   */\n      dup2\n        /* \"#utility.yul\":15783:15795   */\n      add\n        /* \"#utility.yul\":15778:15795   */\n      swap1\n      pop\n        /* \"#utility.yul\":15753:15961   */\n      jump(tag_312)\n    tag_314:\n        /* \"#utility.yul\":15989:15995   */\n      dup7\n        /* \"#utility.yul\":15980:15987   */\n      dup4\n        /* \"#utility.yul\":15977:15996   */\n      lt\n        /* \"#utility.yul\":15974:16153   */\n      iszero\n      tag_315\n      jumpi\n        /* \"#utility.yul\":16047:16056   */\n      dup5\n        /* \"#utility.yul\":16042:16045   */\n      dup10\n        /* \"#utility.yul\":16038:16057   */\n      add\n        /* \"#utility.yul\":16032:16058   */\n      mload\n        /* \"#utility.yul\":16090:16138   */\n      tag_316\n        /* \"#utility.yul\":16132:16136   */\n      0x1f\n        /* \"#utility.yul\":16124:16130   */\n      dup10\n        /* \"#utility.yul\":16120:16137   */\n      and\n        /* \"#utility.yul\":16109:16118   */\n      dup3\n        /* \"#utility.yul\":16090:16138   */\n      tag_129\n      jump\t// in\n    tag_316:\n        /* \"#utility.yul\":16082:16088   */\n      dup4\n        /* \"#utility.yul\":16075:16139   */\n      sstore\n        /* \"#utility.yul\":15997:16153   */\n      pop\n        /* \"#utility.yul\":15974:16153   */\n    tag_315:\n        /* \"#utility.yul\":16199:16200   */\n      0x01\n        /* \"#utility.yul\":16195:16196   */\n      0x02\n        /* \"#utility.yul\":16187:16193   */\n      dup9\n        /* \"#utility.yul\":16183:16197   */\n      mul\n        /* \"#utility.yul\":16179:16201   */\n      add\n        /* \"#utility.yul\":16173:16177   */\n      dup9\n        /* \"#utility.yul\":16166:16202   */\n      sstore\n        /* \"#utility.yul\":15601:16212   */\n      pop\n      pop\n      pop\n        /* \"#utility.yul\":15564:16451   */\n    tag_307:\n      pop\n        /* \"#utility.yul\":15154:16457   */\n      pop\n      pop\n      pop\n        /* \"#utility.yul\":15062:16457   */\n      pop\n      pop\n      jump\t// out\n        /* \"#utility.yul\":16463:16651   */\n    tag_68:\n        /* \"#utility.yul\":16501:16504   */\n      0x00\n        /* \"#utility.yul\":16520:16538   */\n      tag_318\n        /* \"#utility.yul\":16536:16537   */\n      dup3\n        /* \"#utility.yul\":16520:16538   */\n      tag_91\n      jump\t// in\n    tag_318:\n        /* \"#utility.yul\":16515:16538   */\n      swap2\n      pop\n        /* \"#utility.yul\":16552:16570   */\n      tag_319\n        /* \"#utility.yul\":16568:16569   */\n      dup4\n        /* \"#utility.yul\":16552:16570   */\n      tag_91\n      jump\t// in\n    tag_319:\n        /* \"#utility.yul\":16547:16570   */\n      swap3\n      pop\n        /* \"#utility.yul\":16593:16594   */\n      dup3\n        /* \"#utility.yul\":16590:16591   */\n      dup3\n        /* \"#utility.yul\":16586:16595   */\n      add\n        /* \"#utility.yul\":16579:16595   */\n      swap1\n      pop\n        /* \"#utility.yul\":16616:16620   */\n      0xff\n        /* \"#utility.yul\":16611:16614   */\n      dup2\n        /* \"#utility.yul\":16608:16621   */\n      gt\n        /* \"#utility.yul\":16605:16644   */\n      iszero\n      tag_320\n      jumpi\n        /* \"#utility.yul\":16624:16642   */\n      tag_321\n      tag_115\n      jump\t// in\n    tag_321:\n        /* \"#utility.yul\":16605:16644   */\n    tag_320:\n        /* \"#utility.yul\":16463:16651   */\n      swap3\n      swap2\n      pop\n      pop\n      jump\t// out\n\n    auxdata: 0xa26469706673582212203fdf16fc9a87289a62c1f9c3189d1403ad42ca17b6d76c8adbd17063d07cdba064736f6c634300081f0033\n}\n",
				"bytecode": {
					"linkReferences": {},
					"object": "6080604052348015600e575f5ffd5b50610f5e8061001c5f395ff3fe608060405234801561000f575f5ffd5b5060043610610060575f3560e01c806306ead22e14610064578063453e056a14610099578063642f9163146100c9578063e3596cac146100f9578063e6d9e55814610117578063fd38fb1514610133575b5f5ffd5b61007e60048036038101906100799190610677565b610163565b60405161009096959493929190610808565b60405180910390f35b6100b360048036038101906100ae919061099a565b610266565b6040516100c091906109e1565b60405180910390f35b6100e360048036038101906100de9190610677565b6103d0565b6040516100f09190610b13565b60405180910390f35b61010161055b565b60405161010e91906109e1565b60405180910390f35b610131600480360381019061012c9190610b5d565b610561565b005b61014d60048036038101906101489190610677565b6105ac565b60405161015a9190610b9b565b60405180910390f35b5f602052805f5260405f205f91509050805f01549080600101805461018790610be1565b80601f01602080910402602001604051908101604052809291908181526020018280546101b390610be1565b80156101fe5780601f106101d5576101008083540402835291602001916101fe565b820191905f5260205f20905b8154815290600101906020018083116101e157829003601f168201915b505050505090806002015f9054906101000a900473ffffffffffffffffffffffffffffffffffffffff16908060020160149054906101000a900460ff16908060020160159054906101000a900460ff16908060020160169054906101000a900460ff16905086565b5f60015f81548092919061027990610c3e565b91905055506040518060c0016040528060015481526020018381526020013373ffffffffffffffffffffffffffffffffffffffff168152602001600160038111156102c7576102c6610760565b5b81526020015f60ff168152602001600115158152505f5f60015481526020019081526020015f205f820151815f0155602082015181600101908161030b9190610e25565b506040820151816002015f6101000a81548173ffffffffffffffffffffffffffffffffffffffff021916908373ffffffffffffffffffffffffffffffffffffffff16021790555060608201518160020160146101000a81548160ff0219169083600381111561037d5761037c610760565b5b021790555060808201518160020160156101000a81548160ff021916908360ff16021790555060a08201518160020160166101000a81548160ff0219169083151502179055509050506001549050919050565b6103d86105d5565b5f5f8381526020019081526020015f206040518060c00160405290815f820154815260200160018201805461040c90610be1565b80601f016020809104026020016040519081016040528092919081815260200182805461043890610be1565b80156104835780601f1061045a57610100808354040283529160200191610483565b820191905f5260205f20905b81548152906001019060200180831161046657829003601f168201915b50505050508152602001600282015f9054906101000a900473ffffffffffffffffffffffffffffffffffffffff1673ffffffffffffffffffffffffffffffffffffffff1673ffffffffffffffffffffffffffffffffffffffff1681526020016002820160149054906101000a900460ff16600381111561050657610505610760565b5b600381111561051857610517610760565b5b81526020016002820160159054906101000a900460ff1660ff1660ff1681526020016002820160169054906101000a900460ff1615151515815250509050919050565b60015481565b805f5f8481526020019081526020015f2060020160158282829054906101000a900460ff166105909190610ef4565b92506101000a81548160ff021916908360ff1602179055505050565b5f5f5f8381526020019081526020015f2060020160169054906101000a900460ff169050919050565b6040518060c001604052805f8152602001606081526020015f73ffffffffffffffffffffffffffffffffffffffff1681526020015f600381111561061c5761061b610760565b5b81526020015f60ff1681526020015f151581525090565b5f604051905090565b5f5ffd5b5f5ffd5b5f819050919050565b61065681610644565b8114610660575f5ffd5b50565b5f813590506106718161064d565b92915050565b5f6020828403121561068c5761068b61063c565b5b5f61069984828501610663565b91505092915050565b6106ab81610644565b82525050565b5f81519050919050565b5f82825260208201905092915050565b8281835e5f83830152505050565b5f601f19601f8301169050919050565b5f6106f3826106b1565b6106fd81856106bb565b935061070d8185602086016106cb565b610716816106d9565b840191505092915050565b5f73ffffffffffffffffffffffffffffffffffffffff82169050919050565b5f61074a82610721565b9050919050565b61075a81610740565b82525050565b7f4e487b71000000000000000000000000000000000000000000000000000000005f52602160045260245ffd5b6004811061079e5761079d610760565b5b50565b5f8190506107ae8261078d565b919050565b5f6107bd826107a1565b9050919050565b6107cd816107b3565b82525050565b5f60ff82169050919050565b6107e8816107d3565b82525050565b5f8115159050919050565b610802816107ee565b82525050565b5f60c08201905061081b5f8301896106a2565b818103602083015261082d81886106e9565b905061083c6040830187610751565b61084960608301866107c4565b61085660808301856107df565b61086360a08301846107f9565b979650505050505050565b5f5ffd5b5f5ffd5b7f4e487b71000000000000000000000000000000000000000000000000000000005f52604160045260245ffd5b6108ac826106d9565b810181811067ffffffffffffffff821117156108cb576108ca610876565b5b80604052505050565b5f6108dd610633565b90506108e982826108a3565b919050565b5f67ffffffffffffffff82111561090857610907610876565b5b610911826106d9565b9050602081019050919050565b828183375f83830152505050565b5f61093e610939846108ee565b6108d4565b90508281526020810184848401111561095a57610959610872565b5b61096584828561091e565b509392505050565b5f82601f8301126109815761098061086e565b5b813561099184826020860161092c565b91505092915050565b5f602082840312156109af576109ae61063c565b5b5f82013567ffffffffffffffff8111156109cc576109cb610640565b5b6109d88482850161096d565b91505092915050565b5f6020820190506109f45f8301846106a2565b92915050565b610a0381610644565b82525050565b5f82825260208201905092915050565b5f610a23826106b1565b610a2d8185610a09565b9350610a3d8185602086016106cb565b610a46816106d9565b840191505092915050565b610a5a81610740565b82525050565b610a69816107b3565b82525050565b610a78816107d3565b82525050565b610a87816107ee565b82525050565b5f60c083015f830151610aa25f8601826109fa565b5060208301518482036020860152610aba8282610a19565b9150506040830151610acf6040860182610a51565b506060830151610ae26060860182610a60565b506080830151610af56080860182610a6f565b5060a0830151610b0860a0860182610a7e565b508091505092915050565b5f6020820190508181035f830152610b2b8184610a8d565b905092915050565b610b3c816107d3565b8114610b46575f5ffd5b50565b5f81359050610b5781610b33565b92915050565b5f5f60408385031215610b7357610b7261063c565b5b5f610b8085828601610663565b9250506020610b9185828601610b49565b9150509250929050565b5f602082019050610bae5f8301846107f9565b92915050565b7f4e487b71000000000000000000000000000000000000000000000000000000005f52602260045260245ffd5b5f6002820490506001821680610bf857607f821691505b602082108103610c0b57610c0a610bb4565b5b50919050565b7f4e487b71000000000000000000000000000000000000000000000000000000005f52601160045260245ffd5b5f610c4882610644565b91507fffffffffffffffffffffffffffffffffffffffffffffffffffffffffffffffff8203610c7a57610c79610c11565b5b600182019050919050565b5f819050815f5260205f209050919050565b5f6020601f8301049050919050565b5f82821b905092915050565b5f60088302610ce17fffffffffffffffffffffffffffffffffffffffffffffffffffffffffffffffff82610ca6565b610ceb8683610ca6565b95508019841693508086168417925050509392505050565b5f819050919050565b5f610d26610d21610d1c84610644565b610d03565b610644565b9050919050565b5f819050919050565b610d3f83610d0c565b610d53610d4b82610d2d565b848454610cb2565b825550505050565b5f5f905090565b610d6a610d5b565b610d75818484610d36565b505050565b5b81811015610d9857610d8d5f82610d62565b600181019050610d7b565b5050565b601f821115610ddd57610dae81610c85565b610db784610c97565b81016020851015610dc6578190505b610dda610dd285610c97565b830182610d7a565b50505b505050565b5f82821c905092915050565b5f610dfd5f1984600802610de2565b1980831691505092915050565b5f610e158383610dee565b9150826002028217905092915050565b610e2e826106b1565b67ffffffffffffffff811115610e4757610e46610876565b5b610e518254610be1565b610e5c828285610d9c565b5f60209050601f831160018114610e8d575f8415610e7b578287015190505b610e858582610e0a565b865550610eec565b601f198416610e9b86610c85565b5f5b82811015610ec257848901518255600182019150602085019450602081019050610e9d565b86831015610edf5784890151610edb601f891682610dee565b8355505b6001600288020188555050505b505050505050565b5f610efe826107d3565b9150610f09836107d3565b9250828201905060ff811115610f2257610f21610c11565b5b9291505056fea26469706673582212203fdf16fc9a87289a62c1f9c3189d1403ad42ca17b6d76c8adbd17063d07cdba064736f6c634300081f0033",
					"opcodes": "PUSH1 0x80 PUSH1 0x40 MSTORE CALLVALUE DUP1 ISZERO PUSH1 0xE JUMPI PUSH0 PUSH0 REVERT JUMPDEST POP PUSH2 0xF5E DUP1 PUSH2 0x1C PUSH0 CODECOPY PUSH0 RETURN INVALID PUSH1 0x80 PUSH1 0x40 MSTORE CALLVALUE DUP1 ISZERO PUSH2 0xF JUMPI PUSH0 PUSH0 REVERT JUMPDEST POP PUSH1 0x4 CALLDATASIZE LT PUSH2 0x60 JUMPI PUSH0 CALLDATALOAD PUSH1 0xE0 SHR DUP1 PUSH4 0x6EAD22E EQ PUSH2 0x64 JUMPI DUP1 PUSH4 0x453E056A EQ PUSH2 0x99 JUMPI DUP1 PUSH4 0x642F9163 EQ PUSH2 0xC9 JUMPI DUP1 PUSH4 0xE3596CAC EQ PUSH2 0xF9 JUMPI DUP1 PUSH4 0xE6D9E558 EQ PUSH2 0x117 JUMPI DUP1 PUSH4 0xFD38FB15 EQ PUSH2 0x133 JUMPI JUMPDEST PUSH0 PUSH0 REVERT JUMPDEST PUSH2 0x7E PUSH1 0x4 DUP1 CALLDATASIZE SUB DUP2 ADD SWAP1 PUSH2 0x79 SWAP2 SWAP1 PUSH2 0x677 JUMP JUMPDEST PUSH2 0x163 JUMP JUMPDEST PUSH1 0x40 MLOAD PUSH2 0x90 SWAP7 SWAP6 SWAP5 SWAP4 SWAP3 SWAP2 SWAP1 PUSH2 0x808 JUMP JUMPDEST PUSH1 0x40 MLOAD DUP1 SWAP2 SUB SWAP1 RETURN JUMPDEST PUSH2 0xB3 PUSH1 0x4 DUP1 CALLDATASIZE SUB DUP2 ADD SWAP1 PUSH2 0xAE SWAP2 SWAP1 PUSH2 0x99A JUMP JUMPDEST PUSH2 0x266 JUMP JUMPDEST PUSH1 0x40 MLOAD PUSH2 0xC0 SWAP2 SWAP1 PUSH2 0x9E1 JUMP JUMPDEST PUSH1 0x40 MLOAD DUP1 SWAP2 SUB SWAP1 RETURN JUMPDEST PUSH2 0xE3 PUSH1 0x4 DUP1 CALLDATASIZE SUB DUP2 ADD SWAP1 PUSH2 0xDE SWAP2 SWAP1 PUSH2 0x677 JUMP JUMPDEST PUSH2 0x3D0 JUMP JUMPDEST PUSH1 0x40 MLOAD PUSH2 0xF0 SWAP2 SWAP1 PUSH2 0xB13 JUMP JUMPDEST PUSH1 0x40 MLOAD DUP1 SWAP2 SUB SWAP1 RETURN JUMPDEST PUSH2 0x101 PUSH2 0x55B JUMP JUMPDEST PUSH1 0x40 MLOAD PUSH2 0x10E SWAP2 SWAP1 PUSH2 0x9E1 JUMP JUMPDEST PUSH1 0x40 MLOAD DUP1 SWAP2 SUB SWAP1 RETURN JUMPDEST PUSH2 0x131 PUSH1 0x4 DUP1 CALLDATASIZE SUB DUP2 ADD SWAP1 PUSH2 0x12C SWAP2 SWAP1 PUSH2 0xB5D JUMP JUMPDEST PUSH2 0x561 JUMP JUMPDEST STOP JUMPDEST PUSH2 0x14D PUSH1 0x4 DUP1 CALLDATASIZE SUB DUP2 ADD SWAP1 PUSH2 0x148 SWAP2 SWAP1 PUSH2 0x677 JUMP JUMPDEST PUSH2 0x5AC JUMP JUMPDEST PUSH1 0x40 MLOAD PUSH2 0x15A SWAP2 SWAP1 PUSH2 0xB9B JUMP JUMPDEST PUSH1 0x40 MLOAD DUP1 SWAP2 SUB SWAP1 RETURN JUMPDEST PUSH0 PUSH1 0x20 MSTORE DUP1 PUSH0 MSTORE PUSH1 0x40 PUSH0 KECCAK256 PUSH0 SWAP2 POP SWAP1 POP DUP1 PUSH0 ADD SLOAD SWAP1 DUP1 PUSH1 0x1 ADD DUP1 SLOAD PUSH2 0x187 SWAP1 PUSH2 0xBE1 JUMP JUMPDEST DUP1 PUSH1 0x1F ADD PUSH1 0x20 DUP1 SWAP2 DIV MUL PUSH1 0x20 ADD PUSH1 0x40 MLOAD SWAP1 DUP2 ADD PUSH1 0x40 MSTORE DUP1 SWAP3 SWAP2 SWAP1 DUP2 DUP2 MSTORE PUSH1 0x20 ADD DUP3 DUP1 SLOAD PUSH2 0x1B3 SWAP1 PUSH2 0xBE1 JUMP JUMPDEST DUP1 ISZERO PUSH2 0x1FE JUMPI DUP1 PUSH1 0x1F LT PUSH2 0x1D5 JUMPI PUSH2 0x100 DUP1 DUP4 SLOAD DIV MUL DUP4 MSTORE SWAP2 PUSH1 0x20 ADD SWAP2 PUSH2 0x1FE JUMP JUMPDEST DUP3 ADD SWAP2 SWAP1 PUSH0 MSTORE PUSH1 0x20 PUSH0 KECCAK256 SWAP1 JUMPDEST DUP2 SLOAD DUP2 MSTORE SWAP1 PUSH1 0x1 ADD SWAP1 PUSH1 0x20 ADD DUP1 DUP4 GT PUSH2 0x1E1 JUMPI DUP3 SWAP1 SUB PUSH1 0x1F AND DUP3 ADD SWAP2 JUMPDEST POP POP POP POP POP SWAP1 DUP1 PUSH1 0x2 ADD PUSH0 SWAP1 SLOAD SWAP1 PUSH2 0x100 EXP SWAP1 DIV PUSH20 0xFFFFFFFFFFFFFFFFFFFFFFFFFFFFFFFFFFFFFFFF AND SWAP1 DUP1 PUSH1 0x2 ADD PUSH1 0x14 SWAP1 SLOAD SWAP1 PUSH2 0x100 EXP SWAP1 DIV PUSH1 0xFF AND SWAP1 DUP1 PUSH1 0x2 ADD PUSH1 0x15 SWAP1 SLOAD SWAP1 PUSH2 0x100 EXP SWAP1 DIV PUSH1 0xFF AND SWAP1 DUP1 PUSH1 0x2 ADD PUSH1 0x16 SWAP1 SLOAD SWAP1 PUSH2 0x100 EXP SWAP1 DIV PUSH1 0xFF AND SWAP1 POP DUP7 JUMP JUMPDEST PUSH0 PUSH1 0x1 PUSH0 DUP2 SLOAD DUP1 SWAP3 SWAP2 SWAP1 PUSH2 0x279 SWAP1 PUSH2 0xC3E JUMP JUMPDEST SWAP2 SWAP1 POP SSTORE POP PUSH1 0x40 MLOAD DUP1 PUSH1 0xC0 ADD PUSH1 0x40 MSTORE DUP1 PUSH1 0x1 SLOAD DUP2 MSTORE PUSH1 0x20 ADD DUP4 DUP2 MSTORE PUSH1 0x20 ADD CALLER PUSH20 0xFFFFFFFFFFFFFFFFFFFFFFFFFFFFFFFFFFFFFFFF AND DUP2 MSTORE PUSH1 0x20 ADD PUSH1 0x1 PUSH1 0x3 DUP2 GT ISZERO PUSH2 0x2C7 JUMPI PUSH2 0x2C6 PUSH2 0x760 JUMP JUMPDEST JUMPDEST DUP2 MSTORE PUSH1 0x20 ADD PUSH0 PUSH1 0xFF AND DUP2 MSTORE PUSH1 0x20 ADD PUSH1 0x1 ISZERO ISZERO DUP2 MSTORE POP PUSH0 PUSH0 PUSH1 0x1 SLOAD DUP2 MSTORE PUSH1 0x20 ADD SWAP1 DUP2 MSTORE PUSH1 0x20 ADD PUSH0 KECCAK256 PUSH0 DUP3 ADD MLOAD DUP2 PUSH0 ADD SSTORE PUSH1 0x20 DUP3 ADD MLOAD DUP2 PUSH1 0x1 ADD SWAP1 DUP2 PUSH2 0x30B SWAP2 SWAP1 PUSH2 0xE25 JUMP JUMPDEST POP PUSH1 0x40 DUP3 ADD MLOAD DUP2 PUSH1 0x2 ADD PUSH0 PUSH2 0x100 EXP DUP2 SLOAD DUP2 PUSH20 0xFFFFFFFFFFFFFFFFFFFFFFFFFFFFFFFFFFFFFFFF MUL NOT AND SWAP1 DUP4 PUSH20 0xFFFFFFFFFFFFFFFFFFFFFFFFFFFFFFFFFFFFFFFF AND MUL OR SWAP1 SSTORE POP PUSH1 0x60 DUP3 ADD MLOAD DUP2 PUSH1 0x2 ADD PUSH1 0x14 PUSH2 0x100 EXP DUP2 SLOAD DUP2 PUSH1 0xFF MUL NOT AND SWAP1 DUP4 PUSH1 0x3 DUP2 GT ISZERO PUSH2 0x37D JUMPI PUSH2 0x37C PUSH2 0x760 JUMP JUMPDEST JUMPDEST MUL OR SWAP1 SSTORE POP PUSH1 0x80 DUP3 ADD MLOAD DUP2 PUSH1 0x2 ADD PUSH1 0x15 PUSH2 0x100 EXP DUP2 SLOAD DUP2 PUSH1 0xFF MUL NOT AND SWAP1 DUP4 PUSH1 0xFF AND MUL OR SWAP1 SSTORE POP PUSH1 0xA0 DUP3 ADD MLOAD DUP2 PUSH1 0x2 ADD PUSH1 0x16 PUSH2 0x100 EXP DUP2 SLOAD DUP2 PUSH1 0xFF MUL NOT AND SWAP1 DUP4 ISZERO ISZERO MUL OR SWAP1 SSTORE POP SWAP1 POP POP PUSH1 0x1 SLOAD SWAP1 POP SWAP2 SWAP1 POP JUMP JUMPDEST PUSH2 0x3D8 PUSH2 0x5D5 JUMP JUMPDEST PUSH0 PUSH0 DUP4 DUP2 MSTORE PUSH1 0x20 ADD SWAP1 DUP2 MSTORE PUSH1 0x20 ADD PUSH0 KECCAK256 PUSH1 0x40 MLOAD DUP1 PUSH1 0xC0 ADD PUSH1 0x40 MSTORE SWAP1 DUP2 PUSH0 DUP3 ADD SLOAD DUP2 MSTORE PUSH1 0x20 ADD PUSH1 0x1 DUP3 ADD DUP1 SLOAD PUSH2 0x40C SWAP1 PUSH2 0xBE1 JUMP JUMPDEST DUP1 PUSH1 0x1F ADD PUSH1 0x20 DUP1 SWAP2 DIV MUL PUSH1 0x20 ADD PUSH1 0x40 MLOAD SWAP1 DUP2 ADD PUSH1 0x40 MSTORE DUP1 SWAP3 SWAP2 SWAP1 DUP2 DUP2 MSTORE PUSH1 0x20 ADD DUP3 DUP1 SLOAD PUSH2 0x438 SWAP1 PUSH2 0xBE1 JUMP JUMPDEST DUP1 ISZERO PUSH2 0x483 JUMPI DUP1 PUSH1 0x1F LT PUSH2 0x45A JUMPI PUSH2 0x100 DUP1 DUP4 SLOAD DIV MUL DUP4 MSTORE SWAP2 PUSH1 0x20 ADD SWAP2 PUSH2 0x483 JUMP JUMPDEST DUP3 ADD SWAP2 SWAP1 PUSH0 MSTORE PUSH1 0x20 PUSH0 KECCAK256 SWAP1 JUMPDEST DUP2 SLOAD DUP2 MSTORE SWAP1 PUSH1 0x1 ADD SWAP1 PUSH1 0x20 ADD DUP1 DUP4 GT PUSH2 0x466 JUMPI DUP3 SWAP1 SUB PUSH1 0x1F AND DUP3 ADD SWAP2 JUMPDEST POP POP POP POP POP DUP2 MSTORE PUSH1 0x20 ADD PUSH1 0x2 DUP3 ADD PUSH0 SWAP1 SLOAD SWAP1 PUSH2 0x100 EXP SWAP1 DIV PUSH20 0xFFFFFFFFFFFFFFFFFFFFFFFFFFFFFFFFFFFFFFFF AND PUSH20 0xFFFFFFFFFFFFFFFFFFFFFFFFFFFFFFFFFFFFFFFF AND PUSH20 0xFFFFFFFFFFFFFFFFFFFFFFFFFFFFFFFFFFFFFFFF AND DUP2 MSTORE PUSH1 0x20 ADD PUSH1 0x2 DUP3 ADD PUSH1 0x14 SWAP1 SLOAD SWAP1 PUSH2 0x100 EXP SWAP1 DIV PUSH1 0xFF AND PUSH1 0x3 DUP2 GT ISZERO PUSH2 0x506 JUMPI PUSH2 0x505 PUSH2 0x760 JUMP JUMPDEST JUMPDEST PUSH1 0x3 DUP2 GT ISZERO PUSH2 0x518 JUMPI PUSH2 0x517 PUSH2 0x760 JUMP JUMPDEST JUMPDEST DUP2 MSTORE PUSH1 0x20 ADD PUSH1 0x2 DUP3 ADD PUSH1 0x15 SWAP1 SLOAD SWAP1 PUSH2 0x100 EXP SWAP1 DIV PUSH1 0xFF AND PUSH1 0xFF AND PUSH1 0xFF AND DUP2 MSTORE PUSH1 0x20 ADD PUSH1 0x2 DUP3 ADD PUSH1 0x16 SWAP1 SLOAD SWAP1 PUSH2 0x100 EXP SWAP1 DIV PUSH1 0xFF AND ISZERO ISZERO ISZERO ISZERO DUP2 MSTORE POP POP SWAP1 POP SWAP2 SWAP1 POP JUMP JUMPDEST PUSH1 0x1 SLOAD DUP2 JUMP JUMPDEST DUP1 PUSH0 PUSH0 DUP5 DUP2 MSTORE PUSH1 0x20 ADD SWAP1 DUP2 MSTORE PUSH1 0x20 ADD PUSH0 KECCAK256 PUSH1 0x2 ADD PUSH1 0x15 DUP3 DUP3 DUP3 SWAP1 SLOAD SWAP1 PUSH2 0x100 EXP SWAP1 DIV PUSH1 0xFF AND PUSH2 0x590 SWAP2 SWAP1 PUSH2 0xEF4 JUMP JUMPDEST SWAP3 POP PUSH2 0x100 EXP DUP2 SLOAD DUP2 PUSH1 0xFF MUL NOT AND SWAP1 DUP4 PUSH1 0xFF AND MUL OR SWAP1 SSTORE POP POP POP JUMP JUMPDEST PUSH0 PUSH0 PUSH0 DUP4 DUP2 MSTORE PUSH1 0x20 ADD SWAP1 DUP2 MSTORE PUSH1 0x20 ADD PUSH0 KECCAK256 PUSH1 0x2 ADD PUSH1 0x16 SWAP1 SLOAD SWAP1 PUSH2 0x100 EXP SWAP1 DIV PUSH1 0xFF AND SWAP1 POP SWAP2 SWAP1 POP JUMP JUMPDEST PUSH1 0x40 MLOAD DUP1 PUSH1 0xC0 ADD PUSH1 0x40 MSTORE DUP1 PUSH0 DUP2 MSTORE PUSH1 0x20 ADD PUSH1 0x60 DUP2 MSTORE PUSH1 0x20 ADD PUSH0 PUSH20 0xFFFFFFFFFFFFFFFFFFFFFFFFFFFFFFFFFFFFFFFF AND DUP2 MSTORE PUSH1 0x20 ADD PUSH0 PUSH1 0x3 DUP2 GT ISZERO PUSH2 0x61C JUMPI PUSH2 0x61B PUSH2 0x760 JUMP JUMPDEST JUMPDEST DUP2 MSTORE PUSH1 0x20 ADD PUSH0 PUSH1 0xFF AND DUP2 MSTORE PUSH1 0x20 ADD PUSH0 ISZERO ISZERO DUP2 MSTORE POP SWAP1 JUMP JUMPDEST PUSH0 PUSH1 0x40 MLOAD SWAP1 POP SWAP1 JUMP JUMPDEST PUSH0 PUSH0 REVERT JUMPDEST PUSH0 PUSH0 REVERT JUMPDEST PUSH0 DUP2 SWAP1 POP SWAP2 SWAP1 POP JUMP JUMPDEST PUSH2 0x656 DUP2 PUSH2 0x644 JUMP JUMPDEST DUP2 EQ PUSH2 0x660 JUMPI PUSH0 PUSH0 REVERT JUMPDEST POP JUMP JUMPDEST PUSH0 DUP2 CALLDATALOAD SWAP1 POP PUSH2 0x671 DUP2 PUSH2 0x64D JUMP JUMPDEST SWAP3 SWAP2 POP POP JUMP JUMPDEST PUSH0 PUSH1 0x20 DUP3 DUP5 SUB SLT ISZERO PUSH2 0x68C JUMPI PUSH2 0x68B PUSH2 0x63C JUMP JUMPDEST JUMPDEST PUSH0 PUSH2 0x699 DUP5 DUP3 DUP6 ADD PUSH2 0x663 JUMP JUMPDEST SWAP2 POP POP SWAP3 SWAP2 POP POP JUMP JUMPDEST PUSH2 0x6AB DUP2 PUSH2 0x644 JUMP JUMPDEST DUP3 MSTORE POP POP JUMP JUMPDEST PUSH0 DUP2 MLOAD SWAP1 POP SWAP2 SWAP1 POP JUMP JUMPDEST PUSH0 DUP3 DUP3 MSTORE PUSH1 0x20 DUP3 ADD SWAP1 POP SWAP3 SWAP2 POP POP JUMP JUMPDEST DUP3 DUP2 DUP4 MCOPY PUSH0 DUP4 DUP4 ADD MSTORE POP POP POP JUMP JUMPDEST PUSH0 PUSH1 0x1F NOT PUSH1 0x1F DUP4 ADD AND SWAP1 POP SWAP2 SWAP1 POP JUMP JUMPDEST PUSH0 PUSH2 0x6F3 DUP3 PUSH2 0x6B1 JUMP JUMPDEST PUSH2 0x6FD DUP2 DUP6 PUSH2 0x6BB JUMP JUMPDEST SWAP4 POP PUSH2 0x70D DUP2 DUP6 PUSH1 0x20 DUP7 ADD PUSH2 0x6CB JUMP JUMPDEST PUSH2 0x716 DUP2 PUSH2 0x6D9 JUMP JUMPDEST DUP5 ADD SWAP2 POP POP SWAP3 SWAP2 POP POP JUMP JUMPDEST PUSH0 PUSH20 0xFFFFFFFFFFFFFFFFFFFFFFFFFFFFFFFFFFFFFFFF DUP3 AND SWAP1 POP SWAP2 SWAP1 POP JUMP JUMPDEST PUSH0 PUSH2 0x74A DUP3 PUSH2 0x721 JUMP JUMPDEST SWAP1 POP SWAP2 SWAP1 POP JUMP JUMPDEST PUSH2 0x75A DUP2 PUSH2 0x740 JUMP JUMPDEST DUP3 MSTORE POP POP JUMP JUMPDEST PUSH32 0x4E487B7100000000000000000000000000000000000000000000000000000000 PUSH0 MSTORE PUSH1 0x21 PUSH1 0x4 MSTORE PUSH1 0x24 PUSH0 REVERT JUMPDEST PUSH1 0x4 DUP2 LT PUSH2 0x79E JUMPI PUSH2 0x79D PUSH2 0x760 JUMP JUMPDEST JUMPDEST POP JUMP JUMPDEST PUSH0 DUP2 SWAP1 POP PUSH2 0x7AE DUP3 PUSH2 0x78D JUMP JUMPDEST SWAP2 SWAP1 POP JUMP JUMPDEST PUSH0 PUSH2 0x7BD DUP3 PUSH2 0x7A1 JUMP JUMPDEST SWAP1 POP SWAP2 SWAP1 POP JUMP JUMPDEST PUSH2 0x7CD DUP2 PUSH2 0x7B3 JUMP JUMPDEST DUP3 MSTORE POP POP JUMP JUMPDEST PUSH0 PUSH1 0xFF DUP3 AND SWAP1 POP SWAP2 SWAP1 POP JUMP JUMPDEST PUSH2 0x7E8 DUP2 PUSH2 0x7D3 JUMP JUMPDEST DUP3 MSTORE POP POP JUMP JUMPDEST PUSH0 DUP2 ISZERO ISZERO SWAP1 POP SWAP2 SWAP1 POP JUMP JUMPDEST PUSH2 0x802 DUP2 PUSH2 0x7EE JUMP JUMPDEST DUP3 MSTORE POP POP JUMP JUMPDEST PUSH0 PUSH1 0xC0 DUP3 ADD SWAP1 POP PUSH2 0x81B PUSH0 DUP4 ADD DUP10 PUSH2 0x6A2 JUMP JUMPDEST DUP2 DUP2 SUB PUSH1 0x20 DUP4 ADD MSTORE PUSH2 0x82D DUP2 DUP9 PUSH2 0x6E9 JUMP JUMPDEST SWAP1 POP PUSH2 0x83C PUSH1 0x40 DUP4 ADD DUP8 PUSH2 0x751 JUMP JUMPDEST PUSH2 0x849 PUSH1 0x60 DUP4 ADD DUP7 PUSH2 0x7C4 JUMP JUMPDEST PUSH2 0x856 PUSH1 0x80 DUP4 ADD DUP6 PUSH2 0x7DF JUMP JUMPDEST PUSH2 0x863 PUSH1 0xA0 DUP4 ADD DUP5 PUSH2 0x7F9 JUMP JUMPDEST SWAP8 SWAP7 POP POP POP POP POP POP POP JUMP JUMPDEST PUSH0 PUSH0 REVERT JUMPDEST PUSH0 PUSH0 REVERT JUMPDEST PUSH32 0x4E487B7100000000000000000000000000000000000000000000000000000000 PUSH0 MSTORE PUSH1 0x41 PUSH1 0x4 MSTORE PUSH1 0x24 PUSH0 REVERT JUMPDEST PUSH2 0x8AC DUP3 PUSH2 0x6D9 JUMP JUMPDEST DUP2 ADD DUP2 DUP2 LT PUSH8 0xFFFFFFFFFFFFFFFF DUP3 GT OR ISZERO PUSH2 0x8CB JUMPI PUSH2 0x8CA PUSH2 0x876 JUMP JUMPDEST JUMPDEST DUP1 PUSH1 0x40 MSTORE POP POP POP JUMP JUMPDEST PUSH0 PUSH2 0x8DD PUSH2 0x633 JUMP JUMPDEST SWAP1 POP PUSH2 0x8E9 DUP3 DUP3 PUSH2 0x8A3 JUMP JUMPDEST SWAP2 SWAP1 POP JUMP JUMPDEST PUSH0 PUSH8 0xFFFFFFFFFFFFFFFF DUP3 GT ISZERO PUSH2 0x908 JUMPI PUSH2 0x907 PUSH2 0x876 JUMP JUMPDEST JUMPDEST PUSH2 0x911 DUP3 PUSH2 0x6D9 JUMP JUMPDEST SWAP1 POP PUSH1 0x20 DUP2 ADD SWAP1 POP SWAP2 SWAP1 POP JUMP JUMPDEST DUP3 DUP2 DUP4 CALLDATACOPY PUSH0 DUP4 DUP4 ADD MSTORE POP POP POP JUMP JUMPDEST PUSH0 PUSH2 0x93E PUSH2 0x939 DUP5 PUSH2 0x8EE JUMP JUMPDEST PUSH2 0x8D4 JUMP JUMPDEST SWAP1 POP DUP3 DUP2 MSTORE PUSH1 0x20 DUP2 ADD DUP5 DUP5 DUP5 ADD GT ISZERO PUSH2 0x95A JUMPI PUSH2 0x959 PUSH2 0x872 JUMP JUMPDEST JUMPDEST PUSH2 0x965 DUP5 DUP3 DUP6 PUSH2 0x91E JUMP JUMPDEST POP SWAP4 SWAP3 POP POP POP JUMP JUMPDEST PUSH0 DUP3 PUSH1 0x1F DUP4 ADD SLT PUSH2 0x981 JUMPI PUSH2 0x980 PUSH2 0x86E JUMP JUMPDEST JUMPDEST DUP2 CALLDATALOAD PUSH2 0x991 DUP5 DUP3 PUSH1 0x20 DUP7 ADD PUSH2 0x92C JUMP JUMPDEST SWAP2 POP POP SWAP3 SWAP2 POP POP JUMP JUMPDEST PUSH0 PUSH1 0x20 DUP3 DUP5 SUB SLT ISZERO PUSH2 0x9AF JUMPI PUSH2 0x9AE PUSH2 0x63C JUMP JUMPDEST JUMPDEST PUSH0 DUP3 ADD CALLDATALOAD PUSH8 0xFFFFFFFFFFFFFFFF DUP2 GT ISZERO PUSH2 0x9CC JUMPI PUSH2 0x9CB PUSH2 0x640 JUMP JUMPDEST JUMPDEST PUSH2 0x9D8 DUP5 DUP3 DUP6 ADD PUSH2 0x96D JUMP JUMPDEST SWAP2 POP POP SWAP3 SWAP2 POP POP JUMP JUMPDEST PUSH0 PUSH1 0x20 DUP3 ADD SWAP1 POP PUSH2 0x9F4 PUSH0 DUP4 ADD DUP5 PUSH2 0x6A2 JUMP JUMPDEST SWAP3 SWAP2 POP POP JUMP JUMPDEST PUSH2 0xA03 DUP2 PUSH2 0x644 JUMP JUMPDEST DUP3 MSTORE POP POP JUMP JUMPDEST PUSH0 DUP3 DUP3 MSTORE PUSH1 0x20 DUP3 ADD SWAP1 POP SWAP3 SWAP2 POP POP JUMP JUMPDEST PUSH0 PUSH2 0xA23 DUP3 PUSH2 0x6B1 JUMP JUMPDEST PUSH2 0xA2D DUP2 DUP6 PUSH2 0xA09 JUMP JUMPDEST SWAP4 POP PUSH2 0xA3D DUP2 DUP6 PUSH1 0x20 DUP7 ADD PUSH2 0x6CB JUMP JUMPDEST PUSH2 0xA46 DUP2 PUSH2 0x6D9 JUMP JUMPDEST DUP5 ADD SWAP2 POP POP SWAP3 SWAP2 POP POP JUMP JUMPDEST PUSH2 0xA5A DUP2 PUSH2 0x740 JUMP JUMPDEST DUP3 MSTORE POP POP JUMP JUMPDEST PUSH2 0xA69 DUP2 PUSH2 0x7B3 JUMP JUMPDEST DUP3 MSTORE POP POP JUMP JUMPDEST PUSH2 0xA78 DUP2 PUSH2 0x7D3 JUMP JUMPDEST DUP3 MSTORE POP POP JUMP JUMPDEST PUSH2 0xA87 DUP2 PUSH2 0x7EE JUMP JUMPDEST DUP3 MSTORE POP POP JUMP JUMPDEST PUSH0 PUSH1 0xC0 DUP4 ADD PUSH0 DUP4 ADD MLOAD PUSH2 0xAA2 PUSH0 DUP7 ADD DUP3 PUSH2 0x9FA JUMP JUMPDEST POP PUSH1 0x20 DUP4 ADD MLOAD DUP5 DUP3 SUB PUSH1 0x20 DUP7 ADD MSTORE PUSH2 0xABA DUP3 DUP3 PUSH2 0xA19 JUMP JUMPDEST SWAP2 POP POP PUSH1 0x40 DUP4 ADD MLOAD PUSH2 0xACF PUSH1 0x40 DUP7 ADD DUP3 PUSH2 0xA51 JUMP JUMPDEST POP PUSH1 0x60 DUP4 ADD MLOAD PUSH2 0xAE2 PUSH1 0x60 DUP7 ADD DUP3 PUSH2 0xA60 JUMP JUMPDEST POP PUSH1 0x80 DUP4 ADD MLOAD PUSH2 0xAF5 PUSH1 0x80 DUP7 ADD DUP3 PUSH2 0xA6F JUMP JUMPDEST POP PUSH1 0xA0 DUP4 ADD MLOAD PUSH2 0xB08 PUSH1 0xA0 DUP7 ADD DUP3 PUSH2 0xA7E JUMP JUMPDEST POP DUP1 SWAP2 POP POP SWAP3 SWAP2 POP POP JUMP JUMPDEST PUSH0 PUSH1 0x20 DUP3 ADD SWAP1 POP DUP2 DUP2 SUB PUSH0 DUP4 ADD MSTORE PUSH2 0xB2B DUP2 DUP5 PUSH2 0xA8D JUMP JUMPDEST SWAP1 POP SWAP3 SWAP2 POP POP JUMP JUMPDEST PUSH2 0xB3C DUP2 PUSH2 0x7D3 JUMP JUMPDEST DUP2 EQ PUSH2 0xB46 JUMPI PUSH0 PUSH0 REVERT JUMPDEST POP JUMP JUMPDEST PUSH0 DUP2 CALLDATALOAD SWAP1 POP PUSH2 0xB57 DUP2 PUSH2 0xB33 JUMP JUMPDEST SWAP3 SWAP2 POP POP JUMP JUMPDEST PUSH0 PUSH0 PUSH1 0x40 DUP4 DUP6 SUB SLT ISZERO PUSH2 0xB73 JUMPI PUSH2 0xB72 PUSH2 0x63C JUMP JUMPDEST JUMPDEST PUSH0 PUSH2 0xB80 DUP6 DUP3 DUP7 ADD PUSH2 0x663 JUMP JUMPDEST SWAP3 POP POP PUSH1 0x20 PUSH2 0xB91 DUP6 DUP3 DUP7 ADD PUSH2 0xB49 JUMP JUMPDEST SWAP2 POP POP SWAP3 POP SWAP3 SWAP1 POP JUMP JUMPDEST PUSH0 PUSH1 0x20 DUP3 ADD SWAP1 POP PUSH2 0xBAE PUSH0 DUP4 ADD DUP5 PUSH2 0x7F9 JUMP JUMPDEST SWAP3 SWAP2 POP POP JUMP JUMPDEST PUSH32 0x4E487B7100000000000000000000000000000000000000000000000000000000 PUSH0 MSTORE PUSH1 0x22 PUSH1 0x4 MSTORE PUSH1 0x24 PUSH0 REVERT JUMPDEST PUSH0 PUSH1 0x2 DUP3 DIV SWAP1 POP PUSH1 0x1 DUP3 AND DUP1 PUSH2 0xBF8 JUMPI PUSH1 0x7F DUP3 AND SWAP2 POP JUMPDEST PUSH1 0x20 DUP3 LT DUP2 SUB PUSH2 0xC0B JUMPI PUSH2 0xC0A PUSH2 0xBB4 JUMP JUMPDEST JUMPDEST POP SWAP2 SWAP1 POP JUMP JUMPDEST PUSH32 0x4E487B7100000000000000000000000000000000000000000000000000000000 PUSH0 MSTORE PUSH1 0x11 PUSH1 0x4 MSTORE PUSH1 0x24 PUSH0 REVERT JUMPDEST PUSH0 PUSH2 0xC48 DUP3 PUSH2 0x644 JUMP JUMPDEST SWAP2 POP PUSH32 0xFFFFFFFFFFFFFFFFFFFFFFFFFFFFFFFFFFFFFFFFFFFFFFFFFFFFFFFFFFFFFFFF DUP3 SUB PUSH2 0xC7A JUMPI PUSH2 0xC79 PUSH2 0xC11 JUMP JUMPDEST JUMPDEST PUSH1 0x1 DUP3 ADD SWAP1 POP SWAP2 SWAP1 POP JUMP JUMPDEST PUSH0 DUP2 SWAP1 POP DUP2 PUSH0 MSTORE PUSH1 0x20 PUSH0 KECCAK256 SWAP1 POP SWAP2 SWAP1 POP JUMP JUMPDEST PUSH0 PUSH1 0x20 PUSH1 0x1F DUP4 ADD DIV SWAP1 POP SWAP2 SWAP1 POP JUMP JUMPDEST PUSH0 DUP3 DUP3 SHL SWAP1 POP SWAP3 SWAP2 POP POP JUMP JUMPDEST PUSH0 PUSH1 0x8 DUP4 MUL PUSH2 0xCE1 PUSH32 0xFFFFFFFFFFFFFFFFFFFFFFFFFFFFFFFFFFFFFFFFFFFFFFFFFFFFFFFFFFFFFFFF DUP3 PUSH2 0xCA6 JUMP JUMPDEST PUSH2 0xCEB DUP7 DUP4 PUSH2 0xCA6 JUMP JUMPDEST SWAP6 POP DUP1 NOT DUP5 AND SWAP4 POP DUP1 DUP7 AND DUP5 OR SWAP3 POP POP POP SWAP4 SWAP3 POP POP POP JUMP JUMPDEST PUSH0 DUP2 SWAP1 POP SWAP2 SWAP1 POP JUMP JUMPDEST PUSH0 PUSH2 0xD26 PUSH2 0xD21 PUSH2 0xD1C DUP5 PUSH2 0x644 JUMP JUMPDEST PUSH2 0xD03 JUMP JUMPDEST PUSH2 0x644 JUMP JUMPDEST SWAP1 POP SWAP2 SWAP1 POP JUMP JUMPDEST PUSH0 DUP2 SWAP1 POP SWAP2 SWAP1 POP JUMP JUMPDEST PUSH2 0xD3F DUP4 PUSH2 0xD0C JUMP JUMPDEST PUSH2 0xD53 PUSH2 0xD4B DUP3 PUSH2 0xD2D JUMP JUMPDEST DUP5 DUP5 SLOAD PUSH2 0xCB2 JUMP JUMPDEST DUP3 SSTORE POP POP POP POP JUMP JUMPDEST PUSH0 PUSH0 SWAP1 POP SWAP1 JUMP JUMPDEST PUSH2 0xD6A PUSH2 0xD5B JUMP JUMPDEST PUSH2 0xD75 DUP2 DUP5 DUP5 PUSH2 0xD36 JUMP JUMPDEST POP POP POP JUMP JUMPDEST JUMPDEST DUP2 DUP2 LT ISZERO PUSH2 0xD98 JUMPI PUSH2 0xD8D PUSH0 DUP3 PUSH2 0xD62 JUMP JUMPDEST PUSH1 0x1 DUP2 ADD SWAP1 POP PUSH2 0xD7B JUMP JUMPDEST POP POP JUMP JUMPDEST PUSH1 0x1F DUP3 GT ISZERO PUSH2 0xDDD JUMPI PUSH2 0xDAE DUP2 PUSH2 0xC85 JUMP JUMPDEST PUSH2 0xDB7 DUP5 PUSH2 0xC97 JUMP JUMPDEST DUP2 ADD PUSH1 0x20 DUP6 LT ISZERO PUSH2 0xDC6 JUMPI DUP2 SWAP1 POP JUMPDEST PUSH2 0xDDA PUSH2 0xDD2 DUP6 PUSH2 0xC97 JUMP JUMPDEST DUP4 ADD DUP3 PUSH2 0xD7A JUMP JUMPDEST POP POP JUMPDEST POP POP POP JUMP JUMPDEST PUSH0 DUP3 DUP3 SHR SWAP1 POP SWAP3 SWAP2 POP POP JUMP JUMPDEST PUSH0 PUSH2 0xDFD PUSH0 NOT DUP5 PUSH1 0x8 MUL PUSH2 0xDE2 JUMP JUMPDEST NOT DUP1 DUP4 AND SWAP2 POP POP SWAP3 SWAP2 POP POP JUMP JUMPDEST PUSH0 PUSH2 0xE15 DUP4 DUP4 PUSH2 0xDEE JUMP JUMPDEST SWAP2 POP DUP3 PUSH1 0x2 MUL DUP3 OR SWAP1 POP SWAP3 SWAP2 POP POP JUMP JUMPDEST PUSH2 0xE2E DUP3 PUSH2 0x6B1 JUMP JUMPDEST PUSH8 0xFFFFFFFFFFFFFFFF DUP2 GT ISZERO PUSH2 0xE47 JUMPI PUSH2 0xE46 PUSH2 0x876 JUMP JUMPDEST JUMPDEST PUSH2 0xE51 DUP3 SLOAD PUSH2 0xBE1 JUMP JUMPDEST PUSH2 0xE5C DUP3 DUP3 DUP6 PUSH2 0xD9C JUMP JUMPDEST PUSH0 PUSH1 0x20 SWAP1 POP PUSH1 0x1F DUP4 GT PUSH1 0x1 DUP2 EQ PUSH2 0xE8D JUMPI PUSH0 DUP5 ISZERO PUSH2 0xE7B JUMPI DUP3 DUP8 ADD MLOAD SWAP1 POP JUMPDEST PUSH2 0xE85 DUP6 DUP3 PUSH2 0xE0A JUMP JUMPDEST DUP7 SSTORE POP PUSH2 0xEEC JUMP JUMPDEST PUSH1 0x1F NOT DUP5 AND PUSH2 0xE9B DUP7 PUSH2 0xC85 JUMP JUMPDEST PUSH0 JUMPDEST DUP3 DUP2 LT ISZERO PUSH2 0xEC2 JUMPI DUP5 DUP10 ADD MLOAD DUP3 SSTORE PUSH1 0x1 DUP3 ADD SWAP2 POP PUSH1 0x20 DUP6 ADD SWAP5 POP PUSH1 0x20 DUP2 ADD SWAP1 POP PUSH2 0xE9D JUMP JUMPDEST DUP7 DUP4 LT ISZERO PUSH2 0xEDF JUMPI DUP5 DUP10 ADD MLOAD PUSH2 0xEDB PUSH1 0x1F DUP10 AND DUP3 PUSH2 0xDEE JUMP JUMPDEST DUP4 SSTORE POP JUMPDEST PUSH1 0x1 PUSH1 0x2 DUP9 MUL ADD DUP9 SSTORE POP POP POP JUMPDEST POP POP POP POP POP POP JUMP JUMPDEST PUSH0 PUSH2 0xEFE DUP3 PUSH2 0x7D3 JUMP JUMPDEST SWAP2 POP PUSH2 0xF09 DUP4 PUSH2 0x7D3 JUMP JUMPDEST SWAP3 POP DUP3 DUP3 ADD SWAP1 POP PUSH1 0xFF DUP2 GT ISZERO PUSH2 0xF22 JUMPI PUSH2 0xF21 PUSH2 0xC11 JUMP JUMPDEST JUMPDEST SWAP3 SWAP2 POP POP JUMP INVALID LOG2 PUSH5 0x6970667358 0x22 SLT KECCAK256 EXTCODEHASH 0xDF AND 0xFC SWAP11 DUP8 0x28 SWAP11 PUSH3 0xC1F9C3 XOR SWAP14 EQ SUB 0xAD TIMESTAMP 0xCA OR 0xB6 0xD7 PUSH13 0x8ADBD17063D07CDBA064736F6C PUSH4 0x4300081F STOP CALLER "
				},
				"gasEstimates": {
					"creation": {
						"codeDepositCost": "786800",
						"executionCost": "816",
						"totalCost": "787616"
					},
					"external": {
						"addCredits(uint256,uint8)": "infinite",
						"addStudent(string)": "infinite",
						"getStudent(uint256)": "infinite",
						"studentCounter()": "2469",
						"studentExists(uint256)": "2954",
						"students(uint256)": "infinite"
					}
				},
				"methodIdentifiers": {
					"addCredits(uint256,uint8)": "e6d9e558",
					"addStudent(string)": "453e056a",
					"getStudent(uint256)": "642f9163",
					"studentCounter()": "e3596cac",
					"studentExists(uint256)": "fd38fb15",
					"students(uint256)": "06ead22e"
				}
			},
			"storageLayout": {
				"storage": [
					{
						"astId": 25,
						"contract": "contracts/MultipleStudents.sol:MultipleStudents",
						"label": "students",
						"offset": 0,
						"slot": "0",
						"type": "t_mapping(t_uint256,t_struct(Student)20_storage)"
					},
					{
						"astId": 27,
						"contract": "contracts/MultipleStudents.sol:MultipleStudents",
						"label": "studentCounter",
						"offset": 0,
						"slot": "1",
						"type": "t_uint256"
					}
				],
				"types": {
					"t_address": {
						"encoding": "inplace",
						"label": "address",
						"numberOfBytes": "20"
					},
					"t_bool": {
						"encoding": "inplace",
						"label": "bool",
						"numberOfBytes": "1"
					},
					"t_enum(StudentStatus)6": {
						"encoding": "inplace",
						"label": "enum MultipleStudents.StudentStatus",
						"numberOfBytes": "1"
					},
					"t_mapping(t_uint256,t_struct(Student)20_storage)": {
						"encoding": "mapping",
						"key": "t_uint256",
						"label": "mapping(uint256 => struct MultipleStudents.Student)",
						"numberOfBytes": "32",
						"value": "t_struct(Student)20_storage"
					},
					"t_string_storage": {
						"encoding": "bytes",
						"label": "string",
						"numberOfBytes": "32"
					},
					"t_struct(Student)20_storage": {
						"encoding": "inplace",
						"label": "struct MultipleStudents.Student",
						"members": [
							{
								"astId": 8,
								"contract": "contracts/MultipleStudents.sol:MultipleStudents",
								"label": "id",
								"offset": 0,
								"slot": "0",
								"type": "t_uint256"
							},
							{
								"astId": 10,
								"contract": "contracts/MultipleStudents.sol:MultipleStudents",
								"label": "name",
								"offset": 0,
								"slot": "1",
								"type": "t_string_storage"
							},
							{
								"astId": 12,
								"contract": "contracts/MultipleStudents.sol:MultipleStudents",
								"label": "wallet",
								"offset": 0,
								"slot": "2",
								"type": "t_address"
							},
							{
								"astId": 15,
								"contract": "contracts/MultipleStudents.sol:MultipleStudents",
								"label": "status",
								"offset": 20,
								"slot": "2",
								"type": "t_enum(StudentStatus)6"
							},
							{
								"astId": 17,
								"contract": "contracts/MultipleStudents.sol:MultipleStudents",
								"label": "credits",
								"offset": 21,
								"slot": "2",
								"type": "t_uint8"
							},
							{
								"astId": 19,
								"contract": "contracts/MultipleStudents.sol:MultipleStudents",
								"label": "exists",
								"offset": 22,
								"slot": "2",
								"type": "t_bool"
							}
						],
						"numberOfBytes": "96"
					},
					"t_uint256": {
						"encoding": "inplace",
						"label": "uint256",
						"numberOfBytes": "32"
					},
					"t_uint8": {
						"encoding": "inplace",
						"label": "uint8",
						"numberOfBytes": "1"
					}
				}
			},
			"userdoc": {
				"kind": "user",
				"methods": {},
				"version": 1
			}
		}
	}
}