{
	"contracts/LearnRequire.sol": {
		"LearnRequire": {
			"abi": [
				{
					"inputs": [
						{
							"internalType": "uint256",
							"name": "_id",
							"type": "uint256"
						},
						{
							"internalType": "uint256",
							"name": "_amount",
							"type": "uint256"
						}
					],
					"name": "addCredits",
					"outputs": [],
					"stateMutability": "nonpayable",
					"type": "function"
				},
				{
					"inputs": [
						{
							"internalType": "uint256",
							"name": "_id",
							"type": "uint256"
						}
					],
					"name": "registerStudent",
					"outputs": [],
					"stateMutability": "nonpayable",
					"type": "function"
				},
				{
					"inputs": [
						{
							"internalType": "uint256",
							"name": "",
							"type": "uint256"
						}
					],
					"name": "studentCredits",
					"outputs": [
						{
							"internalType": "uint256",
							"name": "",
							"type": "uint256"
						}
					],
					"stateMutability": "view",
					"type": "function"
				},
				{
					"inputs": [
						{
							"internalType": "uint256",
							"name": "",
							"type": "uint256"
						}
					],
					"name": "studentOwner",
					"outputs": [
						{
							"internalType": "address",
							"name": "",
							"type": "address"
						}
					],
					"stateMutability": "view",
					"type": "function"
				}
			],
			"devdoc": {
				"kind": "dev",
				"methods": {},
				"version": 1
			},
			"evm": {
				"assembly": "    /* \"contracts/LearnRequire.sol\":58:646  contract LearnRequire {... */\n  mstore(0x40, 0x80)\n  callvalue\n  dup1\n  iszero\n  tag_1\n  jumpi\n  revert(0x00, 0x00)\ntag_1:\n  pop\n  dataSize(sub_0)\n  dup1\n  dataOffset(sub_0)\n  0x00\n  codecopy\n  0x00\n  return\nstop\n\nsub_0: assembly {\n        /* \"contracts/LearnRequire.sol\":58:646  contract LearnRequire {... */\n      mstore(0x40, 0x80)\n      callvalue\n      dup1\n      iszero\n      tag_1\n      jumpi\n      revert(0x00, 0x00)\n    tag_1:\n      pop\n      jumpi(tag_2, lt(calldatasize, 0x04))\n      shr(0xe0, calldataload(0x00))\n      dup1\n      0x2e566ebd\n      eq\n      tag_3\n      jumpi\n      dup1\n      0x3dcc1c75\n      eq\n      tag_4\n      jumpi\n      dup1\n      0x5ce91edb\n      eq\n      tag_5\n      jumpi\n      dup1\n      0x9c823b40\n      eq\n      tag_6\n      jumpi\n    tag_2:\n      revert(0x00, 0x00)\n        /* \"contracts/LearnRequire.sol\":326:644  function addCredits(uint256 _id, uint256 _amount) public {... */\n    tag_3:\n      tag_7\n      0x04\n      dup1\n      calldatasize\n      sub\n      dup2\n      add\n      swap1\n      tag_8\n      swap2\n      swap1\n      tag_9\n      jump\t// in\n    tag_8:\n      tag_10\n      jump\t// in\n    tag_7:\n      stop\n        /* \"contracts/LearnRequire.sol\":86:133  mapping(uint256 => address) public studentOwner */\n    tag_4:\n      tag_11\n      0x04\n      dup1\n      calldatasize\n      sub\n      dup2\n      add\n      swap1\n      tag_12\n      swap2\n      swap1\n      tag_13\n      jump\t// in\n    tag_12:\n      tag_14\n      jump\t// in\n    tag_11:\n      mload(0x40)\n      tag_15\n      swap2\n      swap1\n      tag_16\n      jump\t// in\n    tag_15:\n      mload(0x40)\n      dup1\n      swap2\n      sub\n      swap1\n      return\n        /* \"contracts/LearnRequire.sol\":195:320  function registerStudent(uint256 _id) public {... */\n    tag_5:\n      tag_17\n      0x04\n      dup1\n      calldatasize\n      sub\n      dup2\n      add\n      swap1\n      tag_18\n      swap2\n      swap1\n      tag_13\n      jump\t// in\n    tag_18:\n      tag_19\n      jump\t// in\n    tag_17:\n      stop\n        /* \"contracts/LearnRequire.sol\":139:188  mapping(uint256 => uint256) public studentCredits */\n    tag_6:\n      tag_20\n      0x04\n      dup1\n      calldatasize\n      sub\n      dup2\n      add\n      swap1\n      tag_21\n      swap2\n      swap1\n      tag_13\n      jump\t// in\n    tag_21:\n      tag_22\n      jump\t// in\n    tag_20:\n      mload(0x40)\n      tag_23\n      swap2\n      swap1\n      tag_24\n      jump\t// in\n    tag_23:\n      mload(0x40)\n      dup1\n      swap2\n      sub\n      swap1\n      return\n        /* \"contracts/LearnRequire.sol\":326:644  function addCredits(uint256 _id, uint256 _amount) public {... */\n    tag_10:\n        /* \"contracts/LearnRequire.sol\":474:484  msg.sender */\n      caller\n        /* \"contracts/LearnRequire.sol\":453:484  studentOwner[_id] == msg.sender */\n      0xffffffffffffffffffffffffffffffffffffffff\n      and\n        /* \"contracts/LearnRequire.sol\":453:465  studentOwner */\n      0x00\n        /* \"contracts/LearnRequire.sol\":453:470  studentOwner[_id] */\n      0x00\n        /* \"contracts/LearnRequire.sol\":466:469  _id */\n      dup5\n        /* \"contracts/LearnRequire.sol\":453:470  studentOwner[_id] */\n      dup2\n      mstore\n      0x20\n      add\n      swap1\n      dup2\n      mstore\n      0x20\n      add\n      0x00\n      keccak256\n      0x00\n      swap1\n      sload\n      swap1\n      0x0100\n      exp\n      swap1\n      div\n      0xffffffffffffffffffffffffffffffffffffffff\n      and\n        /* \"contracts/LearnRequire.sol\":453:484  studentOwner[_id] == msg.sender */\n      0xffffffffffffffffffffffffffffffffffffffff\n      and\n      eq\n        /* \"contracts/LearnRequire.sol\":445:508  require(studentOwner[_id] == msg.sender, \"Bukan student Anda!\") */\n      tag_26\n      jumpi\n      mload(0x40)\n      0x08c379a000000000000000000000000000000000000000000000000000000000\n      dup2\n      mstore\n      0x04\n      add\n      tag_27\n      swap1\n      tag_28\n      jump\t// in\n    tag_27:\n      mload(0x40)\n      dup1\n      swap2\n      sub\n      swap1\n      revert\n    tag_26:\n        /* \"contracts/LearnRequire.sol\":565:566  0 */\n      0x00\n        /* \"contracts/LearnRequire.sol\":555:562  _amount */\n      dup2\n        /* \"contracts/LearnRequire.sol\":555:566  _amount > 0 */\n      gt\n        /* \"contracts/LearnRequire.sol\":547:596  require(_amount > 0, \"Amount harus lebih dari 0\") */\n      tag_29\n      jumpi\n      mload(0x40)\n      0x08c379a000000000000000000000000000000000000000000000000000000000\n      dup2\n      mstore\n      0x04\n      add\n      tag_30\n      swap1\n      tag_31\n      jump\t// in\n    tag_30:\n      mload(0x40)\n      dup1\n      swap2\n      sub\n      swap1\n      revert\n    tag_29:\n        /* \"contracts/LearnRequire.sol\":630:637  _amount */\n      dup1\n        /* \"contracts/LearnRequire.sol\":607:621  studentCredits */\n      0x01\n        /* \"contracts/LearnRequire.sol\":607:626  studentCredits[_id] */\n      0x00\n        /* \"contracts/LearnRequire.sol\":622:625  _id */\n      dup5\n        /* \"contracts/LearnRequire.sol\":607:626  studentCredits[_id] */\n      dup2\n      mstore\n      0x20\n      add\n      swap1\n      dup2\n      mstore\n      0x20\n      add\n      0x00\n      keccak256\n      0x00\n        /* \"contracts/LearnRequire.sol\":607:637  studentCredits[_id] += _amount */\n      dup3\n      dup3\n      sload\n      tag_32\n      swap2\n      swap1\n      tag_33\n      jump\t// in\n    tag_32:\n      swap3\n      pop\n      pop\n      dup2\n      swap1\n      sstore\n      pop\n        /* \"contracts/LearnRequire.sol\":326:644  function addCredits(uint256 _id, uint256 _amount) public {... */\n      pop\n      pop\n      jump\t// out\n        /* \"contracts/LearnRequire.sol\":86:133  mapping(uint256 => address) public studentOwner */\n    tag_14:\n      mstore(0x20, 0x00)\n      dup1\n      0x00\n      mstore\n      keccak256(0x00, 0x40)\n      0x00\n      swap2\n      pop\n      sload\n      swap1\n      0x0100\n      exp\n      swap1\n      div\n      0xffffffffffffffffffffffffffffffffffffffff\n      and\n      dup2\n      jump\t// out\n        /* \"contracts/LearnRequire.sol\":195:320  function registerStudent(uint256 _id) public {... */\n    tag_19:\n        /* \"contracts/LearnRequire.sol\":270:280  msg.sender */\n      caller\n        /* \"contracts/LearnRequire.sol\":250:262  studentOwner */\n      0x00\n        /* \"contracts/LearnRequire.sol\":250:267  studentOwner[_id] */\n      0x00\n        /* \"contracts/LearnRequire.sol\":263:266  _id */\n      dup4\n        /* \"contracts/LearnRequire.sol\":250:267  studentOwner[_id] */\n      dup2\n      mstore\n      0x20\n      add\n      swap1\n      dup2\n      mstore\n      0x20\n      add\n      0x00\n      keccak256\n      0x00\n        /* \"contracts/LearnRequire.sol\":250:280  studentOwner[_id] = msg.sender */\n      0x0100\n      exp\n      dup2\n      sload\n      dup2\n      0xffffffffffffffffffffffffffffffffffffffff\n      mul\n      not\n      and\n      swap1\n      dup4\n      0xffffffffffffffffffffffffffffffffffffffff\n      and\n      mul\n      or\n      swap1\n      sstore\n      pop\n        /* \"contracts/LearnRequire.sol\":312:313  0 */\n      0x00\n        /* \"contracts/LearnRequire.sol\":290:304  studentCredits */\n      0x01\n        /* \"contracts/LearnRequire.sol\":290:309  studentCredits[_id] */\n      0x00\n        /* \"contracts/LearnRequire.sol\":305:308  _id */\n      dup4\n        /* \"contracts/LearnRequire.sol\":290:309  studentCredits[_id] */\n      dup2\n      mstore\n      0x20\n      add\n      swap1\n      dup2\n      mstore\n      0x20\n      add\n      0x00\n      keccak256\n        /* \"contracts/LearnRequire.sol\":290:313  studentCredits[_id] = 0 */\n      dup2\n      swap1\n      sstore\n      pop\n        /* \"contracts/LearnRequire.sol\":195:320  function registerStudent(uint256 _id) public {... */\n      pop\n      jump\t// out\n        /* \"contracts/LearnRequire.sol\":139:188  mapping(uint256 => uint256) public studentCredits */\n    tag_22:\n      mstore(0x20, 0x01)\n      dup1\n      0x00\n      mstore\n      keccak256(0x00, 0x40)\n      0x00\n      swap2\n      pop\n      swap1\n      pop\n      sload\n      dup2\n      jump\t// out\n        /* \"#utility.yul\":88:205   */\n    tag_36:\n        /* \"#utility.yul\":197:198   */\n      0x00\n        /* \"#utility.yul\":194:195   */\n      0x00\n        /* \"#utility.yul\":187:199   */\n      revert\n        /* \"#utility.yul\":334:411   */\n    tag_38:\n        /* \"#utility.yul\":371:378   */\n      0x00\n        /* \"#utility.yul\":400:405   */\n      dup2\n        /* \"#utility.yul\":389:405   */\n      swap1\n      pop\n        /* \"#utility.yul\":334:411   */\n      swap2\n      swap1\n      pop\n      jump\t// out\n        /* \"#utility.yul\":417:539   */\n    tag_39:\n        /* \"#utility.yul\":490:514   */\n      tag_57\n        /* \"#utility.yul\":508:513   */\n      dup2\n        /* \"#utility.yul\":490:514   */\n      tag_38\n      jump\t// in\n    tag_57:\n        /* \"#utility.yul\":483:488   */\n      dup2\n        /* \"#utility.yul\":480:515   */\n      eq\n        /* \"#utility.yul\":470:533   */\n      tag_58\n      jumpi\n        /* \"#utility.yul\":529:530   */\n      0x00\n        /* \"#utility.yul\":526:527   */\n      0x00\n        /* \"#utility.yul\":519:531   */\n      revert\n        /* \"#utility.yul\":470:533   */\n    tag_58:\n        /* \"#utility.yul\":417:539   */\n      pop\n      jump\t// out\n        /* \"#utility.yul\":545:684   */\n    tag_40:\n        /* \"#utility.yul\":591:596   */\n      0x00\n        /* \"#utility.yul\":629:635   */\n      dup2\n        /* \"#utility.yul\":616:636   */\n      calldataload\n        /* \"#utility.yul\":607:636   */\n      swap1\n      pop\n        /* \"#utility.yul\":645:678   */\n      tag_60\n        /* \"#utility.yul\":672:677   */\n      dup2\n        /* \"#utility.yul\":645:678   */\n      tag_39\n      jump\t// in\n    tag_60:\n        /* \"#utility.yul\":545:684   */\n      swap3\n      swap2\n      pop\n      pop\n      jump\t// out\n        /* \"#utility.yul\":690:1164   */\n    tag_9:\n        /* \"#utility.yul\":758:764   */\n      0x00\n        /* \"#utility.yul\":766:772   */\n      0x00\n        /* \"#utility.yul\":815:817   */\n      0x40\n        /* \"#utility.yul\":803:812   */\n      dup4\n        /* \"#utility.yul\":794:801   */\n      dup6\n        /* \"#utility.yul\":790:813   */\n      sub\n        /* \"#utility.yul\":786:818   */\n      slt\n        /* \"#utility.yul\":783:902   */\n      iszero\n      tag_62\n      jumpi\n        /* \"#utility.yul\":821:900   */\n      tag_63\n      tag_36\n      jump\t// in\n    tag_63:\n        /* \"#utility.yul\":783:902   */\n    tag_62:\n        /* \"#utility.yul\":941:942   */\n      0x00\n        /* \"#utility.yul\":966:1019   */\n      tag_64\n        /* \"#utility.yul\":1011:1018   */\n      dup6\n        /* \"#utility.yul\":1002:1008   */\n      dup3\n        /* \"#utility.yul\":991:1000   */\n      dup7\n        /* \"#utility.yul\":987:1009   */\n      add\n        /* \"#utility.yul\":966:1019   */\n      tag_40\n      jump\t// in\n    tag_64:\n        /* \"#utility.yul\":956:1019   */\n      swap3\n      pop\n        /* \"#utility.yul\":912:1029   */\n      pop\n        /* \"#utility.yul\":1068:1070   */\n      0x20\n        /* \"#utility.yul\":1094:1147   */\n      tag_65\n        /* \"#utility.yul\":1139:1146   */\n      dup6\n        /* \"#utility.yul\":1130:1136   */\n      dup3\n        /* \"#utility.yul\":1119:1128   */\n      dup7\n        /* \"#utility.yul\":1115:1137   */\n      add\n        /* \"#utility.yul\":1094:1147   */\n      tag_40\n      jump\t// in\n    tag_65:\n        /* \"#utility.yul\":1084:1147   */\n      swap2\n      pop\n        /* \"#utility.yul\":1039:1157   */\n      pop\n        /* \"#utility.yul\":690:1164   */\n      swap3\n      pop\n      swap3\n      swap1\n      pop\n      jump\t// out\n        /* \"#utility.yul\":1170:1499   */\n    tag_13:\n        /* \"#utility.yul\":1229:1235   */\n      0x00\n        /* \"#utility.yul\":1278:1280   */\n      0x20\n        /* \"#utility.yul\":1266:1275   */\n      dup3\n        /* \"#utility.yul\":1257:1264   */\n      dup5\n        /* \"#utility.yul\":1253:1276   */\n      sub\n        /* \"#utility.yul\":1249:1281   */\n      slt\n        /* \"#utility.yul\":1246:1365   */\n      iszero\n      tag_67\n      jumpi\n        /* \"#utility.yul\":1284:1363   */\n      tag_68\n      tag_36\n      jump\t// in\n    tag_68:\n        /* \"#utility.yul\":1246:1365   */\n    tag_67:\n        /* \"#utility.yul\":1404:1405   */\n      0x00\n        /* \"#utility.yul\":1429:1482   */\n      tag_69\n        /* \"#utility.yul\":1474:1481   */\n      dup5\n        /* \"#utility.yul\":1465:1471   */\n      dup3\n        /* \"#utility.yul\":1454:1463   */\n      dup6\n        /* \"#utility.yul\":1450:1472   */\n      add\n        /* \"#utility.yul\":1429:1482   */\n      tag_40\n      jump\t// in\n    tag_69:\n        /* \"#utility.yul\":1419:1482   */\n      swap2\n      pop\n        /* \"#utility.yul\":1375:1492   */\n      pop\n        /* \"#utility.yul\":1170:1499   */\n      swap3\n      swap2\n      pop\n      pop\n      jump\t// out\n        /* \"#utility.yul\":1505:1631   */\n    tag_41:\n        /* \"#utility.yul\":1542:1549   */\n      0x00\n        /* \"#utility.yul\":1582:1624   */\n      0xffffffffffffffffffffffffffffffffffffffff\n        /* \"#utility.yul\":1575:1580   */\n      dup3\n        /* \"#utility.yul\":1571:1625   */\n      and\n        /* \"#utility.yul\":1560:1625   */\n      swap1\n      pop\n        /* \"#utility.yul\":1505:1631   */\n      swap2\n      swap1\n      pop\n      jump\t// out\n        /* \"#utility.yul\":1637:1733   */\n    tag_42:\n        /* \"#utility.yul\":1674:1681   */\n      0x00\n        /* \"#utility.yul\":1703:1727   */\n      tag_72\n        /* \"#utility.yul\":1721:1726   */\n      dup3\n        /* \"#utility.yul\":1703:1727   */\n      tag_41\n      jump\t// in\n    tag_72:\n        /* \"#utility.yul\":1692:1727   */\n      swap1\n      pop\n        /* \"#utility.yul\":1637:1733   */\n      swap2\n      swap1\n      pop\n      jump\t// out\n        /* \"#utility.yul\":1739:1857   */\n    tag_43:\n        /* \"#utility.yul\":1826:1850   */\n      tag_74\n        /* \"#utility.yul\":1844:1849   */\n      dup2\n        /* \"#utility.yul\":1826:1850   */\n      tag_42\n      jump\t// in\n    tag_74:\n        /* \"#utility.yul\":1821:1824   */\n      dup3\n        /* \"#utility.yul\":1814:1851   */\n      mstore\n        /* \"#utility.yul\":1739:1857   */\n      pop\n      pop\n      jump\t// out\n        /* \"#utility.yul\":1863:2085   */\n    tag_16:\n        /* \"#utility.yul\":1956:1960   */\n      0x00\n        /* \"#utility.yul\":1994:1996   */\n      0x20\n        /* \"#utility.yul\":1983:1992   */\n      dup3\n        /* \"#utility.yul\":1979:1997   */\n      add\n        /* \"#utility.yul\":1971:1997   */\n      swap1\n      pop\n        /* \"#utility.yul\":2007:2078   */\n      tag_76\n        /* \"#utility.yul\":2075:2076   */\n      0x00\n        /* \"#utility.yul\":2064:2073   */\n      dup4\n        /* \"#utility.yul\":2060:2077   */\n      add\n        /* \"#utility.yul\":2051:2057   */\n      dup5\n        /* \"#utility.yul\":2007:2078   */\n      tag_43\n      jump\t// in\n    tag_76:\n        /* \"#utility.yul\":1863:2085   */\n      swap3\n      swap2\n      pop\n      pop\n      jump\t// out\n        /* \"#utility.yul\":2091:2209   */\n    tag_44:\n        /* \"#utility.yul\":2178:2202   */\n      tag_78\n        /* \"#utility.yul\":2196:2201   */\n      dup2\n        /* \"#utility.yul\":2178:2202   */\n      tag_38\n      jump\t// in\n    tag_78:\n        /* \"#utility.yul\":2173:2176   */\n      dup3\n        /* \"#utility.yul\":2166:2203   */\n      mstore\n        /* \"#utility.yul\":2091:2209   */\n      pop\n      pop\n      jump\t// out\n        /* \"#utility.yul\":2215:2437   */\n    tag_24:\n        /* \"#utility.yul\":2308:2312   */\n      0x00\n        /* \"#utility.yul\":2346:2348   */\n      0x20\n        /* \"#utility.yul\":2335:2344   */\n      dup3\n        /* \"#utility.yul\":2331:2349   */\n      add\n        /* \"#utility.yul\":2323:2349   */\n      swap1\n      pop\n        /* \"#utility.yul\":2359:2430   */\n      tag_80\n        /* \"#utility.yul\":2427:2428   */\n      0x00\n        /* \"#utility.yul\":2416:2425   */\n      dup4\n        /* \"#utility.yul\":2412:2429   */\n      add\n        /* \"#utility.yul\":2403:2409   */\n      dup5\n        /* \"#utility.yul\":2359:2430   */\n      tag_44\n      jump\t// in\n    tag_80:\n        /* \"#utility.yul\":2215:2437   */\n      swap3\n      swap2\n      pop\n      pop\n      jump\t// out\n        /* \"#utility.yul\":2443:2612   */\n    tag_45:\n        /* \"#utility.yul\":2527:2538   */\n      0x00\n        /* \"#utility.yul\":2561:2567   */\n      dup3\n        /* \"#utility.yul\":2556:2559   */\n      dup3\n        /* \"#utility.yul\":2549:2568   */\n      mstore\n        /* \"#utility.yul\":2601:2605   */\n      0x20\n        /* \"#utility.yul\":2596:2599   */\n      dup3\n        /* \"#utility.yul\":2592:2606   */\n      add\n        /* \"#utility.yul\":2577:2606   */\n      swap1\n      pop\n        /* \"#utility.yul\":2443:2612   */\n      swap3\n      swap2\n      pop\n      pop\n      jump\t// out\n        /* \"#utility.yul\":2618:2787   */\n    tag_46:\n        /* \"#utility.yul\":2758:2779   */\n      0x42756b616e2073747564656e7420416e64612100000000000000000000000000\n        /* \"#utility.yul\":2754:2755   */\n      0x00\n        /* \"#utility.yul\":2746:2752   */\n      dup3\n        /* \"#utility.yul\":2742:2756   */\n      add\n        /* \"#utility.yul\":2735:2780   */\n      mstore\n        /* \"#utility.yul\":2618:2787   */\n      pop\n      jump\t// out\n        /* \"#utility.yul\":2793:3159   */\n    tag_47:\n        /* \"#utility.yul\":2935:2938   */\n      0x00\n        /* \"#utility.yul\":2956:3023   */\n      tag_84\n        /* \"#utility.yul\":3020:3022   */\n      0x13\n        /* \"#utility.yul\":3015:3018   */\n      dup4\n        /* \"#utility.yul\":2956:3023   */\n      tag_45\n      jump\t// in\n    tag_84:\n        /* \"#utility.yul\":2949:3023   */\n      swap2\n      pop\n        /* \"#utility.yul\":3032:3125   */\n      tag_85\n        /* \"#utility.yul\":3121:3124   */\n      dup3\n        /* \"#utility.yul\":3032:3125   */\n      tag_46\n      jump\t// in\n    tag_85:\n        /* \"#utility.yul\":3150:3152   */\n      0x20\n        /* \"#utility.yul\":3145:3148   */\n      dup3\n        /* \"#utility.yul\":3141:3153   */\n      add\n        /* \"#utility.yul\":3134:3153   */\n      swap1\n      pop\n        /* \"#utility.yul\":2793:3159   */\n      swap2\n      swap1\n      pop\n      jump\t// out\n        /* \"#utility.yul\":3165:3584   */\n    tag_28:\n        /* \"#utility.yul\":3331:3335   */\n      0x00\n        /* \"#utility.yul\":3369:3371   */\n      0x20\n        /* \"#utility.yul\":3358:3367   */\n      dup3\n        /* \"#utility.yul\":3354:3372   */\n      add\n        /* \"#utility.yul\":3346:3372   */\n      swap1\n      pop\n        /* \"#utility.yul\":3418:3427   */\n      dup2\n        /* \"#utility.yul\":3412:3416   */\n      dup2\n        /* \"#utility.yul\":3408:3428   */\n      sub\n        /* \"#utility.yul\":3404:3405   */\n      0x00\n        /* \"#utility.yul\":3393:3402   */\n      dup4\n        /* \"#utility.yul\":3389:3406   */\n      add\n        /* \"#utility.yul\":3382:3429   */\n      mstore\n        /* \"#utility.yul\":3446:3577   */\n      tag_87\n        /* \"#utility.yul\":3572:3576   */\n      dup2\n        /* \"#utility.yul\":3446:3577   */\n      tag_47\n      jump\t// in\n    tag_87:\n        /* \"#utility.yul\":3438:3577   */\n      swap1\n      pop\n        /* \"#utility.yul\":3165:3584   */\n      swap2\n      swap1\n      pop\n      jump\t// out\n        /* \"#utility.yul\":3590:3765   */\n    tag_48:\n        /* \"#utility.yul\":3730:3757   */\n      0x416d6f756e74206861727573206c656269682064617269203000000000000000\n        /* \"#utility.yul\":3726:3727   */\n      0x00\n        /* \"#utility.yul\":3718:3724   */\n      dup3\n        /* \"#utility.yul\":3714:3728   */\n      add\n        /* \"#utility.yul\":3707:3758   */\n      mstore\n        /* \"#utility.yul\":3590:3765   */\n      pop\n      jump\t// out\n        /* \"#utility.yul\":3771:4137   */\n    tag_49:\n        /* \"#utility.yul\":3913:3916   */\n      0x00\n        /* \"#utility.yul\":3934:4001   */\n      tag_90\n        /* \"#utility.yul\":3998:4000   */\n      0x19\n        /* \"#utility.yul\":3993:3996   */\n      dup4\n        /* \"#utility.yul\":3934:4001   */\n      tag_45\n      jump\t// in\n    tag_90:\n        /* \"#utility.yul\":3927:4001   */\n      swap2\n      pop\n        /* \"#utility.yul\":4010:4103   */\n      tag_91\n        /* \"#utility.yul\":4099:4102   */\n      dup3\n        /* \"#utility.yul\":4010:4103   */\n      tag_48\n      jump\t// in\n    tag_91:\n        /* \"#utility.yul\":4128:4130   */\n      0x20\n        /* \"#utility.yul\":4123:4126   */\n      dup3\n        /* \"#utility.yul\":4119:4131   */\n      add\n        /* \"#utility.yul\":4112:4131   */\n      swap1\n      pop\n        /* \"#utility.yul\":3771:4137   */\n      swap2\n      swap1\n      pop\n      jump\t// out\n        /* \"#utility.yul\":4143:4562   */\n    tag_31:\n        /* \"#utility.yul\":4309:4313   */\n      0x00\n        /* \"#utility.yul\":4347:4349   */\n      0x20\n        /* \"#utility.yul\":4336:4345   */\n      dup3\n        /* \"#utility.yul\":4332:4350   */\n      add\n        /* \"#utility.yul\":4324:4350   */\n      swap1\n      pop\n        /* \"#utility.yul\":4396:4405   */\n      dup2\n        /* \"#utility.yul\":4390:4394   */\n      dup2\n        /* \"#utility.yul\":4386:4406   */\n      sub\n        /* \"#utility.yul\":4382:4383   */\n      0x00\n        /* \"#utility.yul\":4371:4380   */\n      dup4\n        /* \"#utility.yul\":4367:4384   */\n      add\n        /* \"#utility.yul\":4360:4407   */\n      mstore\n        /* \"#utility.yul\":4424:4555   */\n      tag_93\n        /* \"#utility.yul\":4550:4554   */\n      dup2\n        /* \"#utility.yul\":4424:4555   */\n      tag_49\n      jump\t// in\n    tag_93:\n        /* \"#utility.yul\":4416:4555   */\n      swap1\n      pop\n        /* \"#utility.yul\":4143:4562   */\n      swap2\n      swap1\n      pop\n      jump\t// out\n        /* \"#utility.yul\":4568:4748   */\n    tag_50:\n        /* \"#utility.yul\":4616:4693   */\n      0x4e487b7100000000000000000000000000000000000000000000000000000000\n        /* \"#utility.yul\":4613:4614   */\n      0x00\n        /* \"#utility.yul\":4606:4694   */\n      mstore\n        /* \"#utility.yul\":4713:4717   */\n      0x11\n        /* \"#utility.yul\":4710:4711   */\n      0x04\n        /* \"#utility.yul\":4703:4718   */\n      mstore\n        /* \"#utility.yul\":4737:4741   */\n      0x24\n        /* \"#utility.yul\":4734:4735   */\n      0x00\n        /* \"#utility.yul\":4727:4742   */\n      revert\n        /* \"#utility.yul\":4754:4945   */\n    tag_33:\n        /* \"#utility.yul\":4794:4797   */\n      0x00\n        /* \"#utility.yul\":4813:4833   */\n      tag_96\n        /* \"#utility.yul\":4831:4832   */\n      dup3\n        /* \"#utility.yul\":4813:4833   */\n      tag_38\n      jump\t// in\n    tag_96:\n        /* \"#utility.yul\":4808:4833   */\n      swap2\n      pop\n        /* \"#utility.yul\":4847:4867   */\n      tag_97\n        /* \"#utility.yul\":4865:4866   */\n      dup4\n        /* \"#utility.yul\":4847:4867   */\n      tag_38\n      jump\t// in\n    tag_97:\n        /* \"#utility.yul\":4842:4867   */\n      swap3\n      pop\n        /* \"#utility.yul\":4890:4891   */\n      dup3\n        /* \"#utility.yul\":4887:4888   */\n      dup3\n        /* \"#utility.yul\":4883:4892   */\n      add\n        /* \"#utility.yul\":4876:4892   */\n      swap1\n      pop\n        /* \"#utility.yul\":4911:4914   */\n      dup1\n        /* \"#utility.yul\":4908:4909   */\n      dup3\n        /* \"#utility.yul\":4905:4915   */\n      gt\n        /* \"#utility.yul\":4902:4938   */\n      iszero\n      tag_98\n      jumpi\n        /* \"#utility.yul\":4918:4936   */\n      tag_99\n      tag_50\n      jump\t// in\n    tag_99:\n        /* \"#utility.yul\":4902:4938   */\n    tag_98:\n        /* \"#utility.yul\":4754:4945   */\n      swap3\n      swap2\n      pop\n      pop\n      jump\t// out\n\n    auxdata: 0xa2646970667358221220b5d3c395267510e5eb44438de9785c32b0e3f155c71cb1207a883cdd9692400d64736f6c634300081f0033\n}\n",
				"bytecode": {
					"linkReferences": {},
					"object": "6080604052348015600e575f5ffd5b506105318061001c5f395ff3fe608060405234801561000f575f5ffd5b506004361061004a575f3560e01c80632e566ebd1461004e5780633dcc1c751461006a5780635ce91edb1461009a5780639c823b40146100b6575b5f5ffd5b610068600480360381019061006391906102d2565b6100e6565b005b610084600480360381019061007f9190610310565b6101f0565b604051610091919061037a565b60405180910390f35b6100b460048036038101906100af9190610310565b61021f565b005b6100d060048036038101906100cb9190610310565b610286565b6040516100dd91906103a2565b60405180910390f35b3373ffffffffffffffffffffffffffffffffffffffff165f5f8481526020019081526020015f205f9054906101000a900473ffffffffffffffffffffffffffffffffffffffff1673ffffffffffffffffffffffffffffffffffffffff1614610183576040517f08c379a000000000000000000000000000000000000000000000000000000000815260040161017a90610415565b60405180910390fd5b5f81116101c5576040517f08c379a00000000000000000000000000000000000000000000000000000000081526004016101bc9061047d565b60405180910390fd5b8060015f8481526020019081526020015f205f8282546101e591906104c8565b925050819055505050565b5f602052805f5260405f205f915054906101000a900473ffffffffffffffffffffffffffffffffffffffff1681565b335f5f8381526020019081526020015f205f6101000a81548173ffffffffffffffffffffffffffffffffffffffff021916908373ffffffffffffffffffffffffffffffffffffffff1602179055505f60015f8381526020019081526020015f208190555050565b6001602052805f5260405f205f915090505481565b5f5ffd5b5f819050919050565b6102b18161029f565b81146102bb575f5ffd5b50565b5f813590506102cc816102a8565b92915050565b5f5f604083850312156102e8576102e761029b565b5b5f6102f5858286016102be565b9250506020610306858286016102be565b9150509250929050565b5f602082840312156103255761032461029b565b5b5f610332848285016102be565b91505092915050565b5f73ffffffffffffffffffffffffffffffffffffffff82169050919050565b5f6103648261033b565b9050919050565b6103748161035a565b82525050565b5f60208201905061038d5f83018461036b565b92915050565b61039c8161029f565b82525050565b5f6020820190506103b55f830184610393565b92915050565b5f82825260208201905092915050565b7f42756b616e2073747564656e7420416e646121000000000000000000000000005f82015250565b5f6103ff6013836103bb565b915061040a826103cb565b602082019050919050565b5f6020820190508181035f83015261042c816103f3565b9050919050565b7f416d6f756e74206861727573206c6562696820646172692030000000000000005f82015250565b5f6104676019836103bb565b915061047282610433565b602082019050919050565b5f6020820190508181035f8301526104948161045b565b9050919050565b7f4e487b71000000000000000000000000000000000000000000000000000000005f52601160045260245ffd5b5f6104d28261029f565b91506104dd8361029f565b92508282019050808211156104f5576104f461049b565b5b9291505056fea2646970667358221220b5d3c395267510e5eb44438de9785c32b0e3f155c71cb1207a883cdd9692400d64736f6c634300081f0033",
					"opcodes": "PUSH1 0x80 PUSH1 0x40 MSTORE CALLVALUE DUP1 ISZERO PUSH1 0xE JUMPI PUSH0 PUSH0 REVERT JUMPDEST POP PUSH2 0x531 DUP1 PUSH2 0x1C PUSH0 CODECOPY PUSH0 RETURN INVALID PUSH1 0x80 PUSH1 0x40 MSTORE CALLVALUE DUP1 ISZERO PUSH2 0xF JUMPI PUSH0 PUSH0 REVERT JUMPDEST POP PUSH1 0x4 CALLDATASIZE LT PUSH2 0x4A JUMPI PUSH0 CALLDATALOAD PUSH1 0xE0 SHR DUP1 PUSH4 0x2E566EBD EQ PUSH2 0x4E JUMPI DUP1 PUSH4 0x3DCC1C75 EQ PUSH2 0x6A JUMPI DUP1 PUSH4 0x5CE91EDB EQ PUSH2 0x9A JUMPI DUP1 PUSH4 0x9C823B40 EQ PUSH2 0xB6 JUMPI JUMPDEST PUSH0 PUSH0 REVERT JUMPDEST PUSH2 0x68 PUSH1 0x4 DUP1 CALLDATASIZE SUB DUP2 ADD SWAP1 PUSH2 0x63 SWAP2 SWAP1 PUSH2 0x2D2 JUMP JUMPDEST PUSH2 0xE6 JUMP JUMPDEST STOP JUMPDEST PUSH2 0x84 PUSH1 0x4 DUP1 CALLDATASIZE SUB DUP2 ADD SWAP1 PUSH2 0x7F SWAP2 SWAP1 PUSH2 0x310 JUMP JUMPDEST PUSH2 0x1F0 JUMP JUMPDEST PUSH1 0x40 MLOAD PUSH2 0x91 SWAP2 SWAP1 PUSH2 0x37A JUMP JUMPDEST PUSH1 0x40 MLOAD DUP1 SWAP2 SUB SWAP1 RETURN JUMPDEST PUSH2 0xB4 PUSH1 0x4 DUP1 CALLDATASIZE SUB DUP2 ADD SWAP1 PUSH2 0xAF SWAP2 SWAP1 PUSH2 0x310 JUMP JUMPDEST PUSH2 0x21F JUMP JUMPDEST STOP JUMPDEST PUSH2 0xD0 PUSH1 0x4 DUP1 CALLDATASIZE SUB DUP2 ADD SWAP1 PUSH2 0xCB SWAP2 SWAP1 PUSH2 0x310 JUMP JUMPDEST PUSH2 0x286 JUMP JUMPDEST PUSH1 0x40 MLOAD PUSH2 0xDD SWAP2 SWAP1 PUSH2 0x3A2 JUMP JUMPDEST PUSH1 0x40 MLOAD DUP1 SWAP2 SUB SWAP1 RETURN JUMPDEST CALLER PUSH20 0xFFFFFFFFFFFFFFFFFFFFFFFFFFFFFFFFFFFFFFFF AND PUSH0 PUSH0 DUP5 DUP2 MSTORE PUSH1 0x20 ADD SWAP1 DUP2 MSTORE PUSH1 0x20 ADD PUSH0 KECCAK256 PUSH0 SWAP1 SLOAD SWAP1 PUSH2 0x100 EXP SWAP1 DIV PUSH20 0xFFFFFFFFFFFFFFFFFFFFFFFFFFFFFFFFFFFFFFFF AND PUSH20 0xFFFFFFFFFFFFFFFFFFFFFFFFFFFFFFFFFFFFFFFF AND EQ PUSH2 0x183 JUMPI PUSH1 0x40 MLOAD PUSH32 0x8C379A000000000000000000000000000000000000000000000000000000000 DUP2 MSTORE PUSH1 0x4 ADD PUSH2 0x17A SWAP1 PUSH2 0x415 JUMP JUMPDEST PUSH1 0x40 MLOAD DUP1 SWAP2 SUB SWAP1 REVERT JUMPDEST PUSH0 DUP2 GT PUSH2 0x1C5 JUMPI PUSH1 0x40 MLOAD PUSH32 0x8C379A000000000000000000000000000000000000000000000000000000000 DUP2 MSTORE PUSH1 0x4 ADD PUSH2 0x1BC SWAP1 PUSH2 0x47D JUMP JUMPDEST PUSH1 0x40 MLOAD DUP1 SWAP2 SUB SWAP1 REVERT JUMPDEST DUP1 PUSH1 0x1 PUSH0 DUP5 DUP2 MSTORE PUSH1 0x20 ADD SWAP1 DUP2 MSTORE PUSH1 0x20 ADD PUSH0 KECCAK256 PUSH0 DUP3 DUP3 SLOAD PUSH2 0x1E5 SWAP2 SWAP1 PUSH2 0x4C8 JUMP JUMPDEST SWAP3 POP POP DUP2 SWAP1 SSTORE POP POP POP JUMP JUMPDEST PUSH0 PUSH1 0x20 MSTORE DUP1 PUSH0 MSTORE PUSH1 0x40 PUSH0 KECCAK256 PUSH0 SWAP2 POP SLOAD SWAP1 PUSH2 0x100 EXP SWAP1 DIV PUSH20 0xFFFFFFFFFFFFFFFFFFFFFFFFFFFFFFFFFFFFFFFF AND DUP2 JUMP JUMPDEST CALLER PUSH0 PUSH0 DUP4 DUP2 MSTORE PUSH1 0x20 ADD SWAP1 DUP2 MSTORE PUSH1 0x20 ADD PUSH0 KECCAK256 PUSH0 PUSH2 0x100 EXP DUP2 SLOAD DUP2 PUSH20 0xFFFFFFFFFFFFFFFFFFFFFFFFFFFFFFFFFFFFFFFF MUL NOT AND SWAP1 DUP4 PUSH20 0xFFFFFFFFFFFFFFFFFFFFFFFFFFFFFFFFFFFFFFFF AND MUL OR SWAP1 SSTORE POP PUSH0 PUSH1 0x1 PUSH0 DUP4 DUP2 MSTORE PUSH1 0x20 ADD SWAP1 DUP2 MSTORE PUSH1 0x20 ADD PUSH0 KECCAK256 DUP2 SWAP1 SSTORE POP POP JUMP JUMPDEST PUSH1 0x1 PUSH1 0x20 MSTORE DUP1 PUSH0 MSTORE PUSH1 0x40 PUSH0 KECCAK256 PUSH0 SWAP2 POP SWAP1 POP SLOAD DUP2 JUMP JUMPDEST PUSH0 PUSH0 REVERT JUMPDEST PUSH0 DUP2 SWAP1 POP SWAP2 SWAP1 POP JUMP JUMPDEST PUSH2 0x2B1 DUP2 PUSH2 0x29F JUMP JUMPDEST DUP2 EQ PUSH2 0x2BB JUMPI PUSH0 PUSH0 REVERT JUMPDEST POP JUMP JUMPDEST PUSH0 DUP2 CALLDATALOAD SWAP1 POP PUSH2 0x2CC DUP2 PUSH2 0x2A8 JUMP JUMPDEST SWAP3 SWAP2 POP POP JUMP JUMPDEST PUSH0 PUSH0 PUSH1 0x40 DUP4 DUP6 SUB SLT ISZERO PUSH2 0x2E8 JUMPI PUSH2 0x2E7 PUSH2 0x29B JUMP JUMPDEST JUMPDEST PUSH0 PUSH2 0x2F5 DUP6 DUP3 DUP7 ADD PUSH2 0x2BE JUMP JUMPDEST SWAP3 POP POP PUSH1 0x20 PUSH2 0x306 DUP6 DUP3 DUP7 ADD PUSH2 0x2BE JUMP JUMPDEST SWAP2 POP POP SWAP3 POP SWAP3 SWAP1 POP JUMP JUMPDEST PUSH0 PUSH1 0x20 DUP3 DUP5 SUB SLT ISZERO PUSH2 0x325 JUMPI PUSH2 0x324 PUSH2 0x29B JUMP JUMPDEST JUMPDEST PUSH0 PUSH2 0x332 DUP5 DUP3 DUP6 ADD PUSH2 0x2BE JUMP JUMPDEST SWAP2 POP POP SWAP3 SWAP2 POP POP JUMP JUMPDEST PUSH0 PUSH20 0xFFFFFFFFFFFFFFFFFFFFFFFFFFFFFFFFFFFFFFFF DUP3 AND SWAP1 POP SWAP2 SWAP1 POP JUMP JUMPDEST PUSH0 PUSH2 0x364 DUP3 PUSH2 0x33B JUMP JUMPDEST SWAP1 POP SWAP2 SWAP1 POP JUMP JUMPDEST PUSH2 0x374 DUP2 PUSH2 0x35A JUMP JUMPDEST DUP3 MSTORE POP POP JUMP JUMPDEST PUSH0 PUSH1 0x20 DUP3 ADD SWAP1 POP PUSH2 0x38D PUSH0 DUP4 ADD DUP5 PUSH2 0x36B JUMP JUMPDEST SWAP3 SWAP2 POP POP JUMP JUMPDEST PUSH2 0x39C DUP2 PUSH2 0x29F JUMP JUMPDEST DUP3 MSTORE POP POP JUMP JUMPDEST PUSH0 PUSH1 0x20 DUP3 ADD SWAP1 POP PUSH2 0x3B5 PUSH0 DUP4 ADD DUP5 PUSH2 0x393 JUMP JUMPDEST SWAP3 SWAP2 POP POP JUMP JUMPDEST PUSH0 DUP3 DUP3 MSTORE PUSH1 0x20 DUP3 ADD SWAP1 POP SWAP3 SWAP2 POP POP JUMP JUMPDEST PUSH32 0x42756B616E2073747564656E7420416E64612100000000000000000000000000 PUSH0 DUP3 ADD MSTORE POP JUMP JUMPDEST PUSH0 PUSH2 0x3FF PUSH1 0x13 DUP4 PUSH2 0x3BB JUMP JUMPDEST SWAP2 POP PUSH2 0x40A DUP3 PUSH2 0x3CB JUMP JUMPDEST PUSH1 0x20 DUP3 ADD SWAP1 POP SWAP2 SWAP1 POP JUMP JUMPDEST PUSH0 PUSH1 0x20 DUP3 ADD SWAP1 POP DUP2 DUP2 SUB PUSH0 DUP4 ADD MSTORE PUSH2 0x42C DUP2 PUSH2 0x3F3 JUMP JUMPDEST SWAP1 POP SWAP2 SWAP1 POP JUMP JUMPDEST PUSH32 0x416D6F756E74206861727573206C656269682064617269203000000000000000 PUSH0 DUP3 ADD MSTORE POP JUMP JUMPDEST PUSH0 PUSH2 0x467 PUSH1 0x19 DUP4 PUSH2 0x3BB JUMP JUMPDEST SWAP2 POP PUSH2 0x472 DUP3 PUSH2 0x433 JUMP JUMPDEST PUSH1 0x20 DUP3 ADD SWAP1 POP SWAP2 SWAP1 POP JUMP JUMPDEST PUSH0 PUSH1 0x20 DUP3 ADD SWAP1 POP DUP2 DUP2 SUB PUSH0 DUP4 ADD MSTORE PUSH2 0x494 DUP2 PUSH2 0x45B JUMP JUMPDEST SWAP1 POP SWAP2 SWAP1 POP JUMP JUMPDEST PUSH32 0x4E487B7100000000000000000000000000000000000000000000000000000000 PUSH0 MSTORE PUSH1 0x11 PUSH1 0x4 MSTORE PUSH1 0x24 PUSH0 REVERT JUMPDEST PUSH0 PUSH2 0x4D2 DUP3 PUSH2 0x29F JUMP JUMPDEST SWAP2 POP PUSH2 0x4DD DUP4 PUSH2 0x29F JUMP JUMPDEST SWAP3 POP DUP3 DUP3 ADD SWAP1 POP DUP1 DUP3 GT ISZERO PUSH2 0x4F5 JUMPI PUSH2 0x4F4 PUSH2 0x49B JUMP JUMPDEST JUMPDEST SWAP3 SWAP2 POP POP JUMP INVALID LOG2 PUSH5 0x6970667358 0x22 SLT KECCAK256 0xB5 0xD3 0xC3 SWAP6 0x26 PUSH22 0x10E5EB44438DE9785C32B0E3F155C71CB1207A883CDD SWAP7 SWAP3 BLOCKHASH 0xD PUSH5 0x736F6C6343 STOP ADDMOD 0x1F STOP CALLER "
				},
				"gasEstimates": {
					"creation": {
						"codeDepositCost": "265800",
						"executionCost": "304",
						"totalCost": "266104"
					},
					"external": {
						"addCredits(uint256,uint256)": "infinite",
						"registerStudent(uint256)": "29852",
						"studentCredits(uint256)": "infinite",
						"studentOwner(uint256)": "2826"
					}
				},
				"methodIdentifiers": {
					"addCredits(uint256,uint256)": "2e566ebd",
					"registerStudent(uint256)": "5ce91edb",
					"studentCredits(uint256)": "9c823b40",
					"studentOwner(uint256)": "3dcc1c75"
				}
			},
			"storageLayout": {
				"storage": [
					{
						"astId": 5,
						"contract": "contracts/LearnRequire.sol:LearnRequire",
						"label": "studentOwner",
						"offset": 0,
						"slot": "0",
						"type": "t_mapping(t_uint256,t_address)"
					},
					{
						"astId": 9,
						"contract": "contracts/LearnRequire.sol:LearnRequire",
						"label": "studentCredits",
						"offset": 0,
						"slot": "1",
						"type": "t_mapping(t_uint256,t_uint256)"
					}
				],
				"types": {
					"t_address": {
						"encoding": "inplace",
						"label": "address",
						"numberOfBytes": "20"
					},
					"t_mapping(t_uint256,t_address)": {
						"encoding": "mapping",
						"key": "t_uint256",
						"label": "mapping(uint256 => address)",
						"numberOfBytes": "32",
						"value": "t_address"
					},
					"t_mapping(t_uint256,t_uint256)": {
						"encoding": "mapping",
						"key": "t_uint256",
						"label": "mapping(uint256 => uint256)",
						"numberOfBytes": "32",
						"value": "t_uint256"
					},
					"t_uint256": {
						"encoding": "inplace",
						"label": "uint256",
						"numberOfBytes": "32"
					}
				}
			},
			"userdoc": {
				"kind": "user",
				"methods": {},
				"version": 1
			}
		}
	}
}