{
	"contracts/LearnGlobalVariables.sol": {
		"LearnGlobalVariables": {
			"abi": [
				{
					"inputs": [],
					"stateMutability": "nonpayable",
					"type": "constructor"
				},
				{
					"anonymous": false,
					"inputs": [
						{
							"indexed": true,
							"internalType": "address",
							"name": "sender",
							"type": "address"
						},
						{
							"indexed": false,
							"internalType": "uint256",
							"name": "amount",
							"type": "uint256"
						},
						{
							"indexed": false,
							"internalType": "uint256",
							"name": "timestamp",
							"type": "uint256"
						}
					],
					"name": "Received",
					"type": "event"
				},
				{
					"inputs": [],
					"name": "deployBlock",
					"outputs": [
						{
							"internalType": "uint256",
							"name": "",
							"type": "uint256"
						}
					],
					"stateMutability": "view",
					"type": "function"
				},
				{
					"inputs": [],
					"name": "deployTime",
					"outputs": [
						{
							"internalType": "uint256",
							"name": "",
							"type": "uint256"
						}
					],
					"stateMutability": "view",
					"type": "function"
				},
				{
					"inputs": [],
					"name": "deposit",
					"outputs": [],
					"stateMutability": "payable",
					"type": "function"
				},
				{
					"inputs": [],
					"name": "getBlockCoinbase",
					"outputs": [
						{
							"internalType": "address",
							"name": "",
							"type": "address"
						}
					],
					"stateMutability": "view",
					"type": "function"
				},
				{
					"inputs": [],
					"name": "getBlockGasLimit",
					"outputs": [
						{
							"internalType": "uint256",
							"name": "",
							"type": "uint256"
						}
					],
					"stateMutability": "view",
					"type": "function"
				},
				{
					"inputs": [],
					"name": "getBlocksSinceDeploy",
					"outputs": [
						{
							"internalType": "uint256",
							"name": "",
							"type": "uint256"
						}
					],
					"stateMutability": "view",
					"type": "function"
				},
				{
					"inputs": [],
					"name": "getChainId",
					"outputs": [
						{
							"internalType": "uint256",
							"name": "",
							"type": "uint256"
						}
					],
					"stateMutability": "view",
					"type": "function"
				},
				{
					"inputs": [],
					"name": "getContractAddress",
					"outputs": [
						{
							"internalType": "address",
							"name": "",
							"type": "address"
						}
					],
					"stateMutability": "view",
					"type": "function"
				},
				{
					"inputs": [],
					"name": "getContractAge",
					"outputs": [
						{
							"internalType": "uint256",
							"name": "",
							"type": "uint256"
						}
					],
					"stateMutability": "view",
					"type": "function"
				},
				{
					"inputs": [],
					"name": "getContractBalance",
					"outputs": [
						{
							"internalType": "uint256",
							"name": "",
							"type": "uint256"
						}
					],
					"stateMutability": "view",
					"type": "function"
				},
				{
					"inputs": [],
					"name": "getCurrentBlockNumber",
					"outputs": [
						{
							"internalType": "uint256",
							"name": "",
							"type": "uint256"
						}
					],
					"stateMutability": "view",
					"type": "function"
				},
				{
					"inputs": [],
					"name": "getCurrentTimestamp",
					"outputs": [
						{
							"internalType": "uint256",
							"name": "",
							"type": "uint256"
						}
					],
					"stateMutability": "view",
					"type": "function"
				},
				{
					"inputs": [],
					"name": "getMsgData",
					"outputs": [
						{
							"internalType": "bytes",
							"name": "",
							"type": "bytes"
						}
					],
					"stateMutability": "pure",
					"type": "function"
				},
				{
					"inputs": [],
					"name": "getMsgSender",
					"outputs": [
						{
							"internalType": "address",
							"name": "",
							"type": "address"
						}
					],
					"stateMutability": "view",
					"type": "function"
				},
				{
					"inputs": [],
					"name": "getMsgSig",
					"outputs": [
						{
							"internalType": "bytes4",
							"name": "",
							"type": "bytes4"
						}
					],
					"stateMutability": "pure",
					"type": "function"
				},
				{
					"inputs": [],
					"name": "getMsgValue",
					"outputs": [
						{
							"internalType": "uint256",
							"name": "",
							"type": "uint256"
						}
					],
					"stateMutability": "payable",
					"type": "function"
				},
				{
					"inputs": [],
					"name": "getPreviousBlockHash",
					"outputs": [
						{
							"internalType": "bytes32",
							"name": "",
							"type": "bytes32"
						}
					],
					"stateMutability": "view",
					"type": "function"
				},
				{
					"inputs": [],
					"name": "getTxGasPrice",
					"outputs": [
						{
							"internalType": "uint256",
							"name": "",
							"type": "uint256"
						}
					],
					"stateMutability": "view",
					"type": "function"
				},
				{
					"inputs": [],
					"name": "getTxOrigin",
					"outputs": [
						{
							"internalType": "address",
							"name": "",
							"type": "address"
						}
					],
					"stateMutability": "view",
					"type": "function"
				},
				{
					"inputs": [],
					"name": "onlyOwnerCanCall",
					"outputs": [
						{
							"internalType": "string",
							"name": "",
							"type": "string"
						}
					],
					"stateMutability": "view",
					"type": "function"
				},
				{
					"inputs": [],
					"name": "owner",
					"outputs": [
						{
							"internalType": "address",
							"name": "",
							"type": "address"
						}
					],
					"stateMutability": "view",
					"type": "function"
				},
				{
					"inputs": [],
					"name": "validateChain",
					"outputs": [
						{
							"internalType": "bool",
							"name": "",
							"type": "bool"
						}
					],
					"stateMutability": "view",
					"type": "function"
				}
			],
			"devdoc": {
				"kind": "dev",
				"methods": {},
				"version": 1
			},
			"evm": {
				"assembly": "    /* \"contracts/LearnGlobalVariables.sol\":58:4076  contract LearnGlobalVariables {... */\n  mstore(0x40, 0x80)\n    /* \"contracts/LearnGlobalVariables.sol\":2882:3089  constructor() {... */\n  callvalue\n  dup1\n  iszero\n  tag_1\n  jumpi\n  revert(0x00, 0x00)\ntag_1:\n  pop\n    /* \"contracts/LearnGlobalVariables.sol\":2914:2924  msg.sender */\n  caller\n    /* \"contracts/LearnGlobalVariables.sol\":2906:2911  owner */\n  0x00\n  0x00\n    /* \"contracts/LearnGlobalVariables.sol\":2906:2924  owner = msg.sender */\n  0x0100\n  exp\n  dup2\n  sload\n  dup2\n  0xffffffffffffffffffffffffffffffffffffffff\n  mul\n  not\n  and\n  swap1\n  dup4\n  0xffffffffffffffffffffffffffffffffffffffff\n  and\n  mul\n  or\n  swap1\n  sstore\n  pop\n    /* \"contracts/LearnGlobalVariables.sol\":2983:2998  block.timestamp */\n  timestamp\n    /* \"contracts/LearnGlobalVariables.sol\":2970:2980  deployTime */\n  0x01\n    /* \"contracts/LearnGlobalVariables.sol\":2970:2998  deployTime = block.timestamp */\n  dup2\n  swap1\n  sstore\n  pop\n    /* \"contracts/LearnGlobalVariables.sol\":3045:3057  block.number */\n  number\n    /* \"contracts/LearnGlobalVariables.sol\":3031:3042  deployBlock */\n  0x02\n    /* \"contracts/LearnGlobalVariables.sol\":3031:3057  deployBlock = block.number */\n  dup2\n  swap1\n  sstore\n  pop\n    /* \"contracts/LearnGlobalVariables.sol\":58:4076  contract LearnGlobalVariables {... */\n  dataSize(sub_0)\n  dup1\n  dataOffset(sub_0)\n  0x00\n  codecopy\n  0x00\n  return\nstop\n\nsub_0: assembly {\n        /* \"contracts/LearnGlobalVariables.sol\":58:4076  contract LearnGlobalVariables {... */\n      mstore(0x40, 0x80)\n      jumpi(tag_1, lt(calldatasize, 0x04))\n      shr(0xe0, calldataload(0x00))\n      dup1\n      0x7a40624b\n      gt\n      tag_24\n      jumpi\n      dup1\n      0xa38aa291\n      gt\n      tag_25\n      jumpi\n      dup1\n      0xa38aa291\n      eq\n      tag_18\n      jumpi\n      dup1\n      0xa3ec191a\n      eq\n      tag_19\n      jumpi\n      dup1\n      0xb8077e28\n      eq\n      tag_20\n      jumpi\n      dup1\n      0xc8e7ca2e\n      eq\n      tag_21\n      jumpi\n      dup1\n      0xd0e30db0\n      eq\n      tag_22\n      jumpi\n      dup1\n      0xfd778dd9\n      eq\n      tag_23\n      jumpi\n      jump(tag_1)\n    tag_25:\n      dup1\n      0x7a40624b\n      eq\n      tag_13\n      jumpi\n      dup1\n      0x7a6ce2e1\n      eq\n      tag_14\n      jumpi\n      dup1\n      0x8395f7a4\n      eq\n      tag_15\n      jumpi\n      dup1\n      0x8da5cb5b\n      eq\n      tag_16\n      jumpi\n      dup1\n      0xa17042cc\n      eq\n      tag_17\n      jumpi\n      jump(tag_1)\n    tag_24:\n      dup1\n      0x5a8f6d71\n      gt\n      tag_26\n      jumpi\n      dup1\n      0x5a8f6d71\n      eq\n      tag_7\n      jumpi\n      dup1\n      0x5bc749e4\n      eq\n      tag_8\n      jumpi\n      dup1\n      0x61c68e86\n      eq\n      tag_9\n      jumpi\n      dup1\n      0x6c9230db\n      eq\n      tag_10\n      jumpi\n      dup1\n      0x6f9fb98a\n      eq\n      tag_11\n      jumpi\n      dup1\n      0x6fd902e1\n      eq\n      tag_12\n      jumpi\n      jump(tag_1)\n    tag_26:\n      dup1\n      0x06994240\n      eq\n      tag_2\n      jumpi\n      dup1\n      0x2cc8377d\n      eq\n      tag_3\n      jumpi\n      dup1\n      0x2df8e949\n      eq\n      tag_4\n      jumpi\n      dup1\n      0x32a2c5d0\n      eq\n      tag_5\n      jumpi\n      dup1\n      0x3408e470\n      eq\n      tag_6\n      jumpi\n    tag_1:\n      revert(0x00, 0x00)\n        /* \"contracts/LearnGlobalVariables.sol\":3531:3643  function getBlocksSinceDeploy() public view returns (uint256) {... */\n    tag_2:\n      callvalue\n      dup1\n      iszero\n      tag_27\n      jumpi\n      revert(0x00, 0x00)\n    tag_27:\n      pop\n      tag_28\n      tag_29\n      jump\t// in\n    tag_28:\n      mload(0x40)\n      tag_30\n      swap2\n      swap1\n      tag_31\n      jump\t// in\n    tag_30:\n      mload(0x40)\n      dup1\n      swap2\n      sub\n      swap1\n      return\n        /* \"contracts/LearnGlobalVariables.sol\":840:936  function getBlockGasLimit() public view returns (uint256) {... */\n    tag_3:\n      callvalue\n      dup1\n      iszero\n      tag_32\n      jumpi\n      revert(0x00, 0x00)\n    tag_32:\n      pop\n      tag_33\n      tag_34\n      jump\t// in\n    tag_33:\n      mload(0x40)\n      tag_35\n      swap2\n      swap1\n      tag_31\n      jump\t// in\n    tag_35:\n      mload(0x40)\n      dup1\n      swap2\n      sub\n      swap1\n      return\n        /* \"contracts/LearnGlobalVariables.sol\":703:799  function getBlockCoinbase() public view returns (address) {... */\n    tag_4:\n      callvalue\n      dup1\n      iszero\n      tag_36\n      jumpi\n      revert(0x00, 0x00)\n    tag_36:\n      pop\n      tag_37\n      tag_38\n      jump\t// in\n    tag_37:\n      mload(0x40)\n      tag_39\n      swap2\n      swap1\n      tag_40\n      jump\t// in\n    tag_39:\n      mload(0x40)\n      dup1\n      swap2\n      sub\n      swap1\n      return\n        /* \"contracts/LearnGlobalVariables.sol\":2401:2498  function getContractAddress() public view returns (address) {... */\n    tag_5:\n      callvalue\n      dup1\n      iszero\n      tag_41\n      jumpi\n      revert(0x00, 0x00)\n    tag_41:\n      pop\n      tag_42\n      tag_43\n      jump\t// in\n    tag_42:\n      mload(0x40)\n      tag_44\n      swap2\n      swap1\n      tag_40\n      jump\t// in\n    tag_44:\n      mload(0x40)\n      dup1\n      swap2\n      sub\n      swap1\n      return\n        /* \"contracts/LearnGlobalVariables.sol\":566:655  function getChainId() public view returns (uint256) {... */\n    tag_6:\n      callvalue\n      dup1\n      iszero\n      tag_45\n      jumpi\n      revert(0x00, 0x00)\n    tag_45:\n      pop\n      tag_46\n      tag_47\n      jump\t// in\n    tag_46:\n      mload(0x40)\n      tag_48\n      swap2\n      swap1\n      tag_31\n      jump\t// in\n    tag_48:\n      mload(0x40)\n      dup1\n      swap2\n      sub\n      swap1\n      return\n        /* \"contracts/LearnGlobalVariables.sol\":1723:1804  function getMsgSig() public pure returns (bytes4) {... */\n    tag_7:\n      callvalue\n      dup1\n      iszero\n      tag_49\n      jumpi\n      revert(0x00, 0x00)\n    tag_49:\n      pop\n      tag_50\n      tag_51\n      jump\t// in\n    tag_50:\n      mload(0x40)\n      tag_52\n      swap2\n      swap1\n      tag_53\n      jump\t// in\n    tag_52:\n      mload(0x40)\n      dup1\n      swap2\n      sub\n      swap1\n      return\n        /* \"contracts/LearnGlobalVariables.sol\":3142:3304  function onlyOwnerCanCall() public view returns (string memory) {... */\n    tag_8:\n      callvalue\n      dup1\n      iszero\n      tag_54\n      jumpi\n      revert(0x00, 0x00)\n    tag_54:\n      pop\n      tag_55\n      tag_56\n      jump\t// in\n    tag_55:\n      mload(0x40)\n      tag_57\n      swap2\n      swap1\n      tag_58\n      jump\t// in\n    tag_57:\n      mload(0x40)\n      dup1\n      swap2\n      sub\n      swap1\n      return\n        /* \"contracts/LearnGlobalVariables.sol\":3369:3477  function getContractAge() public view returns (uint256) {... */\n    tag_9:\n      callvalue\n      dup1\n      iszero\n      tag_59\n      jumpi\n      revert(0x00, 0x00)\n    tag_59:\n      pop\n      tag_60\n      tag_61\n      jump\t// in\n    tag_60:\n      mload(0x40)\n      tag_62\n      swap2\n      swap1\n      tag_31\n      jump\t// in\n    tag_62:\n      mload(0x40)\n      dup1\n      swap2\n      sub\n      swap1\n      return\n        /* \"contracts/LearnGlobalVariables.sol\":263:363  function getCurrentTimestamp() public view returns (uint256) {... */\n    tag_10:\n      callvalue\n      dup1\n      iszero\n      tag_63\n      jumpi\n      revert(0x00, 0x00)\n    tag_63:\n      pop\n      tag_64\n      tag_65\n      jump\t// in\n    tag_64:\n      mload(0x40)\n      tag_66\n      swap2\n      swap1\n      tag_31\n      jump\t// in\n    tag_66:\n      mload(0x40)\n      dup1\n      swap2\n      sub\n      swap1\n      return\n        /* \"contracts/LearnGlobalVariables.sol\":2550:2655  function getContractBalance() public view returns (uint256) {... */\n    tag_11:\n      callvalue\n      dup1\n      iszero\n      tag_67\n      jumpi\n      revert(0x00, 0x00)\n    tag_67:\n      pop\n      tag_68\n      tag_69\n      jump\t// in\n    tag_68:\n      mload(0x40)\n      tag_70\n      swap2\n      swap1\n      tag_31\n      jump\t// in\n    tag_70:\n      mload(0x40)\n      dup1\n      swap2\n      sub\n      swap1\n      return\n        /* \"contracts/LearnGlobalVariables.sol\":409:508  function getCurrentBlockNumber() public view returns (uint256) {... */\n    tag_12:\n      callvalue\n      dup1\n      iszero\n      tag_71\n      jumpi\n      revert(0x00, 0x00)\n    tag_71:\n      pop\n      tag_72\n      tag_73\n      jump\t// in\n    tag_72:\n      mload(0x40)\n      tag_74\n      swap2\n      swap1\n      tag_31\n      jump\t// in\n    tag_74:\n      mload(0x40)\n      dup1\n      swap2\n      sub\n      swap1\n      return\n        /* \"contracts/LearnGlobalVariables.sol\":2818:2843  uint256 public deployTime */\n    tag_13:\n      callvalue\n      dup1\n      iszero\n      tag_75\n      jumpi\n      revert(0x00, 0x00)\n    tag_75:\n      pop\n      tag_76\n      tag_77\n      jump\t// in\n    tag_76:\n      mload(0x40)\n      tag_78\n      swap2\n      swap1\n      tag_31\n      jump\t// in\n    tag_78:\n      mload(0x40)\n      dup1\n      swap2\n      sub\n      swap1\n      return\n        /* \"contracts/LearnGlobalVariables.sol\":1287:1375  function getMsgSender() public view returns (address) {... */\n    tag_14:\n      callvalue\n      dup1\n      iszero\n      tag_79\n      jumpi\n      revert(0x00, 0x00)\n    tag_79:\n      pop\n      tag_80\n      tag_81\n      jump\t// in\n    tag_80:\n      mload(0x40)\n      tag_82\n      swap2\n      swap1\n      tag_40\n      jump\t// in\n    tag_82:\n      mload(0x40)\n      dup1\n      swap2\n      sub\n      swap1\n      return\n        /* \"contracts/LearnGlobalVariables.sol\":988:1101  function getPreviousBlockHash() public view returns (bytes32) {... */\n    tag_15:\n      callvalue\n      dup1\n      iszero\n      tag_83\n      jumpi\n      revert(0x00, 0x00)\n    tag_83:\n      pop\n      tag_84\n      tag_85\n      jump\t// in\n    tag_84:\n      mload(0x40)\n      tag_86\n      swap2\n      swap1\n      tag_87\n      jump\t// in\n    tag_86:\n      mload(0x40)\n      dup1\n      swap2\n      sub\n      swap1\n      return\n        /* \"contracts/LearnGlobalVariables.sol\":2792:2812  address public owner */\n    tag_16:\n      callvalue\n      dup1\n      iszero\n      tag_88\n      jumpi\n      revert(0x00, 0x00)\n    tag_88:\n      pop\n      tag_89\n      tag_90\n      jump\t// in\n    tag_89:\n      mload(0x40)\n      tag_91\n      swap2\n      swap1\n      tag_40\n      jump\t// in\n    tag_91:\n      mload(0x40)\n      dup1\n      swap2\n      sub\n      swap1\n      return\n        /* \"contracts/LearnGlobalVariables.sol\":1440:1529  function getMsgValue() public payable returns (uint256) {... */\n    tag_17:\n      tag_92\n      tag_93\n      jump\t// in\n    tag_92:\n      mload(0x40)\n      tag_94\n      swap2\n      swap1\n      tag_31\n      jump\t// in\n    tag_94:\n      mload(0x40)\n      dup1\n      swap2\n      sub\n      swap1\n      return\n        /* \"contracts/LearnGlobalVariables.sol\":2134:2224  function getTxGasPrice() public view returns (uint256) {... */\n    tag_18:\n      callvalue\n      dup1\n      iszero\n      tag_95\n      jumpi\n      revert(0x00, 0x00)\n    tag_95:\n      pop\n      tag_96\n      tag_97\n      jump\t// in\n    tag_96:\n      mload(0x40)\n      tag_98\n      swap2\n      swap1\n      tag_31\n      jump\t// in\n    tag_98:\n      mload(0x40)\n      dup1\n      swap2\n      sub\n      swap1\n      return\n        /* \"contracts/LearnGlobalVariables.sol\":2849:2875  uint256 public deployBlock */\n    tag_19:\n      callvalue\n      dup1\n      iszero\n      tag_99\n      jumpi\n      revert(0x00, 0x00)\n    tag_99:\n      pop\n      tag_100\n      tag_101\n      jump\t// in\n    tag_100:\n      mload(0x40)\n      tag_102\n      swap2\n      swap1\n      tag_31\n      jump\t// in\n    tag_102:\n      mload(0x40)\n      dup1\n      swap2\n      sub\n      swap1\n      return\n        /* \"contracts/LearnGlobalVariables.sol\":2003:2089  function getTxOrigin() public view returns (address) {... */\n    tag_20:\n      callvalue\n      dup1\n      iszero\n      tag_103\n      jumpi\n      revert(0x00, 0x00)\n    tag_103:\n      pop\n      tag_104\n      tag_105\n      jump\t// in\n    tag_104:\n      mload(0x40)\n      tag_106\n      swap2\n      swap1\n      tag_40\n      jump\t// in\n    tag_106:\n      mload(0x40)\n      dup1\n      swap2\n      sub\n      swap1\n      return\n        /* \"contracts/LearnGlobalVariables.sol\":1571:1662  function getMsgData() public pure returns (bytes calldata) {... */\n    tag_21:\n      callvalue\n      dup1\n      iszero\n      tag_107\n      jumpi\n      revert(0x00, 0x00)\n    tag_107:\n      pop\n      tag_108\n      tag_109\n      jump\t// in\n    tag_108:\n      mload(0x40)\n      tag_110\n      swap3\n      swap2\n      swap1\n      tag_111\n      jump\t// in\n    tag_110:\n      mload(0x40)\n      dup1\n      swap2\n      sub\n      swap1\n      return\n        /* \"contracts/LearnGlobalVariables.sol\":3778:3882  function deposit() public payable {... */\n    tag_22:\n      tag_112\n      tag_113\n      jump\t// in\n    tag_112:\n      stop\n        /* \"contracts/LearnGlobalVariables.sol\":3950:4074  function validateChain() public view returns (bool) {... */\n    tag_23:\n      callvalue\n      dup1\n      iszero\n      tag_114\n      jumpi\n      revert(0x00, 0x00)\n    tag_114:\n      pop\n      tag_115\n      tag_116\n      jump\t// in\n    tag_115:\n      mload(0x40)\n      tag_117\n      swap2\n      swap1\n      tag_118\n      jump\t// in\n    tag_117:\n      mload(0x40)\n      dup1\n      swap2\n      sub\n      swap1\n      return\n        /* \"contracts/LearnGlobalVariables.sol\":3531:3643  function getBlocksSinceDeploy() public view returns (uint256) {... */\n    tag_29:\n        /* \"contracts/LearnGlobalVariables.sol\":3584:3591  uint256 */\n      0x00\n        /* \"contracts/LearnGlobalVariables.sol\":3625:3636  deployBlock */\n      sload(0x02)\n        /* \"contracts/LearnGlobalVariables.sol\":3610:3622  block.number */\n      number\n        /* \"contracts/LearnGlobalVariables.sol\":3610:3636  block.number - deployBlock */\n      tag_120\n      swap2\n      swap1\n      tag_121\n      jump\t// in\n    tag_120:\n        /* \"contracts/LearnGlobalVariables.sol\":3603:3636  return block.number - deployBlock */\n      swap1\n      pop\n        /* \"contracts/LearnGlobalVariables.sol\":3531:3643  function getBlocksSinceDeploy() public view returns (uint256) {... */\n      swap1\n      jump\t// out\n        /* \"contracts/LearnGlobalVariables.sol\":840:936  function getBlockGasLimit() public view returns (uint256) {... */\n    tag_34:\n        /* \"contracts/LearnGlobalVariables.sol\":889:896  uint256 */\n      0x00\n        /* \"contracts/LearnGlobalVariables.sol\":915:929  block.gaslimit */\n      gaslimit\n        /* \"contracts/LearnGlobalVariables.sol\":908:929  return block.gaslimit */\n      swap1\n      pop\n        /* \"contracts/LearnGlobalVariables.sol\":840:936  function getBlockGasLimit() public view returns (uint256) {... */\n      swap1\n      jump\t// out\n        /* \"contracts/LearnGlobalVariables.sol\":703:799  function getBlockCoinbase() public view returns (address) {... */\n    tag_38:\n        /* \"contracts/LearnGlobalVariables.sol\":752:759  address */\n      0x00\n        /* \"contracts/LearnGlobalVariables.sol\":778:792  block.coinbase */\n      coinbase\n        /* \"contracts/LearnGlobalVariables.sol\":771:792  return block.coinbase */\n      swap1\n      pop\n        /* \"contracts/LearnGlobalVariables.sol\":703:799  function getBlockCoinbase() public view returns (address) {... */\n      swap1\n      jump\t// out\n        /* \"contracts/LearnGlobalVariables.sol\":2401:2498  function getContractAddress() public view returns (address) {... */\n    tag_43:\n        /* \"contracts/LearnGlobalVariables.sol\":2452:2459  address */\n      0x00\n        /* \"contracts/LearnGlobalVariables.sol\":2486:2490  this */\n      address\n        /* \"contracts/LearnGlobalVariables.sol\":2471:2491  return address(this) */\n      swap1\n      pop\n        /* \"contracts/LearnGlobalVariables.sol\":2401:2498  function getContractAddress() public view returns (address) {... */\n      swap1\n      jump\t// out\n        /* \"contracts/LearnGlobalVariables.sol\":566:655  function getChainId() public view returns (uint256) {... */\n    tag_47:\n        /* \"contracts/LearnGlobalVariables.sol\":609:616  uint256 */\n      0x00\n        /* \"contracts/LearnGlobalVariables.sol\":635:648  block.chainid */\n      chainid\n        /* \"contracts/LearnGlobalVariables.sol\":628:648  return block.chainid */\n      swap1\n      pop\n        /* \"contracts/LearnGlobalVariables.sol\":566:655  function getChainId() public view returns (uint256) {... */\n      swap1\n      jump\t// out\n        /* \"contracts/LearnGlobalVariables.sol\":1723:1804  function getMsgSig() public pure returns (bytes4) {... */\n    tag_51:\n        /* \"contracts/LearnGlobalVariables.sol\":1765:1771  bytes4 */\n      0x00\n        /* \"contracts/LearnGlobalVariables.sol\":1790:1797  msg.sig */\n      and(0xffffffff00000000000000000000000000000000000000000000000000000000, calldataload(0x00))\n        /* \"contracts/LearnGlobalVariables.sol\":1783:1797  return msg.sig */\n      swap1\n      pop\n        /* \"contracts/LearnGlobalVariables.sol\":1723:1804  function getMsgSig() public pure returns (bytes4) {... */\n      swap1\n      jump\t// out\n        /* \"contracts/LearnGlobalVariables.sol\":3142:3304  function onlyOwnerCanCall() public view returns (string memory) {... */\n    tag_56:\n        /* \"contracts/LearnGlobalVariables.sol\":3191:3204  string memory */\n      0x60\n        /* \"contracts/LearnGlobalVariables.sol\":3238:3243  owner */\n      0x00\n      0x00\n      swap1\n      sload\n      swap1\n      0x0100\n      exp\n      swap1\n      div\n      0xffffffffffffffffffffffffffffffffffffffff\n      and\n        /* \"contracts/LearnGlobalVariables.sol\":3224:3243  msg.sender == owner */\n      0xffffffffffffffffffffffffffffffffffffffff\n      and\n        /* \"contracts/LearnGlobalVariables.sol\":3224:3234  msg.sender */\n      caller\n        /* \"contracts/LearnGlobalVariables.sol\":3224:3243  msg.sender == owner */\n      0xffffffffffffffffffffffffffffffffffffffff\n      and\n      eq\n        /* \"contracts/LearnGlobalVariables.sol\":3216:3260  require(msg.sender == owner, \"Bukan owner!\") */\n      tag_128\n      jumpi\n      mload(0x40)\n      0x08c379a000000000000000000000000000000000000000000000000000000000\n      dup2\n      mstore\n      0x04\n      add\n      tag_129\n      swap1\n      tag_130\n      jump\t// in\n    tag_129:\n      mload(0x40)\n      dup1\n      swap2\n      sub\n      swap1\n      revert\n    tag_128:\n        /* \"contracts/LearnGlobalVariables.sol\":3270:3297  return \"Anda adalah owner!\" */\n      mload(0x40)\n      dup1\n      0x40\n      add\n      0x40\n      mstore\n      dup1\n      0x12\n      dup2\n      mstore\n      0x20\n      add\n      0x416e6461206164616c6168206f776e6572210000000000000000000000000000\n      dup2\n      mstore\n      pop\n      swap1\n      pop\n        /* \"contracts/LearnGlobalVariables.sol\":3142:3304  function onlyOwnerCanCall() public view returns (string memory) {... */\n      swap1\n      jump\t// out\n        /* \"contracts/LearnGlobalVariables.sol\":3369:3477  function getContractAge() public view returns (uint256) {... */\n    tag_61:\n        /* \"contracts/LearnGlobalVariables.sol\":3416:3423  uint256 */\n      0x00\n        /* \"contracts/LearnGlobalVariables.sol\":3460:3470  deployTime */\n      sload(0x01)\n        /* \"contracts/LearnGlobalVariables.sol\":3442:3457  block.timestamp */\n      timestamp\n        /* \"contracts/LearnGlobalVariables.sol\":3442:3470  block.timestamp - deployTime */\n      tag_132\n      swap2\n      swap1\n      tag_121\n      jump\t// in\n    tag_132:\n        /* \"contracts/LearnGlobalVariables.sol\":3435:3470  return block.timestamp - deployTime */\n      swap1\n      pop\n        /* \"contracts/LearnGlobalVariables.sol\":3369:3477  function getContractAge() public view returns (uint256) {... */\n      swap1\n      jump\t// out\n        /* \"contracts/LearnGlobalVariables.sol\":263:363  function getCurrentTimestamp() public view returns (uint256) {... */\n    tag_65:\n        /* \"contracts/LearnGlobalVariables.sol\":315:322  uint256 */\n      0x00\n        /* \"contracts/LearnGlobalVariables.sol\":341:356  block.timestamp */\n      timestamp\n        /* \"contracts/LearnGlobalVariables.sol\":334:356  return block.timestamp */\n      swap1\n      pop\n        /* \"contracts/LearnGlobalVariables.sol\":263:363  function getCurrentTimestamp() public view returns (uint256) {... */\n      swap1\n      jump\t// out\n        /* \"contracts/LearnGlobalVariables.sol\":2550:2655  function getContractBalance() public view returns (uint256) {... */\n    tag_69:\n        /* \"contracts/LearnGlobalVariables.sol\":2601:2608  uint256 */\n      0x00\n        /* \"contracts/LearnGlobalVariables.sol\":2627:2648  address(this).balance */\n      selfbalance\n        /* \"contracts/LearnGlobalVariables.sol\":2620:2648  return address(this).balance */\n      swap1\n      pop\n        /* \"contracts/LearnGlobalVariables.sol\":2550:2655  function getContractBalance() public view returns (uint256) {... */\n      swap1\n      jump\t// out\n        /* \"contracts/LearnGlobalVariables.sol\":409:508  function getCurrentBlockNumber() public view returns (uint256) {... */\n    tag_73:\n        /* \"contracts/LearnGlobalVariables.sol\":463:470  uint256 */\n      0x00\n        /* \"contracts/LearnGlobalVariables.sol\":489:501  block.number */\n      number\n        /* \"contracts/LearnGlobalVariables.sol\":482:501  return block.number */\n      swap1\n      pop\n        /* \"contracts/LearnGlobalVariables.sol\":409:508  function getCurrentBlockNumber() public view returns (uint256) {... */\n      swap1\n      jump\t// out\n        /* \"contracts/LearnGlobalVariables.sol\":2818:2843  uint256 public deployTime */\n    tag_77:\n      sload(0x01)\n      dup2\n      jump\t// out\n        /* \"contracts/LearnGlobalVariables.sol\":1287:1375  function getMsgSender() public view returns (address) {... */\n    tag_81:\n        /* \"contracts/LearnGlobalVariables.sol\":1332:1339  address */\n      0x00\n        /* \"contracts/LearnGlobalVariables.sol\":1358:1368  msg.sender */\n      caller\n        /* \"contracts/LearnGlobalVariables.sol\":1351:1368  return msg.sender */\n      swap1\n      pop\n        /* \"contracts/LearnGlobalVariables.sol\":1287:1375  function getMsgSender() public view returns (address) {... */\n      swap1\n      jump\t// out\n        /* \"contracts/LearnGlobalVariables.sol\":988:1101  function getPreviousBlockHash() public view returns (bytes32) {... */\n    tag_85:\n        /* \"contracts/LearnGlobalVariables.sol\":1041:1048  bytes32 */\n      0x00\n        /* \"contracts/LearnGlobalVariables.sol\":1092:1093  1 */\n      0x01\n        /* \"contracts/LearnGlobalVariables.sol\":1077:1089  block.number */\n      number\n        /* \"contracts/LearnGlobalVariables.sol\":1077:1093  block.number - 1 */\n      tag_138\n      swap2\n      swap1\n      tag_121\n      jump\t// in\n    tag_138:\n        /* \"contracts/LearnGlobalVariables.sol\":1067:1094  blockhash(block.number - 1) */\n      blockhash\n        /* \"contracts/LearnGlobalVariables.sol\":1060:1094  return blockhash(block.number - 1) */\n      swap1\n      pop\n        /* \"contracts/LearnGlobalVariables.sol\":988:1101  function getPreviousBlockHash() public view returns (bytes32) {... */\n      swap1\n      jump\t// out\n        /* \"contracts/LearnGlobalVariables.sol\":2792:2812  address public owner */\n    tag_90:\n      0x00\n      0x00\n      swap1\n      sload\n      swap1\n      0x0100\n      exp\n      swap1\n      div\n      0xffffffffffffffffffffffffffffffffffffffff\n      and\n      dup2\n      jump\t// out\n        /* \"contracts/LearnGlobalVariables.sol\":1440:1529  function getMsgValue() public payable returns (uint256) {... */\n    tag_93:\n        /* \"contracts/LearnGlobalVariables.sol\":1487:1494  uint256 */\n      0x00\n        /* \"contracts/LearnGlobalVariables.sol\":1513:1522  msg.value */\n      callvalue\n        /* \"contracts/LearnGlobalVariables.sol\":1506:1522  return msg.value */\n      swap1\n      pop\n        /* \"contracts/LearnGlobalVariables.sol\":1440:1529  function getMsgValue() public payable returns (uint256) {... */\n      swap1\n      jump\t// out\n        /* \"contracts/LearnGlobalVariables.sol\":2134:2224  function getTxGasPrice() public view returns (uint256) {... */\n    tag_97:\n        /* \"contracts/LearnGlobalVariables.sol\":2180:2187  uint256 */\n      0x00\n        /* \"contracts/LearnGlobalVariables.sol\":2206:2217  tx.gasprice */\n      gasprice\n        /* \"contracts/LearnGlobalVariables.sol\":2199:2217  return tx.gasprice */\n      swap1\n      pop\n        /* \"contracts/LearnGlobalVariables.sol\":2134:2224  function getTxGasPrice() public view returns (uint256) {... */\n      swap1\n      jump\t// out\n        /* \"contracts/LearnGlobalVariables.sol\":2849:2875  uint256 public deployBlock */\n    tag_101:\n      sload(0x02)\n      dup2\n      jump\t// out\n        /* \"contracts/LearnGlobalVariables.sol\":2003:2089  function getTxOrigin() public view returns (address) {... */\n    tag_105:\n        /* \"contracts/LearnGlobalVariables.sol\":2047:2054  address */\n      0x00\n        /* \"contracts/LearnGlobalVariables.sol\":2073:2082  tx.origin */\n      origin\n        /* \"contracts/LearnGlobalVariables.sol\":2066:2082  return tx.origin */\n      swap1\n      pop\n        /* \"contracts/LearnGlobalVariables.sol\":2003:2089  function getTxOrigin() public view returns (address) {... */\n      swap1\n      jump\t// out\n        /* \"contracts/LearnGlobalVariables.sol\":1571:1662  function getMsgData() public pure returns (bytes calldata) {... */\n    tag_109:\n        /* \"contracts/LearnGlobalVariables.sol\":1614:1628  bytes calldata */\n      calldatasize\n      0x00\n        /* \"contracts/LearnGlobalVariables.sol\":1647:1655  msg.data */\n      0x00\n      calldatasize\n        /* \"contracts/LearnGlobalVariables.sol\":1640:1655  return msg.data */\n      swap2\n      pop\n      swap2\n      pop\n        /* \"contracts/LearnGlobalVariables.sol\":1571:1662  function getMsgData() public pure returns (bytes calldata) {... */\n      swap1\n      swap2\n      jump\t// out\n        /* \"contracts/LearnGlobalVariables.sol\":3778:3882  function deposit() public payable {... */\n    tag_113:\n        /* \"contracts/LearnGlobalVariables.sol\":3836:3846  msg.sender */\n      caller\n        /* \"contracts/LearnGlobalVariables.sol\":3827:3875  Received(msg.sender, msg.value, block.timestamp) */\n      0xffffffffffffffffffffffffffffffffffffffff\n      and\n      0x74cf3d18d0ddca79038197ad0dd2c7fa5005ef61a5d1ed190e8a8a437e2fcf10\n        /* \"contracts/LearnGlobalVariables.sol\":3848:3857  msg.value */\n      callvalue\n        /* \"contracts/LearnGlobalVariables.sol\":3859:3874  block.timestamp */\n      timestamp\n        /* \"contracts/LearnGlobalVariables.sol\":3827:3875  Received(msg.sender, msg.value, block.timestamp) */\n      mload(0x40)\n      tag_144\n      swap3\n      swap2\n      swap1\n      tag_145\n      jump\t// in\n    tag_144:\n      mload(0x40)\n      dup1\n      swap2\n      sub\n      swap1\n      log2\n        /* \"contracts/LearnGlobalVariables.sol\":3778:3882  function deposit() public payable {... */\n      jump\t// out\n        /* \"contracts/LearnGlobalVariables.sol\":3950:4074  function validateChain() public view returns (bool) {... */\n    tag_116:\n        /* \"contracts/LearnGlobalVariables.sol\":3996:4000  bool */\n      0x00\n        /* \"contracts/LearnGlobalVariables.sol\":4036:4040  5003 */\n      0x138b\n        /* \"contracts/LearnGlobalVariables.sol\":4019:4032  block.chainid */\n      chainid\n        /* \"contracts/LearnGlobalVariables.sol\":4019:4040  block.chainid == 5003 */\n      eq\n        /* \"contracts/LearnGlobalVariables.sol\":4012:4040  return block.chainid == 5003 */\n      swap1\n      pop\n        /* \"contracts/LearnGlobalVariables.sol\":3950:4074  function validateChain() public view returns (bool) {... */\n      swap1\n      jump\t// out\n        /* \"#utility.yul\":7:84   */\n    tag_147:\n        /* \"#utility.yul\":44:51   */\n      0x00\n        /* \"#utility.yul\":73:78   */\n      dup2\n        /* \"#utility.yul\":62:78   */\n      swap1\n      pop\n        /* \"#utility.yul\":7:84   */\n      swap2\n      swap1\n      pop\n      jump\t// out\n        /* \"#utility.yul\":90:208   */\n    tag_148:\n        /* \"#utility.yul\":177:201   */\n      tag_172\n        /* \"#utility.yul\":195:200   */\n      dup2\n        /* \"#utility.yul\":177:201   */\n      tag_147\n      jump\t// in\n    tag_172:\n        /* \"#utility.yul\":172:175   */\n      dup3\n        /* \"#utility.yul\":165:202   */\n      mstore\n        /* \"#utility.yul\":90:208   */\n      pop\n      pop\n      jump\t// out\n        /* \"#utility.yul\":214:436   */\n    tag_31:\n        /* \"#utility.yul\":307:311   */\n      0x00\n        /* \"#utility.yul\":345:347   */\n      0x20\n        /* \"#utility.yul\":334:343   */\n      dup3\n        /* \"#utility.yul\":330:348   */\n      add\n        /* \"#utility.yul\":322:348   */\n      swap1\n      pop\n        /* \"#utility.yul\":358:429   */\n      tag_174\n        /* \"#utility.yul\":426:427   */\n      0x00\n        /* \"#utility.yul\":415:424   */\n      dup4\n        /* \"#utility.yul\":411:428   */\n      add\n        /* \"#utility.yul\":402:408   */\n      dup5\n        /* \"#utility.yul\":358:429   */\n      tag_148\n      jump\t// in\n    tag_174:\n        /* \"#utility.yul\":214:436   */\n      swap3\n      swap2\n      pop\n      pop\n      jump\t// out\n        /* \"#utility.yul\":442:568   */\n    tag_149:\n        /* \"#utility.yul\":479:486   */\n      0x00\n        /* \"#utility.yul\":519:561   */\n      0xffffffffffffffffffffffffffffffffffffffff\n        /* \"#utility.yul\":512:517   */\n      dup3\n        /* \"#utility.yul\":508:562   */\n      and\n        /* \"#utility.yul\":497:562   */\n      swap1\n      pop\n        /* \"#utility.yul\":442:568   */\n      swap2\n      swap1\n      pop\n      jump\t// out\n        /* \"#utility.yul\":574:670   */\n    tag_150:\n        /* \"#utility.yul\":611:618   */\n      0x00\n        /* \"#utility.yul\":640:664   */\n      tag_177\n        /* \"#utility.yul\":658:663   */\n      dup3\n        /* \"#utility.yul\":640:664   */\n      tag_149\n      jump\t// in\n    tag_177:\n        /* \"#utility.yul\":629:664   */\n      swap1\n      pop\n        /* \"#utility.yul\":574:670   */\n      swap2\n      swap1\n      pop\n      jump\t// out\n        /* \"#utility.yul\":676:794   */\n    tag_151:\n        /* \"#utility.yul\":763:787   */\n      tag_179\n        /* \"#utility.yul\":781:786   */\n      dup2\n        /* \"#utility.yul\":763:787   */\n      tag_150\n      jump\t// in\n    tag_179:\n        /* \"#utility.yul\":758:761   */\n      dup3\n        /* \"#utility.yul\":751:788   */\n      mstore\n        /* \"#utility.yul\":676:794   */\n      pop\n      pop\n      jump\t// out\n        /* \"#utility.yul\":800:1022   */\n    tag_40:\n        /* \"#utility.yul\":893:897   */\n      0x00\n        /* \"#utility.yul\":931:933   */\n      0x20\n        /* \"#utility.yul\":920:929   */\n      dup3\n        /* \"#utility.yul\":916:934   */\n      add\n        /* \"#utility.yul\":908:934   */\n      swap1\n      pop\n        /* \"#utility.yul\":944:1015   */\n      tag_181\n        /* \"#utility.yul\":1012:1013   */\n      0x00\n        /* \"#utility.yul\":1001:1010   */\n      dup4\n        /* \"#utility.yul\":997:1014   */\n      add\n        /* \"#utility.yul\":988:994   */\n      dup5\n        /* \"#utility.yul\":944:1015   */\n      tag_151\n      jump\t// in\n    tag_181:\n        /* \"#utility.yul\":800:1022   */\n      swap3\n      swap2\n      pop\n      pop\n      jump\t// out\n        /* \"#utility.yul\":1028:1177   */\n    tag_152:\n        /* \"#utility.yul\":1064:1071   */\n      0x00\n        /* \"#utility.yul\":1104:1170   */\n      0xffffffff00000000000000000000000000000000000000000000000000000000\n        /* \"#utility.yul\":1097:1102   */\n      dup3\n        /* \"#utility.yul\":1093:1171   */\n      and\n        /* \"#utility.yul\":1082:1171   */\n      swap1\n      pop\n        /* \"#utility.yul\":1028:1177   */\n      swap2\n      swap1\n      pop\n      jump\t// out\n        /* \"#utility.yul\":1183:1298   */\n    tag_153:\n        /* \"#utility.yul\":1268:1291   */\n      tag_184\n        /* \"#utility.yul\":1285:1290   */\n      dup2\n        /* \"#utility.yul\":1268:1291   */\n      tag_152\n      jump\t// in\n    tag_184:\n        /* \"#utility.yul\":1263:1266   */\n      dup3\n        /* \"#utility.yul\":1256:1292   */\n      mstore\n        /* \"#utility.yul\":1183:1298   */\n      pop\n      pop\n      jump\t// out\n        /* \"#utility.yul\":1304:1522   */\n    tag_53:\n        /* \"#utility.yul\":1395:1399   */\n      0x00\n        /* \"#utility.yul\":1433:1435   */\n      0x20\n        /* \"#utility.yul\":1422:1431   */\n      dup3\n        /* \"#utility.yul\":1418:1436   */\n      add\n        /* \"#utility.yul\":1410:1436   */\n      swap1\n      pop\n        /* \"#utility.yul\":1446:1515   */\n      tag_186\n        /* \"#utility.yul\":1512:1513   */\n      0x00\n        /* \"#utility.yul\":1501:1510   */\n      dup4\n        /* \"#utility.yul\":1497:1514   */\n      add\n        /* \"#utility.yul\":1488:1494   */\n      dup5\n        /* \"#utility.yul\":1446:1515   */\n      tag_153\n      jump\t// in\n    tag_186:\n        /* \"#utility.yul\":1304:1522   */\n      swap3\n      swap2\n      pop\n      pop\n      jump\t// out\n        /* \"#utility.yul\":1528:1627   */\n    tag_154:\n        /* \"#utility.yul\":1580:1586   */\n      0x00\n        /* \"#utility.yul\":1614:1619   */\n      dup2\n        /* \"#utility.yul\":1608:1620   */\n      mload\n        /* \"#utility.yul\":1598:1620   */\n      swap1\n      pop\n        /* \"#utility.yul\":1528:1627   */\n      swap2\n      swap1\n      pop\n      jump\t// out\n        /* \"#utility.yul\":1633:1802   */\n    tag_155:\n        /* \"#utility.yul\":1717:1728   */\n      0x00\n        /* \"#utility.yul\":1751:1757   */\n      dup3\n        /* \"#utility.yul\":1746:1749   */\n      dup3\n        /* \"#utility.yul\":1739:1758   */\n      mstore\n        /* \"#utility.yul\":1791:1795   */\n      0x20\n        /* \"#utility.yul\":1786:1789   */\n      dup3\n        /* \"#utility.yul\":1782:1796   */\n      add\n        /* \"#utility.yul\":1767:1796   */\n      swap1\n      pop\n        /* \"#utility.yul\":1633:1802   */\n      swap3\n      swap2\n      pop\n      pop\n      jump\t// out\n        /* \"#utility.yul\":1808:1947   */\n    tag_156:\n        /* \"#utility.yul\":1897:1903   */\n      dup3\n        /* \"#utility.yul\":1892:1895   */\n      dup2\n        /* \"#utility.yul\":1887:1890   */\n      dup4\n        /* \"#utility.yul\":1881:1904   */\n      mcopy\n        /* \"#utility.yul\":1938:1939   */\n      0x00\n        /* \"#utility.yul\":1929:1935   */\n      dup4\n        /* \"#utility.yul\":1924:1927   */\n      dup4\n        /* \"#utility.yul\":1920:1936   */\n      add\n        /* \"#utility.yul\":1913:1940   */\n      mstore\n        /* \"#utility.yul\":1808:1947   */\n      pop\n      pop\n      pop\n      jump\t// out\n        /* \"#utility.yul\":1953:2055   */\n    tag_157:\n        /* \"#utility.yul\":1994:2000   */\n      0x00\n        /* \"#utility.yul\":2045:2047   */\n      0x1f\n        /* \"#utility.yul\":2041:2048   */\n      not\n        /* \"#utility.yul\":2036:2038   */\n      0x1f\n        /* \"#utility.yul\":2029:2034   */\n      dup4\n        /* \"#utility.yul\":2025:2039   */\n      add\n        /* \"#utility.yul\":2021:2049   */\n      and\n        /* \"#utility.yul\":2011:2049   */\n      swap1\n      pop\n        /* \"#utility.yul\":1953:2055   */\n      swap2\n      swap1\n      pop\n      jump\t// out\n        /* \"#utility.yul\":2061:2438   */\n    tag_158:\n        /* \"#utility.yul\":2149:2152   */\n      0x00\n        /* \"#utility.yul\":2177:2216   */\n      tag_192\n        /* \"#utility.yul\":2210:2215   */\n      dup3\n        /* \"#utility.yul\":2177:2216   */\n      tag_154\n      jump\t// in\n    tag_192:\n        /* \"#utility.yul\":2232:2303   */\n      tag_193\n        /* \"#utility.yul\":2296:2302   */\n      dup2\n        /* \"#utility.yul\":2291:2294   */\n      dup6\n        /* \"#utility.yul\":2232:2303   */\n      tag_155\n      jump\t// in\n    tag_193:\n        /* \"#utility.yul\":2225:2303   */\n      swap4\n      pop\n        /* \"#utility.yul\":2312:2377   */\n      tag_194\n        /* \"#utility.yul\":2370:2376   */\n      dup2\n        /* \"#utility.yul\":2365:2368   */\n      dup6\n        /* \"#utility.yul\":2358:2362   */\n      0x20\n        /* \"#utility.yul\":2351:2356   */\n      dup7\n        /* \"#utility.yul\":2347:2363   */\n      add\n        /* \"#utility.yul\":2312:2377   */\n      tag_156\n      jump\t// in\n    tag_194:\n        /* \"#utility.yul\":2402:2431   */\n      tag_195\n        /* \"#utility.yul\":2424:2430   */\n      dup2\n        /* \"#utility.yul\":2402:2431   */\n      tag_157\n      jump\t// in\n    tag_195:\n        /* \"#utility.yul\":2397:2400   */\n      dup5\n        /* \"#utility.yul\":2393:2432   */\n      add\n        /* \"#utility.yul\":2386:2432   */\n      swap2\n      pop\n        /* \"#utility.yul\":2153:2438   */\n      pop\n        /* \"#utility.yul\":2061:2438   */\n      swap3\n      swap2\n      pop\n      pop\n      jump\t// out\n        /* \"#utility.yul\":2444:2757   */\n    tag_58:\n        /* \"#utility.yul\":2557:2561   */\n      0x00\n        /* \"#utility.yul\":2595:2597   */\n      0x20\n        /* \"#utility.yul\":2584:2593   */\n      dup3\n        /* \"#utility.yul\":2580:2598   */\n      add\n        /* \"#utility.yul\":2572:2598   */\n      swap1\n      pop\n        /* \"#utility.yul\":2644:2653   */\n      dup2\n        /* \"#utility.yul\":2638:2642   */\n      dup2\n        /* \"#utility.yul\":2634:2654   */\n      sub\n        /* \"#utility.yul\":2630:2631   */\n      0x00\n        /* \"#utility.yul\":2619:2628   */\n      dup4\n        /* \"#utility.yul\":2615:2632   */\n      add\n        /* \"#utility.yul\":2608:2655   */\n      mstore\n        /* \"#utility.yul\":2672:2750   */\n      tag_197\n        /* \"#utility.yul\":2745:2749   */\n      dup2\n        /* \"#utility.yul\":2736:2742   */\n      dup5\n        /* \"#utility.yul\":2672:2750   */\n      tag_158\n      jump\t// in\n    tag_197:\n        /* \"#utility.yul\":2664:2750   */\n      swap1\n      pop\n        /* \"#utility.yul\":2444:2757   */\n      swap3\n      swap2\n      pop\n      pop\n      jump\t// out\n        /* \"#utility.yul\":2763:2840   */\n    tag_159:\n        /* \"#utility.yul\":2800:2807   */\n      0x00\n        /* \"#utility.yul\":2829:2834   */\n      dup2\n        /* \"#utility.yul\":2818:2834   */\n      swap1\n      pop\n        /* \"#utility.yul\":2763:2840   */\n      swap2\n      swap1\n      pop\n      jump\t// out\n        /* \"#utility.yul\":2846:2964   */\n    tag_160:\n        /* \"#utility.yul\":2933:2957   */\n      tag_200\n        /* \"#utility.yul\":2951:2956   */\n      dup2\n        /* \"#utility.yul\":2933:2957   */\n      tag_159\n      jump\t// in\n    tag_200:\n        /* \"#utility.yul\":2928:2931   */\n      dup3\n        /* \"#utility.yul\":2921:2958   */\n      mstore\n        /* \"#utility.yul\":2846:2964   */\n      pop\n      pop\n      jump\t// out\n        /* \"#utility.yul\":2970:3192   */\n    tag_87:\n        /* \"#utility.yul\":3063:3067   */\n      0x00\n        /* \"#utility.yul\":3101:3103   */\n      0x20\n        /* \"#utility.yul\":3090:3099   */\n      dup3\n        /* \"#utility.yul\":3086:3104   */\n      add\n        /* \"#utility.yul\":3078:3104   */\n      swap1\n      pop\n        /* \"#utility.yul\":3114:3185   */\n      tag_202\n        /* \"#utility.yul\":3182:3183   */\n      0x00\n        /* \"#utility.yul\":3171:3180   */\n      dup4\n        /* \"#utility.yul\":3167:3184   */\n      add\n        /* \"#utility.yul\":3158:3164   */\n      dup5\n        /* \"#utility.yul\":3114:3185   */\n      tag_160\n      jump\t// in\n    tag_202:\n        /* \"#utility.yul\":2970:3192   */\n      swap3\n      swap2\n      pop\n      pop\n      jump\t// out\n        /* \"#utility.yul\":3198:3366   */\n    tag_161:\n        /* \"#utility.yul\":3281:3292   */\n      0x00\n        /* \"#utility.yul\":3315:3321   */\n      dup3\n        /* \"#utility.yul\":3310:3313   */\n      dup3\n        /* \"#utility.yul\":3303:3322   */\n      mstore\n        /* \"#utility.yul\":3355:3359   */\n      0x20\n        /* \"#utility.yul\":3350:3353   */\n      dup3\n        /* \"#utility.yul\":3346:3360   */\n      add\n        /* \"#utility.yul\":3331:3360   */\n      swap1\n      pop\n        /* \"#utility.yul\":3198:3366   */\n      swap3\n      swap2\n      pop\n      pop\n      jump\t// out\n        /* \"#utility.yul\":3372:3520   */\n    tag_162:\n        /* \"#utility.yul\":3470:3476   */\n      dup3\n        /* \"#utility.yul\":3465:3468   */\n      dup2\n        /* \"#utility.yul\":3460:3463   */\n      dup4\n        /* \"#utility.yul\":3447:3477   */\n      calldatacopy\n        /* \"#utility.yul\":3511:3512   */\n      0x00\n        /* \"#utility.yul\":3502:3508   */\n      dup4\n        /* \"#utility.yul\":3497:3500   */\n      dup4\n        /* \"#utility.yul\":3493:3509   */\n      add\n        /* \"#utility.yul\":3486:3513   */\n      mstore\n        /* \"#utility.yul\":3372:3520   */\n      pop\n      pop\n      pop\n      jump\t// out\n        /* \"#utility.yul\":3548:3862   */\n    tag_163:\n        /* \"#utility.yul\":3644:3647   */\n      0x00\n        /* \"#utility.yul\":3665:3735   */\n      tag_206\n        /* \"#utility.yul\":3728:3734   */\n      dup4\n        /* \"#utility.yul\":3723:3726   */\n      dup6\n        /* \"#utility.yul\":3665:3735   */\n      tag_161\n      jump\t// in\n    tag_206:\n        /* \"#utility.yul\":3658:3735   */\n      swap4\n      pop\n        /* \"#utility.yul\":3745:3801   */\n      tag_207\n        /* \"#utility.yul\":3794:3800   */\n      dup4\n        /* \"#utility.yul\":3789:3792   */\n      dup6\n        /* \"#utility.yul\":3782:3787   */\n      dup5\n        /* \"#utility.yul\":3745:3801   */\n      tag_162\n      jump\t// in\n    tag_207:\n        /* \"#utility.yul\":3826:3855   */\n      tag_208\n        /* \"#utility.yul\":3848:3854   */\n      dup4\n        /* \"#utility.yul\":3826:3855   */\n      tag_157\n      jump\t// in\n    tag_208:\n        /* \"#utility.yul\":3821:3824   */\n      dup5\n        /* \"#utility.yul\":3817:3856   */\n      add\n        /* \"#utility.yul\":3810:3856   */\n      swap1\n      pop\n        /* \"#utility.yul\":3548:3862   */\n      swap4\n      swap3\n      pop\n      pop\n      pop\n      jump\t// out\n        /* \"#utility.yul\":3868:4197   */\n    tag_111:\n        /* \"#utility.yul\":3989:3993   */\n      0x00\n        /* \"#utility.yul\":4027:4029   */\n      0x20\n        /* \"#utility.yul\":4016:4025   */\n      dup3\n        /* \"#utility.yul\":4012:4030   */\n      add\n        /* \"#utility.yul\":4004:4030   */\n      swap1\n      pop\n        /* \"#utility.yul\":4076:4085   */\n      dup2\n        /* \"#utility.yul\":4070:4074   */\n      dup2\n        /* \"#utility.yul\":4066:4086   */\n      sub\n        /* \"#utility.yul\":4062:4063   */\n      0x00\n        /* \"#utility.yul\":4051:4060   */\n      dup4\n        /* \"#utility.yul\":4047:4064   */\n      add\n        /* \"#utility.yul\":4040:4087   */\n      mstore\n        /* \"#utility.yul\":4104:4190   */\n      tag_210\n        /* \"#utility.yul\":4185:4189   */\n      dup2\n        /* \"#utility.yul\":4176:4182   */\n      dup5\n        /* \"#utility.yul\":4168:4174   */\n      dup7\n        /* \"#utility.yul\":4104:4190   */\n      tag_163\n      jump\t// in\n    tag_210:\n        /* \"#utility.yul\":4096:4190   */\n      swap1\n      pop\n        /* \"#utility.yul\":3868:4197   */\n      swap4\n      swap3\n      pop\n      pop\n      pop\n      jump\t// out\n        /* \"#utility.yul\":4203:4293   */\n    tag_164:\n        /* \"#utility.yul\":4237:4244   */\n      0x00\n        /* \"#utility.yul\":4280:4285   */\n      dup2\n        /* \"#utility.yul\":4273:4286   */\n      iszero\n        /* \"#utility.yul\":4266:4287   */\n      iszero\n        /* \"#utility.yul\":4255:4287   */\n      swap1\n      pop\n        /* \"#utility.yul\":4203:4293   */\n      swap2\n      swap1\n      pop\n      jump\t// out\n        /* \"#utility.yul\":4299:4408   */\n    tag_165:\n        /* \"#utility.yul\":4380:4401   */\n      tag_213\n        /* \"#utility.yul\":4395:4400   */\n      dup2\n        /* \"#utility.yul\":4380:4401   */\n      tag_164\n      jump\t// in\n    tag_213:\n        /* \"#utility.yul\":4375:4378   */\n      dup3\n        /* \"#utility.yul\":4368:4402   */\n      mstore\n        /* \"#utility.yul\":4299:4408   */\n      pop\n      pop\n      jump\t// out\n        /* \"#utility.yul\":4414:4624   */\n    tag_118:\n        /* \"#utility.yul\":4501:4505   */\n      0x00\n        /* \"#utility.yul\":4539:4541   */\n      0x20\n        /* \"#utility.yul\":4528:4537   */\n      dup3\n        /* \"#utility.yul\":4524:4542   */\n      add\n        /* \"#utility.yul\":4516:4542   */\n      swap1\n      pop\n        /* \"#utility.yul\":4552:4617   */\n      tag_215\n        /* \"#utility.yul\":4614:4615   */\n      0x00\n        /* \"#utility.yul\":4603:4612   */\n      dup4\n        /* \"#utility.yul\":4599:4616   */\n      add\n        /* \"#utility.yul\":4590:4596   */\n      dup5\n        /* \"#utility.yul\":4552:4617   */\n      tag_165\n      jump\t// in\n    tag_215:\n        /* \"#utility.yul\":4414:4624   */\n      swap3\n      swap2\n      pop\n      pop\n      jump\t// out\n        /* \"#utility.yul\":4630:4810   */\n    tag_166:\n        /* \"#utility.yul\":4678:4755   */\n      0x4e487b7100000000000000000000000000000000000000000000000000000000\n        /* \"#utility.yul\":4675:4676   */\n      0x00\n        /* \"#utility.yul\":4668:4756   */\n      mstore\n        /* \"#utility.yul\":4775:4779   */\n      0x11\n        /* \"#utility.yul\":4772:4773   */\n      0x04\n        /* \"#utility.yul\":4765:4780   */\n      mstore\n        /* \"#utility.yul\":4799:4803   */\n      0x24\n        /* \"#utility.yul\":4796:4797   */\n      0x00\n        /* \"#utility.yul\":4789:4804   */\n      revert\n        /* \"#utility.yul\":4816:5010   */\n    tag_121:\n        /* \"#utility.yul\":4856:4860   */\n      0x00\n        /* \"#utility.yul\":4876:4896   */\n      tag_218\n        /* \"#utility.yul\":4894:4895   */\n      dup3\n        /* \"#utility.yul\":4876:4896   */\n      tag_147\n      jump\t// in\n    tag_218:\n        /* \"#utility.yul\":4871:4896   */\n      swap2\n      pop\n        /* \"#utility.yul\":4910:4930   */\n      tag_219\n        /* \"#utility.yul\":4928:4929   */\n      dup4\n        /* \"#utility.yul\":4910:4930   */\n      tag_147\n      jump\t// in\n    tag_219:\n        /* \"#utility.yul\":4905:4930   */\n      swap3\n      pop\n        /* \"#utility.yul\":4954:4955   */\n      dup3\n        /* \"#utility.yul\":4951:4952   */\n      dup3\n        /* \"#utility.yul\":4947:4956   */\n      sub\n        /* \"#utility.yul\":4939:4956   */\n      swap1\n      pop\n        /* \"#utility.yul\":4978:4979   */\n      dup2\n        /* \"#utility.yul\":4972:4976   */\n      dup2\n        /* \"#utility.yul\":4969:4980   */\n      gt\n        /* \"#utility.yul\":4966:5003   */\n      iszero\n      tag_220\n      jumpi\n        /* \"#utility.yul\":4983:5001   */\n      tag_221\n      tag_166\n      jump\t// in\n    tag_221:\n        /* \"#utility.yul\":4966:5003   */\n    tag_220:\n        /* \"#utility.yul\":4816:5010   */\n      swap3\n      swap2\n      pop\n      pop\n      jump\t// out\n        /* \"#utility.yul\":5016:5178   */\n    tag_167:\n        /* \"#utility.yul\":5156:5170   */\n      0x42756b616e206f776e6572210000000000000000000000000000000000000000\n        /* \"#utility.yul\":5152:5153   */\n      0x00\n        /* \"#utility.yul\":5144:5150   */\n      dup3\n        /* \"#utility.yul\":5140:5154   */\n      add\n        /* \"#utility.yul\":5133:5171   */\n      mstore\n        /* \"#utility.yul\":5016:5178   */\n      pop\n      jump\t// out\n        /* \"#utility.yul\":5184:5550   */\n    tag_168:\n        /* \"#utility.yul\":5326:5329   */\n      0x00\n        /* \"#utility.yul\":5347:5414   */\n      tag_224\n        /* \"#utility.yul\":5411:5413   */\n      0x0c\n        /* \"#utility.yul\":5406:5409   */\n      dup4\n        /* \"#utility.yul\":5347:5414   */\n      tag_155\n      jump\t// in\n    tag_224:\n        /* \"#utility.yul\":5340:5414   */\n      swap2\n      pop\n        /* \"#utility.yul\":5423:5516   */\n      tag_225\n        /* \"#utility.yul\":5512:5515   */\n      dup3\n        /* \"#utility.yul\":5423:5516   */\n      tag_167\n      jump\t// in\n    tag_225:\n        /* \"#utility.yul\":5541:5543   */\n      0x20\n        /* \"#utility.yul\":5536:5539   */\n      dup3\n        /* \"#utility.yul\":5532:5544   */\n      add\n        /* \"#utility.yul\":5525:5544   */\n      swap1\n      pop\n        /* \"#utility.yul\":5184:5550   */\n      swap2\n      swap1\n      pop\n      jump\t// out\n        /* \"#utility.yul\":5556:5975   */\n    tag_130:\n        /* \"#utility.yul\":5722:5726   */\n      0x00\n        /* \"#utility.yul\":5760:5762   */\n      0x20\n        /* \"#utility.yul\":5749:5758   */\n      dup3\n        /* \"#utility.yul\":5745:5763   */\n      add\n        /* \"#utility.yul\":5737:5763   */\n      swap1\n      pop\n        /* \"#utility.yul\":5809:5818   */\n      dup2\n        /* \"#utility.yul\":5803:5807   */\n      dup2\n        /* \"#utility.yul\":5799:5819   */\n      sub\n        /* \"#utility.yul\":5795:5796   */\n      0x00\n        /* \"#utility.yul\":5784:5793   */\n      dup4\n        /* \"#utility.yul\":5780:5797   */\n      add\n        /* \"#utility.yul\":5773:5820   */\n      mstore\n        /* \"#utility.yul\":5837:5968   */\n      tag_227\n        /* \"#utility.yul\":5963:5967   */\n      dup2\n        /* \"#utility.yul\":5837:5968   */\n      tag_168\n      jump\t// in\n    tag_227:\n        /* \"#utility.yul\":5829:5968   */\n      swap1\n      pop\n        /* \"#utility.yul\":5556:5975   */\n      swap2\n      swap1\n      pop\n      jump\t// out\n        /* \"#utility.yul\":5981:6313   */\n    tag_145:\n        /* \"#utility.yul\":6102:6106   */\n      0x00\n        /* \"#utility.yul\":6140:6142   */\n      0x40\n        /* \"#utility.yul\":6129:6138   */\n      dup3\n        /* \"#utility.yul\":6125:6143   */\n      add\n        /* \"#utility.yul\":6117:6143   */\n      swap1\n      pop\n        /* \"#utility.yul\":6153:6224   */\n      tag_229\n        /* \"#utility.yul\":6221:6222   */\n      0x00\n        /* \"#utility.yul\":6210:6219   */\n      dup4\n        /* \"#utility.yul\":6206:6223   */\n      add\n        /* \"#utility.yul\":6197:6203   */\n      dup6\n        /* \"#utility.yul\":6153:6224   */\n      tag_148\n      jump\t// in\n    tag_229:\n        /* \"#utility.yul\":6234:6306   */\n      tag_230\n        /* \"#utility.yul\":6302:6304   */\n      0x20\n        /* \"#utility.yul\":6291:6300   */\n      dup4\n        /* \"#utility.yul\":6287:6305   */\n      add\n        /* \"#utility.yul\":6278:6284   */\n      dup5\n        /* \"#utility.yul\":6234:6306   */\n      tag_148\n      jump\t// in\n    tag_230:\n        /* \"#utility.yul\":5981:6313   */\n      swap4\n      swap3\n      pop\n      pop\n      pop\n      jump\t// out\n\n    auxdata: 0xa2646970667358221220b5971f192dfbb8f15915ce8a70e30ea5339a38f6c451408a2e7f99926fd26bf164736f6c634300081f0033\n}\n",
				"bytecode": {
					"linkReferences": {},
					"object": "6080604052348015600e575f5ffd5b50335f5f6101000a81548173ffffffffffffffffffffffffffffffffffffffff021916908373ffffffffffffffffffffffffffffffffffffffff1602179055504260018190555043600281905550610a21806100695f395ff3fe608060405260043610610134575f3560e01c80637a40624b116100aa578063a38aa2911161006e578063a38aa291146103cc578063a3ec191a146103f6578063b8077e2814610420578063c8e7ca2e1461044a578063d0e30db014610475578063fd778dd91461047f57610134565b80637a40624b146103065780637a6ce2e1146103305780638395f7a41461035a5780638da5cb5b14610384578063a17042cc146103ae57610134565b80635a8f6d71116100fc5780635a8f6d711461020a5780635bc749e41461023457806361c68e861461025e5780636c9230db146102885780636f9fb98a146102b25780636fd902e1146102dc57610134565b806306994240146101385780632cc8377d146101625780632df8e9491461018c57806332a2c5d0146101b65780633408e470146101e0575b5f5ffd5b348015610143575f5ffd5b5061014c6104a9565b60405161015991906106d8565b60405180910390f35b34801561016d575f5ffd5b506101766104bd565b60405161018391906106d8565b60405180910390f35b348015610197575f5ffd5b506101a06104c4565b6040516101ad9190610730565b60405180910390f35b3480156101c1575f5ffd5b506101ca6104cb565b6040516101d79190610730565b60405180910390f35b3480156101eb575f5ffd5b506101f46104d2565b60405161020191906106d8565b60405180910390f35b348015610215575f5ffd5b5061021e6104d9565b60405161022b9190610783565b60405180910390f35b34801561023f575f5ffd5b50610248610503565b604051610255919061080c565b60405180910390f35b348015610269575f5ffd5b506102726105ce565b60405161027f91906106d8565b60405180910390f35b348015610293575f5ffd5b5061029c6105e2565b6040516102a991906106d8565b60405180910390f35b3480156102bd575f5ffd5b506102c66105e9565b6040516102d391906106d8565b60405180910390f35b3480156102e7575f5ffd5b506102f06105f0565b6040516102fd91906106d8565b60405180910390f35b348015610311575f5ffd5b5061031a6105f7565b60405161032791906106d8565b60405180910390f35b34801561033b575f5ffd5b506103446105fd565b6040516103519190610730565b60405180910390f35b348015610365575f5ffd5b5061036e610604565b60405161037b9190610844565b60405180910390f35b34801561038f575f5ffd5b50610398610618565b6040516103a59190610730565b60405180910390f35b6103b661063c565b6040516103c391906106d8565b60405180910390f35b3480156103d7575f5ffd5b506103e0610643565b6040516103ed91906106d8565b60405180910390f35b348015610401575f5ffd5b5061040a61064a565b60405161041791906106d8565b60405180910390f35b34801561042b575f5ffd5b50610434610650565b6040516104419190610730565b60405180910390f35b348015610455575f5ffd5b5061045e610657565b60405161046c9291906108a7565b60405180910390f35b61047d610663565b005b34801561048a575f5ffd5b506104936106b5565b6040516104a091906108e3565b60405180910390f35b5f600254436104b89190610929565b905090565b5f45905090565b5f41905090565b5f30905090565b5f46905090565b5f5f357fffffffff0000000000000000000000000000000000000000000000000000000016905090565b60605f5f9054906101000a900473ffffffffffffffffffffffffffffffffffffffff1673ffffffffffffffffffffffffffffffffffffffff163373ffffffffffffffffffffffffffffffffffffffff1614610593576040517f08c379a000000000000000000000000000000000000000000000000000000000815260040161058a906109a6565b60405180910390fd5b6040518060400160405280601281526020017f416e6461206164616c6168206f776e6572210000000000000000000000000000815250905090565b5f600154426105dd9190610929565b905090565b5f42905090565b5f47905090565b5f43905090565b60015481565b5f33905090565b5f6001436106129190610929565b40905090565b5f5f9054906101000a900473ffffffffffffffffffffffffffffffffffffffff1681565b5f34905090565b5f3a905090565b60025481565b5f32905090565b365f5f36915091509091565b3373ffffffffffffffffffffffffffffffffffffffff167f74cf3d18d0ddca79038197ad0dd2c7fa5005ef61a5d1ed190e8a8a437e2fcf1034426040516106ab9291906109c4565b60405180910390a2565b5f61138b4614905090565b5f819050919050565b6106d2816106c0565b82525050565b5f6020820190506106eb5f8301846106c9565b92915050565b5f73ffffffffffffffffffffffffffffffffffffffff82169050919050565b5f61071a826106f1565b9050919050565b61072a81610710565b82525050565b5f6020820190506107435f830184610721565b92915050565b5f7fffffffff0000000000000000000000000000000000000000000000000000000082169050919050565b61077d81610749565b82525050565b5f6020820190506107965f830184610774565b92915050565b5f81519050919050565b5f82825260208201905092915050565b8281835e5f83830152505050565b5f601f19601f8301169050919050565b5f6107de8261079c565b6107e881856107a6565b93506107f88185602086016107b6565b610801816107c4565b840191505092915050565b5f6020820190508181035f83015261082481846107d4565b905092915050565b5f819050919050565b61083e8161082c565b82525050565b5f6020820190506108575f830184610835565b92915050565b5f82825260208201905092915050565b828183375f83830152505050565b5f610886838561085d565b935061089383858461086d565b61089c836107c4565b840190509392505050565b5f6020820190508181035f8301526108c081848661087b565b90509392505050565b5f8115159050919050565b6108dd816108c9565b82525050565b5f6020820190506108f65f8301846108d4565b92915050565b7f4e487b71000000000000000000000000000000000000000000000000000000005f52601160045260245ffd5b5f610933826106c0565b915061093e836106c0565b9250828203905081811115610956576109556108fc565b5b92915050565b7f42756b616e206f776e65722100000000000000000000000000000000000000005f82015250565b5f610990600c836107a6565b915061099b8261095c565b602082019050919050565b5f6020820190508181035f8301526109bd81610984565b9050919050565b5f6040820190506109d75f8301856106c9565b6109e460208301846106c9565b939250505056fea2646970667358221220b5971f192dfbb8f15915ce8a70e30ea5339a38f6c451408a2e7f99926fd26bf164736f6c634300081f0033",
					"opcodes": "PUSH1 0x80 PUSH1 0x40 MSTORE CALLVALUE DUP1 ISZERO PUSH1 0xE JUMPI PUSH0 PUSH0 REVERT JUMPDEST POP CALLER PUSH0 PUSH0 PUSH2 0x100 EXP DUP2 SLOAD DUP2 PUSH20 0xFFFFFFFFFFFFFFFFFFFFFFFFFFFFFFFFFFFFFFFF MUL NOT AND SWAP1 DUP4 PUSH20 0xFFFFFFFFFFFFFFFFFFFFFFFFFFFFFFFFFFFFFFFF AND MUL OR SWAP1 SSTORE POP TIMESTAMP PUSH1 0x1 DUP2 SWAP1 SSTORE POP NUMBER PUSH1 0x2 DUP2 SWAP1 SSTORE POP PUSH2 0xA21 DUP1 PUSH2 0x69 PUSH0 CODECOPY PUSH0 RETURN INVALID PUSH1 0x80 PUSH1 0x40 MSTORE PUSH1 0x4 CALLDATASIZE LT PUSH2 0x134 JUMPI PUSH0 CALLDATALOAD PUSH1 0xE0 SHR DUP1 PUSH4 0x7A40624B GT PUSH2 0xAA JUMPI DUP1 PUSH4 0xA38AA291 GT PUSH2 0x6E JUMPI DUP1 PUSH4 0xA38AA291 EQ PUSH2 0x3CC JUMPI DUP1 PUSH4 0xA3EC191A EQ PUSH2 0x3F6 JUMPI DUP1 PUSH4 0xB8077E28 EQ PUSH2 0x420 JUMPI DUP1 PUSH4 0xC8E7CA2E EQ PUSH2 0x44A JUMPI DUP1 PUSH4 0xD0E30DB0 EQ PUSH2 0x475 JUMPI DUP1 PUSH4 0xFD778DD9 EQ PUSH2 0x47F JUMPI PUSH2 0x134 JUMP JUMPDEST DUP1 PUSH4 0x7A40624B EQ PUSH2 0x306 JUMPI DUP1 PUSH4 0x7A6CE2E1 EQ PUSH2 0x330 JUMPI DUP1 PUSH4 0x8395F7A4 EQ PUSH2 0x35A JUMPI DUP1 PUSH4 0x8DA5CB5B EQ PUSH2 0x384 JUMPI DUP1 PUSH4 0xA17042CC EQ PUSH2 0x3AE JUMPI PUSH2 0x134 JUMP JUMPDEST DUP1 PUSH4 0x5A8F6D71 GT PUSH2 0xFC JUMPI DUP1 PUSH4 0x5A8F6D71 EQ PUSH2 0x20A JUMPI DUP1 PUSH4 0x5BC749E4 EQ PUSH2 0x234 JUMPI DUP1 PUSH4 0x61C68E86 EQ PUSH2 0x25E JUMPI DUP1 PUSH4 0x6C9230DB EQ PUSH2 0x288 JUMPI DUP1 PUSH4 0x6F9FB98A EQ PUSH2 0x2B2 JUMPI DUP1 PUSH4 0x6FD902E1 EQ PUSH2 0x2DC JUMPI PUSH2 0x134 JUMP JUMPDEST DUP1 PUSH4 0x6994240 EQ PUSH2 0x138 JUMPI DUP1 PUSH4 0x2CC8377D EQ PUSH2 0x162 JUMPI DUP1 PUSH4 0x2DF8E949 EQ PUSH2 0x18C JUMPI DUP1 PUSH4 0x32A2C5D0 EQ PUSH2 0x1B6 JUMPI DUP1 PUSH4 0x3408E470 EQ PUSH2 0x1E0 JUMPI JUMPDEST PUSH0 PUSH0 REVERT JUMPDEST CALLVALUE DUP1 ISZERO PUSH2 0x143 JUMPI PUSH0 PUSH0 REVERT JUMPDEST POP PUSH2 0x14C PUSH2 0x4A9 JUMP JUMPDEST PUSH1 0x40 MLOAD PUSH2 0x159 SWAP2 SWAP1 PUSH2 0x6D8 JUMP JUMPDEST PUSH1 0x40 MLOAD DUP1 SWAP2 SUB SWAP1 RETURN JUMPDEST CALLVALUE DUP1 ISZERO PUSH2 0x16D JUMPI PUSH0 PUSH0 REVERT JUMPDEST POP PUSH2 0x176 PUSH2 0x4BD JUMP JUMPDEST PUSH1 0x40 MLOAD PUSH2 0x183 SWAP2 SWAP1 PUSH2 0x6D8 JUMP JUMPDEST PUSH1 0x40 MLOAD DUP1 SWAP2 SUB SWAP1 RETURN JUMPDEST CALLVALUE DUP1 ISZERO PUSH2 0x197 JUMPI PUSH0 PUSH0 REVERT JUMPDEST POP PUSH2 0x1A0 PUSH2 0x4C4 JUMP JUMPDEST PUSH1 0x40 MLOAD PUSH2 0x1AD SWAP2 SWAP1 PUSH2 0x730 JUMP JUMPDEST PUSH1 0x40 MLOAD DUP1 SWAP2 SUB SWAP1 RETURN JUMPDEST CALLVALUE DUP1 ISZERO PUSH2 0x1C1 JUMPI PUSH0 PUSH0 REVERT JUMPDEST POP PUSH2 0x1CA PUSH2 0x4CB JUMP JUMPDEST PUSH1 0x40 MLOAD PUSH2 0x1D7 SWAP2 SWAP1 PUSH2 0x730 JUMP JUMPDEST PUSH1 0x40 MLOAD DUP1 SWAP2 SUB SWAP1 RETURN JUMPDEST CALLVALUE DUP1 ISZERO PUSH2 0x1EB JUMPI PUSH0 PUSH0 REVERT JUMPDEST POP PUSH2 0x1F4 PUSH2 0x4D2 JUMP JUMPDEST PUSH1 0x40 MLOAD PUSH2 0x201 SWAP2 SWAP1 PUSH2 0x6D8 JUMP JUMPDEST PUSH1 0x40 MLOAD DUP1 SWAP2 SUB SWAP1 RETURN JUMPDEST CALLVALUE DUP1 ISZERO PUSH2 0x215 JUMPI PUSH0 PUSH0 REVERT JUMPDEST POP PUSH2 0x21E PUSH2 0x4D9 JUMP JUMPDEST PUSH1 0x40 MLOAD PUSH2 0x22B SWAP2 SWAP1 PUSH2 0x783 JUMP JUMPDEST PUSH1 0x40 MLOAD DUP1 SWAP2 SUB SWAP1 RETURN JUMPDEST CALLVALUE DUP1 ISZERO PUSH2 0x23F JUMPI PUSH0 PUSH0 REVERT JUMPDEST POP PUSH2 0x248 PUSH2 0x503 JUMP JUMPDEST PUSH1 0x40 MLOAD PUSH2 0x255 SWAP2 SWAP1 PUSH2 0x80C JUMP JUMPDEST PUSH1 0x40 MLOAD DUP1 SWAP2 SUB SWAP1 RETURN JUMPDEST CALLVALUE DUP1 ISZERO PUSH2 0x269 JUMPI PUSH0 PUSH0 REVERT JUMPDEST POP PUSH2 0x272 PUSH2 0x5CE JUMP JUMPDEST PUSH1 0x40 MLOAD PUSH2 0x27F SWAP2 SWAP1 PUSH2 0x6D8 JUMP JUMPDEST PUSH1 0x40 MLOAD DUP1 SWAP2 SUB SWAP1 RETURN JUMPDEST CALLVALUE DUP1 ISZERO PUSH2 0x293 JUMPI PUSH0 PUSH0 REVERT JUMPDEST POP PUSH2 0x29C PUSH2 0x5E2 JUMP JUMPDEST PUSH1 0x40 MLOAD PUSH2 0x2A9 SWAP2 SWAP1 PUSH2 0x6D8 JUMP JUMPDEST PUSH1 0x40 MLOAD DUP1 SWAP2 SUB SWAP1 RETURN JUMPDEST CALLVALUE DUP1 ISZERO PUSH2 0x2BD JUMPI PUSH0 PUSH0 REVERT JUMPDEST POP PUSH2 0x2C6 PUSH2 0x5E9 JUMP JUMPDEST PUSH1 0x40 MLOAD PUSH2 0x2D3 SWAP2 SWAP1 PUSH2 0x6D8 JUMP JUMPDEST PUSH1 0x40 MLOAD DUP1 SWAP2 SUB SWAP1 RETURN JUMPDEST CALLVALUE DUP1 ISZERO PUSH2 0x2E7 JUMPI PUSH0 PUSH0 REVERT JUMPDEST POP PUSH2 0x2F0 PUSH2 0x5F0 JUMP JUMPDEST PUSH1 0x40 MLOAD PUSH2 0x2FD SWAP2 SWAP1 PUSH2 0x6D8 JUMP JUMPDEST PUSH1 0x40 MLOAD DUP1 SWAP2 SUB SWAP1 RETURN JUMPDEST CALLVALUE DUP1 ISZERO PUSH2 0x311 JUMPI PUSH0 PUSH0 REVERT JUMPDEST POP PUSH2 0x31A PUSH2 0x5F7 JUMP JUMPDEST PUSH1 0x40 MLOAD PUSH2 0x327 SWAP2 SWAP1 PUSH2 0x6D8 JUMP JUMPDEST PUSH1 0x40 MLOAD DUP1 SWAP2 SUB SWAP1 RETURN JUMPDEST CALLVALUE DUP1 ISZERO PUSH2 0x33B JUMPI PUSH0 PUSH0 REVERT JUMPDEST POP PUSH2 0x344 PUSH2 0x5FD JUMP JUMPDEST PUSH1 0x40 MLOAD PUSH2 0x351 SWAP2 SWAP1 PUSH2 0x730 JUMP JUMPDEST PUSH1 0x40 MLOAD DUP1 SWAP2 SUB SWAP1 RETURN JUMPDEST CALLVALUE DUP1 ISZERO PUSH2 0x365 JUMPI PUSH0 PUSH0 REVERT JUMPDEST POP PUSH2 0x36E PUSH2 0x604 JUMP JUMPDEST PUSH1 0x40 MLOAD PUSH2 0x37B SWAP2 SWAP1 PUSH2 0x844 JUMP JUMPDEST PUSH1 0x40 MLOAD DUP1 SWAP2 SUB SWAP1 RETURN JUMPDEST CALLVALUE DUP1 ISZERO PUSH2 0x38F JUMPI PUSH0 PUSH0 REVERT JUMPDEST POP PUSH2 0x398 PUSH2 0x618 JUMP JUMPDEST PUSH1 0x40 MLOAD PUSH2 0x3A5 SWAP2 SWAP1 PUSH2 0x730 JUMP JUMPDEST PUSH1 0x40 MLOAD DUP1 SWAP2 SUB SWAP1 RETURN JUMPDEST PUSH2 0x3B6 PUSH2 0x63C JUMP JUMPDEST PUSH1 0x40 MLOAD PUSH2 0x3C3 SWAP2 SWAP1 PUSH2 0x6D8 JUMP JUMPDEST PUSH1 0x40 MLOAD DUP1 SWAP2 SUB SWAP1 RETURN JUMPDEST CALLVALUE DUP1 ISZERO PUSH2 0x3D7 JUMPI PUSH0 PUSH0 REVERT JUMPDEST POP PUSH2 0x3E0 PUSH2 0x643 JUMP JUMPDEST PUSH1 0x40 MLOAD PUSH2 0x3ED SWAP2 SWAP1 PUSH2 0x6D8 JUMP JUMPDEST PUSH1 0x40 MLOAD DUP1 SWAP2 SUB SWAP1 RETURN JUMPDEST CALLVALUE DUP1 ISZERO PUSH2 0x401 JUMPI PUSH0 PUSH0 REVERT JUMPDEST POP PUSH2 0x40A PUSH2 0x64A JUMP JUMPDEST PUSH1 0x40 MLOAD PUSH2 0x417 SWAP2 SWAP1 PUSH2 0x6D8 JUMP JUMPDEST PUSH1 0x40 MLOAD DUP1 SWAP2 SUB SWAP1 RETURN JUMPDEST CALLVALUE DUP1 ISZERO PUSH2 0x42B JUMPI PUSH0 PUSH0 REVERT JUMPDEST POP PUSH2 0x434 PUSH2 0x650 JUMP JUMPDEST PUSH1 0x40 MLOAD PUSH2 0x441 SWAP2 SWAP1 PUSH2 0x730 JUMP JUMPDEST PUSH1 0x40 MLOAD DUP1 SWAP2 SUB SWAP1 RETURN JUMPDEST CALLVALUE DUP1 ISZERO PUSH2 0x455 JUMPI PUSH0 PUSH0 REVERT JUMPDEST POP PUSH2 0x45E PUSH2 0x657 JUMP JUMPDEST PUSH1 0x40 MLOAD PUSH2 0x46C SWAP3 SWAP2 SWAP1 PUSH2 0x8A7 JUMP JUMPDEST PUSH1 0x40 MLOAD DUP1 SWAP2 SUB SWAP1 RETURN JUMPDEST PUSH2 0x47D PUSH2 0x663 JUMP JUMPDEST STOP JUMPDEST CALLVALUE DUP1 ISZERO PUSH2 0x48A JUMPI PUSH0 PUSH0 REVERT JUMPDEST POP PUSH2 0x493 PUSH2 0x6B5 JUMP JUMPDEST PUSH1 0x40 MLOAD PUSH2 0x4A0 SWAP2 SWAP1 PUSH2 0x8E3 JUMP JUMPDEST PUSH1 0x40 MLOAD DUP1 SWAP2 SUB SWAP1 RETURN JUMPDEST PUSH0 PUSH1 0x2 SLOAD NUMBER PUSH2 0x4B8 SWAP2 SWAP1 PUSH2 0x929 JUMP JUMPDEST SWAP1 POP SWAP1 JUMP JUMPDEST PUSH0 GASLIMIT SWAP1 POP SWAP1 JUMP JUMPDEST PUSH0 COINBASE SWAP1 POP SWAP1 JUMP JUMPDEST PUSH0 ADDRESS SWAP1 POP SWAP1 JUMP JUMPDEST PUSH0 CHAINID SWAP1 POP SWAP1 JUMP JUMPDEST PUSH0 PUSH0 CALLDATALOAD PUSH32 0xFFFFFFFF00000000000000000000000000000000000000000000000000000000 AND SWAP1 POP SWAP1 JUMP JUMPDEST PUSH1 0x60 PUSH0 PUSH0 SWAP1 SLOAD SWAP1 PUSH2 0x100 EXP SWAP1 DIV PUSH20 0xFFFFFFFFFFFFFFFFFFFFFFFFFFFFFFFFFFFFFFFF AND PUSH20 0xFFFFFFFFFFFFFFFFFFFFFFFFFFFFFFFFFFFFFFFF AND CALLER PUSH20 0xFFFFFFFFFFFFFFFFFFFFFFFFFFFFFFFFFFFFFFFF AND EQ PUSH2 0x593 JUMPI PUSH1 0x40 MLOAD PUSH32 0x8C379A000000000000000000000000000000000000000000000000000000000 DUP2 MSTORE PUSH1 0x4 ADD PUSH2 0x58A SWAP1 PUSH2 0x9A6 JUMP JUMPDEST PUSH1 0x40 MLOAD DUP1 SWAP2 SUB SWAP1 REVERT JUMPDEST PUSH1 0x40 MLOAD DUP1 PUSH1 0x40 ADD PUSH1 0x40 MSTORE DUP1 PUSH1 0x12 DUP2 MSTORE PUSH1 0x20 ADD PUSH32 0x416E6461206164616C6168206F776E6572210000000000000000000000000000 DUP2 MSTORE POP SWAP1 POP SWAP1 JUMP JUMPDEST PUSH0 PUSH1 0x1 SLOAD TIMESTAMP PUSH2 0x5DD SWAP2 SWAP1 PUSH2 0x929 JUMP JUMPDEST SWAP1 POP SWAP1 JUMP JUMPDEST PUSH0 TIMESTAMP SWAP1 POP SWAP1 JUMP JUMPDEST PUSH0 SELFBALANCE SWAP1 POP SWAP1 JUMP JUMPDEST PUSH0 NUMBER SWAP1 POP SWAP1 JUMP JUMPDEST PUSH1 0x1 SLOAD DUP2 JUMP JUMPDEST PUSH0 CALLER SWAP1 POP SWAP1 JUMP JUMPDEST PUSH0 PUSH1 0x1 NUMBER PUSH2 0x612 SWAP2 SWAP1 PUSH2 0x929 JUMP JUMPDEST BLOCKHASH SWAP1 POP SWAP1 JUMP JUMPDEST PUSH0 PUSH0 SWAP1 SLOAD SWAP1 PUSH2 0x100 EXP SWAP1 DIV PUSH20 0xFFFFFFFFFFFFFFFFFFFFFFFFFFFFFFFFFFFFFFFF AND DUP2 JUMP JUMPDEST PUSH0 CALLVALUE SWAP1 POP SWAP1 JUMP JUMPDEST PUSH0 GASPRICE SWAP1 POP SWAP1 JUMP JUMPDEST PUSH1 0x2 SLOAD DUP2 JUMP JUMPDEST PUSH0 ORIGIN SWAP1 POP SWAP1 JUMP JUMPDEST CALLDATASIZE PUSH0 PUSH0 CALLDATASIZE SWAP2 POP SWAP2 POP SWAP1 SWAP2 JUMP JUMPDEST CALLER PUSH20 0xFFFFFFFFFFFFFFFFFFFFFFFFFFFFFFFFFFFFFFFF AND PUSH32 0x74CF3D18D0DDCA79038197AD0DD2C7FA5005EF61A5D1ED190E8A8A437E2FCF10 CALLVALUE TIMESTAMP PUSH1 0x40 MLOAD PUSH2 0x6AB SWAP3 SWAP2 SWAP1 PUSH2 0x9C4 JUMP JUMPDEST PUSH1 0x40 MLOAD DUP1 SWAP2 SUB SWAP1 LOG2 JUMP JUMPDEST PUSH0 PUSH2 0x138B CHAINID EQ SWAP1 POP SWAP1 JUMP JUMPDEST PUSH0 DUP2 SWAP1 POP SWAP2 SWAP1 POP JUMP JUMPDEST PUSH2 0x6D2 DUP2 PUSH2 0x6C0 JUMP JUMPDEST DUP3 MSTORE POP POP JUMP JUMPDEST PUSH0 PUSH1 0x20 DUP3 ADD SWAP1 POP PUSH2 0x6EB PUSH0 DUP4 ADD DUP5 PUSH2 0x6C9 JUMP JUMPDEST SWAP3 SWAP2 POP POP JUMP JUMPDEST PUSH0 PUSH20 0xFFFFFFFFFFFFFFFFFFFFFFFFFFFFFFFFFFFFFFFF DUP3 AND SWAP1 POP SWAP2 SWAP1 POP JUMP JUMPDEST PUSH0 PUSH2 0x71A DUP3 PUSH2 0x6F1 JUMP JUMPDEST SWAP1 POP SWAP2 SWAP1 POP JUMP JUMPDEST PUSH2 0x72A DUP2 PUSH2 0x710 JUMP JUMPDEST DUP3 MSTORE POP POP JUMP JUMPDEST PUSH0 PUSH1 0x20 DUP3 ADD SWAP1 POP PUSH2 0x743 PUSH0 DUP4 ADD DUP5 PUSH2 0x721 JUMP JUMPDEST SWAP3 SWAP2 POP POP JUMP JUMPDEST PUSH0 PUSH32 0xFFFFFFFF00000000000000000000000000000000000000000000000000000000 DUP3 AND SWAP1 POP SWAP2 SWAP1 POP JUMP JUMPDEST PUSH2 0x77D DUP2 PUSH2 0x749 JUMP JUMPDEST DUP3 MSTORE POP POP JUMP JUMPDEST PUSH0 PUSH1 0x20 DUP3 ADD SWAP1 POP PUSH2 0x796 PUSH0 DUP4 ADD DUP5 PUSH2 0x774 JUMP JUMPDEST SWAP3 SWAP2 POP POP JUMP JUMPDEST PUSH0 DUP2 MLOAD SWAP1 POP SWAP2 SWAP1 POP JUMP JUMPDEST PUSH0 DUP3 DUP3 MSTORE PUSH1 0x20 DUP3 ADD SWAP1 POP SWAP3 SWAP2 POP POP JUMP JUMPDEST DUP3 DUP2 DUP4 MCOPY PUSH0 DUP4 DUP4 ADD MSTORE POP POP POP JUMP JUMPDEST PUSH0 PUSH1 0x1F NOT PUSH1 0x1F DUP4 ADD AND SWAP1 POP SWAP2 SWAP1 POP JUMP JUMPDEST PUSH0 PUSH2 0x7DE DUP3 PUSH2 0x79C JUMP JUMPDEST PUSH2 0x7E8 DUP2 DUP6 PUSH2 0x7A6 JUMP JUMPDEST SWAP4 POP PUSH2 0x7F8 DUP2 DUP6 PUSH1 0x20 DUP7 ADD PUSH2 0x7B6 JUMP JUMPDEST PUSH2 0x801 DUP2 PUSH2 0x7C4 JUMP JUMPDEST DUP5 ADD SWAP2 POP POP SWAP3 SWAP2 POP POP JUMP JUMPDEST PUSH0 PUSH1 0x20 DUP3 ADD SWAP1 POP DUP2 DUP2 SUB PUSH0 DUP4 ADD MSTORE PUSH2 0x824 DUP2 DUP5 PUSH2 0x7D4 JUMP JUMPDEST SWAP1 POP SWAP3 SWAP2 POP POP JUMP JUMPDEST PUSH0 DUP2 SWAP1 POP SWAP2 SWAP1 POP JUMP JUMPDEST PUSH2 0x83E DUP2 PUSH2 0x82C JUMP JUMPDEST DUP3 MSTORE POP POP JUMP JUMPDEST PUSH0 PUSH1 0x20 DUP3 ADD SWAP1 POP PUSH2 0x857 PUSH0 DUP4 ADD DUP5 PUSH2 0x835 JUMP JUMPDEST SWAP3 SWAP2 POP POP JUMP JUMPDEST PUSH0 DUP3 DUP3 MSTORE PUSH1 0x20 DUP3 ADD SWAP1 POP SWAP3 SWAP2 POP POP JUMP JUMPDEST DUP3 DUP2 DUP4 CALLDATACOPY PUSH0 DUP4 DUP4 ADD MSTORE POP POP POP JUMP JUMPDEST PUSH0 PUSH2 0x886 DUP4 DUP6 PUSH2 0x85D JUMP JUMPDEST SWAP4 POP PUSH2 0x893 DUP4 DUP6 DUP5 PUSH2 0x86D JUMP JUMPDEST PUSH2 0x89C DUP4 PUSH2 0x7C4 JUMP JUMPDEST DUP5 ADD SWAP1 POP SWAP4 SWAP3 POP POP POP JUMP JUMPDEST PUSH0 PUSH1 0x20 DUP3 ADD SWAP1 POP DUP2 DUP2 SUB PUSH0 DUP4 ADD MSTORE PUSH2 0x8C0 DUP2 DUP5 DUP7 PUSH2 0x87B JUMP JUMPDEST SWAP1 POP SWAP4 SWAP3 POP POP POP JUMP JUMPDEST PUSH0 DUP2 ISZERO ISZERO SWAP1 POP SWAP2 SWAP1 POP JUMP JUMPDEST PUSH2 0x8DD DUP2 PUSH2 0x8C9 JUMP JUMPDEST DUP3 MSTORE POP POP JUMP JUMPDEST PUSH0 PUSH1 0x20 DUP3 ADD SWAP1 POP PUSH2 0x8F6 PUSH0 DUP4 ADD DUP5 PUSH2 0x8D4 JUMP JUMPDEST SWAP3 SWAP2 POP POP JUMP JUMPDEST PUSH32 0x4E487B7100000000000000000000000000000000000000000000000000000000 PUSH0 MSTORE PUSH1 0x11 PUSH1 0x4 MSTORE PUSH1 0x24 PUSH0 REVERT JUMPDEST PUSH0 PUSH2 0x933 DUP3 PUSH2 0x6C0 JUMP JUMPDEST SWAP2 POP PUSH2 0x93E DUP4 PUSH2 0x6C0 JUMP JUMPDEST SWAP3 POP DUP3 DUP3 SUB SWAP1 POP DUP2 DUP2 GT ISZERO PUSH2 0x956 JUMPI PUSH2 0x955 PUSH2 0x8FC JUMP JUMPDEST JUMPDEST SWAP3 SWAP2 POP POP JUMP JUMPDEST PUSH32 0x42756B616E206F776E6572210000000000000000000000000000000000000000 PUSH0 DUP3 ADD MSTORE POP JUMP JUMPDEST PUSH0 PUSH2 0x990 PUSH1 0xC DUP4 PUSH2 0x7A6 JUMP JUMPDEST SWAP2 POP PUSH2 0x99B DUP3 PUSH2 0x95C JUMP JUMPDEST PUSH1 0x20 DUP3 ADD SWAP1 POP SWAP2 SWAP1 POP JUMP JUMPDEST PUSH0 PUSH1 0x20 DUP3 ADD SWAP1 POP DUP2 DUP2 SUB PUSH0 DUP4 ADD MSTORE PUSH2 0x9BD DUP2 PUSH2 0x984 JUMP JUMPDEST SWAP1 POP SWAP2 SWAP1 POP JUMP JUMPDEST PUSH0 PUSH1 0x40 DUP3 ADD SWAP1 POP PUSH2 0x9D7 PUSH0 DUP4 ADD DUP6 PUSH2 0x6C9 JUMP JUMPDEST PUSH2 0x9E4 PUSH1 0x20 DUP4 ADD DUP5 PUSH2 0x6C9 JUMP JUMPDEST SWAP4 SWAP3 POP POP POP JUMP INVALID LOG2 PUSH5 0x6970667358 0x22 SLT KECCAK256 0xB5 SWAP8 0x1F NOT 0x2D EXTSTATICCALL 0xB8 CALL MSIZE ISZERO 0xCE DUP11 PUSH17 0xE30EA5339A38F6C451408A2E7F99926FD2 PUSH12 0xF164736F6C634300081F0033 "
				},
				"gasEstimates": {
					"creation": {
						"codeDepositCost": "518600",
						"executionCost": "69044",
						"totalCost": "587644"
					},
					"external": {
						"deployBlock()": "2469",
						"deployTime()": "2448",
						"deposit()": "infinite",
						"getBlockCoinbase()": "447",
						"getBlockGasLimit()": "377",
						"getBlocksSinceDeploy()": "infinite",
						"getChainId()": "443",
						"getContractAddress()": "469",
						"getContractAge()": "infinite",
						"getContractBalance()": "445",
						"getCurrentBlockNumber()": "464",
						"getCurrentTimestamp()": "420",
						"getMsgData()": "infinite",
						"getMsgSender()": "424",
						"getMsgSig()": "369",
						"getMsgValue()": "418",
						"getPreviousBlockHash()": "infinite",
						"getTxGasPrice()": "353",
						"getTxOrigin()": "445",
						"onlyOwnerCanCall()": "infinite",
						"owner()": "2596",
						"validateChain()": "475"
					}
				},
				"methodIdentifiers": {
					"deployBlock()": "a3ec191a",
					"deployTime()": "7a40624b",
					"deposit()": "d0e30db0",
					"getBlockCoinbase()": "2df8e949",
					"getBlockGasLimit()": "2cc8377d",
					"getBlocksSinceDeploy()": "06994240",
					"getChainId()": "3408e470",
					"getContractAddress()": "32a2c5d0",
					"getContractAge()": "61c68e86",
					"getContractBalance()": "6f9fb98a",
					"getCurrentBlockNumber()": "6fd902e1",
					"getCurrentTimestamp()": "6c9230db",
					"getMsgData()": "c8e7ca2e",
					"getMsgSender()": "7a6ce2e1",
					"getMsgSig()": "5a8f6d71",
					"getMsgValue()": "a17042cc",
					"getPreviousBlockHash()": "8395f7a4",
					"getTxGasPrice()": "a38aa291",
					"getTxOrigin()": "b8077e28",
					"onlyOwnerCanCall()": "5bc749e4",
					"owner()": "8da5cb5b",
					"validateChain()": "fd778dd9"
				}
			},
			"storageLayout": {
				"storage": [
					{
						"astId": 138,
						"contract": "contracts/LearnGlobalVariables.sol:LearnGlobalVariables",
						"label": "owner",
						"offset": 0,
						"slot": "0",
						"type": "t_address"
					},
					{
						"astId": 140,
						"contract": "contracts/LearnGlobalVariables.sol:LearnGlobalVariables",
						"label": "deployTime",
						"offset": 0,
						"slot": "1",
						"type": "t_uint256"
					},
					{
						"astId": 142,
						"contract": "contracts/LearnGlobalVariables.sol:LearnGlobalVariables",
						"label": "deployBlock",
						"offset": 0,
						"slot": "2",
						"type": "t_uint256"
					}
				],
				"types": {
					"t_address": {
						"encoding": "inplace",
						"label": "address",
						"numberOfBytes": "20"
					},
					"t_uint256": {
						"encoding": "inplace",
						"label": "uint256",
						"numberOfBytes": "32"
					}
				}
			},
			"userdoc": {
				"kind": "user",
				"methods": {},
				"version": 1
			}
		}
	}
}