{
	"data": {
		"bytecode": {
			"linkReferences": {},
			"object": "6080604052348015600e575f5ffd5b50335f5f6101000a81548173ffffffffffffffffffffffffffffffffffffffff021916908373ffffffffffffffffffffffffffffffffffffffff1602179055504260018190555043600281905550610a21806100695f395ff3fe608060405260043610610134575f3560e01c80637a40624b116100aa578063a38aa2911161006e578063a38aa291146103cc578063a3ec191a146103f6578063b8077e2814610420578063c8e7ca2e1461044a578063d0e30db014610475578063fd778dd91461047f57610134565b80637a40624b146103065780637a6ce2e1146103305780638395f7a41461035a5780638da5cb5b14610384578063a17042cc146103ae57610134565b80635a8f6d71116100fc5780635a8f6d711461020a5780635bc749e41461023457806361c68e861461025e5780636c9230db146102885780636f9fb98a146102b25780636fd902e1146102dc57610134565b806306994240146101385780632cc8377d146101625780632df8e9491461018c57806332a2c5d0146101b65780633408e470146101e0575b5f5ffd5b348015610143575f5ffd5b5061014c6104a9565b60405161015991906106d8565b60405180910390f35b34801561016d575f5ffd5b506101766104bd565b60405161018391906106d8565b60405180910390f35b348015610197575f5ffd5b506101a06104c4565b6040516101ad9190610730565b60405180910390f35b3480156101c1575f5ffd5b506101ca6104cb565b6040516101d79190610730565b60405180910390f35b3480156101eb575f5ffd5b506101f46104d2565b60405161020191906106d8565b60405180910390f35b348015610215575f5ffd5b5061021e6104d9565b60405161022b9190610783565b60405180910390f35b34801561023f575f5ffd5b50610248610503565b604051610255919061080c565b60405180910390f35b348015610269575f5ffd5b506102726105ce565b60405161027f91906106d8565b60405180910390f35b348015610293575f5ffd5b5061029c6105e2565b6040516102a991906106d8565b60405180910390f35b3480156102bd575f5ffd5b506102c66105e9565b6040516102d391906106d8565b60405180910390f35b3480156102e7575f5ffd5b506102f06105f0565b6040516102fd91906106d8565b60405180910390f35b348015610311575f5ffd5b5061031a6105f7565b60405161032791906106d8565b60405180910390f35b34801561033b575f5ffd5b506103446105fd565b6040516103519190610730565b60405180910390f35b348015610365575f5ffd5b5061036e610604565b60405161037b9190610844565b60405180910390f35b34801561038f575f5ffd5b50610398610618565b6040516103a59190610730565b60405180910390f35b6103b661063c565b6040516103c391906106d8565b60405180910390f35b3480156103d7575f5ffd5b506103e0610643565b6040516103ed91906106d8565b60405180910390f35b348015610401575f5ffd5b5061040a61064a565b60405161041791906106d8565b60405180910390f35b34801561042b575f5ffd5b50610434610650565b6040516104419190610730565b60405180910390f35b348015610455575f5ffd5b5061045e610657565b60405161046c9291906108a7565b60405180910390f35b61047d610663565b005b34801561048a575f5ffd5b506104936106b5565b6040516104a091906108e3565b60405180910390f35b5f600254436104b89190610929565b905090565b5f45905090565b5f41905090565b5f30905090565b5f46905090565b5f5f357fffffffff0000000000000000000000000000000000000000000000000000000016905090565b60605f5f9054906101000a900473ffffffffffffffffffffffffffffffffffffffff1673ffffffffffffffffffffffffffffffffffffffff163373ffffffffffffffffffffffffffffffffffffffff1614610593576040517f08c379a000000000000000000000000000000000000000000000000000000000815260040161058a906109a6565b60405180910390fd5b6040518060400160405280601281526020017f416e6461206164616c6168206f776e6572210000000000000000000000000000815250905090565b5f600154426105dd9190610929565b905090565b5f42905090565b5f47905090565b5f43905090565b60015481565b5f33905090565b5f6001436106129190610929565b40905090565b5f5f9054906101000a900473ffffffffffffffffffffffffffffffffffffffff1681565b5f34905090565b5f3a905090565b60025481565b5f32905090565b365f5f36915091509091565b3373ffffffffffffffffffffffffffffffffffffffff167f74cf3d18d0ddca79038197ad0dd2c7fa5005ef61a5d1ed190e8a8a437e2fcf1034426040516106ab9291906109c4565b60405180910390a2565b5f61138b4614905090565b5f819050919050565b6106d2816106c0565b82525050565b5f6020820190506106eb5f8301846106c9565b92915050565b5f73ffffffffffffffffffffffffffffffffffffffff82169050919050565b5f61071a826106f1565b9050919050565b61072a81610710565b82525050565b5f6020820190506107435f830184610721565b92915050565b5f7fffffffff0000000000000000000000000000000000000000000000000000000082169050919050565b61077d81610749565b82525050565b5f6020820190506107965f830184610774565b92915050565b5f81519050919050565b5f82825260208201905092915050565b8281835e5f83830152505050565b5f601f19601f8301169050919050565b5f6107de8261079c565b6107e881856107a6565b93506107f88185602086016107b6565b610801816107c4565b840191505092915050565b5f6020820190508181035f83015261082481846107d4565b905092915050565b5f819050919050565b61083e8161082c565b82525050565b5f6020820190506108575f830184610835565b92915050565b5f82825260208201905092915050565b828183375f83830152505050565b5f610886838561085d565b935061089383858461086d565b61089c836107c4565b840190509392505050565b5f6020820190508181035f8301526108c081848661087b565b90509392505050565b5f8115159050919050565b6108dd816108c9565b82525050565b5f6020820190506108f65f8301846108d4565b92915050565b7f4e487b71000000000000000000000000000000000000000000000000000000005f52601160045260245ffd5b5f610933826106c0565b915061093e836106c0565b9250828203905081811115610956576109556108fc565b5b92915050565b7f42756b616e206f776e65722100000000000000000000000000000000000000005f82015250565b5f610990600c836107a6565b915061099b8261095c565b602082019050919050565b5f6020820190508181035f8301526109bd81610984565b9050919050565b5f6040820190506109d75f8301856106c9565b6109e460208301846106c9565b939250505056fea2646970667358221220b5971f192dfbb8f15915ce8a70e30ea5339a38f6c451408a2e7f99926fd26bf164736f6c634300081f0033",
			"opcodes": "PUSH1 0x80 PUSH1 0x40 MSTORE CALLVALUE DUP1 ISZERO PUSH1 0xE JUMPI PUSH0 PUSH0 REVERT JUMPDEST POP CALLER PUSH0 PUSH0 PUSH2 0x100 EXP DUP2 SLOAD DUP2 PUSH20 0xFFFFFFFFFFFFFFFFFFFFFFFFFFFFFFFFFFFFFFFF MUL NOT AND SWAP1 DUP4 PUSH20 0xFFFFFFFFFFFFFFFFFFFFFFFFFFFFFFFFFFFFFFFF AND MUL OR SWAP1 SSTORE POP TIMESTAMP PUSH1 0x1 DUP2 SWAP1 SSTORE POP NUMBER PUSH1 0x2 DUP2 SWAP1 SSTORE POP PUSH2 0xA21 DUP1 PUSH2 0x69 PUSH0 CODECOPY PUSH0 RETURN INVALID PUSH1 0x80 PUSH1 0x40 MSTORE PUSH1 0x4 CALLDATASIZE LT PUSH2 0x134 JUMPI PUSH0 CALLDATALOAD PUSH1 0xE0 SHR DUP1 PUSH4 0x7A40624B GT PUSH2 0xAA JUMPI DUP1 PUSH4 0xA38AA291 GT PUSH2 0x6E JUMPI DUP1 PUSH4 0xA38AA291 EQ PUSH2 0x3CC JUMPI DUP1 PUSH4 0xA3EC191A EQ PUSH2 0x3F6 JUMPI DUP1 PUSH4 0xB8077E28 EQ PUSH2 0x420 JUMPI DUP1 PUSH4 0xC8E7CA2E EQ PUSH2 0x44A JUMPI DUP1 PUSH4 0xD0E30DB0 EQ PUSH2 0x475 JUMPI DUP1 PUSH4 0xFD778DD9 EQ PUSH2 0x47F JUMPI PUSH2 0x134 JUMP JUMPDEST DUP1 PUSH4 0x7A40624B EQ PUSH2 0x306 JUMPI DUP1 PUSH4 0x7A6CE2E1 EQ PUSH2 0x330 JUMPI DUP1 PUSH4 0x8395F7A4 EQ PUSH2 0x35A JUMPI DUP1 PUSH4 0x8DA5CB5B EQ PUSH2 0x384 JUMPI DUP1 PUSH4 0xA17042CC EQ PUSH2 0x3AE JUMPI PUSH2 0x134 JUMP JUMPDEST DUP1 PUSH4 0x5A8F6D71 GT PUSH2 0xFC JUMPI DUP1 PUSH4 0x5A8F6D71 EQ PUSH2 0x20A JUMPI DUP1 PUSH4 0x5BC749E4 EQ PUSH2 0x234 JUMPI DUP1 PUSH4 0x61C68E86 EQ PUSH2 0x25E JUMPI DUP1 PUSH4 0x6C9230DB EQ PUSH2 0x288 JUMPI DUP1 PUSH4 0x6F9FB98A EQ PUSH2 0x2B2 JUMPI DUP1 PUSH4 0x6FD902E1 EQ PUSH2 0x2DC JUMPI PUSH2 0x134 JUMP JUMPDEST DUP1 PUSH4 0x6994240 EQ PUSH2 0x138 JUMPI DUP1 PUSH4 0x2CC8377D EQ PUSH2 0x162 JUMPI DUP1 PUSH4 0x2DF8E949 EQ PUSH2 0x18C JUMPI DUP1 PUSH4 0x32A2C5D0 EQ PUSH2 0x1B6 JUMPI DUP1 PUSH4 0x3408E470 EQ PUSH2 0x1E0 JUMPI JUMPDEST PUSH0 PUSH0 REVERT JUMPDEST CALLVALUE DUP1 ISZERO PUSH2 0x143 JUMPI PUSH0 PUSH0 REVERT JUMPDEST POP PUSH2 0x14C PUSH2 0x4A9 JUMP JUMPDEST PUSH1 0x40 MLOAD PUSH2 0x159 SWAP2 SWAP1 PUSH2 0x6D8 JUMP JUMPDEST PUSH1 0x40 MLOAD DUP1 SWAP2 SUB SWAP1 RETURN JUMPDEST CALLVALUE DUP1 ISZERO PUSH2 0x16D JUMPI PUSH0 PUSH0 REVERT JUMPDEST POP PUSH2 0x176 PUSH2 0x4BD JUMP JUMPDEST PUSH1 0x40 MLOAD PUSH2 0x183 SWAP2 SWAP1 PUSH2 0x6D8 JUMP JUMPDEST PUSH1 0x40 MLOAD DUP1 SWAP2 SUB SWAP1 RETURN JUMPDEST CALLVALUE DUP1 ISZERO PUSH2 0x197 JUMPI PUSH0 PUSH0 REVERT JUMPDEST POP PUSH2 0x1A0 PUSH2 0x4C4 JUMP JUMPDEST PUSH1 0x40 MLOAD PUSH2 0x1AD SWAP2 SWAP1 PUSH2 0x730 JUMP JUMPDEST PUSH1 0x40 MLOAD DUP1 SWAP2 SUB SWAP1 RETURN JUMPDEST CALLVALUE DUP1 ISZERO PUSH2 0x1C1 JUMPI PUSH0 PUSH0 REVERT JUMPDEST POP PUSH2 0x1CA PUSH2 0x4CB JUMP JUMPDEST PUSH1 0x40 MLOAD PUSH2 0x1D7 SWAP2 SWAP1 PUSH2 0x730 JUMP JUMPDEST PUSH1 0x40 MLOAD DUP1 SWAP2 SUB SWAP1 RETURN JUMPDEST CALLVALUE DUP1 ISZERO PUSH2 0x1EB JUMPI PUSH0 PUSH0 REVERT JUMPDEST POP PUSH2 0x1F4 PUSH2 0x4D2 JUMP JUMPDEST PUSH1 0x40 MLOAD PUSH2 0x201 SWAP2 SWAP1 PUSH2 0x6D8 JUMP JUMPDEST PUSH1 0x40 MLOAD DUP1 SWAP2 SUB SWAP1 RETURN JUMPDEST CALLVALUE DUP1 ISZERO PUSH2 0x215 JUMPI PUSH0 PUSH0 REVERT JUMPDEST POP PUSH2 0x21E PUSH2 0x4D9 JUMP JUMPDEST PUSH1 0x40 MLOAD PUSH2 0x22B SWAP2 SWAP1 PUSH2 0x783 JUMP JUMPDEST PUSH1 0x40 MLOAD DUP1 SWAP2 SUB SWAP1 RETURN JUMPDEST CALLVALUE DUP1 ISZERO PUSH2 0x23F JUMPI PUSH0 PUSH0 REVERT JUMPDEST POP PUSH2 0x248 PUSH2 0x503 JUMP JUMPDEST PUSH1 0x40 MLOAD PUSH2 0x255 SWAP2 SWAP1 PUSH2 0x80C JUMP JUMPDEST PUSH1 0x40 MLOAD DUP1 SWAP2 SUB SWAP1 RETURN JUMPDEST CALLVALUE DUP1 ISZERO PUSH2 0x269 JUMPI PUSH0 PUSH0 REVERT JUMPDEST POP PUSH2 0x272 PUSH2 0x5CE JUMP JUMPDEST PUSH1 0x40 MLOAD PUSH2 0x27F SWAP2 SWAP1 PUSH2 0x6D8 JUMP JUMPDEST PUSH1 0x40 MLOAD DUP1 SWAP2 SUB SWAP1 RETURN JUMPDEST CALLVALUE DUP1 ISZERO PUSH2 0x293 JUMPI PUSH0 PUSH0 REVERT JUMPDEST POP PUSH2 0x29C PUSH2 0x5E2 JUMP JUMPDEST PUSH1 0x40 MLOAD PUSH2 0x2A9 SWAP2 SWAP1 PUSH2 0x6D8 JUMP JUMPDEST PUSH1 0x40 MLOAD DUP1 SWAP2 SUB SWAP1 RETURN JUMPDEST CALLVALUE DUP1 ISZERO PUSH2 0x2BD JUMPI PUSH0 PUSH0 REVERT JUMPDEST POP PUSH2 0x2C6 PUSH2 0x5E9 JUMP JUMPDEST PUSH1 0x40 MLOAD PUSH2 0x2D3 SWAP2 SWAP1 PUSH2 0x6D8 JUMP JUMPDEST PUSH1 0x40 MLOAD DUP1 SWAP2 SUB SWAP1 RETURN JUMPDEST CALLVALUE DUP1 ISZERO PUSH2 0x2E7 JUMPI PUSH0 PUSH0 REVERT JUMPDEST POP PUSH2 0x2F0 PUSH2 0x5F0 JUMP JUMPDEST PUSH1 0x40 MLOAD PUSH2 0x2FD SWAP2 SWAP1 PUSH2 0x6D8 JUMP JUMPDEST PUSH1 0x40 MLOAD DUP1 SWAP2 SUB SWAP1 RETURN JUMPDEST CALLVALUE DUP1 ISZERO PUSH2 0x311 JUMPI PUSH0 PUSH0 REVERT JUMPDEST POP PUSH2 0x31A PUSH2 0x5F7 JUMP JUMPDEST PUSH1 0x40 MLOAD PUSH2 0x327 SWAP2 SWAP1 PUSH2 0x6D8 JUMP JUMPDEST PUSH1 0x40 MLOAD DUP1 SWAP2 SUB SWAP1 RETURN JUMPDEST CALLVALUE DUP1 ISZERO PUSH2 0x33B JUMPI PUSH0 PUSH0 REVERT JUMPDEST POP PUSH2 0x344 PUSH2 0x5FD JUMP JUMPDEST PUSH1 0x40 MLOAD PUSH2 0x351 SWAP2 SWAP1 PUSH2 0x730 JUMP JUMPDEST PUSH1 0x40 MLOAD DUP1 SWAP2 SUB SWAP1 RETURN JUMPDEST CALLVALUE DUP1 ISZERO PUSH2 0x365 JUMPI PUSH0 PUSH0 REVERT JUMPDEST POP PUSH2 0x36E PUSH2 0x604 JUMP JUMPDEST PUSH1 0x40 MLOAD PUSH2 0x37B SWAP2 SWAP1 PUSH2 0x844 JUMP JUMPDEST PUSH1 0x40 MLOAD DUP1 SWAP2 SUB SWAP1 RETURN JUMPDEST CALLVALUE DUP1 ISZERO PUSH2 0x38F JUMPI PUSH0 PUSH0 REVERT JUMPDEST POP PUSH2 0x398 PUSH2 0x618 JUMP JUMPDEST PUSH1 0x40 MLOAD PUSH2 0x3A5 SWAP2 SWAP1 PUSH2 0x730 JUMP JUMPDEST PUSH1 0x40 MLOAD DUP1 SWAP2 SUB SWAP1 RETURN JUMPDEST PUSH2 0x3B6 PUSH2 0x63C JUMP JUMPDEST PUSH1 0x40 MLOAD PUSH2 0x3C3 SWAP2 SWAP1 PUSH2 0x6D8 JUMP JUMPDEST PUSH1 0x40 MLOAD DUP1 SWAP2 SUB SWAP1 RETURN JUMPDEST CALLVALUE DUP1 ISZERO PUSH2 0x3D7 JUMPI PUSH0 PUSH0 REVERT JUMPDEST POP PUSH2 0x3E0 PUSH2 0x643 JUMP JUMPDEST PUSH1 0x40 MLOAD PUSH2 0x3ED SWAP2 SWAP1 PUSH2 0x6D8 JUMP JUMPDEST PUSH1 0x40 MLOAD DUP1 SWAP2 SUB SWAP1 RETURN JUMPDEST CALLVALUE DUP1 ISZERO PUSH2 0x401 JUMPI PUSH0 PUSH0 REVERT JUMPDEST POP PUSH2 0x40A PUSH2 0x64A JUMP JUMPDEST PUSH1 0x40 MLOAD PUSH2 0x417 SWAP2 SWAP1 PUSH2 0x6D8 JUMP JUMPDEST PUSH1 0x40 MLOAD DUP1 SWAP2 SUB SWAP1 RETURN JUMPDEST CALLVALUE DUP1 ISZERO PUSH2 0x42B JUMPI PUSH0 PUSH0 REVERT JUMPDEST POP PUSH2 0x434 PUSH2 0x650 JUMP JUMPDEST PUSH1 0x40 MLOAD PUSH2 0x441 SWAP2 SWAP1 PUSH2 0x730 JUMP JUMPDEST PUSH1 0x40 MLOAD DUP1 SWAP2 SUB SWAP1 RETURN JUMPDEST CALLVALUE DUP1 ISZERO PUSH2 0x455 JUMPI PUSH0 PUSH0 REVERT JUMPDEST POP PUSH2 0x45E PUSH2 0x657 JUMP JUMPDEST PUSH1 0x40 MLOAD PUSH2 0x46C SWAP3 SWAP2 SWAP1 PUSH2 0x8A7 JUMP JUMPDEST PUSH1 0x40 MLOAD DUP1 SWAP2 SUB SWAP1 RETURN JUMPDEST PUSH2 0x47D PUSH2 0x663 JUMP JUMPDEST STOP JUMPDEST CALLVALUE DUP1 ISZERO PUSH2 0x48A JUMPI PUSH0 PUSH0 REVERT JUMPDEST POP PUSH2 0x493 PUSH2 0x6B5 JUMP JUMPDEST PUSH1 0x40 MLOAD PUSH2 0x4A0 SWAP2 SWAP1 PUSH2 0x8E3 JUMP JUMPDEST PUSH1 0x40 MLOAD DUP1 SWAP2 SUB SWAP1 RETURN JUMPDEST PUSH0 PUSH1 0x2 SLOAD NUMBER PUSH2 0x4B8 SWAP2 SWAP1 PUSH2 0x929 JUMP JUMPDEST SWAP1 POP SWAP1 JUMP JUMPDEST PUSH0 GASLIMIT SWAP1 POP SWAP1 JUMP JUMPDEST PUSH0 COINBASE SWAP1 POP SWAP1 JUMP JUMPDEST PUSH0 ADDRESS SWAP1 POP SWAP1 JUMP JUMPDEST PUSH0 CHAINID SWAP1 POP SWAP1 JUMP JUMPDEST PUSH0 PUSH0 CALLDATALOAD PUSH32 0xFFFFFFFF00000000000000000000000000000000000000000000000000000000 AND SWAP1 POP SWAP1 JUMP JUMPDEST PUSH1 0x60 PUSH0 PUSH0 SWAP1 SLOAD SWAP1 PUSH2 0x100 EXP SWAP1 DIV PUSH20 0xFFFFFFFFFFFFFFFFFFFFFFFFFFFFFFFFFFFFFFFF AND PUSH20 0xFFFFFFFFFFFFFFFFFFFFFFFFFFFFFFFFFFFFFFFF AND CALLER PUSH20 0xFFFFFFFFFFFFFFFFFFFFFFFFFFFFFFFFFFFFFFFF AND EQ PUSH2 0x593 JUMPI PUSH1 0x40 MLOAD PUSH32 0x8C379A000000000000000000000000000000000000000000000000000000000 DUP2 MSTORE PUSH1 0x4 ADD PUSH2 0x58A SWAP1 PUSH2 0x9A6 JUMP JUMPDEST PUSH1 0x40 MLOAD DUP1 SWAP2 SUB SWAP1 REVERT JUMPDEST PUSH1 0x40 MLOAD DUP1 PUSH1 0x40 ADD PUSH1 0x40 MSTORE DUP1 PUSH1 0x12 DUP2 MSTORE PUSH1 0x20 ADD PUSH32 0x416E6461206164616C6168206F776E6572210000000000000000000000000000 DUP2 MSTORE POP SWAP1 POP SWAP1 JUMP JUMPDEST PUSH0 PUSH1 0x1 SLOAD TIMESTAMP PUSH2 0x5DD SWAP2 SWAP1 PUSH2 0x929 JUMP JUMPDEST SWAP1 POP SWAP1 JUMP JUMPDEST PUSH0 TIMESTAMP SWAP1 POP SWAP1 JUMP JUMPDEST PUSH0 SELFBALANCE SWAP1 POP SWAP1 JUMP JUMPDEST PUSH0 NUMBER SWAP1 POP SWAP1 JUMP JUMPDEST PUSH1 0x1 SLOAD DUP2 JUMP JUMPDEST PUSH0 CALLER SWAP1 POP SWAP1 JUMP JUMPDEST PUSH0 PUSH1 0x1 NUMBER PUSH2 0x612 SWAP2 SWAP1 PUSH2 0x929 JUMP JUMPDEST BLOCKHASH SWAP1 POP SWAP1 JUMP JUMPDEST PUSH0 PUSH0 SWAP1 SLOAD SWAP1 PUSH2 0x100 EXP SWAP1 DIV PUSH20 0xFFFFFFFFFFFFFFFFFFFFFFFFFFFFFFFFFFFFFFFF AND DUP2 JUMP JUMPDEST PUSH0 CALLVALUE SWAP1 POP SWAP1 JUMP JUMPDEST PUSH0 GASPRICE SWAP1 POP SWAP1 JUMP JUMPDEST PUSH1 0x2 SLOAD DUP2 JUMP JUMPDEST PUSH0 ORIGIN SWAP1 POP SWAP1 JUMP JUMPDEST CALLDATASIZE PUSH0 PUSH0 CALLDATASIZE SWAP2 POP SWAP2 POP SWAP1 SWAP2 JUMP JUMPDEST CALLER PUSH20 0xFFFFFFFFFFFFFFFFFFFFFFFFFFFFFFFFFFFFFFFF AND PUSH32 0x74CF3D18D0DDCA79038197AD0DD2C7FA5005EF61A5D1ED190E8A8A437E2FCF10 CALLVALUE TIMESTAMP PUSH1 0x40 MLOAD PUSH2 0x6AB SWAP3 SWAP2 SWAP1 PUSH2 0x9C4 JUMP JUMPDEST PUSH1 0x40 MLOAD DUP1 SWAP2 SUB SWAP1 LOG2 JUMP JUMPDEST PUSH0 PUSH2 0x138B CHAINID EQ SWAP1 POP SWAP1 JUMP JUMPDEST PUSH0 DUP2 SWAP1 POP SWAP2 SWAP1 POP JUMP JUMPDEST PUSH2 0x6D2 DUP2 PUSH2 0x6C0 JUMP JUMPDEST DUP3 MSTORE POP POP JUMP JUMPDEST PUSH0 PUSH1 0x20 DUP3 ADD SWAP1 POP PUSH2 0x6EB PUSH0 DUP4 ADD DUP5 PUSH2 0x6C9 JUMP JUMPDEST SWAP3 SWAP2 POP POP JUMP JUMPDEST PUSH0 PUSH20 0xFFFFFFFFFFFFFFFFFFFFFFFFFFFFFFFFFFFFFFFF DUP3 AND SWAP1 POP SWAP2 SWAP1 POP JUMP JUMPDEST PUSH0 PUSH2 0x71A DUP3 PUSH2 0x6F1 JUMP JUMPDEST SWAP1 POP SWAP2 SWAP1 POP JUMP JUMPDEST PUSH2 0x72A DUP2 PUSH2 0x710 JUMP JUMPDEST DUP3 MSTORE POP POP JUMP JUMPDEST PUSH0 PUSH1 0x20 DUP3 ADD SWAP1 POP PUSH2 0x743 PUSH0 DUP4 ADD DUP5 PUSH2 0x721 JUMP JUMPDEST SWAP3 SWAP2 POP POP JUMP JUMPDEST PUSH0 PUSH32 0xFFFFFFFF00000000000000000000000000000000000000000000000000000000 DUP3 AND SWAP1 POP SWAP2 SWAP1 POP JUMP JUMPDEST PUSH2 0x77D DUP2 PUSH2 0x749 JUMP JUMPDEST DUP3 MSTORE POP POP JUMP JUMPDEST PUSH0 PUSH1 0x20 DUP3 ADD SWAP1 POP PUSH2 0x796 PUSH0 DUP4 ADD DUP5 PUSH2 0x774 JUMP JUMPDEST SWAP3 SWAP2 POP POP JUMP JUMPDEST PUSH0 DUP2 MLOAD SWAP1 POP SWAP2 SWAP1 POP JUMP JUMPDEST PUSH0 DUP3 DUP3 MSTORE PUSH1 0x20 DUP3 ADD SWAP1 POP SWAP3 SWAP2 POP POP JUMP JUMPDEST DUP3 DUP2 DUP4 MCOPY PUSH0 DUP4 DUP4 ADD MSTORE POP POP POP JUMP JUMPDEST PUSH0 PUSH1 0x1F NOT PUSH1 0x1F DUP4 ADD AND SWAP1 POP SWAP2 SWAP1 POP JUMP JUMPDEST PUSH0 PUSH2 0x7DE DUP3 PUSH2 0x79C JUMP JUMPDEST PUSH2 0x7E8 DUP2 DUP6 PUSH2 0x7A6 JUMP JUMPDEST SWAP4 POP PUSH2 0x7F8 DUP2 DUP6 PUSH1 0x20 DUP7 ADD PUSH2 0x7B6 JUMP JUMPDEST PUSH2 0x801 DUP2 PUSH2 0x7C4 JUMP JUMPDEST DUP5 ADD SWAP2 POP POP SWAP3 SWAP2 POP POP JUMP JUMPDEST PUSH0 PUSH1 0x20 DUP3 ADD SWAP1 POP DUP2 DUP2 SUB PUSH0 DUP4 ADD MSTORE PUSH2 0x824 DUP2 DUP5 PUSH2 0x7D4 JUMP JUMPDEST SWAP1 POP SWAP3 SWAP2 POP POP JUMP JUMPDEST PUSH0 DUP2 SWAP1 POP SWAP2 SWAP1 POP JUMP JUMPDEST PUSH2 0x83E DUP2 PUSH2 0x82C JUMP JUMPDEST DUP3 MSTORE POP POP JUMP JUMPDEST PUSH0 PUSH1 0x20 DUP3 ADD SWAP1 POP PUSH2 0x857 PUSH0 DUP4 ADD DUP5 PUSH2 0x835 JUMP JUMPDEST SWAP3 SWAP2 POP POP JUMP JUMPDEST PUSH0 DUP3 DUP3 MSTORE PUSH1 0x20 DUP3 ADD SWAP1 POP SWAP3 SWAP2 POP POP JUMP JUMPDEST DUP3 DUP2 DUP4 CALLDATACOPY PUSH0 DUP4 DUP4 ADD MSTORE POP POP POP JUMP JUMPDEST PUSH0 PUSH2 0x886 DUP4 DUP6 PUSH2 0x85D JUMP JUMPDEST SWAP4 POP PUSH2 0x893 DUP4 DUP6 DUP5 PUSH2 0x86D JUMP JUMPDEST PUSH2 0x89C DUP4 PUSH2 0x7C4 JUMP JUMPDEST DUP5 ADD SWAP1 POP SWAP4 SWAP3 POP POP POP JUMP JUMPDEST PUSH0 PUSH1 0x20 DUP3 ADD SWAP1 POP DUP2 DUP2 SUB PUSH0 DUP4 ADD MSTORE PUSH2 0x8C0 DUP2 DUP5 DUP7 PUSH2 0x87B JUMP JUMPDEST SWAP1 POP SWAP4 SWAP3 POP POP POP JUMP JUMPDEST PUSH0 DUP2 ISZERO ISZERO SWAP1 POP SWAP2 SWAP1 POP JUMP JUMPDEST PUSH2 0x8DD DUP2 PUSH2 0x8C9 JUMP JUMPDEST DUP3 MSTORE POP POP JUMP JUMPDEST PUSH0 PUSH1 0x20 DUP3 ADD SWAP1 POP PUSH2 0x8F6 PUSH0 DUP4 ADD DUP5 PUSH2 0x8D4 JUMP JUMPDEST SWAP3 SWAP2 POP POP JUMP JUMPDEST PUSH32 0x4E487B7100000000000000000000000000000000000000000000000000000000 PUSH0 MSTORE PUSH1 0x11 PUSH1 0x4 MSTORE PUSH1 0x24 PUSH0 REVERT JUMPDEST PUSH0 PUSH2 0x933 DUP3 PUSH2 0x6C0 JUMP JUMPDEST SWAP2 POP PUSH2 0x93E DUP4 PUSH2 0x6C0 JUMP JUMPDEST SWAP3 POP DUP3 DUP3 SUB SWAP1 POP DUP2 DUP2 GT ISZERO PUSH2 0x956 JUMPI PUSH2 0x955 PUSH2 0x8FC JUMP JUMPDEST JUMPDEST SWAP3 SWAP2 POP POP JUMP JUMPDEST PUSH32 0x42756B616E206F776E6572210000000000000000000000000000000000000000 PUSH0 DUP3 ADD MSTORE POP JUMP JUMPDEST PUSH0 PUSH2 0x990 PUSH1 0xC DUP4 PUSH2 0x7A6 JUMP JUMPDEST SWAP2 POP PUSH2 0x99B DUP3 PUSH2 0x95C JUMP JUMPDEST PUSH1 0x20 DUP3 ADD SWAP1 POP SWAP2 SWAP1 POP JUMP JUMPDEST PUSH0 PUSH1 0x20 DUP3 ADD SWAP1 POP DUP2 DUP2 SUB PUSH0 DUP4 ADD MSTORE PUSH2 0x9BD DUP2 PUSH2 0x984 JUMP JUMPDEST SWAP1 POP SWAP2 SWAP1 POP JUMP JUMPDEST PUSH0 PUSH1 0x40 DUP3 ADD SWAP1 POP PUSH2 0x9D7 PUSH0 DUP4 ADD DUP6 PUSH2 0x6C9 JUMP JUMPDEST PUSH2 0x9E4 PUSH1 0x20 DUP4 ADD DUP5 PUSH2 0x6C9 JUMP JUMPDEST SWAP4 SWAP3 POP POP POP JUMP INVALID LOG2 PUSH5 0x6970667358 0x22 SLT KECCAK256 0xB5 SWAP8 0x1F NOT 0x2D EXTSTATICCALL 0xB8 CALL MSIZE ISZERO 0xCE DUP11 PUSH17 0xE30EA5339A38F6C451408A2E7F99926FD2 PUSH12 0xF164736F6C634300081F0033 "
		},
		"gasEstimates": {
			"creation": {
				"codeDepositCost": "518600",
				"executionCost": "69044",
				"totalCost": "587644"
			},
			"external": {
				"deployBlock()": "2469",
				"deployTime()": "2448",
				"deposit()": "infinite",
				"getBlockCoinbase()": "447",
				"getBlockGasLimit()": "377",
				"getBlocksSinceDeploy()": "infinite",
				"getChainId()": "443",
				"getContractAddress()": "469",
				"getContractAge()": "infinite",
				"getContractBalance()": "445",
				"getCurrentBlockNumber()": "464",
				"getCurrentTimestamp()": "420",
				"getMsgData()": "infinite",
				"getMsgSender()": "424",
				"getMsgSig()": "369",
				"getMsgValue()": "418",
				"getPreviousBlockHash()": "infinite",
				"getTxGasPrice()": "353",
				"getTxOrigin()": "445",
				"onlyOwnerCanCall()": "infinite",
				"owner()": "2596",
				"validateChain()": "475"
			}
		},
		"methodIdentifiers": {
			"deployBlock()": "a3ec191a",
			"deployTime()": "7a40624b",
			"deposit()": "d0e30db0",
			"getBlockCoinbase()": "2df8e949",
			"getBlockGasLimit()": "2cc8377d",
			"getBlocksSinceDeploy()": "06994240",
			"getChainId()": "3408e470",
			"getContractAddress()": "32a2c5d0",
			"getContractAge()": "61c68e86",
			"getContractBalance()": "6f9fb98a",
			"getCurrentBlockNumber()": "6fd902e1",
			"getCurrentTimestamp()": "6c9230db",
			"getMsgData()": "c8e7ca2e",
			"getMsgSender()": "7a6ce2e1",
			"getMsgSig()": "5a8f6d71",
			"getMsgValue()": "a17042cc",
			"getPreviousBlockHash()": "8395f7a4",
			"getTxGasPrice()": "a38aa291",
			"getTxOrigin()": "b8077e28",
			"onlyOwnerCanCall()": "5bc749e4",
			"owner()": "8da5cb5b",
			"validateChain()": "fd778dd9"
		}
	},
	"abi": [
		{
			"inputs": [],
			"stateMutability": "nonpayable",
			"type": "constructor"
		},
		{
			"anonymous": false,
			"inputs": [
				{
					"indexed": true,
					"internalType": "address",
					"name": "sender",
					"type": "address"
				},
				{
					"indexed": false,
					"internalType": "uint256",
					"name": "amount",
					"type": "uint256"
				},
				{
					"indexed": false,
					"internalType": "uint256",
					"name": "timestamp",
					"type": "uint256"
				}
			],
			"name": "Received",
			"type": "event"
		},
		{
			"inputs": [],
			"name": "deployBlock",
			"outputs": [
				{
					"internalType": "uint256",
					"name": "",
					"type": "uint256"
				}
			],
			"stateMutability": "view",
			"type": "function"
		},
		{
			"inputs": [],
			"name": "deployTime",
			"outputs": [
				{
					"internalType": "uint256",
					"name": "",
					"type": "uint256"
				}
			],
			"stateMutability": "view",
			"type": "function"
		},
		{
			"inputs": [],
			"name": "deposit",
			"outputs": [],
			"stateMutability": "payable",
			"type": "function"
		},
		{
			"inputs": [],
			"name": "getBlockCoinbase",
			"outputs": [
				{
					"internalType": "address",
					"name": "",
					"type": "address"
				}
			],
			"stateMutability": "view",
			"type": "function"
		},
		{
			"inputs": [],
			"name": "getBlockGasLimit",
			"outputs": [
				{
					"internalType": "uint256",
					"name": "",
					"type": "uint256"
				}
			],
			"stateMutability": "view",
			"type": "function"
		},
		{
			"inputs": [],
			"name": "getBlocksSinceDeploy",
			"outputs": [
				{
					"internalType": "uint256",
					"name": "",
					"type": "uint256"
				}
			],
			"stateMutability": "view",
			"type": "function"
		},
		{
			"inputs": [],
			"name": "getChainId",
			"outputs": [
				{
					"internalType": "uint256",
					"name": "",
					"type": "uint256"
				}
			],
			"stateMutability": "view",
			"type": "function"
		},
		{
			"inputs": [],
			"name": "getContractAddress",
			"outputs": [
				{
					"internalType": "address",
					"name": "",
					"type": "address"
				}
			],
			"stateMutability": "view",
			"type": "function"
		},
		{
			"inputs": [],
			"name": "getContractAge",
			"outputs": [
				{
					"internalType": "uint256",
					"name": "",
					"type": "uint256"
				}
			],
			"stateMutability": "view",
			"type": "function"
		},
		{
			"inputs": [],
			"name": "getContractBalance",
			"outputs": [
				{
					"internalType": "uint256",
					"name": "",
					"type": "uint256"
				}
			],
			"stateMutability": "view",
			"type": "function"
		},
		{
			"inputs": [],
			"name": "getCurrentBlockNumber",
			"outputs": [
				{
					"internalType": "uint256",
					"name": "",
					"type": "uint256"
				}
			],
			"stateMutability": "view",
			"type": "function"
		},
		{
			"inputs": [],
			"name": "getCurrentTimestamp",
			"outputs": [
				{
					"internalType": "uint256",
					"name": "",
					"type": "uint256"
				}
			],
			"stateMutability": "view",
			"type": "function"
		},
		{
			"inputs": [],
			"name": "getMsgData",
			"outputs": [
				{
					"internalType": "bytes",
					"name": "",
					"type": "bytes"
				}
			],
			"stateMutability": "pure",
			"type": "function"
		},
		{
			"inputs": [],
			"name": "getMsgSender",
			"outputs": [
				{
					"internalType": "address",
					"name": "",
					"type": "address"
				}
			],
			"stateMutability": "view",
			"type": "function"
		},
		{
			"inputs": [],
			"name": "getMsgSig",
			"outputs": [
				{
					"internalType": "bytes4",
					"name": "",
					"type": "bytes4"
				}
			],
			"stateMutability": "pure",
			"type": "function"
		},
		{
			"inputs": [],
			"name": "getMsgValue",
			"outputs": [
				{
					"internalType": "uint256",
					"name": "",
					"type": "uint256"
				}
			],
			"stateMutability": "payable",
			"type": "function"
		},
		{
			"inputs": [],
			"name": "getPreviousBlockHash",
			"outputs": [
				{
					"internalType": "bytes32",
					"name": "",
					"type": "bytes32"
				}
			],
			"stateMutability": "view",
			"type": "function"
		},
		{
			"inputs": [],
			"name": "getTxGasPrice",
			"outputs": [
				{
					"internalType": "uint256",
					"name": "",
					"type": "uint256"
				}
			],
			"stateMutability": "view",
			"type": "function"
		},
		{
			"inputs": [],
			"name": "getTxOrigin",
			"outputs": [
				{
					"internalType": "address",
					"name": "",
					"type": "address"
				}
			],
			"stateMutability": "view",
			"type": "function"
		},
		{
			"inputs": [],
			"name": "onlyOwnerCanCall",
			"outputs": [
				{
					"internalType": "string",
					"name": "",
					"type": "string"
				}
			],
			"stateMutability": "view",
			"type": "function"
		},
		{
			"inputs": [],
			"name": "owner",
			"outputs": [
				{
					"internalType": "address",
					"name": "",
					"type": "address"
				}
			],
			"stateMutability": "view",
			"type": "function"
		},
		{
			"inputs": [],
			"name": "validateChain",
			"outputs": [
				{
					"internalType": "bool",
					"name": "",
					"type": "bool"
				}
			],
			"stateMutability": "view",
			"type": "function"
		}
	]
}