{
	"data": {
		"bytecode": {
			"linkReferences": {},
			"object": "6080604052348015600e575f5ffd5b5061056a8061001c5f395ff3fe608060405234801561000f575f5ffd5b506004361061007b575f3560e01c80635e864dbb116100595780635e864dbb146100fb578063cb652c2d14610119578063f57e5b3a14610149578063fd1d1708146101655761007b565b80631dead0661461007f578063328d3142146100af5780635ce91edb146100df575b5f5ffd5b6100996004803603810190610094919061036e565b610195565b6040516100a691906103a8565b60405180910390f35b6100c960048036038101906100c4919061036e565b6101fe565b6040516100d691906103a8565b60405180910390f35b6100f960048036038101906100f4919061036e565b610274565b005b61010361028c565b60405161011091906103a8565b60405180910390f35b610133600480360381019061012e919061036e565b610293565b60405161014091906103a8565b60405180910390f35b610163600480360381019061015e919061036e565b6102a8565b005b61017f600480360381019061017a919061036e565b610323565b60405161018c91906103a8565b60405180910390f35b5f5f60015f8481526020019081526020015f2054036101b6575f90506101f9565b5f6201518060015f8581526020019081526020015f20546101d791906103ee565b90508042106101e9575f9150506101f9565b42816101f59190610421565b9150505b919050565b5f5f5f5f8481526020019081526020015f205411610251576040517f08c379a0000000000000000000000000000000000000000000000000000000008152600401610248906104ae565b60405180910390fd5b5f5f8381526020019081526020015f20544261026d9190610421565b9050919050565b425f5f8381526020019081526020015f208190555050565b6201518081565b6001602052805f5260405f205f915090505481565b6201518060015f8381526020019081526020015f20546102c891906103ee565b42101561030a576040517f08c379a000000000000000000000000000000000000000000000000000000000815260040161030190610516565b60405180910390fd5b4260015f8381526020019081526020015f208190555050565b5f602052805f5260405f205f915090505481565b5f5ffd5b5f819050919050565b61034d8161033b565b8114610357575f5ffd5b50565b5f8135905061036881610344565b92915050565b5f6020828403121561038357610382610337565b5b5f6103908482850161035a565b91505092915050565b6103a28161033b565b82525050565b5f6020820190506103bb5f830184610399565b92915050565b7f4e487b71000000000000000000000000000000000000000000000000000000005f52601160045260245ffd5b5f6103f88261033b565b91506104038361033b565b925082820190508082111561041b5761041a6103c1565b5b92915050565b5f61042b8261033b565b91506104368361033b565b925082820390508181111561044e5761044d6103c1565b5b92915050565b5f82825260208201905092915050565b7f53747564656e742062656c756d207465726461667461720000000000000000005f82015250565b5f610498601783610454565b91506104a382610464565b602082019050919050565b5f6020820190508181035f8301526104c58161048c565b9050919050565b7f48617275732074756e67677520312068617269000000000000000000000000005f82015250565b5f610500601383610454565b915061050b826104cc565b602082019050919050565b5f6020820190508181035f83015261052d816104f4565b905091905056fea26469706673582212203449973192f45d6b97c6a949f3e58b5935ce6a09490db2d0c7b3bcf5ba1cd1fe64736f6c634300081f0033",
			"opcodes": "PUSH1 0x80 PUSH1 0x40 MSTORE CALLVALUE DUP1 ISZERO PUSH1 0xE JUMPI PUSH0 PUSH0 REVERT JUMPDEST POP PUSH2 0x56A DUP1 PUSH2 0x1C PUSH0 CODECOPY PUSH0 RETURN INVALID PUSH1 0x80 PUSH1 0x40 MSTORE CALLVALUE DUP1 ISZERO PUSH2 0xF JUMPI PUSH0 PUSH0 REVERT JUMPDEST POP PUSH1 0x4 CALLDATASIZE LT PUSH2 0x7B JUMPI PUSH0 CALLDATALOAD PUSH1 0xE0 SHR DUP1 PUSH4 0x5E864DBB GT PUSH2 0x59 JUMPI DUP1 PUSH4 0x5E864DBB EQ PUSH2 0xFB JUMPI DUP1 PUSH4 0xCB652C2D EQ PUSH2 0x119 JUMPI DUP1 PUSH4 0xF57E5B3A EQ PUSH2 0x149 JUMPI DUP1 PUSH4 0xFD1D1708 EQ PUSH2 0x165 JUMPI PUSH2 0x7B JUMP JUMPDEST DUP1 PUSH4 0x1DEAD066 EQ PUSH2 0x7F JUMPI DUP1 PUSH4 0x328D3142 EQ PUSH2 0xAF JUMPI DUP1 PUSH4 0x5CE91EDB EQ PUSH2 0xDF JUMPI JUMPDEST PUSH0 PUSH0 REVERT JUMPDEST PUSH2 0x99 PUSH1 0x4 DUP1 CALLDATASIZE SUB DUP2 ADD SWAP1 PUSH2 0x94 SWAP2 SWAP1 PUSH2 0x36E JUMP JUMPDEST PUSH2 0x195 JUMP JUMPDEST PUSH1 0x40 MLOAD PUSH2 0xA6 SWAP2 SWAP1 PUSH2 0x3A8 JUMP JUMPDEST PUSH1 0x40 MLOAD DUP1 SWAP2 SUB SWAP1 RETURN JUMPDEST PUSH2 0xC9 PUSH1 0x4 DUP1 CALLDATASIZE SUB DUP2 ADD SWAP1 PUSH2 0xC4 SWAP2 SWAP1 PUSH2 0x36E JUMP JUMPDEST PUSH2 0x1FE JUMP JUMPDEST PUSH1 0x40 MLOAD PUSH2 0xD6 SWAP2 SWAP1 PUSH2 0x3A8 JUMP JUMPDEST PUSH1 0x40 MLOAD DUP1 SWAP2 SUB SWAP1 RETURN JUMPDEST PUSH2 0xF9 PUSH1 0x4 DUP1 CALLDATASIZE SUB DUP2 ADD SWAP1 PUSH2 0xF4 SWAP2 SWAP1 PUSH2 0x36E JUMP JUMPDEST PUSH2 0x274 JUMP JUMPDEST STOP JUMPDEST PUSH2 0x103 PUSH2 0x28C JUMP JUMPDEST PUSH1 0x40 MLOAD PUSH2 0x110 SWAP2 SWAP1 PUSH2 0x3A8 JUMP JUMPDEST PUSH1 0x40 MLOAD DUP1 SWAP2 SUB SWAP1 RETURN JUMPDEST PUSH2 0x133 PUSH1 0x4 DUP1 CALLDATASIZE SUB DUP2 ADD SWAP1 PUSH2 0x12E SWAP2 SWAP1 PUSH2 0x36E JUMP JUMPDEST PUSH2 0x293 JUMP JUMPDEST PUSH1 0x40 MLOAD PUSH2 0x140 SWAP2 SWAP1 PUSH2 0x3A8 JUMP JUMPDEST PUSH1 0x40 MLOAD DUP1 SWAP2 SUB SWAP1 RETURN JUMPDEST PUSH2 0x163 PUSH1 0x4 DUP1 CALLDATASIZE SUB DUP2 ADD SWAP1 PUSH2 0x15E SWAP2 SWAP1 PUSH2 0x36E JUMP JUMPDEST PUSH2 0x2A8 JUMP JUMPDEST STOP JUMPDEST PUSH2 0x17F PUSH1 0x4 DUP1 CALLDATASIZE SUB DUP2 ADD SWAP1 PUSH2 0x17A SWAP2 SWAP1 PUSH2 0x36E JUMP JUMPDEST PUSH2 0x323 JUMP JUMPDEST PUSH1 0x40 MLOAD PUSH2 0x18C SWAP2 SWAP1 PUSH2 0x3A8 JUMP JUMPDEST PUSH1 0x40 MLOAD DUP1 SWAP2 SUB SWAP1 RETURN JUMPDEST PUSH0 PUSH0 PUSH1 0x1 PUSH0 DUP5 DUP2 MSTORE PUSH1 0x20 ADD SWAP1 DUP2 MSTORE PUSH1 0x20 ADD PUSH0 KECCAK256 SLOAD SUB PUSH2 0x1B6 JUMPI PUSH0 SWAP1 POP PUSH2 0x1F9 JUMP JUMPDEST PUSH0 PUSH3 0x15180 PUSH1 0x1 PUSH0 DUP6 DUP2 MSTORE PUSH1 0x20 ADD SWAP1 DUP2 MSTORE PUSH1 0x20 ADD PUSH0 KECCAK256 SLOAD PUSH2 0x1D7 SWAP2 SWAP1 PUSH2 0x3EE JUMP JUMPDEST SWAP1 POP DUP1 TIMESTAMP LT PUSH2 0x1E9 JUMPI PUSH0 SWAP2 POP POP PUSH2 0x1F9 JUMP JUMPDEST TIMESTAMP DUP2 PUSH2 0x1F5 SWAP2 SWAP1 PUSH2 0x421 JUMP JUMPDEST SWAP2 POP POP JUMPDEST SWAP2 SWAP1 POP JUMP JUMPDEST PUSH0 PUSH0 PUSH0 PUSH0 DUP5 DUP2 MSTORE PUSH1 0x20 ADD SWAP1 DUP2 MSTORE PUSH1 0x20 ADD PUSH0 KECCAK256 SLOAD GT PUSH2 0x251 JUMPI PUSH1 0x40 MLOAD PUSH32 0x8C379A000000000000000000000000000000000000000000000000000000000 DUP2 MSTORE PUSH1 0x4 ADD PUSH2 0x248 SWAP1 PUSH2 0x4AE JUMP JUMPDEST PUSH1 0x40 MLOAD DUP1 SWAP2 SUB SWAP1 REVERT JUMPDEST PUSH0 PUSH0 DUP4 DUP2 MSTORE PUSH1 0x20 ADD SWAP1 DUP2 MSTORE PUSH1 0x20 ADD PUSH0 KECCAK256 SLOAD TIMESTAMP PUSH2 0x26D SWAP2 SWAP1 PUSH2 0x421 JUMP JUMPDEST SWAP1 POP SWAP2 SWAP1 POP JUMP JUMPDEST TIMESTAMP PUSH0 PUSH0 DUP4 DUP2 MSTORE PUSH1 0x20 ADD SWAP1 DUP2 MSTORE PUSH1 0x20 ADD PUSH0 KECCAK256 DUP2 SWAP1 SSTORE POP POP JUMP JUMPDEST PUSH3 0x15180 DUP2 JUMP JUMPDEST PUSH1 0x1 PUSH1 0x20 MSTORE DUP1 PUSH0 MSTORE PUSH1 0x40 PUSH0 KECCAK256 PUSH0 SWAP2 POP SWAP1 POP SLOAD DUP2 JUMP JUMPDEST PUSH3 0x15180 PUSH1 0x1 PUSH0 DUP4 DUP2 MSTORE PUSH1 0x20 ADD SWAP1 DUP2 MSTORE PUSH1 0x20 ADD PUSH0 KECCAK256 SLOAD PUSH2 0x2C8 SWAP2 SWAP1 PUSH2 0x3EE JUMP JUMPDEST TIMESTAMP LT ISZERO PUSH2 0x30A JUMPI PUSH1 0x40 MLOAD PUSH32 0x8C379A000000000000000000000000000000000000000000000000000000000 DUP2 MSTORE PUSH1 0x4 ADD PUSH2 0x301 SWAP1 PUSH2 0x516 JUMP JUMPDEST PUSH1 0x40 MLOAD DUP1 SWAP2 SUB SWAP1 REVERT JUMPDEST TIMESTAMP PUSH1 0x1 PUSH0 DUP4 DUP2 MSTORE PUSH1 0x20 ADD SWAP1 DUP2 MSTORE PUSH1 0x20 ADD PUSH0 KECCAK256 DUP2 SWAP1 SSTORE POP POP JUMP JUMPDEST PUSH0 PUSH1 0x20 MSTORE DUP1 PUSH0 MSTORE PUSH1 0x40 PUSH0 KECCAK256 PUSH0 SWAP2 POP SWAP1 POP SLOAD DUP2 JUMP JUMPDEST PUSH0 PUSH0 REVERT JUMPDEST PUSH0 DUP2 SWAP1 POP SWAP2 SWAP1 POP JUMP JUMPDEST PUSH2 0x34D DUP2 PUSH2 0x33B JUMP JUMPDEST DUP2 EQ PUSH2 0x357 JUMPI PUSH0 PUSH0 REVERT JUMPDEST POP JUMP JUMPDEST PUSH0 DUP2 CALLDATALOAD SWAP1 POP PUSH2 0x368 DUP2 PUSH2 0x344 JUMP JUMPDEST SWAP3 SWAP2 POP POP JUMP JUMPDEST PUSH0 PUSH1 0x20 DUP3 DUP5 SUB SLT ISZERO PUSH2 0x383 JUMPI PUSH2 0x382 PUSH2 0x337 JUMP JUMPDEST JUMPDEST PUSH0 PUSH2 0x390 DUP5 DUP3 DUP6 ADD PUSH2 0x35A JUMP JUMPDEST SWAP2 POP POP SWAP3 SWAP2 POP POP JUMP JUMPDEST PUSH2 0x3A2 DUP2 PUSH2 0x33B JUMP JUMPDEST DUP3 MSTORE POP POP JUMP JUMPDEST PUSH0 PUSH1 0x20 DUP3 ADD SWAP1 POP PUSH2 0x3BB PUSH0 DUP4 ADD DUP5 PUSH2 0x399 JUMP JUMPDEST SWAP3 SWAP2 POP POP JUMP JUMPDEST PUSH32 0x4E487B7100000000000000000000000000000000000000000000000000000000 PUSH0 MSTORE PUSH1 0x11 PUSH1 0x4 MSTORE PUSH1 0x24 PUSH0 REVERT JUMPDEST PUSH0 PUSH2 0x3F8 DUP3 PUSH2 0x33B JUMP JUMPDEST SWAP2 POP PUSH2 0x403 DUP4 PUSH2 0x33B JUMP JUMPDEST SWAP3 POP DUP3 DUP3 ADD SWAP1 POP DUP1 DUP3 GT ISZERO PUSH2 0x41B JUMPI PUSH2 0x41A PUSH2 0x3C1 JUMP JUMPDEST JUMPDEST SWAP3 SWAP2 POP POP JUMP JUMPDEST PUSH0 PUSH2 0x42B DUP3 PUSH2 0x33B JUMP JUMPDEST SWAP2 POP PUSH2 0x436 DUP4 PUSH2 0x33B JUMP JUMPDEST SWAP3 POP DUP3 DUP3 SUB SWAP1 POP DUP2 DUP2 GT ISZERO PUSH2 0x44E JUMPI PUSH2 0x44D PUSH2 0x3C1 JUMP JUMPDEST JUMPDEST SWAP3 SWAP2 POP POP JUMP JUMPDEST PUSH0 DUP3 DUP3 MSTORE PUSH1 0x20 DUP3 ADD SWAP1 POP SWAP3 SWAP2 POP POP JUMP JUMPDEST PUSH32 0x53747564656E742062656C756D20746572646166746172000000000000000000 PUSH0 DUP3 ADD MSTORE POP JUMP JUMPDEST PUSH0 PUSH2 0x498 PUSH1 0x17 DUP4 PUSH2 0x454 JUMP JUMPDEST SWAP2 POP PUSH2 0x4A3 DUP3 PUSH2 0x464 JUMP JUMPDEST PUSH1 0x20 DUP3 ADD SWAP1 POP SWAP2 SWAP1 POP JUMP JUMPDEST PUSH0 PUSH1 0x20 DUP3 ADD SWAP1 POP DUP2 DUP2 SUB PUSH0 DUP4 ADD MSTORE PUSH2 0x4C5 DUP2 PUSH2 0x48C JUMP JUMPDEST SWAP1 POP SWAP2 SWAP1 POP JUMP JUMPDEST PUSH32 0x48617275732074756E6767752031206861726900000000000000000000000000 PUSH0 DUP3 ADD MSTORE POP JUMP JUMPDEST PUSH0 PUSH2 0x500 PUSH1 0x13 DUP4 PUSH2 0x454 JUMP JUMPDEST SWAP2 POP PUSH2 0x50B DUP3 PUSH2 0x4CC JUMP JUMPDEST PUSH1 0x20 DUP3 ADD SWAP1 POP SWAP2 SWAP1 POP JUMP JUMPDEST PUSH0 PUSH1 0x20 DUP3 ADD SWAP1 POP DUP2 DUP2 SUB PUSH0 DUP4 ADD MSTORE PUSH2 0x52D DUP2 PUSH2 0x4F4 JUMP JUMPDEST SWAP1 POP SWAP2 SWAP1 POP JUMP INVALID LOG2 PUSH5 0x6970667358 0x22 SLT KECCAK256 CALLVALUE BLOBHASH SWAP8 BALANCE SWAP3 DELEGATECALL TSTORE PUSH12 0x97C6A949F3E58B5935CE6A09 BLOBHASH 0xD 0xB2 0xD0 0xC7 0xB3 0xBC CREATE2 0xBA SHR DATALOADN 0xFE64 PUSH20 0x6F6C634300081F00330000000000000000000000 "
		},
		"gasEstimates": {
			"creation": {
				"codeDepositCost": "277200",
				"executionCost": "316",
				"totalCost": "277516"
			},
			"external": {
				"ASSIGNMENT_COOLDOWN()": "325",
				"getStudentAge(uint256)": "infinite",
				"lastSubmission(uint256)": "infinite",
				"registerStudent(uint256)": "22634",
				"studentRegisteredTime(uint256)": "infinite",
				"submitAssignment(uint256)": "infinite",
				"timeUntilNextSubmission(uint256)": "infinite"
			}
		},
		"methodIdentifiers": {
			"ASSIGNMENT_COOLDOWN()": "5e864dbb",
			"getStudentAge(uint256)": "328d3142",
			"lastSubmission(uint256)": "cb652c2d",
			"registerStudent(uint256)": "5ce91edb",
			"studentRegisteredTime(uint256)": "fd1d1708",
			"submitAssignment(uint256)": "f57e5b3a",
			"timeUntilNextSubmission(uint256)": "1dead066"
		}
	},
	"abi": [
		{
			"inputs": [],
			"name": "ASSIGNMENT_COOLDOWN",
			"outputs": [
				{
					"internalType": "uint256",
					"name": "",
					"type": "uint256"
				}
			],
			"stateMutability": "view",
			"type": "function"
		},
		{
			"inputs": [
				{
					"internalType": "uint256",
					"name": "_id",
					"type": "uint256"
				}
			],
			"name": "getStudentAge",
			"outputs": [
				{
					"internalType": "uint256",
					"name": "",
					"type": "uint256"
				}
			],
			"stateMutability": "view",
			"type": "function"
		},
		{
			"inputs": [
				{
					"internalType": "uint256",
					"name": "",
					"type": "uint256"
				}
			],
			"name": "lastSubmission",
			"outputs": [
				{
					"internalType": "uint256",
					"name": "",
					"type": "uint256"
				}
			],
			"stateMutability": "view",
			"type": "function"
		},
		{
			"inputs": [
				{
					"internalType": "uint256",
					"name": "_id",
					"type": "uint256"
				}
			],
			"name": "registerStudent",
			"outputs": [],
			"stateMutability": "nonpayable",
			"type": "function"
		},
		{
			"inputs": [
				{
					"internalType": "uint256",
					"name": "",
					"type": "uint256"
				}
			],
			"name": "studentRegisteredTime",
			"outputs": [
				{
					"internalType": "uint256",
					"name": "",
					"type": "uint256"
				}
			],
			"stateMutability": "view",
			"type": "function"
		},
		{
			"inputs": [
				{
					"internalType": "uint256",
					"name": "_id",
					"type": "uint256"
				}
			],
			"name": "submitAssignment",
			"outputs": [],
			"stateMutability": "nonpayable",
			"type": "function"
		},
		{
			"inputs": [
				{
					"internalType": "uint256",
					"name": "_id",
					"type": "uint256"
				}
			],
			"name": "timeUntilNextSubmission",
			"outputs": [
				{
					"internalType": "uint256",
					"name": "",
					"type": "uint256"
				}
			],
			"stateMutability": "view",
			"type": "function"
		}
	]
}