{
	"data": {
		"bytecode": {
			"linkReferences": {},
			"object": "6080604052348015600e575f5ffd5b505f5f5f6101000a81548160ff02191690836004811115602f57602e6038565b5b02179055506065565b7f4e487b71000000000000000000000000000000000000000000000000000000005f52602160045260245ffd5b610252806100725f395ff3fe608060405234801561000f575f5ffd5b506004361061004a575f3560e01c80631aa3a0081461004e5780632bd5567514610058578063d3618cca14610062578063ef8a92351461006c575b5f5ffd5b61005661008a565b005b6100606100b5565b005b61006a61011a565b005b61007461017f565b6040516100819190610203565b60405180910390f35b60015f5f6101000a81548160ff021916908360048111156100ae576100ad610190565b5b0217905550565b600160048111156100c9576100c8610190565b5b5f5f9054906101000a900460ff1660048111156100e9576100e8610190565b5b036101185760025f5f6101000a81548160ff0219169083600481111561011257610111610190565b5b02179055505b565b6001600481111561012e5761012d610190565b5b5f5f9054906101000a900460ff16600481111561014e5761014d610190565b5b0361017d5760035f5f6101000a81548160ff0219169083600481111561017757610176610190565b5b02179055505b565b5f5f9054906101000a900460ff1681565b7f4e487b71000000000000000000000000000000000000000000000000000000005f52602160045260245ffd5b600581106101ce576101cd610190565b5b50565b5f8190506101de826101bd565b919050565b5f6101ed826101d1565b9050919050565b6101fd816101e3565b82525050565b5f6020820190506102165f8301846101f4565b9291505056fea26469706673582212206bc645691d1a38a157bb574e9ec4b120c52e1746fa5f0a23cfe8816a8b38a53364736f6c634300081f0033",
			"opcodes": "PUSH1 0x80 PUSH1 0x40 MSTORE CALLVALUE DUP1 ISZERO PUSH1 0xE JUMPI PUSH0 PUSH0 REVERT JUMPDEST POP PUSH0 PUSH0 PUSH0 PUSH2 0x100 EXP DUP2 SLOAD DUP2 PUSH1 0xFF MUL NOT AND SWAP1 DUP4 PUSH1 0x4 DUP2 GT ISZERO PUSH1 0x2F JUMPI PUSH1 0x2E PUSH1 0x38 JUMP JUMPDEST JUMPDEST MUL OR SWAP1 SSTORE POP PUSH1 0x65 JUMP JUMPDEST PUSH32 0x4E487B7100000000000000000000000000000000000000000000000000000000 PUSH0 MSTORE PUSH1 0x21 PUSH1 0x4 MSTORE PUSH1 0x24 PUSH0 REVERT JUMPDEST PUSH2 0x252 DUP1 PUSH2 0x72 PUSH0 CODECOPY PUSH0 RETURN INVALID PUSH1 0x80 PUSH1 0x40 MSTORE CALLVALUE DUP1 ISZERO PUSH2 0xF JUMPI PUSH0 PUSH0 REVERT JUMPDEST POP PUSH1 0x4 CALLDATASIZE LT PUSH2 0x4A JUMPI PUSH0 CALLDATALOAD PUSH1 0xE0 SHR DUP1 PUSH4 0x1AA3A008 EQ PUSH2 0x4E JUMPI DUP1 PUSH4 0x2BD55675 EQ PUSH2 0x58 JUMPI DUP1 PUSH4 0xD3618CCA EQ PUSH2 0x62 JUMPI DUP1 PUSH4 0xEF8A9235 EQ PUSH2 0x6C JUMPI JUMPDEST PUSH0 PUSH0 REVERT JUMPDEST PUSH2 0x56 PUSH2 0x8A JUMP JUMPDEST STOP JUMPDEST PUSH2 0x60 PUSH2 0xB5 JUMP JUMPDEST STOP JUMPDEST PUSH2 0x6A PUSH2 0x11A JUMP JUMPDEST STOP JUMPDEST PUSH2 0x74 PUSH2 0x17F JUMP JUMPDEST PUSH1 0x40 MLOAD PUSH2 0x81 SWAP2 SWAP1 PUSH2 0x203 JUMP JUMPDEST PUSH1 0x40 MLOAD DUP1 SWAP2 SUB SWAP1 RETURN JUMPDEST PUSH1 0x1 PUSH0 PUSH0 PUSH2 0x100 EXP DUP2 SLOAD DUP2 PUSH1 0xFF MUL NOT AND SWAP1 DUP4 PUSH1 0x4 DUP2 GT ISZERO PUSH2 0xAE JUMPI PUSH2 0xAD PUSH2 0x190 JUMP JUMPDEST JUMPDEST MUL OR SWAP1 SSTORE POP JUMP JUMPDEST PUSH1 0x1 PUSH1 0x4 DUP2 GT ISZERO PUSH2 0xC9 JUMPI PUSH2 0xC8 PUSH2 0x190 JUMP JUMPDEST JUMPDEST PUSH0 PUSH0 SWAP1 SLOAD SWAP1 PUSH2 0x100 EXP SWAP1 DIV PUSH1 0xFF AND PUSH1 0x4 DUP2 GT ISZERO PUSH2 0xE9 JUMPI PUSH2 0xE8 PUSH2 0x190 JUMP JUMPDEST JUMPDEST SUB PUSH2 0x118 JUMPI PUSH1 0x2 PUSH0 PUSH0 PUSH2 0x100 EXP DUP2 SLOAD DUP2 PUSH1 0xFF MUL NOT AND SWAP1 DUP4 PUSH1 0x4 DUP2 GT ISZERO PUSH2 0x112 JUMPI PUSH2 0x111 PUSH2 0x190 JUMP JUMPDEST JUMPDEST MUL OR SWAP1 SSTORE POP JUMPDEST JUMP JUMPDEST PUSH1 0x1 PUSH1 0x4 DUP2 GT ISZERO PUSH2 0x12E JUMPI PUSH2 0x12D PUSH2 0x190 JUMP JUMPDEST JUMPDEST PUSH0 PUSH0 SWAP1 SLOAD SWAP1 PUSH2 0x100 EXP SWAP1 DIV PUSH1 0xFF AND PUSH1 0x4 DUP2 GT ISZERO PUSH2 0x14E JUMPI PUSH2 0x14D PUSH2 0x190 JUMP JUMPDEST JUMPDEST SUB PUSH2 0x17D JUMPI PUSH1 0x3 PUSH0 PUSH0 PUSH2 0x100 EXP DUP2 SLOAD DUP2 PUSH1 0xFF MUL NOT AND SWAP1 DUP4 PUSH1 0x4 DUP2 GT ISZERO PUSH2 0x177 JUMPI PUSH2 0x176 PUSH2 0x190 JUMP JUMPDEST JUMPDEST MUL OR SWAP1 SSTORE POP JUMPDEST JUMP JUMPDEST PUSH0 PUSH0 SWAP1 SLOAD SWAP1 PUSH2 0x100 EXP SWAP1 DIV PUSH1 0xFF AND DUP2 JUMP JUMPDEST PUSH32 0x4E487B7100000000000000000000000000000000000000000000000000000000 PUSH0 MSTORE PUSH1 0x21 PUSH1 0x4 MSTORE PUSH1 0x24 PUSH0 REVERT JUMPDEST PUSH1 0x5 DUP2 LT PUSH2 0x1CE JUMPI PUSH2 0x1CD PUSH2 0x190 JUMP JUMPDEST JUMPDEST POP JUMP JUMPDEST PUSH0 DUP2 SWAP1 POP PUSH2 0x1DE DUP3 PUSH2 0x1BD JUMP JUMPDEST SWAP2 SWAP1 POP JUMP JUMPDEST PUSH0 PUSH2 0x1ED DUP3 PUSH2 0x1D1 JUMP JUMPDEST SWAP1 POP SWAP2 SWAP1 POP JUMP JUMPDEST PUSH2 0x1FD DUP2 PUSH2 0x1E3 JUMP JUMPDEST DUP3 MSTORE POP POP JUMP JUMPDEST PUSH0 PUSH1 0x20 DUP3 ADD SWAP1 POP PUSH2 0x216 PUSH0 DUP4 ADD DUP5 PUSH2 0x1F4 JUMP JUMPDEST SWAP3 SWAP2 POP POP JUMP INVALID LOG2 PUSH5 0x6970667358 0x22 SLT KECCAK256 PUSH12 0xC645691D1A38A157BB574E9E 0xC4 0xB1 KECCAK256 0xC5 0x2E OR CHAINID STATICCALL PUSH0 EXP 0x23 0xCF 0xE8 DUP2 PUSH11 0x8B38A53364736F6C634300 ADDMOD 0x1F STOP CALLER "
		},
		"gasEstimates": {
			"creation": {
				"codeDepositCost": "118800",
				"executionCost": "24459",
				"totalCost": "143259"
			},
			"external": {
				"currentStatus()": "2597",
				"graduate()": "26659",
				"register()": "24406",
				"takeLeave()": "26637"
			}
		},
		"methodIdentifiers": {
			"currentStatus()": "ef8a9235",
			"graduate()": "d3618cca",
			"register()": "1aa3a008",
			"takeLeave()": "2bd55675"
		}
	},
	"abi": [
		{
			"inputs": [],
			"stateMutability": "nonpayable",
			"type": "constructor"
		},
		{
			"inputs": [],
			"name": "currentStatus",
			"outputs": [
				{
					"internalType": "enum LearnEnum.StudentStatus",
					"name": "",
					"type": "uint8"
				}
			],
			"stateMutability": "view",
			"type": "function"
		},
		{
			"inputs": [],
			"name": "graduate",
			"outputs": [],
			"stateMutability": "nonpayable",
			"type": "function"
		},
		{
			"inputs": [],
			"name": "register",
			"outputs": [],
			"stateMutability": "nonpayable",
			"type": "function"
		},
		{
			"inputs": [],
			"name": "takeLeave",
			"outputs": [],
			"stateMutability": "nonpayable",
			"type": "function"
		}
	]
}