{
	"data": {
		"bytecode": {
			"linkReferences": {},
			"object": "6080604052348015600e575f5ffd5b50610c488061001c5f395ff3fe608060405234801561000f575f5ffd5b5060043610610060575f3560e01c80632e566ebd146100645780633dcc1c751461008057806371e17445146100b05780639c823b40146100cc578063a031fc56146100fc578063e3596cac1461012c575b5f5ffd5b61007e600480360381019061007991906104bc565b61014a565b005b61009a600480360381019061009591906104fa565b61029f565b6040516100a79190610564565b60405180910390f35b6100ca60048036038101906100c591906106b9565b6102ce565b005b6100e660048036038101906100e191906104fa565b6103c2565b6040516100f3919061070f565b60405180910390f35b610116600480360381019061011191906104fa565b6103d7565b6040516101239190610788565b60405180910390f35b610134610472565b604051610141919061070f565b60405180910390f35b3373ffffffffffffffffffffffffffffffffffffffff165f5f8481526020019081526020015f205f9054906101000a900473ffffffffffffffffffffffffffffffffffffffff1673ffffffffffffffffffffffffffffffffffffffff16146101e7576040517f08c379a00000000000000000000000000000000000000000000000000000000081526004016101de906107f2565b60405180910390fd5b5f8111610229576040517f08c379a00000000000000000000000000000000000000000000000000000000081526004016102209061085a565b60405180910390fd5b8060025f8481526020019081526020015f205f82825461024991906108a5565b92505081905550817f832f8a6f4d6dfafe60ab2aa2ffe2913518de7be1339f87c00d4a51e0fdd0cb838260025f8681526020019081526020015f20546040516102939291906108d8565b60405180910390a25050565b5f602052805f5260405f205f915054906101000a900473ffffffffffffffffffffffffffffffffffffffff1681565b60035f8154809291906102e0906108ff565b9190505550335f5f60035481526020019081526020015f205f6101000a81548173ffffffffffffffffffffffffffffffffffffffff021916908373ffffffffffffffffffffffffffffffffffffffff1602179055508060015f60035481526020019081526020015f2090816103559190610b43565b505f60025f60035481526020019081526020015f20819055506003543373ffffffffffffffffffffffffffffffffffffffff167f7795cd2116fe8db671579fb005767dc5792883e5d10ef1680d6dd9b909aff280836040516103b79190610788565b60405180910390a350565b6002602052805f5260405f205f915090505481565b6001602052805f5260405f205f9150905080546103f390610973565b80601f016020809104026020016040519081016040528092919081815260200182805461041f90610973565b801561046a5780601f106104415761010080835404028352916020019161046a565b820191905f5260205f20905b81548152906001019060200180831161044d57829003601f168201915b505050505081565b60035481565b5f604051905090565b5f5ffd5b5f5ffd5b5f819050919050565b61049b81610489565b81146104a5575f5ffd5b50565b5f813590506104b681610492565b92915050565b5f5f604083850312156104d2576104d1610481565b5b5f6104df858286016104a8565b92505060206104f0858286016104a8565b9150509250929050565b5f6020828403121561050f5761050e610481565b5b5f61051c848285016104a8565b91505092915050565b5f73ffffffffffffffffffffffffffffffffffffffff82169050919050565b5f61054e82610525565b9050919050565b61055e81610544565b82525050565b5f6020820190506105775f830184610555565b92915050565b5f5ffd5b5f5ffd5b5f601f19601f8301169050919050565b7f4e487b71000000000000000000000000000000000000000000000000000000005f52604160045260245ffd5b6105cb82610585565b810181811067ffffffffffffffff821117156105ea576105e9610595565b5b80604052505050565b5f6105fc610478565b905061060882826105c2565b919050565b5f67ffffffffffffffff82111561062757610626610595565b5b61063082610585565b9050602081019050919050565b828183375f83830152505050565b5f61065d6106588461060d565b6105f3565b90508281526020810184848401111561067957610678610581565b5b61068484828561063d565b509392505050565b5f82601f8301126106a05761069f61057d565b5b81356106b084826020860161064b565b91505092915050565b5f602082840312156106ce576106cd610481565b5b5f82013567ffffffffffffffff8111156106eb576106ea610485565b5b6106f78482850161068c565b91505092915050565b61070981610489565b82525050565b5f6020820190506107225f830184610700565b92915050565b5f81519050919050565b5f82825260208201905092915050565b8281835e5f83830152505050565b5f61075a82610728565b6107648185610732565b9350610774818560208601610742565b61077d81610585565b840191505092915050565b5f6020820190508181035f8301526107a08184610750565b905092915050565b7f42756b616e2073747564656e7420416e646121000000000000000000000000005f82015250565b5f6107dc601383610732565b91506107e7826107a8565b602082019050919050565b5f6020820190508181035f830152610809816107d0565b9050919050565b7f416d6f756e74206861727573206c6562696820646172692030000000000000005f82015250565b5f610844601983610732565b915061084f82610810565b602082019050919050565b5f6020820190508181035f83015261087181610838565b9050919050565b7f4e487b71000000000000000000000000000000000000000000000000000000005f52601160045260245ffd5b5f6108af82610489565b91506108ba83610489565b92508282019050808211156108d2576108d1610878565b5b92915050565b5f6040820190506108eb5f830185610700565b6108f86020830184610700565b9392505050565b5f61090982610489565b91507fffffffffffffffffffffffffffffffffffffffffffffffffffffffffffffffff820361093b5761093a610878565b5b600182019050919050565b7f4e487b71000000000000000000000000000000000000000000000000000000005f52602260045260245ffd5b5f600282049050600182168061098a57607f821691505b60208210810361099d5761099c610946565b5b50919050565b5f819050815f5260205f209050919050565b5f6020601f8301049050919050565b5f82821b905092915050565b5f600883026109ff7fffffffffffffffffffffffffffffffffffffffffffffffffffffffffffffffff826109c4565b610a0986836109c4565b95508019841693508086168417925050509392505050565b5f819050919050565b5f610a44610a3f610a3a84610489565b610a21565b610489565b9050919050565b5f819050919050565b610a5d83610a2a565b610a71610a6982610a4b565b8484546109d0565b825550505050565b5f5f905090565b610a88610a79565b610a93818484610a54565b505050565b5b81811015610ab657610aab5f82610a80565b600181019050610a99565b5050565b601f821115610afb57610acc816109a3565b610ad5846109b5565b81016020851015610ae4578190505b610af8610af0856109b5565b830182610a98565b50505b505050565b5f82821c905092915050565b5f610b1b5f1984600802610b00565b1980831691505092915050565b5f610b338383610b0c565b9150826002028217905092915050565b610b4c82610728565b67ffffffffffffffff811115610b6557610b64610595565b5b610b6f8254610973565b610b7a828285610aba565b5f60209050601f831160018114610bab575f8415610b99578287015190505b610ba38582610b28565b865550610c0a565b601f198416610bb9866109a3565b5f5b82811015610be057848901518255600182019150602085019450602081019050610bbb565b86831015610bfd5784890151610bf9601f891682610b0c565b8355505b6001600288020188555050505b50505050505056fea26469706673582212209975046592f76de7d703f0c45172a27ea3d5570d819fa826898a2501bf790edb64736f6c634300081f0033",
			"opcodes": "PUSH1 0x80 PUSH1 0x40 MSTORE CALLVALUE DUP1 ISZERO PUSH1 0xE JUMPI PUSH0 PUSH0 REVERT JUMPDEST POP PUSH2 0xC48 DUP1 PUSH2 0x1C PUSH0 CODECOPY PUSH0 RETURN INVALID PUSH1 0x80 PUSH1 0x40 MSTORE CALLVALUE DUP1 ISZERO PUSH2 0xF JUMPI PUSH0 PUSH0 REVERT JUMPDEST POP PUSH1 0x4 CALLDATASIZE LT PUSH2 0x60 JUMPI PUSH0 CALLDATALOAD PUSH1 0xE0 SHR DUP1 PUSH4 0x2E566EBD EQ PUSH2 0x64 JUMPI DUP1 PUSH4 0x3DCC1C75 EQ PUSH2 0x80 JUMPI DUP1 PUSH4 0x71E17445 EQ PUSH2 0xB0 JUMPI DUP1 PUSH4 0x9C823B40 EQ PUSH2 0xCC JUMPI DUP1 PUSH4 0xA031FC56 EQ PUSH2 0xFC JUMPI DUP1 PUSH4 0xE3596CAC EQ PUSH2 0x12C JUMPI JUMPDEST PUSH0 PUSH0 REVERT JUMPDEST PUSH2 0x7E PUSH1 0x4 DUP1 CALLDATASIZE SUB DUP2 ADD SWAP1 PUSH2 0x79 SWAP2 SWAP1 PUSH2 0x4BC JUMP JUMPDEST PUSH2 0x14A JUMP JUMPDEST STOP JUMPDEST PUSH2 0x9A PUSH1 0x4 DUP1 CALLDATASIZE SUB DUP2 ADD SWAP1 PUSH2 0x95 SWAP2 SWAP1 PUSH2 0x4FA JUMP JUMPDEST PUSH2 0x29F JUMP JUMPDEST PUSH1 0x40 MLOAD PUSH2 0xA7 SWAP2 SWAP1 PUSH2 0x564 JUMP JUMPDEST PUSH1 0x40 MLOAD DUP1 SWAP2 SUB SWAP1 RETURN JUMPDEST PUSH2 0xCA PUSH1 0x4 DUP1 CALLDATASIZE SUB DUP2 ADD SWAP1 PUSH2 0xC5 SWAP2 SWAP1 PUSH2 0x6B9 JUMP JUMPDEST PUSH2 0x2CE JUMP JUMPDEST STOP JUMPDEST PUSH2 0xE6 PUSH1 0x4 DUP1 CALLDATASIZE SUB DUP2 ADD SWAP1 PUSH2 0xE1 SWAP2 SWAP1 PUSH2 0x4FA JUMP JUMPDEST PUSH2 0x3C2 JUMP JUMPDEST PUSH1 0x40 MLOAD PUSH2 0xF3 SWAP2 SWAP1 PUSH2 0x70F JUMP JUMPDEST PUSH1 0x40 MLOAD DUP1 SWAP2 SUB SWAP1 RETURN JUMPDEST PUSH2 0x116 PUSH1 0x4 DUP1 CALLDATASIZE SUB DUP2 ADD SWAP1 PUSH2 0x111 SWAP2 SWAP1 PUSH2 0x4FA JUMP JUMPDEST PUSH2 0x3D7 JUMP JUMPDEST PUSH1 0x40 MLOAD PUSH2 0x123 SWAP2 SWAP1 PUSH2 0x788 JUMP JUMPDEST PUSH1 0x40 MLOAD DUP1 SWAP2 SUB SWAP1 RETURN JUMPDEST PUSH2 0x134 PUSH2 0x472 JUMP JUMPDEST PUSH1 0x40 MLOAD PUSH2 0x141 SWAP2 SWAP1 PUSH2 0x70F JUMP JUMPDEST PUSH1 0x40 MLOAD DUP1 SWAP2 SUB SWAP1 RETURN JUMPDEST CALLER PUSH20 0xFFFFFFFFFFFFFFFFFFFFFFFFFFFFFFFFFFFFFFFF AND PUSH0 PUSH0 DUP5 DUP2 MSTORE PUSH1 0x20 ADD SWAP1 DUP2 MSTORE PUSH1 0x20 ADD PUSH0 KECCAK256 PUSH0 SWAP1 SLOAD SWAP1 PUSH2 0x100 EXP SWAP1 DIV PUSH20 0xFFFFFFFFFFFFFFFFFFFFFFFFFFFFFFFFFFFFFFFF AND PUSH20 0xFFFFFFFFFFFFFFFFFFFFFFFFFFFFFFFFFFFFFFFF AND EQ PUSH2 0x1E7 JUMPI PUSH1 0x40 MLOAD PUSH32 0x8C379A000000000000000000000000000000000000000000000000000000000 DUP2 MSTORE PUSH1 0x4 ADD PUSH2 0x1DE SWAP1 PUSH2 0x7F2 JUMP JUMPDEST PUSH1 0x40 MLOAD DUP1 SWAP2 SUB SWAP1 REVERT JUMPDEST PUSH0 DUP2 GT PUSH2 0x229 JUMPI PUSH1 0x40 MLOAD PUSH32 0x8C379A000000000000000000000000000000000000000000000000000000000 DUP2 MSTORE PUSH1 0x4 ADD PUSH2 0x220 SWAP1 PUSH2 0x85A JUMP JUMPDEST PUSH1 0x40 MLOAD DUP1 SWAP2 SUB SWAP1 REVERT JUMPDEST DUP1 PUSH1 0x2 PUSH0 DUP5 DUP2 MSTORE PUSH1 0x20 ADD SWAP1 DUP2 MSTORE PUSH1 0x20 ADD PUSH0 KECCAK256 PUSH0 DUP3 DUP3 SLOAD PUSH2 0x249 SWAP2 SWAP1 PUSH2 0x8A5 JUMP JUMPDEST SWAP3 POP POP DUP2 SWAP1 SSTORE POP DUP2 PUSH32 0x832F8A6F4D6DFAFE60AB2AA2FFE2913518DE7BE1339F87C00D4A51E0FDD0CB83 DUP3 PUSH1 0x2 PUSH0 DUP7 DUP2 MSTORE PUSH1 0x20 ADD SWAP1 DUP2 MSTORE PUSH1 0x20 ADD PUSH0 KECCAK256 SLOAD PUSH1 0x40 MLOAD PUSH2 0x293 SWAP3 SWAP2 SWAP1 PUSH2 0x8D8 JUMP JUMPDEST PUSH1 0x40 MLOAD DUP1 SWAP2 SUB SWAP1 LOG2 POP POP JUMP JUMPDEST PUSH0 PUSH1 0x20 MSTORE DUP1 PUSH0 MSTORE PUSH1 0x40 PUSH0 KECCAK256 PUSH0 SWAP2 POP SLOAD SWAP1 PUSH2 0x100 EXP SWAP1 DIV PUSH20 0xFFFFFFFFFFFFFFFFFFFFFFFFFFFFFFFFFFFFFFFF AND DUP2 JUMP JUMPDEST PUSH1 0x3 PUSH0 DUP2 SLOAD DUP1 SWAP3 SWAP2 SWAP1 PUSH2 0x2E0 SWAP1 PUSH2 0x8FF JUMP JUMPDEST SWAP2 SWAP1 POP SSTORE POP CALLER PUSH0 PUSH0 PUSH1 0x3 SLOAD DUP2 MSTORE PUSH1 0x20 ADD SWAP1 DUP2 MSTORE PUSH1 0x20 ADD PUSH0 KECCAK256 PUSH0 PUSH2 0x100 EXP DUP2 SLOAD DUP2 PUSH20 0xFFFFFFFFFFFFFFFFFFFFFFFFFFFFFFFFFFFFFFFF MUL NOT AND SWAP1 DUP4 PUSH20 0xFFFFFFFFFFFFFFFFFFFFFFFFFFFFFFFFFFFFFFFF AND MUL OR SWAP1 SSTORE POP DUP1 PUSH1 0x1 PUSH0 PUSH1 0x3 SLOAD DUP2 MSTORE PUSH1 0x20 ADD SWAP1 DUP2 MSTORE PUSH1 0x20 ADD PUSH0 KECCAK256 SWAP1 DUP2 PUSH2 0x355 SWAP2 SWAP1 PUSH2 0xB43 JUMP JUMPDEST POP PUSH0 PUSH1 0x2 PUSH0 PUSH1 0x3 SLOAD DUP2 MSTORE PUSH1 0x20 ADD SWAP1 DUP2 MSTORE PUSH1 0x20 ADD PUSH0 KECCAK256 DUP2 SWAP1 SSTORE POP PUSH1 0x3 SLOAD CALLER PUSH20 0xFFFFFFFFFFFFFFFFFFFFFFFFFFFFFFFFFFFFFFFF AND PUSH32 0x7795CD2116FE8DB671579FB005767DC5792883E5D10EF1680D6DD9B909AFF280 DUP4 PUSH1 0x40 MLOAD PUSH2 0x3B7 SWAP2 SWAP1 PUSH2 0x788 JUMP JUMPDEST PUSH1 0x40 MLOAD DUP1 SWAP2 SUB SWAP1 LOG3 POP JUMP JUMPDEST PUSH1 0x2 PUSH1 0x20 MSTORE DUP1 PUSH0 MSTORE PUSH1 0x40 PUSH0 KECCAK256 PUSH0 SWAP2 POP SWAP1 POP SLOAD DUP2 JUMP JUMPDEST PUSH1 0x1 PUSH1 0x20 MSTORE DUP1 PUSH0 MSTORE PUSH1 0x40 PUSH0 KECCAK256 PUSH0 SWAP2 POP SWAP1 POP DUP1 SLOAD PUSH2 0x3F3 SWAP1 PUSH2 0x973 JUMP JUMPDEST DUP1 PUSH1 0x1F ADD PUSH1 0x20 DUP1 SWAP2 DIV MUL PUSH1 0x20 ADD PUSH1 0x40 MLOAD SWAP1 DUP2 ADD PUSH1 0x40 MSTORE DUP1 SWAP3 SWAP2 SWAP1 DUP2 DUP2 MSTORE PUSH1 0x20 ADD DUP3 DUP1 SLOAD PUSH2 0x41F SWAP1 PUSH2 0x973 JUMP JUMPDEST DUP1 ISZERO PUSH2 0x46A JUMPI DUP1 PUSH1 0x1F LT PUSH2 0x441 JUMPI PUSH2 0x100 DUP1 DUP4 SLOAD DIV MUL DUP4 MSTORE SWAP2 PUSH1 0x20 ADD SWAP2 PUSH2 0x46A JUMP JUMPDEST DUP3 ADD SWAP2 SWAP1 PUSH0 MSTORE PUSH1 0x20 PUSH0 KECCAK256 SWAP1 JUMPDEST DUP2 SLOAD DUP2 MSTORE SWAP1 PUSH1 0x1 ADD SWAP1 PUSH1 0x20 ADD DUP1 DUP4 GT PUSH2 0x44D JUMPI DUP3 SWAP1 SUB PUSH1 0x1F AND DUP3 ADD SWAP2 JUMPDEST POP POP POP POP POP DUP2 JUMP JUMPDEST PUSH1 0x3 SLOAD DUP2 JUMP JUMPDEST PUSH0 PUSH1 0x40 MLOAD SWAP1 POP SWAP1 JUMP JUMPDEST PUSH0 PUSH0 REVERT JUMPDEST PUSH0 PUSH0 REVERT JUMPDEST PUSH0 DUP2 SWAP1 POP SWAP2 SWAP1 POP JUMP JUMPDEST PUSH2 0x49B DUP2 PUSH2 0x489 JUMP JUMPDEST DUP2 EQ PUSH2 0x4A5 JUMPI PUSH0 PUSH0 REVERT JUMPDEST POP JUMP JUMPDEST PUSH0 DUP2 CALLDATALOAD SWAP1 POP PUSH2 0x4B6 DUP2 PUSH2 0x492 JUMP JUMPDEST SWAP3 SWAP2 POP POP JUMP JUMPDEST PUSH0 PUSH0 PUSH1 0x40 DUP4 DUP6 SUB SLT ISZERO PUSH2 0x4D2 JUMPI PUSH2 0x4D1 PUSH2 0x481 JUMP JUMPDEST JUMPDEST PUSH0 PUSH2 0x4DF DUP6 DUP3 DUP7 ADD PUSH2 0x4A8 JUMP JUMPDEST SWAP3 POP POP PUSH1 0x20 PUSH2 0x4F0 DUP6 DUP3 DUP7 ADD PUSH2 0x4A8 JUMP JUMPDEST SWAP2 POP POP SWAP3 POP SWAP3 SWAP1 POP JUMP JUMPDEST PUSH0 PUSH1 0x20 DUP3 DUP5 SUB SLT ISZERO PUSH2 0x50F JUMPI PUSH2 0x50E PUSH2 0x481 JUMP JUMPDEST JUMPDEST PUSH0 PUSH2 0x51C DUP5 DUP3 DUP6 ADD PUSH2 0x4A8 JUMP JUMPDEST SWAP2 POP POP SWAP3 SWAP2 POP POP JUMP JUMPDEST PUSH0 PUSH20 0xFFFFFFFFFFFFFFFFFFFFFFFFFFFFFFFFFFFFFFFF DUP3 AND SWAP1 POP SWAP2 SWAP1 POP JUMP JUMPDEST PUSH0 PUSH2 0x54E DUP3 PUSH2 0x525 JUMP JUMPDEST SWAP1 POP SWAP2 SWAP1 POP JUMP JUMPDEST PUSH2 0x55E DUP2 PUSH2 0x544 JUMP JUMPDEST DUP3 MSTORE POP POP JUMP JUMPDEST PUSH0 PUSH1 0x20 DUP3 ADD SWAP1 POP PUSH2 0x577 PUSH0 DUP4 ADD DUP5 PUSH2 0x555 JUMP JUMPDEST SWAP3 SWAP2 POP POP JUMP JUMPDEST PUSH0 PUSH0 REVERT JUMPDEST PUSH0 PUSH0 REVERT JUMPDEST PUSH0 PUSH1 0x1F NOT PUSH1 0x1F DUP4 ADD AND SWAP1 POP SWAP2 SWAP1 POP JUMP JUMPDEST PUSH32 0x4E487B7100000000000000000000000000000000000000000000000000000000 PUSH0 MSTORE PUSH1 0x41 PUSH1 0x4 MSTORE PUSH1 0x24 PUSH0 REVERT JUMPDEST PUSH2 0x5CB DUP3 PUSH2 0x585 JUMP JUMPDEST DUP2 ADD DUP2 DUP2 LT PUSH8 0xFFFFFFFFFFFFFFFF DUP3 GT OR ISZERO PUSH2 0x5EA JUMPI PUSH2 0x5E9 PUSH2 0x595 JUMP JUMPDEST JUMPDEST DUP1 PUSH1 0x40 MSTORE POP POP POP JUMP JUMPDEST PUSH0 PUSH2 0x5FC PUSH2 0x478 JUMP JUMPDEST SWAP1 POP PUSH2 0x608 DUP3 DUP3 PUSH2 0x5C2 JUMP JUMPDEST SWAP2 SWAP1 POP JUMP JUMPDEST PUSH0 PUSH8 0xFFFFFFFFFFFFFFFF DUP3 GT ISZERO PUSH2 0x627 JUMPI PUSH2 0x626 PUSH2 0x595 JUMP JUMPDEST JUMPDEST PUSH2 0x630 DUP3 PUSH2 0x585 JUMP JUMPDEST SWAP1 POP PUSH1 0x20 DUP2 ADD SWAP1 POP SWAP2 SWAP1 POP JUMP JUMPDEST DUP3 DUP2 DUP4 CALLDATACOPY PUSH0 DUP4 DUP4 ADD MSTORE POP POP POP JUMP JUMPDEST PUSH0 PUSH2 0x65D PUSH2 0x658 DUP5 PUSH2 0x60D JUMP JUMPDEST PUSH2 0x5F3 JUMP JUMPDEST SWAP1 POP DUP3 DUP2 MSTORE PUSH1 0x20 DUP2 ADD DUP5 DUP5 DUP5 ADD GT ISZERO PUSH2 0x679 JUMPI PUSH2 0x678 PUSH2 0x581 JUMP JUMPDEST JUMPDEST PUSH2 0x684 DUP5 DUP3 DUP6 PUSH2 0x63D JUMP JUMPDEST POP SWAP4 SWAP3 POP POP POP JUMP JUMPDEST PUSH0 DUP3 PUSH1 0x1F DUP4 ADD SLT PUSH2 0x6A0 JUMPI PUSH2 0x69F PUSH2 0x57D JUMP JUMPDEST JUMPDEST DUP2 CALLDATALOAD PUSH2 0x6B0 DUP5 DUP3 PUSH1 0x20 DUP7 ADD PUSH2 0x64B JUMP JUMPDEST SWAP2 POP POP SWAP3 SWAP2 POP POP JUMP JUMPDEST PUSH0 PUSH1 0x20 DUP3 DUP5 SUB SLT ISZERO PUSH2 0x6CE JUMPI PUSH2 0x6CD PUSH2 0x481 JUMP JUMPDEST JUMPDEST PUSH0 DUP3 ADD CALLDATALOAD PUSH8 0xFFFFFFFFFFFFFFFF DUP2 GT ISZERO PUSH2 0x6EB JUMPI PUSH2 0x6EA PUSH2 0x485 JUMP JUMPDEST JUMPDEST PUSH2 0x6F7 DUP5 DUP3 DUP6 ADD PUSH2 0x68C JUMP JUMPDEST SWAP2 POP POP SWAP3 SWAP2 POP POP JUMP JUMPDEST PUSH2 0x709 DUP2 PUSH2 0x489 JUMP JUMPDEST DUP3 MSTORE POP POP JUMP JUMPDEST PUSH0 PUSH1 0x20 DUP3 ADD SWAP1 POP PUSH2 0x722 PUSH0 DUP4 ADD DUP5 PUSH2 0x700 JUMP JUMPDEST SWAP3 SWAP2 POP POP JUMP JUMPDEST PUSH0 DUP2 MLOAD SWAP1 POP SWAP2 SWAP1 POP JUMP JUMPDEST PUSH0 DUP3 DUP3 MSTORE PUSH1 0x20 DUP3 ADD SWAP1 POP SWAP3 SWAP2 POP POP JUMP JUMPDEST DUP3 DUP2 DUP4 MCOPY PUSH0 DUP4 DUP4 ADD MSTORE POP POP POP JUMP JUMPDEST PUSH0 PUSH2 0x75A DUP3 PUSH2 0x728 JUMP JUMPDEST PUSH2 0x764 DUP2 DUP6 PUSH2 0x732 JUMP JUMPDEST SWAP4 POP PUSH2 0x774 DUP2 DUP6 PUSH1 0x20 DUP7 ADD PUSH2 0x742 JUMP JUMPDEST PUSH2 0x77D DUP2 PUSH2 0x585 JUMP JUMPDEST DUP5 ADD SWAP2 POP POP SWAP3 SWAP2 POP POP JUMP JUMPDEST PUSH0 PUSH1 0x20 DUP3 ADD SWAP1 POP DUP2 DUP2 SUB PUSH0 DUP4 ADD MSTORE PUSH2 0x7A0 DUP2 DUP5 PUSH2 0x750 JUMP JUMPDEST SWAP1 POP SWAP3 SWAP2 POP POP JUMP JUMPDEST PUSH32 0x42756B616E2073747564656E7420416E64612100000000000000000000000000 PUSH0 DUP3 ADD MSTORE POP JUMP JUMPDEST PUSH0 PUSH2 0x7DC PUSH1 0x13 DUP4 PUSH2 0x732 JUMP JUMPDEST SWAP2 POP PUSH2 0x7E7 DUP3 PUSH2 0x7A8 JUMP JUMPDEST PUSH1 0x20 DUP3 ADD SWAP1 POP SWAP2 SWAP1 POP JUMP JUMPDEST PUSH0 PUSH1 0x20 DUP3 ADD SWAP1 POP DUP2 DUP2 SUB PUSH0 DUP4 ADD MSTORE PUSH2 0x809 DUP2 PUSH2 0x7D0 JUMP JUMPDEST SWAP1 POP SWAP2 SWAP1 POP JUMP JUMPDEST PUSH32 0x416D6F756E74206861727573206C656269682064617269203000000000000000 PUSH0 DUP3 ADD MSTORE POP JUMP JUMPDEST PUSH0 PUSH2 0x844 PUSH1 0x19 DUP4 PUSH2 0x732 JUMP JUMPDEST SWAP2 POP PUSH2 0x84F DUP3 PUSH2 0x810 JUMP JUMPDEST PUSH1 0x20 DUP3 ADD SWAP1 POP SWAP2 SWAP1 POP JUMP JUMPDEST PUSH0 PUSH1 0x20 DUP3 ADD SWAP1 POP DUP2 DUP2 SUB PUSH0 DUP4 ADD MSTORE PUSH2 0x871 DUP2 PUSH2 0x838 JUMP JUMPDEST SWAP1 POP SWAP2 SWAP1 POP JUMP JUMPDEST PUSH32 0x4E487B7100000000000000000000000000000000000000000000000000000000 PUSH0 MSTORE PUSH1 0x11 PUSH1 0x4 MSTORE PUSH1 0x24 PUSH0 REVERT JUMPDEST PUSH0 PUSH2 0x8AF DUP3 PUSH2 0x489 JUMP JUMPDEST SWAP2 POP PUSH2 0x8BA DUP4 PUSH2 0x489 JUMP JUMPDEST SWAP3 POP DUP3 DUP3 ADD SWAP1 POP DUP1 DUP3 GT ISZERO PUSH2 0x8D2 JUMPI PUSH2 0x8D1 PUSH2 0x878 JUMP JUMPDEST JUMPDEST SWAP3 SWAP2 POP POP JUMP JUMPDEST PUSH0 PUSH1 0x40 DUP3 ADD SWAP1 POP PUSH2 0x8EB PUSH0 DUP4 ADD DUP6 PUSH2 0x700 JUMP JUMPDEST PUSH2 0x8F8 PUSH1 0x20 DUP4 ADD DUP5 PUSH2 0x700 JUMP JUMPDEST SWAP4 SWAP3 POP POP POP JUMP JUMPDEST PUSH0 PUSH2 0x909 DUP3 PUSH2 0x489 JUMP JUMPDEST SWAP2 POP PUSH32 0xFFFFFFFFFFFFFFFFFFFFFFFFFFFFFFFFFFFFFFFFFFFFFFFFFFFFFFFFFFFFFFFF DUP3 SUB PUSH2 0x93B JUMPI PUSH2 0x93A PUSH2 0x878 JUMP JUMPDEST JUMPDEST PUSH1 0x1 DUP3 ADD SWAP1 POP SWAP2 SWAP1 POP JUMP JUMPDEST PUSH32 0x4E487B7100000000000000000000000000000000000000000000000000000000 PUSH0 MSTORE PUSH1 0x22 PUSH1 0x4 MSTORE PUSH1 0x24 PUSH0 REVERT JUMPDEST PUSH0 PUSH1 0x2 DUP3 DIV SWAP1 POP PUSH1 0x1 DUP3 AND DUP1 PUSH2 0x98A JUMPI PUSH1 0x7F DUP3 AND SWAP2 POP JUMPDEST PUSH1 0x20 DUP3 LT DUP2 SUB PUSH2 0x99D JUMPI PUSH2 0x99C PUSH2 0x946 JUMP JUMPDEST JUMPDEST POP SWAP2 SWAP1 POP JUMP JUMPDEST PUSH0 DUP2 SWAP1 POP DUP2 PUSH0 MSTORE PUSH1 0x20 PUSH0 KECCAK256 SWAP1 POP SWAP2 SWAP1 POP JUMP JUMPDEST PUSH0 PUSH1 0x20 PUSH1 0x1F DUP4 ADD DIV SWAP1 POP SWAP2 SWAP1 POP JUMP JUMPDEST PUSH0 DUP3 DUP3 SHL SWAP1 POP SWAP3 SWAP2 POP POP JUMP JUMPDEST PUSH0 PUSH1 0x8 DUP4 MUL PUSH2 0x9FF PUSH32 0xFFFFFFFFFFFFFFFFFFFFFFFFFFFFFFFFFFFFFFFFFFFFFFFFFFFFFFFFFFFFFFFF DUP3 PUSH2 0x9C4 JUMP JUMPDEST PUSH2 0xA09 DUP7 DUP4 PUSH2 0x9C4 JUMP JUMPDEST SWAP6 POP DUP1 NOT DUP5 AND SWAP4 POP DUP1 DUP7 AND DUP5 OR SWAP3 POP POP POP SWAP4 SWAP3 POP POP POP JUMP JUMPDEST PUSH0 DUP2 SWAP1 POP SWAP2 SWAP1 POP JUMP JUMPDEST PUSH0 PUSH2 0xA44 PUSH2 0xA3F PUSH2 0xA3A DUP5 PUSH2 0x489 JUMP JUMPDEST PUSH2 0xA21 JUMP JUMPDEST PUSH2 0x489 JUMP JUMPDEST SWAP1 POP SWAP2 SWAP1 POP JUMP JUMPDEST PUSH0 DUP2 SWAP1 POP SWAP2 SWAP1 POP JUMP JUMPDEST PUSH2 0xA5D DUP4 PUSH2 0xA2A JUMP JUMPDEST PUSH2 0xA71 PUSH2 0xA69 DUP3 PUSH2 0xA4B JUMP JUMPDEST DUP5 DUP5 SLOAD PUSH2 0x9D0 JUMP JUMPDEST DUP3 SSTORE POP POP POP POP JUMP JUMPDEST PUSH0 PUSH0 SWAP1 POP SWAP1 JUMP JUMPDEST PUSH2 0xA88 PUSH2 0xA79 JUMP JUMPDEST PUSH2 0xA93 DUP2 DUP5 DUP5 PUSH2 0xA54 JUMP JUMPDEST POP POP POP JUMP JUMPDEST JUMPDEST DUP2 DUP2 LT ISZERO PUSH2 0xAB6 JUMPI PUSH2 0xAAB PUSH0 DUP3 PUSH2 0xA80 JUMP JUMPDEST PUSH1 0x1 DUP2 ADD SWAP1 POP PUSH2 0xA99 JUMP JUMPDEST POP POP JUMP JUMPDEST PUSH1 0x1F DUP3 GT ISZERO PUSH2 0xAFB JUMPI PUSH2 0xACC DUP2 PUSH2 0x9A3 JUMP JUMPDEST PUSH2 0xAD5 DUP5 PUSH2 0x9B5 JUMP JUMPDEST DUP2 ADD PUSH1 0x20 DUP6 LT ISZERO PUSH2 0xAE4 JUMPI DUP2 SWAP1 POP JUMPDEST PUSH2 0xAF8 PUSH2 0xAF0 DUP6 PUSH2 0x9B5 JUMP JUMPDEST DUP4 ADD DUP3 PUSH2 0xA98 JUMP JUMPDEST POP POP JUMPDEST POP POP POP JUMP JUMPDEST PUSH0 DUP3 DUP3 SHR SWAP1 POP SWAP3 SWAP2 POP POP JUMP JUMPDEST PUSH0 PUSH2 0xB1B PUSH0 NOT DUP5 PUSH1 0x8 MUL PUSH2 0xB00 JUMP JUMPDEST NOT DUP1 DUP4 AND SWAP2 POP POP SWAP3 SWAP2 POP POP JUMP JUMPDEST PUSH0 PUSH2 0xB33 DUP4 DUP4 PUSH2 0xB0C JUMP JUMPDEST SWAP2 POP DUP3 PUSH1 0x2 MUL DUP3 OR SWAP1 POP SWAP3 SWAP2 POP POP JUMP JUMPDEST PUSH2 0xB4C DUP3 PUSH2 0x728 JUMP JUMPDEST PUSH8 0xFFFFFFFFFFFFFFFF DUP2 GT ISZERO PUSH2 0xB65 JUMPI PUSH2 0xB64 PUSH2 0x595 JUMP JUMPDEST JUMPDEST PUSH2 0xB6F DUP3 SLOAD PUSH2 0x973 JUMP JUMPDEST PUSH2 0xB7A DUP3 DUP3 DUP6 PUSH2 0xABA JUMP JUMPDEST PUSH0 PUSH1 0x20 SWAP1 POP PUSH1 0x1F DUP4 GT PUSH1 0x1 DUP2 EQ PUSH2 0xBAB JUMPI PUSH0 DUP5 ISZERO PUSH2 0xB99 JUMPI DUP3 DUP8 ADD MLOAD SWAP1 POP JUMPDEST PUSH2 0xBA3 DUP6 DUP3 PUSH2 0xB28 JUMP JUMPDEST DUP7 SSTORE POP PUSH2 0xC0A JUMP JUMPDEST PUSH1 0x1F NOT DUP5 AND PUSH2 0xBB9 DUP7 PUSH2 0x9A3 JUMP JUMPDEST PUSH0 JUMPDEST DUP3 DUP2 LT ISZERO PUSH2 0xBE0 JUMPI DUP5 DUP10 ADD MLOAD DUP3 SSTORE PUSH1 0x1 DUP3 ADD SWAP2 POP PUSH1 0x20 DUP6 ADD SWAP5 POP PUSH1 0x20 DUP2 ADD SWAP1 POP PUSH2 0xBBB JUMP JUMPDEST DUP7 DUP4 LT ISZERO PUSH2 0xBFD JUMPI DUP5 DUP10 ADD MLOAD PUSH2 0xBF9 PUSH1 0x1F DUP10 AND DUP3 PUSH2 0xB0C JUMP JUMPDEST DUP4 SSTORE POP JUMPDEST PUSH1 0x1 PUSH1 0x2 DUP9 MUL ADD DUP9 SSTORE POP POP POP JUMPDEST POP POP POP POP POP POP JUMP INVALID LOG2 PUSH5 0x6970667358 0x22 SLT KECCAK256 SWAP10 PUSH22 0x46592F76DE7D703F0C45172A27EA3D5570D819FA826 DUP10 DUP11 0x25 ADD 0xBF PUSH26 0xEDB64736F6C634300081F003300000000000000000000000000 "
		},
		"gasEstimates": {
			"creation": {
				"codeDepositCost": "628800",
				"executionCost": "662",
				"totalCost": "629462"
			},
			"external": {
				"addCredits(uint256,uint256)": "infinite",
				"registerStudent(string)": "infinite",
				"studentCounter()": "2513",
				"studentCredits(uint256)": "infinite",
				"studentName(uint256)": "infinite",
				"studentOwner(uint256)": "2826"
			}
		},
		"methodIdentifiers": {
			"addCredits(uint256,uint256)": "2e566ebd",
			"registerStudent(string)": "71e17445",
			"studentCounter()": "e3596cac",
			"studentCredits(uint256)": "9c823b40",
			"studentName(uint256)": "a031fc56",
			"studentOwner(uint256)": "3dcc1c75"
		}
	},
	"abi": [
		{
			"anonymous": false,
			"inputs": [
				{
					"indexed": true,
					"internalType": "uint256",
					"name": "studentId",
					"type": "uint256"
				},
				{
					"indexed": false,
					"internalType": "uint256",
					"name": "credits",
					"type": "uint256"
				},
				{
					"indexed": false,
					"internalType": "uint256",
					"name": "totalCredits",
					"type": "uint256"
				}
			],
			"name": "CreditsAdded",
			"type": "event"
		},
		{
			"anonymous": false,
			"inputs": [
				{
					"indexed": true,
					"internalType": "address",
					"name": "owner",
					"type": "address"
				},
				{
					"indexed": true,
					"internalType": "uint256",
					"name": "studentId",
					"type": "uint256"
				},
				{
					"indexed": false,
					"internalType": "string",
					"name": "name",
					"type": "string"
				}
			],
			"name": "StudentRegistered",
			"type": "event"
		},
		{
			"inputs": [
				{
					"internalType": "uint256",
					"name": "_id",
					"type": "uint256"
				},
				{
					"internalType": "uint256",
					"name": "_amount",
					"type": "uint256"
				}
			],
			"name": "addCredits",
			"outputs": [],
			"stateMutability": "nonpayable",
			"type": "function"
		},
		{
			"inputs": [
				{
					"internalType": "string",
					"name": "_name",
					"type": "string"
				}
			],
			"name": "registerStudent",
			"outputs": [],
			"stateMutability": "nonpayable",
			"type": "function"
		},
		{
			"inputs": [],
			"name": "studentCounter",
			"outputs": [
				{
					"internalType": "uint256",
					"name": "",
					"type": "uint256"
				}
			],
			"stateMutability": "view",
			"type": "function"
		},
		{
			"inputs": [
				{
					"internalType": "uint256",
					"name": "",
					"type": "uint256"
				}
			],
			"name": "studentCredits",
			"outputs": [
				{
					"internalType": "uint256",
					"name": "",
					"type": "uint256"
				}
			],
			"stateMutability": "view",
			"type": "function"
		},
		{
			"inputs": [
				{
					"internalType": "uint256",
					"name": "",
					"type": "uint256"
				}
			],
			"name": "studentName",
			"outputs": [
				{
					"internalType": "string",
					"name": "",
					"type": "string"
				}
			],
			"stateMutability": "view",
			"type": "function"
		},
		{
			"inputs": [
				{
					"internalType": "uint256",
					"name": "",
					"type": "uint256"
				}
			],
			"name": "studentOwner",
			"outputs": [
				{
					"internalType": "address",
					"name": "",
					"type": "address"
				}
			],
			"stateMutability": "view",
			"type": "function"
		}
	]
}